{"contracts/mint_tea_ERC721.sol":{"MTEA":{"abi":[{"inputs":[{"internalType":"address","name":"registry","type":"address"}],"stateMutability":"nonpayable","type":"constructor"},{"anonymous":false,"inputs":[{"indexed":true,"internalType":"address","name":"owner","type":"address"},{"indexed":true,"internalType":"address","name":"approved","type":"address"},{"indexed":true,"internalType":"uint256","name":"tokenId","type":"uint256"}],"name":"Approval","type":"event"},{"anonymous":false,"inputs":[{"indexed":true,"internalType":"address","name":"owner","type":"address"},{"indexed":true,"internalType":"address","name":"operator","type":"address"},{"indexed":false,"internalType":"bool","name":"approved","type":"bool"}],"name":"ApprovalForAll","type":"event"},{"anonymous":false,"inputs":[{"indexed":true,"internalType":"address","name":"from","type":"address"},{"indexed":false,"internalType":"uint256","name":"timestamp","type":"uint256"},{"indexed":false,"internalType":"uint256","name":"tokenId","type":"uint256"}],"name":"NewNftMinted","type":"event"},{"anonymous":false,"inputs":[{"indexed":true,"internalType":"bytes32","name":"role","type":"bytes32"},{"indexed":true,"internalType":"bytes32","name":"previousAdminRole","type":"bytes32"},{"indexed":true,"internalType":"bytes32","name":"newAdminRole","type":"bytes32"}],"name":"RoleAdminChanged","type":"event"},{"anonymous":false,"inputs":[{"indexed":true,"internalType":"bytes32","name":"role","type":"bytes32"},{"indexed":true,"internalType":"address","name":"account","type":"address"},{"indexed":true,"internalType":"address","name":"sender","type":"address"}],"name":"RoleGranted","type":"event"},{"anonymous":false,"inputs":[{"indexed":true,"internalType":"bytes32","name":"role","type":"bytes32"},{"indexed":true,"internalType":"address","name":"account","type":"address"},{"indexed":true,"internalType":"address","name":"sender","type":"address"}],"name":"RoleRevoked","type":"event"},{"anonymous":false,"inputs":[{"indexed":true,"internalType":"address","name":"from","type":"address"},{"indexed":true,"internalType":"address","name":"to","type":"address"},{"indexed":true,"internalType":"uint256","name":"tokenId","type":"uint256"}],"name":"Transfer","type":"event"},{"anonymous":false,"inputs":[{"indexed":true,"internalType":"address","name":"from","type":"address"},{"indexed":false,"internalType":"uint256","name":"timestamp","type":"uint256"},{"indexed":false,"internalType":"uint256","name":"tokenId","type":"uint256"},{"indexed":false,"internalType":"uint256","name":"_trait_id","type":"uint256"}],"name":"newAttributeAdded","type":"event"},{"anonymous":false,"inputs":[{"indexed":true,"internalType":"address","name":"from","type":"address"},{"indexed":false,"internalType":"uint256","name":"timestamp","type":"uint256"},{"indexed":false,"internalType":"uint256","name":"_attributesTableId","type":"uint256"},{"indexed":false,"internalType":"string","name":"_display_type","type":"string"},{"indexed":false,"internalType":"uint256","name":"tokenId","type":"uint256"},{"indexed":false,"internalType":"uint256","name":"_trait_id","type":"uint256"}],"name":"traitDisplayTypeUpdated","type":"event"},{"anonymous":false,"inputs":[{"indexed":true,"internalType":"address","name":"from","type":"address"},{"indexed":false,"internalType":"uint256","name":"timestamp","type":"uint256"},{"indexed":false,"internalType":"uint256","name":"_attributesTableId","type":"uint256"},{"indexed":false,"internalType":"string","name":"_icon","type":"string"},{"indexed":false,"internalType":"uint256","name":"tokenId","type":"uint256"},{"indexed":false,"internalType":"uint256","name":"_trait_id","type":"uint256"}],"name":"traitIconUpdated","type":"event"},{"anonymous":false,"inputs":[{"indexed":true,"internalType":"address","name":"from","type":"address"},{"indexed":false,"internalType":"uint256","name":"timestamp","type":"uint256"},{"indexed":false,"internalType":"uint256","name":"_attributesTableId","type":"uint256"},{"indexed":false,"internalType":"string","name":"_trait_type","type":"string"},{"indexed":false,"internalType":"uint256","name":"tokenId","type":"uint256"},{"indexed":false,"internalType":"uint256","name":"_trait_id","type":"uint256"}],"name":"traitTypeUpdated","type":"event"},{"anonymous":false,"inputs":[{"indexed":true,"internalType":"address","name":"from","type":"address"},{"indexed":false,"internalType":"uint256","name":"timestamp","type":"uint256"},{"indexed":false,"internalType":"uint256","name":"_attributesTableId","type":"uint256"},{"indexed":false,"internalType":"string","name":"_value","type":"string"},{"indexed":false,"internalType":"uint256","name":"tokenId","type":"uint256"},{"indexed":false,"internalType":"uint256","name":"_trait_id","type":"uint256"}],"name":"valueUpdated","type":"event"},{"inputs":[],"name":"DEFAULT_ADMIN_ROLE","outputs":[{"internalType":"bytes32","name":"","type":"bytes32"}],"stateMutability":"view","type":"function"},{"inputs":[{"internalType":"uint256","name":"_tokenId","type":"uint256"},{"internalType":"string","name":"_icon","type":"string"},{"internalType":"string","name":"_display_type","type":"string"},{"internalType":"string","name":"_trait_type","type":"string"},{"internalType":"string","name":"_value","type":"string"}],"name":"add_new_attribute","outputs":[{"internalType":"uint256","name":"","type":"uint256"}],"stateMutability":"nonpayable","type":"function"},{"inputs":[{"internalType":"address","name":"to","type":"address"},{"internalType":"uint256","name":"tokenId","type":"uint256"}],"name":"approve","outputs":[],"stateMutability":"nonpayable","type":"function"},{"inputs":[],"name":"attributesTable","outputs":[{"internalType":"string","name":"","type":"string"}],"stateMutability":"view","type":"function"},{"inputs":[],"name":"attributes_metadataURI","outputs":[{"internalType":"string","name":"","type":"string"}],"stateMutability":"view","type":"function"},{"inputs":[{"internalType":"address","name":"owner","type":"address"}],"name":"balanceOf","outputs":[{"internalType":"uint256","name":"","type":"uint256"}],"stateMutability":"view","type":"function"},{"inputs":[{"internalType":"uint256","name":"tokenId","type":"uint256"}],"name":"getApproved","outputs":[{"internalType":"address","name":"","type":"address"}],"stateMutability":"view","type":"function"},{"inputs":[{"internalType":"bytes32","name":"role","type":"bytes32"}],"name":"getRoleAdmin","outputs":[{"internalType":"bytes32","name":"","type":"bytes32"}],"stateMutability":"view","type":"function"},{"inputs":[{"internalType":"bytes32","name":"role","type":"bytes32"},{"internalType":"address","name":"account","type":"address"}],"name":"grantRole","outputs":[],"stateMutability":"nonpayable","type":"function"},{"inputs":[{"internalType":"bytes32","name":"role","type":"bytes32"},{"internalType":"address","name":"account","type":"address"}],"name":"hasRole","outputs":[{"internalType":"bool","name":"","type":"bool"}],"stateMutability":"view","type":"function"},{"inputs":[{"internalType":"address","name":"owner","type":"address"},{"internalType":"address","name":"operator","type":"address"}],"name":"isApprovedForAll","outputs":[{"internalType":"bool","name":"","type":"bool"}],"stateMutability":"view","type":"function"},{"inputs":[],"name":"mainTable","outputs":[{"internalType":"string","name":"","type":"string"}],"stateMutability":"view","type":"function"},{"inputs":[],"name":"main_metadataURI","outputs":[{"internalType":"string","name":"","type":"string"}],"stateMutability":"view","type":"function"},{"inputs":[],"name":"name","outputs":[{"internalType":"string","name":"","type":"string"}],"stateMutability":"view","type":"function"},{"inputs":[{"internalType":"uint256","name":"tokenId","type":"uint256"}],"name":"ownerOf","outputs":[{"internalType":"address","name":"","type":"address"}],"stateMutability":"view","type":"function"},{"inputs":[{"internalType":"bytes32","name":"role","type":"bytes32"},{"internalType":"address","name":"account","type":"address"}],"name":"renounceRole","outputs":[],"stateMutability":"nonpayable","type":"function"},{"inputs":[{"internalType":"bytes32","name":"role","type":"bytes32"},{"internalType":"address","name":"account","type":"address"}],"name":"revokeRole","outputs":[],"stateMutability":"nonpayable","type":"function"},{"inputs":[{"internalType":"address","name":"to","type":"address"},{"internalType":"string","name":"_name","type":"string"},{"internalType":"string","name":"_description","type":"string"},{"internalType":"string","name":"_image_url","type":"string"},{"internalType":"string","name":"_external_url","type":"string"},{"internalType":"string","name":"_icon","type":"string"},{"internalType":"string","name":"_display_type","type":"string"},{"internalType":"string","name":"_trait_type","type":"string"},{"internalType":"string","name":"_value","type":"string"}],"name":"safeMint","outputs":[{"internalType":"uint256","name":"","type":"uint256"}],"stateMutability":"nonpayable","type":"function"},{"inputs":[{"internalType":"address","name":"from","type":"address"},{"internalType":"address","name":"to","type":"address"},{"internalType":"uint256","name":"tokenId","type":"uint256"}],"name":"safeTransferFrom","outputs":[],"stateMutability":"nonpayable","type":"function"},{"inputs":[{"internalType":"address","name":"from","type":"address"},{"internalType":"address","name":"to","type":"address"},{"internalType":"uint256","name":"tokenId","type":"uint256"},{"internalType":"bytes","name":"data","type":"bytes"}],"name":"safeTransferFrom","outputs":[],"stateMutability":"nonpayable","type":"function"},{"inputs":[{"internalType":"address","name":"operator","type":"address"},{"internalType":"bool","name":"approved","type":"bool"}],"name":"setApprovalForAll","outputs":[],"stateMutability":"nonpayable","type":"function"},{"inputs":[{"internalType":"string","name":"baseURI","type":"string"}],"name":"setBaseURI","outputs":[],"stateMutability":"nonpayable","type":"function"},{"inputs":[{"internalType":"bytes4","name":"interfaceId","type":"bytes4"}],"name":"supportsInterface","outputs":[{"internalType":"bool","name":"","type":"bool"}],"stateMutability":"view","type":"function"},{"inputs":[],"name":"symbol","outputs":[{"internalType":"string","name":"","type":"string"}],"stateMutability":"view","type":"function"},{"inputs":[{"internalType":"uint256","name":"_tokenId","type":"uint256"}],"name":"tokenURI","outputs":[{"internalType":"string","name":"","type":"string"}],"stateMutability":"view","type":"function"},{"inputs":[{"internalType":"address","name":"from","type":"address"},{"internalType":"address","name":"to","type":"address"},{"internalType":"uint256","name":"tokenId","type":"uint256"}],"name":"transferFrom","outputs":[],"stateMutability":"nonpayable","type":"function"},{"inputs":[{"internalType":"uint256","name":"tokenId","type":"uint256"},{"internalType":"uint256","name":"_trait_id","type":"uint256"},{"internalType":"string","name":"_display_type","type":"string"}],"name":"update_display_type","outputs":[],"stateMutability":"nonpayable","type":"function"},{"inputs":[{"internalType":"uint256","name":"tokenId","type":"uint256"},{"internalType":"uint256","name":"_trait_id","type":"uint256"},{"internalType":"string","name":"_icon","type":"string"}],"name":"update_icon","outputs":[],"stateMutability":"nonpayable","type":"function"},{"inputs":[{"internalType":"uint256","name":"tokenId","type":"uint256"},{"internalType":"uint256","name":"_trait_id","type":"uint256"},{"internalType":"string","name":"_trait_type","type":"string"}],"name":"update_trait_type","outputs":[],"stateMutability":"nonpayable","type":"function"},{"inputs":[{"internalType":"uint256","name":"tokenId","type":"uint256"},{"internalType":"uint256","name":"_trait_id","type":"uint256"},{"internalType":"string","name":"_value","type":"string"}],"name":"update_value","outputs":[],"stateMutability":"nonpayable","type":"function"}],"evm":{"bytecode":{"linkReferences":{},"object":"6080604052604051806060016040528060288152602001620066c460289139600790805190602001906200003592919062000731565b506040518060400160405280600881526020017f4d696e745f544541000000000000000000000000000000000000000000000000815250600c90805190602001906200008392919062000731565b503480156200009157600080fd5b50604051620066ec380380620066ec8339818101604052810190620000b791906200084b565b6040518060400160405280600881526020017f4d696e74205465610000000000000000000000000000000000000000000000008152506040518060400160405280600481526020017f6d4e46540000000000000000000000000000000000000000000000000000000081525081600090805190602001906200013b92919062000731565b5080600190805190602001906200015492919062000731565b5050506200016c6000801b336200045260201b60201c565b80600960006101000a81548173ffffffffffffffffffffffffffffffffffffffff021916908373ffffffffffffffffffffffffffffffffffffffff160217905550600960009054906101000a900473ffffffffffffffffffffffffffffffffffffffff1673ffffffffffffffffffffffffffffffffffffffff16633a9151b030600c62000204466200054460201b62001dc61760201c565b6040516020016200021792919062000aed565b6040516020818303038152906040526040518363ffffffff1660e01b81526004016200024592919062000bb8565b6020604051808303816000875af115801562000265573d6000803e3d6000fd5b505050506040513d601f19601f820116820180604052508101906200028b919062000c27565b600a81905550600c620002a9466200054460201b62001dc61760201c565b620002c1600a546200054460201b62001dc61760201c565b604051602001620002d59392919062000c59565b604051602081830303815290604052600d9080519060200190620002fb92919062000731565b50600960009054906101000a900473ffffffffffffffffffffffffffffffffffffffff1673ffffffffffffffffffffffffffffffffffffffff16633a9151b030600c62000353466200054460201b62001dc61760201c565b6040516020016200036692919062000d74565b6040516020818303038152906040526040518363ffffffff1660e01b81526004016200039492919062000bb8565b6020604051808303816000875af1158015620003b4573d6000803e3d6000fd5b505050506040513d601f19601f82011682018060405250810190620003da919062000c27565b600b81905550600c620003f8466200054460201b62001dc61760201c565b62000410600b546200054460201b62001dc61760201c565b604051602001620004249392919062000c59565b604051602081830303815290604052600e90805190602001906200044a92919062000731565b505062000fdd565b620004648282620006be60201b60201c565b620005405760016006600084815260200190815260200160002060000160008373ffffffffffffffffffffffffffffffffffffffff1673ffffffffffffffffffffffffffffffffffffffff16815260200190815260200160002060006101000a81548160ff021916908315150217905550620004e56200072960201b60201c565b73ffffffffffffffffffffffffffffffffffffffff168173ffffffffffffffffffffffffffffffffffffffff16837f2f8788117e7eff1d82e926ec794901d17c78024a50270940304540a733656f0d60405160405180910390a45b5050565b606060008214156200058e576040518060400160405280600181526020017f30000000000000000000000000000000000000000000000000000000000000008152509050620006b9565b600082905060005b60008214620005c6578080620005ac9062000dfa565b915050600a82620005be919062000e77565b915062000596565b60008167ffffffffffffffff811115620005e557620005e462000eaf565b5b6040519080825280601f01601f191660200182016040528015620006185781602001600182028036833780820191505090505b5090505b60008514620006b25760018262000634919062000ede565b9150600a8562000645919062000f19565b603062000653919062000f51565b60f81b8183815181106200066c576200066b62000fae565b5b60200101907effffffffffffffffffffffffffffffffffffffffffffffffffffffffffffff1916908160001a905350600a85620006aa919062000e77565b94506200061c565b8093505050505b919050565b60006006600084815260200190815260200160002060000160008373ffffffffffffffffffffffffffffffffffffffff1673ffffffffffffffffffffffffffffffffffffffff16815260200190815260200160002060009054906101000a900460ff16905092915050565b600033905090565b8280546200073f90620008d2565b90600052602060002090601f016020900481019282620007635760008555620007af565b82601f106200077e57805160ff1916838001178555620007af565b82800160010185558215620007af579182015b82811115620007ae57825182559160200191906001019062000791565b5b509050620007be9190620007c2565b5090565b5b80821115620007dd576000816000905550600101620007c3565b5090565b600080fd5b600073ffffffffffffffffffffffffffffffffffffffff82169050919050565b60006200081382620007e6565b9050919050565b620008258162000806565b81146200083157600080fd5b50565b60008151905062000845816200081a565b92915050565b600060208284031215620008645762000863620007e1565b5b6000620008748482850162000834565b91505092915050565b7f435245415445205441424c452000000000000000000000000000000000000000815250565b7f4e487b7100000000000000000000000000000000000000000000000000000000600052602260045260246000fd5b60006002820490506001821680620008eb57607f821691505b60208210811415620009025762000901620008a3565b5b50919050565b600081905092915050565b60008190508160005260206000209050919050565b600081546200093781620008d2565b62000943818662000908565b945060018216600081146200096157600181146200097357620009aa565b60ff19831686528186019350620009aa565b6200097e8562000913565b60005b83811015620009a25781548189015260018201915060208101905062000981565b838801955050505b50505092915050565b7f5f00000000000000000000000000000000000000000000000000000000000000815250565b600081519050919050565b60005b8381101562000a04578082015181840152602081019050620009e7565b8381111562000a14576000848401525b50505050565b600062000a2782620009d9565b62000a33818562000908565b935062000a45818560208601620009e4565b80840191505092915050565b7f2028746f6b656e696420696e742c206e616d6520746578742c2064657363726960008201527f7074696f6e20746578742c20696d61676520746578742c2065787465726e616c60208201527f5f75726c2074657874293b000000000000000000000000000000000000000000604082015250565b600062000ad5604b8362000908565b915062000ae28262000a51565b604b82019050919050565b600062000afa826200087d565b600d8201915062000b0c828562000928565b915062000b1982620009b3565b60018201915062000b2b828462000a1a565b915062000b388262000ac6565b91508190509392505050565b62000b4f8162000806565b82525050565b600082825260208201905092915050565b6000601f19601f8301169050919050565b600062000b8482620009d9565b62000b90818562000b55565b935062000ba2818560208601620009e4565b62000bad8162000b66565b840191505092915050565b600060408201905062000bcf600083018562000b44565b818103602083015262000be3818462000b77565b90509392505050565b6000819050919050565b62000c018162000bec565b811462000c0d57600080fd5b50565b60008151905062000c218162000bf6565b92915050565b60006020828403121562000c405762000c3f620007e1565b5b600062000c508482850162000c10565b91505092915050565b600062000c67828662000928565b915062000c7482620009b3565b60018201915062000c86828562000a1a565b915062000c9382620009b3565b60018201915062000ca5828462000a1a565b9150819050949350505050565b7f20286d61696e7461626c655f746f6b656e696420696e742c2069636f6e20746560008201527f78742c20646973706c61795f7479706520746578742c2074726169745f74797060208201527f6520746578742c2076616c756520746578742c2074726169745f696420696e7460408201527f293b000000000000000000000000000000000000000000000000000000000000606082015250565b600062000d5c60628362000908565b915062000d698262000cb2565b606282019050919050565b600062000d81826200087d565b600d8201915062000d93828562000928565b915062000da082620009b3565b60018201915062000db2828462000a1a565b915062000dbf8262000d4d565b91508190509392505050565b7f4e487b7100000000000000000000000000000000000000000000000000000000600052601160045260246000fd5b600062000e078262000bec565b91507fffffffffffffffffffffffffffffffffffffffffffffffffffffffffffffffff82141562000e3d5762000e3c62000dcb565b5b600182019050919050565b7f4e487b7100000000000000000000000000000000000000000000000000000000600052601260045260246000fd5b600062000e848262000bec565b915062000e918362000bec565b92508262000ea45762000ea362000e48565b5b828204905092915050565b7f4e487b7100000000000000000000000000000000000000000000000000000000600052604160045260246000fd5b600062000eeb8262000bec565b915062000ef88362000bec565b92508282101562000f0e5762000f0d62000dcb565b5b828203905092915050565b600062000f268262000bec565b915062000f338362000bec565b92508262000f465762000f4562000e48565b5b828206905092915050565b600062000f5e8262000bec565b915062000f6b8362000bec565b9250827fffffffffffffffffffffffffffffffffffffffffffffffffffffffffffffffff0382111562000fa35762000fa262000dcb565b5b828201905092915050565b7f4e487b7100000000000000000000000000000000000000000000000000000000600052603260045260246000fd5b6156d78062000fed6000396000f3fe608060405234801561001057600080fd5b50600436106101da5760003560e01c80636352211e11610104578063a217fddf116100a2578063c87b56dd11610071578063c87b56dd14610565578063d547741f14610595578063e985e9c5146105b1578063f15daa02146105e1576101da565b8063a217fddf146104f1578063a22cb4651461050f578063a8e62f091461052b578063b88d4fde14610549576101da565b80638586b42f116100de5780638586b42f1461044357806391d148541461047357806395d89b41146104a3578063a1ced596146104c1576101da565b80636352211e146103c557806370a08231146103f55780637bc53be914610425576101da565b8063248a9ca31161017c57806342842e0e1161014b57806342842e0e1461035357806355f804b31461036f5780635d21260a1461038b57806360af4275146103a9576101da565b8063248a9ca3146102cf5780632f2ff15d146102ff578063313e91cb1461031b57806336568abe14610337576101da565b8063081812fc116101b8578063081812fc14610249578063091a77e714610279578063095ea7b31461029757806323b872dd146102b3576101da565b806301637608146101df57806301ffc9a7146101fb57806306fdde031461022b575b600080fd5b6101f960048036038101906101f491906132cb565b6105fd565b005b61021560048036038101906102109190613392565b61086c565b60405161022291906133da565b60405180910390f35b61023361087e565b604051610240919061347d565b60405180910390f35b610263600480360381019061025e919061349f565b610910565b604051610270919061350d565b60405180910390f35b610281610956565b60405161028e919061347d565b60405180910390f35b6102b160048036038101906102ac9190613554565b61098d565b005b6102cd60048036038101906102c89190613594565b610aa5565b005b6102e960048036038101906102e4919061361d565b610b05565b6040516102f69190613659565b60405180910390f35b61031960048036038101906103149190613674565b610b25565b005b610335600480360381019061033091906132cb565b610b46565b005b610351600480360381019061034c9190613674565b610db5565b005b61036d60048036038101906103689190613594565b610e38565b005b610389600480360381019061038491906136b4565b610e58565b005b610393610e80565b6040516103a0919061347d565b60405180910390f35b6103c360048036038101906103be91906132cb565b610f0e565b005b6103df60048036038101906103da919061349f565b61117d565b6040516103ec919061350d565b60405180910390f35b61040f600480360381019061040a91906136fd565b61122f565b60405161041c9190613739565b60405180910390f35b61042d6112e7565b60405161043a919061347d565b60405180910390f35b61045d60048036038101906104589190613754565b611375565b60405161046a9190613739565b60405180910390f35b61048d60048036038101906104889190613674565b61159c565b60405161049a91906133da565b60405180910390f35b6104ab611607565b6040516104b8919061347d565b60405180910390f35b6104db60048036038101906104d691906138fe565b611699565b6040516104e89190613739565b60405180910390f35b6104f9611910565b6040516105069190613659565b60405180910390f35b61052960048036038101906105249190613a15565b611917565b005b61053361192d565b604051610540919061347d565b60405180910390f35b610563600480360381019061055e9190613af6565b611964565b005b61057f600480360381019061057a919061349f565b6119c6565b60405161058c919061347d565b60405180910390f35b6105af60048036038101906105aa9190613674565b611aa2565b005b6105cb60048036038101906105c69190613b79565b611ac3565b6040516105d891906133da565b60405180910390f35b6105fb60048036038101906105f691906132cb565b611b57565b005b3373ffffffffffffffffffffffffffffffffffffffff163073ffffffffffffffffffffffffffffffffffffffff16636352211e856040518263ffffffff1660e01b815260040161064d9190613739565b602060405180830381865afa15801561066a573d6000803e3d6000fd5b505050506040513d601f19601f8201168201806040525081019061068e9190613bce565b73ffffffffffffffffffffffffffffffffffffffff16146106e4576040517f08c379a00000000000000000000000000000000000000000000000000000000081526004016106db90613c47565b60405180910390fd5b81600f600085815260200190815260200160002054101580156107075750600082115b610746576040517f08c379a000000000000000000000000000000000000000000000000000000000815260040161073d90613cb3565b60405180910390fd5b600960009054906101000a900473ffffffffffffffffffffffffffffffffffffffff1673ffffffffffffffffffffffffffffffffffffffff1663eaf5d04e30600b54600e8561079489611dc6565b61079d89611dc6565b6040516020016107b09493929190613ec2565b6040516020818303038152906040526040518463ffffffff1660e01b81526004016107dd93929190613f4b565b600060405180830381600087803b1580156107f757600080fd5b505af115801561080b573d6000803e3d6000fd5b505050503373ffffffffffffffffffffffffffffffffffffffff167fbc3fdc5c3d813c4a99d9005e48663baa4f6a682afd7bb19427443c53942909c542600b5484878760405161085f959493929190613f89565b60405180910390a2505050565b600061087782611f27565b9050919050565b60606000805461088d90613d28565b80601f01602080910402602001604051908101604052809291908181526020018280546108b990613d28565b80156109065780601f106108db57610100808354040283529160200191610906565b820191906000526020600020905b8154815290600101906020018083116108e957829003601f168201915b5050505050905090565b600061091b82611fa1565b6004600083815260200190815260200160002060009054906101000a900473ffffffffffffffffffffffffffffffffffffffff169050919050565b60606000610962611fec565b905080600e60405160200161097892919061402f565b60405160208183030381529060405291505090565b60006109988261117d565b90508073ffffffffffffffffffffffffffffffffffffffff168373ffffffffffffffffffffffffffffffffffffffff161415610a09576040517f08c379a0000000000000000000000000000000000000000000000000000000008152600401610a00906140e3565b60405180910390fd5b8073ffffffffffffffffffffffffffffffffffffffff16610a2861207e565b73ffffffffffffffffffffffffffffffffffffffff161480610a575750610a5681610a5161207e565b611ac3565b5b610a96576040517f08c379a0000000000000000000000000000000000000000000000000000000008152600401610a8d90614175565b60405180910390fd5b610aa08383612086565b505050565b610ab6610ab061207e565b8261213f565b610af5576040517f08c379a0000000000000000000000000000000000000000000000000000000008152600401610aec90614207565b60405180910390fd5b610b008383836121d4565b505050565b600060066000838152602001908152602001600020600101549050919050565b610b2e82610b05565b610b378161243b565b610b41838361244f565b505050565b3373ffffffffffffffffffffffffffffffffffffffff163073ffffffffffffffffffffffffffffffffffffffff16636352211e856040518263ffffffff1660e01b8152600401610b969190613739565b602060405180830381865afa158015610bb3573d6000803e3d6000fd5b505050506040513d601f19601f82011682018060405250810190610bd79190613bce565b73ffffffffffffffffffffffffffffffffffffffff1614610c2d576040517f08c379a0000000000000000000000000000000000000000000000000000000008152600401610c2490613c47565b60405180910390fd5b81600f60008581526020019081526020016000205410158015610c505750600082115b610c8f576040517f08c379a0000000000000000000000000000000000000000000000000000000008152600401610c8690613cb3565b60405180910390fd5b600960009054906101000a900473ffffffffffffffffffffffffffffffffffffffff1673ffffffffffffffffffffffffffffffffffffffff1663eaf5d04e30600b54600e85610cdd89611dc6565b610ce689611dc6565b604051602001610cf9949392919061424d565b6040516020818303038152906040526040518463ffffffff1660e01b8152600401610d2693929190613f4b565b600060405180830381600087803b158015610d4057600080fd5b505af1158015610d54573d6000803e3d6000fd5b505050503373ffffffffffffffffffffffffffffffffffffffff167fec0f0d67678a9d5a686ab06fa92fadb72e148b9ebdead00eb6601b6a1fd07c8f42600b54848787604051610da8959493929190613f89565b60405180910390a2505050565b610dbd61207e565b73ffffffffffffffffffffffffffffffffffffffff168173ffffffffffffffffffffffffffffffffffffffff1614610e2a576040517f08c379a0000000000000000000000000000000000000000000000000000000008152600401610e2190614348565b60405180910390fd5b610e348282612530565b5050565b610e5383838360405180602001604052806000815250611964565b505050565b6000801b610e658161243b565b8160079080519060200190610e7b929190613098565b505050565b600d8054610e8d90613d28565b80601f0160208091040260200160405190810160405280929190818152602001828054610eb990613d28565b8015610f065780601f10610edb57610100808354040283529160200191610f06565b820191906000526020600020905b815481529060010190602001808311610ee957829003601f168201915b505050505081565b3373ffffffffffffffffffffffffffffffffffffffff163073ffffffffffffffffffffffffffffffffffffffff16636352211e856040518263ffffffff1660e01b8152600401610f5e9190613739565b602060405180830381865afa158015610f7b573d6000803e3d6000fd5b505050506040513d601f19601f82011682018060405250810190610f9f9190613bce565b73ffffffffffffffffffffffffffffffffffffffff1614610ff5576040517f08c379a0000000000000000000000000000000000000000000000000000000008152600401610fec90613c47565b60405180910390fd5b81600f600085815260200190815260200160002054101580156110185750600082115b611057576040517f08c379a000000000000000000000000000000000000000000000000000000000815260040161104e90613cb3565b60405180910390fd5b600960009054906101000a900473ffffffffffffffffffffffffffffffffffffffff1673ffffffffffffffffffffffffffffffffffffffff1663eaf5d04e30600b54600e856110a589611dc6565b6110ae89611dc6565b6040516020016110c1949392919061438e565b6040516020818303038152906040526040518463ffffffff1660e01b81526004016110ee93929190613f4b565b600060405180830381600087803b15801561110857600080fd5b505af115801561111c573d6000803e3d6000fd5b505050503373ffffffffffffffffffffffffffffffffffffffff167f280bb8c24c5b69393733b8cf1779ec264023540e75149b5024de5ea55a41736e42600b54848787604051611170959493929190613f89565b60405180910390a2505050565b6000806002600084815260200190815260200160002060009054906101000a900473ffffffffffffffffffffffffffffffffffffffff169050600073ffffffffffffffffffffffffffffffffffffffff168173ffffffffffffffffffffffffffffffffffffffff161415611226576040517f08c379a000000000000000000000000000000000000000000000000000000000815260040161121d90614463565b60405180910390fd5b80915050919050565b60008073ffffffffffffffffffffffffffffffffffffffff168273ffffffffffffffffffffffffffffffffffffffff1614156112a0576040517f08c379a0000000000000000000000000000000000000000000000000000000008152600401611297906144f5565b60405180910390fd5b600360008373ffffffffffffffffffffffffffffffffffffffff1673ffffffffffffffffffffffffffffffffffffffff168152602001908152602001600020549050919050565b600e80546112f490613d28565b80601f016020809104026020016040519081016040528092919081815260200182805461132090613d28565b801561136d5780601f106113425761010080835404028352916020019161136d565b820191906000526020600020905b81548152906001019060200180831161135057829003601f168201915b505050505081565b6000806113826008612612565b9050600960009054906101000a900473ffffffffffffffffffffffffffffffffffffffff1673ffffffffffffffffffffffffffffffffffffffff1663eaf5d04e30600a54600d6113d186611dc6565b8f8f8f8f6040516020016113ea969594939291906145f9565b6040516020818303038152906040526040518463ffffffff1660e01b815260040161141793929190613f4b565b600060405180830381600087803b15801561143157600080fd5b505af1158015611445573d6000803e3d6000fd5b50505050600960009054906101000a900473ffffffffffffffffffffffffffffffffffffffff1673ffffffffffffffffffffffffffffffffffffffff1663eaf5d04e30600b54600e61149686611dc6565b8b8b8b8b6040516020016114af96959493929190614774565b6040516020818303038152906040526040518463ffffffff1660e01b81526004016114dc93929190613f4b565b600060405180830381600087803b1580156114f657600080fd5b505af115801561150a573d6000803e3d6000fd5b505050506115188b82612620565b6001600f60008381526020019081526020016000208190555061153b600861263e565b3373ffffffffffffffffffffffffffffffffffffffff167f061b141191d79859f7cc6256c1b9e5f380052197831efe9135841c0ff4de7e63428360405161158392919061484f565b60405180910390a2809150509998505050505050505050565b60006006600084815260200190815260200160002060000160008373ffffffffffffffffffffffffffffffffffffffff1673ffffffffffffffffffffffffffffffffffffffff16815260200190815260200160002060009054906101000a900460ff16905092915050565b60606001805461161690613d28565b80601f016020809104026020016040519081016040528092919081815260200182805461164290613d28565b801561168f5780601f106116645761010080835404028352916020019161168f565b820191906000526020600020905b81548152906001019060200180831161167257829003601f168201915b5050505050905090565b60003373ffffffffffffffffffffffffffffffffffffffff163073ffffffffffffffffffffffffffffffffffffffff16636352211e886040518263ffffffff1660e01b81526004016116eb9190613739565b602060405180830381865afa158015611708573d6000803e3d6000fd5b505050506040513d601f19601f8201168201806040525081019061172c9190613bce565b73ffffffffffffffffffffffffffffffffffffffff1614611782576040517f08c379a000000000000000000000000000000000000000000000000000000000815260040161177990613c47565b60405180910390fd5b6000600f6000888152602001908152602001600020549050600960009054906101000a900473ffffffffffffffffffffffffffffffffffffffff1673ffffffffffffffffffffffffffffffffffffffff1663eaf5d04e30600b54600e6117e78c611dc6565b8b8b8b8b61180060018c6117fb91906148a7565b611dc6565b60405160200161181697969594939291906148fd565b6040516020818303038152906040526040518463ffffffff1660e01b815260040161184393929190613f4b565b600060405180830381600087803b15801561185d57600080fd5b505af1158015611871573d6000803e3d6000fd5b5050505060018161188291906148a7565b600f6000898152602001908152602001600020819055503373ffffffffffffffffffffffffffffffffffffffff167f49f81050f063e5873e3da74c80d522b979ef15124ea45757ce3e838d7e2d703e42896001856118e091906148a7565b6040516118ef939291906149d6565b60405180910390a260018161190491906148a7565b91505095945050505050565b6000801b81565b61192961192261207e565b8383612654565b5050565b60606000611939611fec565b905080600d60405160200161194f92919061402f565b60405160208183030381529060405291505090565b61197561196f61207e565b8361213f565b6119b4576040517f08c379a00000000000000000000000000000000000000000000000000000000081526004016119ab90614207565b60405180910390fd5b6119c0848484846127c1565b50505050565b60606119d18261281d565b611a10576040517f08c379a0000000000000000000000000000000000000000000000000000000008152600401611a0790614a7f565b60405180910390fd5b6000611a1a611fec565b9050600081511415611a3e5760405180602001604052806000815250915050611a9d565b6000600d600e600d600e604051602001611a5b9493929190614dc2565b60405160208183030381529060405290508181611a7786611dc6565b604051602001611a8993929190614ecf565b604051602081830303815290604052925050505b919050565b611aab82610b05565b611ab48161243b565b611abe8383612530565b505050565b6000600560008473ffffffffffffffffffffffffffffffffffffffff1673ffffffffffffffffffffffffffffffffffffffff16815260200190815260200160002060008373ffffffffffffffffffffffffffffffffffffffff1673ffffffffffffffffffffffffffffffffffffffff16815260200190815260200160002060009054906101000a900460ff16905092915050565b3373ffffffffffffffffffffffffffffffffffffffff163073ffffffffffffffffffffffffffffffffffffffff16636352211e856040518263ffffffff1660e01b8152600401611ba79190613739565b602060405180830381865afa158015611bc4573d6000803e3d6000fd5b505050506040513d601f19601f82011682018060405250810190611be89190613bce565b73ffffffffffffffffffffffffffffffffffffffff1614611c3e576040517f08c379a0000000000000000000000000000000000000000000000000000000008152600401611c3590613c47565b60405180910390fd5b81600f60008581526020019081526020016000205410158015611c615750600082115b611ca0576040517f08c379a0000000000000000000000000000000000000000000000000000000008152600401611c9790613cb3565b60405180910390fd5b600960009054906101000a900473ffffffffffffffffffffffffffffffffffffffff1673ffffffffffffffffffffffffffffffffffffffff1663eaf5d04e30600b54600e85611cee89611dc6565b611cf789611dc6565b604051602001611d0a9493929190614f3c565b6040516020818303038152906040526040518463ffffffff1660e01b8152600401611d3793929190613f4b565b600060405180830381600087803b158015611d5157600080fd5b505af1158015611d65573d6000803e3d6000fd5b505050503373ffffffffffffffffffffffffffffffffffffffff167f11bfb7cd1318679cbb7491b824432aaf8d65800ec0a83281dad118a0373a4a2342600b54848787604051611db9959493929190613f89565b60405180910390a2505050565b60606000821415611e0e576040518060400160405280600181526020017f30000000000000000000000000000000000000000000000000000000000000008152509050611f22565b600082905060005b60008214611e40578080611e2990614fc5565b915050600a82611e39919061503d565b9150611e16565b60008167ffffffffffffffff811115611e5c57611e5b6131a0565b5b6040519080825280601f01601f191660200182016040528015611e8e5781602001600182028036833780820191505090505b5090505b60008514611f1b57600182611ea7919061506e565b9150600a85611eb691906150a2565b6030611ec291906148a7565b60f81b818381518110611ed857611ed76150d3565b5b60200101907effffffffffffffffffffffffffffffffffffffffffffffffffffffffffffff1916908160001a905350600a85611f14919061503d565b9450611e92565b8093505050505b919050565b60007f7965db0b000000000000000000000000000000000000000000000000000000007bffffffffffffffffffffffffffffffffffffffffffffffffffffffff1916827bffffffffffffffffffffffffffffffffffffffffffffffffffffffff19161480611f9a5750611f9982612889565b5b9050919050565b611faa8161281d565b611fe9576040517f08c379a0000000000000000000000000000000000000000000000000000000008152600401611fe090614463565b60405180910390fd5b50565b606060078054611ffb90613d28565b80601f016020809104026020016040519081016040528092919081815260200182805461202790613d28565b80156120745780601f1061204957610100808354040283529160200191612074565b820191906000526020600020905b81548152906001019060200180831161205757829003601f168201915b5050505050905090565b600033905090565b816004600083815260200190815260200160002060006101000a81548173ffffffffffffffffffffffffffffffffffffffff021916908373ffffffffffffffffffffffffffffffffffffffff160217905550808273ffffffffffffffffffffffffffffffffffffffff166120f98361117d565b73ffffffffffffffffffffffffffffffffffffffff167f8c5be1e5ebec7d5bd14f71427d1e84f3dd0314c0f7b2291e5b200ac8c7c3b92560405160405180910390a45050565b60008061214b8361117d565b90508073ffffffffffffffffffffffffffffffffffffffff168473ffffffffffffffffffffffffffffffffffffffff16148061218d575061218c8185611ac3565b5b806121cb57508373ffffffffffffffffffffffffffffffffffffffff166121b384610910565b73ffffffffffffffffffffffffffffffffffffffff16145b91505092915050565b8273ffffffffffffffffffffffffffffffffffffffff166121f48261117d565b73ffffffffffffffffffffffffffffffffffffffff161461224a576040517f08c379a000000000000000000000000000000000000000000000000000000000815260040161224190615174565b60405180910390fd5b600073ffffffffffffffffffffffffffffffffffffffff168273ffffffffffffffffffffffffffffffffffffffff1614156122ba576040517f08c379a00000000000000000000000000000000000000000000000000000000081526004016122b190615206565b60405180910390fd5b6122c583838361296b565b6122d0600082612086565b6001600360008573ffffffffffffffffffffffffffffffffffffffff1673ffffffffffffffffffffffffffffffffffffffff1681526020019081526020016000206000828254612320919061506e565b925050819055506001600360008473ffffffffffffffffffffffffffffffffffffffff1673ffffffffffffffffffffffffffffffffffffffff168152602001908152602001600020600082825461237791906148a7565b92505081905550816002600083815260200190815260200160002060006101000a81548173ffffffffffffffffffffffffffffffffffffffff021916908373ffffffffffffffffffffffffffffffffffffffff160217905550808273ffffffffffffffffffffffffffffffffffffffff168473ffffffffffffffffffffffffffffffffffffffff167fddf252ad1be2c89b69c2b068fc378daa952ba7f163c4a11628f55a4df523b3ef60405160405180910390a4612436838383612970565b505050565b61244c8161244761207e565b612975565b50565b612459828261159c565b61252c5760016006600084815260200190815260200160002060000160008373ffffffffffffffffffffffffffffffffffffffff1673ffffffffffffffffffffffffffffffffffffffff16815260200190815260200160002060006101000a81548160ff0219169083151502179055506124d161207e565b73ffffffffffffffffffffffffffffffffffffffff168173ffffffffffffffffffffffffffffffffffffffff16837f2f8788117e7eff1d82e926ec794901d17c78024a50270940304540a733656f0d60405160405180910390a45b5050565b61253a828261159c565b1561260e5760006006600084815260200190815260200160002060000160008373ffffffffffffffffffffffffffffffffffffffff1673ffffffffffffffffffffffffffffffffffffffff16815260200190815260200160002060006101000a81548160ff0219169083151502179055506125b361207e565b73ffffffffffffffffffffffffffffffffffffffff168173ffffffffffffffffffffffffffffffffffffffff16837ff6391f5c32d9c69d2a47ea670b442974b53935d1edc7fd64eb21e047a839171b60405160405180910390a45b5050565b600081600001549050919050565b61263a828260405180602001604052806000815250612a12565b5050565b6001816000016000828254019250508190555050565b8173ffffffffffffffffffffffffffffffffffffffff168373ffffffffffffffffffffffffffffffffffffffff1614156126c3576040517f08c379a00000000000000000000000000000000000000000000000000000000081526004016126ba90615272565b60405180910390fd5b80600560008573ffffffffffffffffffffffffffffffffffffffff1673ffffffffffffffffffffffffffffffffffffffff16815260200190815260200160002060008473ffffffffffffffffffffffffffffffffffffffff1673ffffffffffffffffffffffffffffffffffffffff16815260200190815260200160002060006101000a81548160ff0219169083151502179055508173ffffffffffffffffffffffffffffffffffffffff168373ffffffffffffffffffffffffffffffffffffffff167f17307eab39ab6107e8899845ad3d59bd9653f200f220920489ca2b5937696c31836040516127b491906133da565b60405180910390a3505050565b6127cc8484846121d4565b6127d884848484612a6d565b612817576040517f08c379a000000000000000000000000000000000000000000000000000000000815260040161280e90615304565b60405180910390fd5b50505050565b60008073ffffffffffffffffffffffffffffffffffffffff166002600084815260200190815260200160002060009054906101000a900473ffffffffffffffffffffffffffffffffffffffff1673ffffffffffffffffffffffffffffffffffffffff1614159050919050565b60007f80ac58cd000000000000000000000000000000000000000000000000000000007bffffffffffffffffffffffffffffffffffffffffffffffffffffffff1916827bffffffffffffffffffffffffffffffffffffffffffffffffffffffff1916148061295457507f5b5e139f000000000000000000000000000000000000000000000000000000007bffffffffffffffffffffffffffffffffffffffffffffffffffffffff1916827bffffffffffffffffffffffffffffffffffffffffffffffffffffffff1916145b80612964575061296382612bf5565b5b9050919050565b505050565b505050565b61297f828261159c565b612a0e576129a48173ffffffffffffffffffffffffffffffffffffffff166014612c5f565b6129b28360001c6020612c5f565b6040516020016129c39291906153bc565b6040516020818303038152906040526040517f08c379a0000000000000000000000000000000000000000000000000000000008152600401612a05919061347d565b60405180910390fd5b5050565b612a1c8383612e9b565b612a296000848484612a6d565b612a68576040517f08c379a0000000000000000000000000000000000000000000000000000000008152600401612a5f90615304565b60405180910390fd5b505050565b6000612a8e8473ffffffffffffffffffffffffffffffffffffffff16613075565b15612be8578373ffffffffffffffffffffffffffffffffffffffff1663150b7a02612ab761207e565b8786866040518563ffffffff1660e01b8152600401612ad9949392919061544b565b6020604051808303816000875af1925050508015612b1557506040513d601f19601f82011682018060405250810190612b1291906154ac565b60015b612b98573d8060008114612b45576040519150601f19603f3d011682016040523d82523d6000602084013e612b4a565b606091505b50600081511415612b90576040517f08c379a0000000000000000000000000000000000000000000000000000000008152600401612b8790615304565b60405180910390fd5b805181602001fd5b63150b7a0260e01b7bffffffffffffffffffffffffffffffffffffffffffffffffffffffff1916817bffffffffffffffffffffffffffffffffffffffffffffffffffffffff191614915050612bed565b600190505b949350505050565b60007f01ffc9a7000000000000000000000000000000000000000000000000000000007bffffffffffffffffffffffffffffffffffffffffffffffffffffffff1916827bffffffffffffffffffffffffffffffffffffffffffffffffffffffff1916149050919050565b606060006002836002612c7291906154d9565b612c7c91906148a7565b67ffffffffffffffff811115612c9557612c946131a0565b5b6040519080825280601f01601f191660200182016040528015612cc75781602001600182028036833780820191505090505b5090507f300000000000000000000000000000000000000000000000000000000000000081600081518110612cff57612cfe6150d3565b5b60200101907effffffffffffffffffffffffffffffffffffffffffffffffffffffffffffff1916908160001a9053507f780000000000000000000000000000000000000000000000000000000000000081600181518110612d6357612d626150d3565b5b60200101907effffffffffffffffffffffffffffffffffffffffffffffffffffffffffffff1916908160001a90535060006001846002612da391906154d9565b612dad91906148a7565b90505b6001811115612e4d577f3031323334353637383961626364656600000000000000000000000000000000600f861660108110612def57612dee6150d3565b5b1a60f81b828281518110612e0657612e056150d3565b5b60200101907effffffffffffffffffffffffffffffffffffffffffffffffffffffffffffff1916908160001a905350600485901c945080612e4690615533565b9050612db0565b5060008414612e91576040517f08c379a0000000000000000000000000000000000000000000000000000000008152600401612e88906155a9565b60405180910390fd5b8091505092915050565b600073ffffffffffffffffffffffffffffffffffffffff168273ffffffffffffffffffffffffffffffffffffffff161415612f0b576040517f08c379a0000000000000000000000000000000000000000000000000000000008152600401612f0290615615565b60405180910390fd5b612f148161281d565b15612f54576040517f08c379a0000000000000000000000000000000000000000000000000000000008152600401612f4b90615681565b60405180910390fd5b612f606000838361296b565b6001600360008473ffffffffffffffffffffffffffffffffffffffff1673ffffffffffffffffffffffffffffffffffffffff1681526020019081526020016000206000828254612fb091906148a7565b92505081905550816002600083815260200190815260200160002060006101000a81548173ffffffffffffffffffffffffffffffffffffffff021916908373ffffffffffffffffffffffffffffffffffffffff160217905550808273ffffffffffffffffffffffffffffffffffffffff16600073ffffffffffffffffffffffffffffffffffffffff167fddf252ad1be2c89b69c2b068fc378daa952ba7f163c4a11628f55a4df523b3ef60405160405180910390a461307160008383612970565b5050565b6000808273ffffffffffffffffffffffffffffffffffffffff163b119050919050565b8280546130a490613d28565b90600052602060002090601f0160209004810192826130c6576000855561310d565b82601f106130df57805160ff191683800117855561310d565b8280016001018555821561310d579182015b8281111561310c5782518255916020019190600101906130f1565b5b50905061311a919061311e565b5090565b5b8082111561313757600081600090555060010161311f565b5090565b6000604051905090565b600080fd5b600080fd5b6000819050919050565b6131628161314f565b811461316d57600080fd5b50565b60008135905061317f81613159565b92915050565b600080fd5b600080fd5b6000601f19601f8301169050919050565b7f4e487b7100000000000000000000000000000000000000000000000000000000600052604160045260246000fd5b6131d88261318f565b810181811067ffffffffffffffff821117156131f7576131f66131a0565b5b80604052505050565b600061320a61313b565b905061321682826131cf565b919050565b600067ffffffffffffffff821115613236576132356131a0565b5b61323f8261318f565b9050602081019050919050565b82818337600083830152505050565b600061326e6132698461321b565b613200565b90508281526020810184848401111561328a5761328961318a565b5b61329584828561324c565b509392505050565b600082601f8301126132b2576132b1613185565b5b81356132c284826020860161325b565b91505092915050565b6000806000606084860312156132e4576132e3613145565b5b60006132f286828701613170565b935050602061330386828701613170565b925050604084013567ffffffffffffffff8111156133245761332361314a565b5b6133308682870161329d565b9150509250925092565b60007fffffffff0000000000000000000000000000000000000000000000000000000082169050919050565b61336f8161333a565b811461337a57600080fd5b50565b60008135905061338c81613366565b92915050565b6000602082840312156133a8576133a7613145565b5b60006133b68482850161337d565b91505092915050565b60008115159050919050565b6133d4816133bf565b82525050565b60006020820190506133ef60008301846133cb565b92915050565b600081519050919050565b600082825260208201905092915050565b60005b8381101561342f578082015181840152602081019050613414565b8381111561343e576000848401525b50505050565b600061344f826133f5565b6134598185613400565b9350613469818560208601613411565b6134728161318f565b840191505092915050565b600060208201905081810360008301526134978184613444565b905092915050565b6000602082840312156134b5576134b4613145565b5b60006134c384828501613170565b91505092915050565b600073ffffffffffffffffffffffffffffffffffffffff82169050919050565b60006134f7826134cc565b9050919050565b613507816134ec565b82525050565b600060208201905061352260008301846134fe565b92915050565b613531816134ec565b811461353c57600080fd5b50565b60008135905061354e81613528565b92915050565b6000806040838503121561356b5761356a613145565b5b60006135798582860161353f565b925050602061358a85828601613170565b9150509250929050565b6000806000606084860312156135ad576135ac613145565b5b60006135bb8682870161353f565b93505060206135cc8682870161353f565b92505060406135dd86828701613170565b9150509250925092565b6000819050919050565b6135fa816135e7565b811461360557600080fd5b50565b600081359050613617816135f1565b92915050565b60006020828403121561363357613632613145565b5b600061364184828501613608565b91505092915050565b613653816135e7565b82525050565b600060208201905061366e600083018461364a565b92915050565b6000806040838503121561368b5761368a613145565b5b600061369985828601613608565b92505060206136aa8582860161353f565b9150509250929050565b6000602082840312156136ca576136c9613145565b5b600082013567ffffffffffffffff8111156136e8576136e761314a565b5b6136f48482850161329d565b91505092915050565b60006020828403121561371357613712613145565b5b60006137218482850161353f565b91505092915050565b6137338161314f565b82525050565b600060208201905061374e600083018461372a565b92915050565b60008060008060008060008060006101208a8c03121561377757613776613145565b5b60006137858c828d0161353f565b99505060208a013567ffffffffffffffff8111156137a6576137a561314a565b5b6137b28c828d0161329d565b98505060408a013567ffffffffffffffff8111156137d3576137d261314a565b5b6137df8c828d0161329d565b97505060608a013567ffffffffffffffff811115613800576137ff61314a565b5b61380c8c828d0161329d565b96505060808a013567ffffffffffffffff81111561382d5761382c61314a565b5b6138398c828d0161329d565b95505060a08a013567ffffffffffffffff81111561385a5761385961314a565b5b6138668c828d0161329d565b94505060c08a013567ffffffffffffffff8111156138875761388661314a565b5b6138938c828d0161329d565b93505060e08a013567ffffffffffffffff8111156138b4576138b361314a565b5b6138c08c828d0161329d565b9250506101008a013567ffffffffffffffff8111156138e2576138e161314a565b5b6138ee8c828d0161329d565b9150509295985092959850929598565b600080600080600060a0868803121561391a57613919613145565b5b600061392888828901613170565b955050602086013567ffffffffffffffff8111156139495761394861314a565b5b6139558882890161329d565b945050604086013567ffffffffffffffff8111156139765761397561314a565b5b6139828882890161329d565b935050606086013567ffffffffffffffff8111156139a3576139a261314a565b5b6139af8882890161329d565b925050608086013567ffffffffffffffff8111156139d0576139cf61314a565b5b6139dc8882890161329d565b9150509295509295909350565b6139f2816133bf565b81146139fd57600080fd5b50565b600081359050613a0f816139e9565b92915050565b60008060408385031215613a2c57613a2b613145565b5b6000613a3a8582860161353f565b9250506020613a4b85828601613a00565b9150509250929050565b600067ffffffffffffffff821115613a7057613a6f6131a0565b5b613a798261318f565b9050602081019050919050565b6000613a99613a9484613a55565b613200565b905082815260208101848484011115613ab557613ab461318a565b5b613ac084828561324c565b509392505050565b600082601f830112613add57613adc613185565b5b8135613aed848260208601613a86565b91505092915050565b60008060008060808587031215613b1057613b0f613145565b5b6000613b1e8782880161353f565b9450506020613b2f8782880161353f565b9350506040613b4087828801613170565b925050606085013567ffffffffffffffff811115613b6157613b6061314a565b5b613b6d87828801613ac8565b91505092959194509250565b60008060408385031215613b9057613b8f613145565b5b6000613b9e8582860161353f565b9250506020613baf8582860161353f565b9150509250929050565b600081519050613bc881613528565b92915050565b600060208284031215613be457613be3613145565b5b6000613bf284828501613bb9565b91505092915050565b7f496e76616c6964206f776e657200000000000000000000000000000000000000600082015250565b6000613c31600d83613400565b9150613c3c82613bfb565b602082019050919050565b60006020820190508181036000830152613c6081613c24565b9050919050565b7f74726169745f6964206e6f7420666f756e642000000000000000000000000000600082015250565b6000613c9d601383613400565b9150613ca882613c67565b602082019050919050565b60006020820190508181036000830152613ccc81613c90565b9050919050565b7f5550444154452000000000000000000000000000000000000000000000000000815250565b7f4e487b7100000000000000000000000000000000000000000000000000000000600052602260045260246000fd5b60006002820490506001821680613d4057607f821691505b60208210811415613d5457613d53613cf9565b5b50919050565b600081905092915050565b60008190508160005260206000209050919050565b60008154613d8781613d28565b613d918186613d5a565b94506001821660008114613dac5760018114613dbd57613df0565b60ff19831686528186019350613df0565b613dc685613d65565b60005b83811015613de857815481890152600182019150602081019050613dc9565b838801955050505b50505092915050565b7f205345542076616c7565203d2027000000000000000000000000000000000000815250565b6000613e2a826133f5565b613e348185613d5a565b9350613e44818560208601613411565b80840191505092915050565b7f27205748455245206d61696e7461626c655f746f6b656e6964203d2000000000815250565b7f20414e442074726169745f6964203d2000000000000000000000000000000000815250565b7f3b00000000000000000000000000000000000000000000000000000000000000815250565b6000613ecd82613cd3565b600782019150613edd8287613d7a565b9150613ee882613df9565b600e82019150613ef88286613e1f565b9150613f0382613e50565b601c82019150613f138285613e1f565b9150613f1e82613e76565b601082019150613f2e8284613e1f565b9150613f3982613e9c565b60018201915081905095945050505050565b6000606082019050613f6060008301866134fe565b613f6d602083018561372a565b8181036040830152613f7f8184613444565b9050949350505050565b600060a082019050613f9e600083018861372a565b613fab602083018761372a565b8181036040830152613fbd8186613444565b9050613fcc606083018561372a565b613fd9608083018461372a565b9695505050505050565b7f756e777261703d7472756526657874726163743d66616c736526733d00000000815250565b7f53454c4543542532302a25323046524f4d253230000000000000000000000000815250565b600061403b8285613e1f565b915061404682613fe3565b601c8201915061405582614009565b6014820191506140658284613d7a565b91508190509392505050565b7f4552433732313a20617070726f76616c20746f2063757272656e74206f776e6560008201527f7200000000000000000000000000000000000000000000000000000000000000602082015250565b60006140cd602183613400565b91506140d882614071565b604082019050919050565b600060208201905081810360008301526140fc816140c0565b9050919050565b7f4552433732313a20617070726f76652063616c6c6572206973206e6f7420746f60008201527f6b656e206f776e6572206e6f7220617070726f76656420666f7220616c6c0000602082015250565b600061415f603e83613400565b915061416a82614103565b604082019050919050565b6000602082019050818103600083015261418e81614152565b9050919050565b7f4552433732313a2063616c6c6572206973206e6f7420746f6b656e206f776e6560008201527f72206e6f7220617070726f766564000000000000000000000000000000000000602082015250565b60006141f1602e83613400565b91506141fc82614195565b604082019050919050565b60006020820190508181036000830152614220816141e4565b9050919050565b7f205345542074726169745f74797065203d202700000000000000000000000000815250565b600061425882613cd3565b6007820191506142688287613d7a565b915061427382614227565b6013820191506142838286613e1f565b915061428e82613e50565b601c8201915061429e8285613e1f565b91506142a982613e76565b6010820191506142b98284613e1f565b91506142c482613e9c565b60018201915081905095945050505050565b7f416363657373436f6e74726f6c3a2063616e206f6e6c792072656e6f756e636560008201527f20726f6c657320666f722073656c660000000000000000000000000000000000602082015250565b6000614332602f83613400565b915061433d826142d6565b604082019050919050565b6000602082019050818103600083015261436181614325565b9050919050565b7f205345542069636f6e203d202700000000000000000000000000000000000000815250565b600061439982613cd3565b6007820191506143a98287613d7a565b91506143b482614368565b600d820191506143c48286613e1f565b91506143cf82613e50565b601c820191506143df8285613e1f565b91506143ea82613e76565b6010820191506143fa8284613e1f565b915061440582613e9c565b60018201915081905095945050505050565b7f4552433732313a20696e76616c696420746f6b656e2049440000000000000000600082015250565b600061444d601883613400565b915061445882614417565b602082019050919050565b6000602082019050818103600083015261447c81614440565b9050919050565b7f4552433732313a2061646472657373207a65726f206973206e6f74206120766160008201527f6c6964206f776e65720000000000000000000000000000000000000000000000602082015250565b60006144df602983613400565b91506144ea82614483565b604082019050919050565b6000602082019050818103600083015261450e816144d2565b9050919050565b7f494e5345525420494e544f200000000000000000000000000000000000000000815250565b7f2028746f6b656e69642c206e616d652c206465736372697074696f6e2c20696d60008201527f6167652c2065787465726e616c5f75726c292056414c55455320282700000000602082015250565b6000614597603c83613d5a565b91506145a28261453b565b603c82019050919050565b7f272c202700000000000000000000000000000000000000000000000000000000815250565b7f2729000000000000000000000000000000000000000000000000000000000000815250565b600061460482614515565b600c820191506146148289613d7a565b915061461f8261458a565b915061462b8288613e1f565b9150614636826145ad565b6004820191506146468287613e1f565b9150614651826145ad565b6004820191506146618286613e1f565b915061466c826145ad565b60048201915061467c8285613e1f565b9150614687826145ad565b6004820191506146978284613e1f565b91506146a2826145d3565b600282019150819050979650505050505050565b7f20286d61696e7461626c655f746f6b656e69642c2069636f6e2c20646973706c60008201527f61795f747970652c2074726169745f747970652c2076616c75652c207472616960208201527f745f6964292056414c5545532028270000000000000000000000000000000000604082015250565b6000614738604f83613d5a565b9150614743826146b6565b604f82019050919050565b7f3100000000000000000000000000000000000000000000000000000000000000815250565b600061477f82614515565b600c8201915061478f8289613d7a565b915061479a8261472b565b91506147a68288613e1f565b91506147b1826145ad565b6004820191506147c18287613e1f565b91506147cc826145ad565b6004820191506147dc8286613e1f565b91506147e7826145ad565b6004820191506147f78285613e1f565b9150614802826145ad565b6004820191506148128284613e1f565b915061481d826145ad565b60048201915061482c8261474e565b60018201915061483b826145d3565b600282019150819050979650505050505050565b6000604082019050614864600083018561372a565b614871602083018461372a565b9392505050565b7f4e487b7100000000000000000000000000000000000000000000000000000000600052601160045260246000fd5b60006148b28261314f565b91506148bd8361314f565b9250827fffffffffffffffffffffffffffffffffffffffffffffffffffffffffffffffff038211156148f2576148f1614878565b5b828201905092915050565b600061490882614515565b600c82019150614918828a613d7a565b91506149238261472b565b915061492f8289613e1f565b915061493a826145ad565b60048201915061494a8288613e1f565b9150614955826145ad565b6004820191506149658287613e1f565b9150614970826145ad565b6004820191506149808286613e1f565b915061498b826145ad565b60048201915061499b8285613e1f565b91506149a6826145ad565b6004820191506149b68284613e1f565b91506149c1826145d3565b60028201915081905098975050505050505050565b60006060820190506149eb600083018661372a565b6149f8602083018561372a565b614a05604083018461372a565b949350505050565b7f4552433732314d657461646174613a2055524920717565727920666f72206e6f60008201527f6e6578697374656e7420746f6b656e0000000000000000000000000000000000602082015250565b6000614a69602f83613400565b9150614a7482614a0d565b604082019050919050565b60006020820190508181036000830152614a9881614a5c565b9050919050565b7f53454c4543542532306a736f6e5f6f626a65637425323825323769642532372560008201527f3243746f6b656e69642532432532376e616d652532372532436e616d6525324360208201527f2532376465736372697074696f6e2532372532436465736372697074696f6e2560408201527f3243253237696d616765253237253243696d616765253243253237657874657260608201527f6e616c5f75726c25323725324365787465726e616c5f75726c2532432532376160808201527f7474726962757465732532372532436a736f6e5f67726f75705f61727261792560a08201527f32386a736f6e5f6f626a65637425323825323769636f6e25323725324369636f60c08201527f6e253243253237646973706c61795f74797065253237253243646973706c617960e08201527f5f7479706525324325323774726169745f7479706525323725324374726169746101008201527f5f7479706525324325323776616c756525323725324376616c756525323925326101208201527f3925323925323046524f4d25323000000000000000000000000000000000000061014082015250565b6000614c5561014e83613d5a565b9150614c6082614a9f565b61014e82019050919050565b7f2532304a4f494e25323000000000000000000000000000000000000000000000600082015250565b6000614ca2600a83613d5a565b9150614cad82614c6c565b600a82019050919050565b7f2532304f4e253230000000000000000000000000000000000000000000000000600082015250565b6000614cee600883613d5a565b9150614cf982614cb8565b600882019050919050565b7f253245746f6b656e696425323025334425323000000000000000000000000000600082015250565b6000614d3a601383613d5a565b9150614d4582614d04565b601382019050919050565b7f2532456d61696e7461626c655f746f6b656e696425323057484552452532307460008201527f6f6b656e69642533440000000000000000000000000000000000000000000000602082015250565b6000614dac602983613d5a565b9150614db782614d50565b602982019050919050565b6000614dcd82614c47565b9150614dd98287613d7a565b9150614de482614c95565b9150614df08286613d7a565b9150614dfb82614ce1565b9150614e078285613d7a565b9150614e1282614d2d565b9150614e1e8284613d7a565b9150614e2982614d9f565b915081905095945050505050565b7f756e777261703d7472756526657874726163743d7472756526733d0000000000600082015250565b6000614e6d601b83613d5a565b9150614e7882614e37565b601b82019050919050565b7f25323067726f75702532306279253230746f6b656e6964000000000000000000600082015250565b6000614eb9601783613d5a565b9150614ec482614e83565b601782019050919050565b6000614edb8286613e1f565b9150614ee682614e60565b9150614ef28285613e1f565b9150614efe8284613e1f565b9150614f0982614eac565b9150819050949350505050565b7f2053455420646973706c61795f74797065203d20270000000000000000000000815250565b6000614f4782613cd3565b600782019150614f578287613d7a565b9150614f6282614f16565b601582019150614f728286613e1f565b9150614f7d82613e50565b601c82019150614f8d8285613e1f565b9150614f9882613e76565b601082019150614fa88284613e1f565b9150614fb382613e9c565b60018201915081905095945050505050565b6000614fd08261314f565b91507fffffffffffffffffffffffffffffffffffffffffffffffffffffffffffffffff82141561500357615002614878565b5b600182019050919050565b7f4e487b7100000000000000000000000000000000000000000000000000000000600052601260045260246000fd5b60006150488261314f565b91506150538361314f565b9250826150635761506261500e565b5b828204905092915050565b60006150798261314f565b91506150848361314f565b92508282101561509757615096614878565b5b828203905092915050565b60006150ad8261314f565b91506150b88361314f565b9250826150c8576150c761500e565b5b828206905092915050565b7f4e487b7100000000000000000000000000000000000000000000000000000000600052603260045260246000fd5b7f4552433732313a207472616e736665722066726f6d20696e636f72726563742060008201527f6f776e6572000000000000000000000000000000000000000000000000000000602082015250565b600061515e602583613400565b915061516982615102565b604082019050919050565b6000602082019050818103600083015261518d81615151565b9050919050565b7f4552433732313a207472616e7366657220746f20746865207a65726f2061646460008201527f7265737300000000000000000000000000000000000000000000000000000000602082015250565b60006151f0602483613400565b91506151fb82615194565b604082019050919050565b6000602082019050818103600083015261521f816151e3565b9050919050565b7f4552433732313a20617070726f766520746f2063616c6c657200000000000000600082015250565b600061525c601983613400565b915061526782615226565b602082019050919050565b6000602082019050818103600083015261528b8161524f565b9050919050565b7f4552433732313a207472616e7366657220746f206e6f6e20455243373231526560008201527f63656976657220696d706c656d656e7465720000000000000000000000000000602082015250565b60006152ee603283613400565b91506152f982615292565b604082019050919050565b6000602082019050818103600083015261531d816152e1565b9050919050565b7f416363657373436f6e74726f6c3a206163636f756e7420000000000000000000600082015250565b600061535a601783613d5a565b915061536582615324565b601782019050919050565b7f206973206d697373696e6720726f6c6520000000000000000000000000000000600082015250565b60006153a6601183613d5a565b91506153b182615370565b601182019050919050565b60006153c78261534d565b91506153d38285613e1f565b91506153de82615399565b91506153ea8284613e1f565b91508190509392505050565b600081519050919050565b600082825260208201905092915050565b600061541d826153f6565b6154278185615401565b9350615437818560208601613411565b6154408161318f565b840191505092915050565b600060808201905061546060008301876134fe565b61546d60208301866134fe565b61547a604083018561372a565b818103606083015261548c8184615412565b905095945050505050565b6000815190506154a681613366565b92915050565b6000602082840312156154c2576154c1613145565b5b60006154d084828501615497565b91505092915050565b60006154e48261314f565b91506154ef8361314f565b9250817fffffffffffffffffffffffffffffffffffffffffffffffffffffffffffffffff048311821515161561552857615527614878565b5b828202905092915050565b600061553e8261314f565b9150600082141561555257615551614878565b5b600182039050919050565b7f537472696e67733a20686578206c656e67746820696e73756666696369656e74600082015250565b6000615593602083613400565b915061559e8261555d565b602082019050919050565b600060208201905081810360008301526155c281615586565b9050919050565b7f4552433732313a206d696e7420746f20746865207a65726f2061646472657373600082015250565b60006155ff602083613400565b915061560a826155c9565b602082019050919050565b6000602082019050818103600083015261562e816155f2565b9050919050565b7f4552433732313a20746f6b656e20616c7265616479206d696e74656400000000600082015250565b600061566b601c83613400565b915061567682615635565b602082019050919050565b6000602082019050818103600083015261569a8161565e565b905091905056fea264697066735822122088ebebbe6fecc838b04458fbef2b4a5ac3fbd48f4870e1ea5d8f51f417dd4c0064736f6c634300080c003368747470733a2f2f746573746e65742e7461626c656c616e642e6e6574776f726b2f71756572793f","opcodes":"PUSH1 0x80 PUSH1 0x40 MSTORE PUSH1 0x40 MLOAD DUP1 PUSH1 0x60 ADD PUSH1 0x40 MSTORE DUP1 PUSH1 0x28 DUP2 MSTORE PUSH1 0x20 ADD PUSH3 0x66C4 PUSH1 0x28 SWAP2 CODECOPY PUSH1 0x7 SWAP1 DUP1 MLOAD SWAP1 PUSH1 0x20 ADD SWAP1 PUSH3 0x35 SWAP3 SWAP2 SWAP1 PUSH3 0x731 JUMP JUMPDEST POP PUSH1 0x40 MLOAD DUP1 PUSH1 0x40 ADD PUSH1 0x40 MSTORE DUP1 PUSH1 0x8 DUP2 MSTORE PUSH1 0x20 ADD PUSH32 0x4D696E745F544541000000000000000000000000000000000000000000000000 DUP2 MSTORE POP PUSH1 0xC SWAP1 DUP1 MLOAD SWAP1 PUSH1 0x20 ADD SWAP1 PUSH3 0x83 SWAP3 SWAP2 SWAP1 PUSH3 0x731 JUMP JUMPDEST POP CALLVALUE DUP1 ISZERO PUSH3 0x91 JUMPI PUSH1 0x0 DUP1 REVERT JUMPDEST POP PUSH1 0x40 MLOAD PUSH3 0x66EC CODESIZE SUB DUP1 PUSH3 0x66EC DUP4 CODECOPY DUP2 DUP2 ADD PUSH1 0x40 MSTORE DUP2 ADD SWAP1 PUSH3 0xB7 SWAP2 SWAP1 PUSH3 0x84B JUMP JUMPDEST PUSH1 0x40 MLOAD DUP1 PUSH1 0x40 ADD PUSH1 0x40 MSTORE DUP1 PUSH1 0x8 DUP2 MSTORE PUSH1 0x20 ADD PUSH32 0x4D696E7420546561000000000000000000000000000000000000000000000000 DUP2 MSTORE POP PUSH1 0x40 MLOAD DUP1 PUSH1 0x40 ADD PUSH1 0x40 MSTORE DUP1 PUSH1 0x4 DUP2 MSTORE PUSH1 0x20 ADD PUSH32 0x6D4E465400000000000000000000000000000000000000000000000000000000 DUP2 MSTORE POP DUP2 PUSH1 0x0 SWAP1 DUP1 MLOAD SWAP1 PUSH1 0x20 ADD SWAP1 PUSH3 0x13B SWAP3 SWAP2 SWAP1 PUSH3 0x731 JUMP JUMPDEST POP DUP1 PUSH1 0x1 SWAP1 DUP1 MLOAD SWAP1 PUSH1 0x20 ADD SWAP1 PUSH3 0x154 SWAP3 SWAP2 SWAP1 PUSH3 0x731 JUMP JUMPDEST POP POP POP PUSH3 0x16C PUSH1 0x0 DUP1 SHL CALLER PUSH3 0x452 PUSH1 0x20 SHL PUSH1 0x20 SHR JUMP JUMPDEST DUP1 PUSH1 0x9 PUSH1 0x0 PUSH2 0x100 EXP DUP2 SLOAD DUP2 PUSH20 0xFFFFFFFFFFFFFFFFFFFFFFFFFFFFFFFFFFFFFFFF MUL NOT AND SWAP1 DUP4 PUSH20 0xFFFFFFFFFFFFFFFFFFFFFFFFFFFFFFFFFFFFFFFF AND MUL OR SWAP1 SSTORE POP PUSH1 0x9 PUSH1 0x0 SWAP1 SLOAD SWAP1 PUSH2 0x100 EXP SWAP1 DIV PUSH20 0xFFFFFFFFFFFFFFFFFFFFFFFFFFFFFFFFFFFFFFFF AND PUSH20 0xFFFFFFFFFFFFFFFFFFFFFFFFFFFFFFFFFFFFFFFF AND PUSH4 0x3A9151B0 ADDRESS PUSH1 0xC PUSH3 0x204 CHAINID PUSH3 0x544 PUSH1 0x20 SHL PUSH3 0x1DC6 OR PUSH1 0x20 SHR JUMP JUMPDEST PUSH1 0x40 MLOAD PUSH1 0x20 ADD PUSH3 0x217 SWAP3 SWAP2 SWAP1 PUSH3 0xAED JUMP JUMPDEST PUSH1 0x40 MLOAD PUSH1 0x20 DUP2 DUP4 SUB SUB DUP2 MSTORE SWAP1 PUSH1 0x40 MSTORE PUSH1 0x40 MLOAD DUP4 PUSH4 0xFFFFFFFF AND PUSH1 0xE0 SHL DUP2 MSTORE PUSH1 0x4 ADD PUSH3 0x245 SWAP3 SWAP2 SWAP1 PUSH3 0xBB8 JUMP JUMPDEST PUSH1 0x20 PUSH1 0x40 MLOAD DUP1 DUP4 SUB DUP2 PUSH1 0x0 DUP8 GAS CALL ISZERO DUP1 ISZERO PUSH3 0x265 JUMPI RETURNDATASIZE PUSH1 0x0 DUP1 RETURNDATACOPY RETURNDATASIZE PUSH1 0x0 REVERT JUMPDEST POP POP POP POP PUSH1 0x40 MLOAD RETURNDATASIZE PUSH1 0x1F NOT PUSH1 0x1F DUP3 ADD AND DUP3 ADD DUP1 PUSH1 0x40 MSTORE POP DUP2 ADD SWAP1 PUSH3 0x28B SWAP2 SWAP1 PUSH3 0xC27 JUMP JUMPDEST PUSH1 0xA DUP2 SWAP1 SSTORE POP PUSH1 0xC PUSH3 0x2A9 CHAINID PUSH3 0x544 PUSH1 0x20 SHL PUSH3 0x1DC6 OR PUSH1 0x20 SHR JUMP JUMPDEST PUSH3 0x2C1 PUSH1 0xA SLOAD PUSH3 0x544 PUSH1 0x20 SHL PUSH3 0x1DC6 OR PUSH1 0x20 SHR JUMP JUMPDEST PUSH1 0x40 MLOAD PUSH1 0x20 ADD PUSH3 0x2D5 SWAP4 SWAP3 SWAP2 SWAP1 PUSH3 0xC59 JUMP JUMPDEST PUSH1 0x40 MLOAD PUSH1 0x20 DUP2 DUP4 SUB SUB DUP2 MSTORE SWAP1 PUSH1 0x40 MSTORE PUSH1 0xD SWAP1 DUP1 MLOAD SWAP1 PUSH1 0x20 ADD SWAP1 PUSH3 0x2FB SWAP3 SWAP2 SWAP1 PUSH3 0x731 JUMP JUMPDEST POP PUSH1 0x9 PUSH1 0x0 SWAP1 SLOAD SWAP1 PUSH2 0x100 EXP SWAP1 DIV PUSH20 0xFFFFFFFFFFFFFFFFFFFFFFFFFFFFFFFFFFFFFFFF AND PUSH20 0xFFFFFFFFFFFFFFFFFFFFFFFFFFFFFFFFFFFFFFFF AND PUSH4 0x3A9151B0 ADDRESS PUSH1 0xC PUSH3 0x353 CHAINID PUSH3 0x544 PUSH1 0x20 SHL PUSH3 0x1DC6 OR PUSH1 0x20 SHR JUMP JUMPDEST PUSH1 0x40 MLOAD PUSH1 0x20 ADD PUSH3 0x366 SWAP3 SWAP2 SWAP1 PUSH3 0xD74 JUMP JUMPDEST PUSH1 0x40 MLOAD PUSH1 0x20 DUP2 DUP4 SUB SUB DUP2 MSTORE SWAP1 PUSH1 0x40 MSTORE PUSH1 0x40 MLOAD DUP4 PUSH4 0xFFFFFFFF AND PUSH1 0xE0 SHL DUP2 MSTORE PUSH1 0x4 ADD PUSH3 0x394 SWAP3 SWAP2 SWAP1 PUSH3 0xBB8 JUMP JUMPDEST PUSH1 0x20 PUSH1 0x40 MLOAD DUP1 DUP4 SUB DUP2 PUSH1 0x0 DUP8 GAS CALL ISZERO DUP1 ISZERO PUSH3 0x3B4 JUMPI RETURNDATASIZE PUSH1 0x0 DUP1 RETURNDATACOPY RETURNDATASIZE PUSH1 0x0 REVERT JUMPDEST POP POP POP POP PUSH1 0x40 MLOAD RETURNDATASIZE PUSH1 0x1F NOT PUSH1 0x1F DUP3 ADD AND DUP3 ADD DUP1 PUSH1 0x40 MSTORE POP DUP2 ADD SWAP1 PUSH3 0x3DA SWAP2 SWAP1 PUSH3 0xC27 JUMP JUMPDEST PUSH1 0xB DUP2 SWAP1 SSTORE POP PUSH1 0xC PUSH3 0x3F8 CHAINID PUSH3 0x544 PUSH1 0x20 SHL PUSH3 0x1DC6 OR PUSH1 0x20 SHR JUMP JUMPDEST PUSH3 0x410 PUSH1 0xB SLOAD PUSH3 0x544 PUSH1 0x20 SHL PUSH3 0x1DC6 OR PUSH1 0x20 SHR JUMP JUMPDEST PUSH1 0x40 MLOAD PUSH1 0x20 ADD PUSH3 0x424 SWAP4 SWAP3 SWAP2 SWAP1 PUSH3 0xC59 JUMP JUMPDEST PUSH1 0x40 MLOAD PUSH1 0x20 DUP2 DUP4 SUB SUB DUP2 MSTORE SWAP1 PUSH1 0x40 MSTORE PUSH1 0xE SWAP1 DUP1 MLOAD SWAP1 PUSH1 0x20 ADD SWAP1 PUSH3 0x44A SWAP3 SWAP2 SWAP1 PUSH3 0x731 JUMP JUMPDEST POP POP PUSH3 0xFDD JUMP JUMPDEST PUSH3 0x464 DUP3 DUP3 PUSH3 0x6BE PUSH1 0x20 SHL PUSH1 0x20 SHR JUMP JUMPDEST PUSH3 0x540 JUMPI PUSH1 0x1 PUSH1 0x6 PUSH1 0x0 DUP5 DUP2 MSTORE PUSH1 0x20 ADD SWAP1 DUP2 MSTORE PUSH1 0x20 ADD PUSH1 0x0 KECCAK256 PUSH1 0x0 ADD PUSH1 0x0 DUP4 PUSH20 0xFFFFFFFFFFFFFFFFFFFFFFFFFFFFFFFFFFFFFFFF AND PUSH20 0xFFFFFFFFFFFFFFFFFFFFFFFFFFFFFFFFFFFFFFFF AND DUP2 MSTORE PUSH1 0x20 ADD SWAP1 DUP2 MSTORE PUSH1 0x20 ADD PUSH1 0x0 KECCAK256 PUSH1 0x0 PUSH2 0x100 EXP DUP2 SLOAD DUP2 PUSH1 0xFF MUL NOT AND SWAP1 DUP4 ISZERO ISZERO MUL OR SWAP1 SSTORE POP PUSH3 0x4E5 PUSH3 0x729 PUSH1 0x20 SHL PUSH1 0x20 SHR JUMP JUMPDEST PUSH20 0xFFFFFFFFFFFFFFFFFFFFFFFFFFFFFFFFFFFFFFFF AND DUP2 PUSH20 0xFFFFFFFFFFFFFFFFFFFFFFFFFFFFFFFFFFFFFFFF AND DUP4 PUSH32 0x2F8788117E7EFF1D82E926EC794901D17C78024A50270940304540A733656F0D PUSH1 0x40 MLOAD PUSH1 0x40 MLOAD DUP1 SWAP2 SUB SWAP1 LOG4 JUMPDEST POP POP JUMP JUMPDEST PUSH1 0x60 PUSH1 0x0 DUP3 EQ ISZERO PUSH3 0x58E JUMPI PUSH1 0x40 MLOAD DUP1 PUSH1 0x40 ADD PUSH1 0x40 MSTORE DUP1 PUSH1 0x1 DUP2 MSTORE PUSH1 0x20 ADD PUSH32 0x3000000000000000000000000000000000000000000000000000000000000000 DUP2 MSTORE POP SWAP1 POP PUSH3 0x6B9 JUMP JUMPDEST PUSH1 0x0 DUP3 SWAP1 POP PUSH1 0x0 JUMPDEST PUSH1 0x0 DUP3 EQ PUSH3 0x5C6 JUMPI DUP1 DUP1 PUSH3 0x5AC SWAP1 PUSH3 0xDFA JUMP JUMPDEST SWAP2 POP POP PUSH1 0xA DUP3 PUSH3 0x5BE SWAP2 SWAP1 PUSH3 0xE77 JUMP JUMPDEST SWAP2 POP PUSH3 0x596 JUMP JUMPDEST PUSH1 0x0 DUP2 PUSH8 0xFFFFFFFFFFFFFFFF DUP2 GT ISZERO PUSH3 0x5E5 JUMPI PUSH3 0x5E4 PUSH3 0xEAF JUMP JUMPDEST JUMPDEST PUSH1 0x40 MLOAD SWAP1 DUP1 DUP3 MSTORE DUP1 PUSH1 0x1F ADD PUSH1 0x1F NOT AND PUSH1 0x20 ADD DUP3 ADD PUSH1 0x40 MSTORE DUP1 ISZERO PUSH3 0x618 JUMPI DUP2 PUSH1 0x20 ADD PUSH1 0x1 DUP3 MUL DUP1 CALLDATASIZE DUP4 CALLDATACOPY DUP1 DUP3 ADD SWAP2 POP POP SWAP1 POP JUMPDEST POP SWAP1 POP JUMPDEST PUSH1 0x0 DUP6 EQ PUSH3 0x6B2 JUMPI PUSH1 0x1 DUP3 PUSH3 0x634 SWAP2 SWAP1 PUSH3 0xEDE JUMP JUMPDEST SWAP2 POP PUSH1 0xA DUP6 PUSH3 0x645 SWAP2 SWAP1 PUSH3 0xF19 JUMP JUMPDEST PUSH1 0x30 PUSH3 0x653 SWAP2 SWAP1 PUSH3 0xF51 JUMP JUMPDEST PUSH1 0xF8 SHL DUP2 DUP4 DUP2 MLOAD DUP2 LT PUSH3 0x66C JUMPI PUSH3 0x66B PUSH3 0xFAE JUMP JUMPDEST JUMPDEST PUSH1 0x20 ADD ADD SWAP1 PUSH31 0xFFFFFFFFFFFFFFFFFFFFFFFFFFFFFFFFFFFFFFFFFFFFFFFFFFFFFFFFFFFFFF NOT AND SWAP1 DUP2 PUSH1 0x0 BYTE SWAP1 MSTORE8 POP PUSH1 0xA DUP6 PUSH3 0x6AA SWAP2 SWAP1 PUSH3 0xE77 JUMP JUMPDEST SWAP5 POP PUSH3 0x61C JUMP JUMPDEST DUP1 SWAP4 POP POP POP POP JUMPDEST SWAP2 SWAP1 POP JUMP JUMPDEST PUSH1 0x0 PUSH1 0x6 PUSH1 0x0 DUP5 DUP2 MSTORE PUSH1 0x20 ADD SWAP1 DUP2 MSTORE PUSH1 0x20 ADD PUSH1 0x0 KECCAK256 PUSH1 0x0 ADD PUSH1 0x0 DUP4 PUSH20 0xFFFFFFFFFFFFFFFFFFFFFFFFFFFFFFFFFFFFFFFF AND PUSH20 0xFFFFFFFFFFFFFFFFFFFFFFFFFFFFFFFFFFFFFFFF AND DUP2 MSTORE PUSH1 0x20 ADD SWAP1 DUP2 MSTORE PUSH1 0x20 ADD PUSH1 0x0 KECCAK256 PUSH1 0x0 SWAP1 SLOAD SWAP1 PUSH2 0x100 EXP SWAP1 DIV PUSH1 0xFF AND SWAP1 POP SWAP3 SWAP2 POP POP JUMP JUMPDEST PUSH1 0x0 CALLER SWAP1 POP SWAP1 JUMP JUMPDEST DUP3 DUP1 SLOAD PUSH3 0x73F SWAP1 PUSH3 0x8D2 JUMP JUMPDEST SWAP1 PUSH1 0x0 MSTORE PUSH1 0x20 PUSH1 0x0 KECCAK256 SWAP1 PUSH1 0x1F ADD PUSH1 0x20 SWAP1 DIV DUP2 ADD SWAP3 DUP3 PUSH3 0x763 JUMPI PUSH1 0x0 DUP6 SSTORE PUSH3 0x7AF JUMP JUMPDEST DUP3 PUSH1 0x1F LT PUSH3 0x77E JUMPI DUP1 MLOAD PUSH1 0xFF NOT AND DUP4 DUP1 ADD OR DUP6 SSTORE PUSH3 0x7AF JUMP JUMPDEST DUP3 DUP1 ADD PUSH1 0x1 ADD DUP6 SSTORE DUP3 ISZERO PUSH3 0x7AF JUMPI SWAP2 DUP3 ADD JUMPDEST DUP3 DUP2 GT ISZERO PUSH3 0x7AE JUMPI DUP3 MLOAD DUP3 SSTORE SWAP2 PUSH1 0x20 ADD SWAP2 SWAP1 PUSH1 0x1 ADD SWAP1 PUSH3 0x791 JUMP JUMPDEST JUMPDEST POP SWAP1 POP PUSH3 0x7BE SWAP2 SWAP1 PUSH3 0x7C2 JUMP JUMPDEST POP SWAP1 JUMP JUMPDEST JUMPDEST DUP1 DUP3 GT ISZERO PUSH3 0x7DD JUMPI PUSH1 0x0 DUP2 PUSH1 0x0 SWAP1 SSTORE POP PUSH1 0x1 ADD PUSH3 0x7C3 JUMP JUMPDEST POP SWAP1 JUMP JUMPDEST PUSH1 0x0 DUP1 REVERT JUMPDEST PUSH1 0x0 PUSH20 0xFFFFFFFFFFFFFFFFFFFFFFFFFFFFFFFFFFFFFFFF DUP3 AND SWAP1 POP SWAP2 SWAP1 POP JUMP JUMPDEST PUSH1 0x0 PUSH3 0x813 DUP3 PUSH3 0x7E6 JUMP JUMPDEST SWAP1 POP SWAP2 SWAP1 POP JUMP JUMPDEST PUSH3 0x825 DUP2 PUSH3 0x806 JUMP JUMPDEST DUP2 EQ PUSH3 0x831 JUMPI PUSH1 0x0 DUP1 REVERT JUMPDEST POP JUMP JUMPDEST PUSH1 0x0 DUP2 MLOAD SWAP1 POP PUSH3 0x845 DUP2 PUSH3 0x81A JUMP JUMPDEST SWAP3 SWAP2 POP POP JUMP JUMPDEST PUSH1 0x0 PUSH1 0x20 DUP3 DUP5 SUB SLT ISZERO PUSH3 0x864 JUMPI PUSH3 0x863 PUSH3 0x7E1 JUMP JUMPDEST JUMPDEST PUSH1 0x0 PUSH3 0x874 DUP5 DUP3 DUP6 ADD PUSH3 0x834 JUMP JUMPDEST SWAP2 POP POP SWAP3 SWAP2 POP POP JUMP JUMPDEST PUSH32 0x435245415445205441424C452000000000000000000000000000000000000000 DUP2 MSTORE POP JUMP JUMPDEST PUSH32 0x4E487B7100000000000000000000000000000000000000000000000000000000 PUSH1 0x0 MSTORE PUSH1 0x22 PUSH1 0x4 MSTORE PUSH1 0x24 PUSH1 0x0 REVERT JUMPDEST PUSH1 0x0 PUSH1 0x2 DUP3 DIV SWAP1 POP PUSH1 0x1 DUP3 AND DUP1 PUSH3 0x8EB JUMPI PUSH1 0x7F DUP3 AND SWAP2 POP JUMPDEST PUSH1 0x20 DUP3 LT DUP2 EQ ISZERO PUSH3 0x902 JUMPI PUSH3 0x901 PUSH3 0x8A3 JUMP JUMPDEST JUMPDEST POP SWAP2 SWAP1 POP JUMP JUMPDEST PUSH1 0x0 DUP2 SWAP1 POP SWAP3 SWAP2 POP POP JUMP JUMPDEST PUSH1 0x0 DUP2 SWAP1 POP DUP2 PUSH1 0x0 MSTORE PUSH1 0x20 PUSH1 0x0 KECCAK256 SWAP1 POP SWAP2 SWAP1 POP JUMP JUMPDEST PUSH1 0x0 DUP2 SLOAD PUSH3 0x937 DUP2 PUSH3 0x8D2 JUMP JUMPDEST PUSH3 0x943 DUP2 DUP7 PUSH3 0x908 JUMP JUMPDEST SWAP5 POP PUSH1 0x1 DUP3 AND PUSH1 0x0 DUP2 EQ PUSH3 0x961 JUMPI PUSH1 0x1 DUP2 EQ PUSH3 0x973 JUMPI PUSH3 0x9AA JUMP JUMPDEST PUSH1 0xFF NOT DUP4 AND DUP7 MSTORE DUP2 DUP7 ADD SWAP4 POP PUSH3 0x9AA JUMP JUMPDEST PUSH3 0x97E DUP6 PUSH3 0x913 JUMP JUMPDEST PUSH1 0x0 JUMPDEST DUP4 DUP2 LT ISZERO PUSH3 0x9A2 JUMPI DUP2 SLOAD DUP2 DUP10 ADD MSTORE PUSH1 0x1 DUP3 ADD SWAP2 POP PUSH1 0x20 DUP2 ADD SWAP1 POP PUSH3 0x981 JUMP JUMPDEST DUP4 DUP9 ADD SWAP6 POP POP POP JUMPDEST POP POP POP SWAP3 SWAP2 POP POP JUMP JUMPDEST PUSH32 0x5F00000000000000000000000000000000000000000000000000000000000000 DUP2 MSTORE POP JUMP JUMPDEST PUSH1 0x0 DUP2 MLOAD SWAP1 POP SWAP2 SWAP1 POP JUMP JUMPDEST PUSH1 0x0 JUMPDEST DUP4 DUP2 LT ISZERO PUSH3 0xA04 JUMPI DUP1 DUP3 ADD MLOAD DUP2 DUP5 ADD MSTORE PUSH1 0x20 DUP2 ADD SWAP1 POP PUSH3 0x9E7 JUMP JUMPDEST DUP4 DUP2 GT ISZERO PUSH3 0xA14 JUMPI PUSH1 0x0 DUP5 DUP5 ADD MSTORE JUMPDEST POP POP POP POP JUMP JUMPDEST PUSH1 0x0 PUSH3 0xA27 DUP3 PUSH3 0x9D9 JUMP JUMPDEST PUSH3 0xA33 DUP2 DUP6 PUSH3 0x908 JUMP JUMPDEST SWAP4 POP PUSH3 0xA45 DUP2 DUP6 PUSH1 0x20 DUP7 ADD PUSH3 0x9E4 JUMP JUMPDEST DUP1 DUP5 ADD SWAP2 POP POP SWAP3 SWAP2 POP POP JUMP JUMPDEST PUSH32 0x2028746F6B656E696420696E742C206E616D6520746578742C20646573637269 PUSH1 0x0 DUP3 ADD MSTORE PUSH32 0x7074696F6E20746578742C20696D61676520746578742C2065787465726E616C PUSH1 0x20 DUP3 ADD MSTORE PUSH32 0x5F75726C2074657874293B000000000000000000000000000000000000000000 PUSH1 0x40 DUP3 ADD MSTORE POP JUMP JUMPDEST PUSH1 0x0 PUSH3 0xAD5 PUSH1 0x4B DUP4 PUSH3 0x908 JUMP JUMPDEST SWAP2 POP PUSH3 0xAE2 DUP3 PUSH3 0xA51 JUMP JUMPDEST PUSH1 0x4B DUP3 ADD SWAP1 POP SWAP2 SWAP1 POP JUMP JUMPDEST PUSH1 0x0 PUSH3 0xAFA DUP3 PUSH3 0x87D JUMP JUMPDEST PUSH1 0xD DUP3 ADD SWAP2 POP PUSH3 0xB0C DUP3 DUP6 PUSH3 0x928 JUMP JUMPDEST SWAP2 POP PUSH3 0xB19 DUP3 PUSH3 0x9B3 JUMP JUMPDEST PUSH1 0x1 DUP3 ADD SWAP2 POP PUSH3 0xB2B DUP3 DUP5 PUSH3 0xA1A JUMP JUMPDEST SWAP2 POP PUSH3 0xB38 DUP3 PUSH3 0xAC6 JUMP JUMPDEST SWAP2 POP DUP2 SWAP1 POP SWAP4 SWAP3 POP POP POP JUMP JUMPDEST PUSH3 0xB4F DUP2 PUSH3 0x806 JUMP JUMPDEST DUP3 MSTORE POP POP JUMP JUMPDEST PUSH1 0x0 DUP3 DUP3 MSTORE PUSH1 0x20 DUP3 ADD SWAP1 POP SWAP3 SWAP2 POP POP JUMP JUMPDEST PUSH1 0x0 PUSH1 0x1F NOT PUSH1 0x1F DUP4 ADD AND SWAP1 POP SWAP2 SWAP1 POP JUMP JUMPDEST PUSH1 0x0 PUSH3 0xB84 DUP3 PUSH3 0x9D9 JUMP JUMPDEST PUSH3 0xB90 DUP2 DUP6 PUSH3 0xB55 JUMP JUMPDEST SWAP4 POP PUSH3 0xBA2 DUP2 DUP6 PUSH1 0x20 DUP7 ADD PUSH3 0x9E4 JUMP JUMPDEST PUSH3 0xBAD DUP2 PUSH3 0xB66 JUMP JUMPDEST DUP5 ADD SWAP2 POP POP SWAP3 SWAP2 POP POP JUMP JUMPDEST PUSH1 0x0 PUSH1 0x40 DUP3 ADD SWAP1 POP PUSH3 0xBCF PUSH1 0x0 DUP4 ADD DUP6 PUSH3 0xB44 JUMP JUMPDEST DUP2 DUP2 SUB PUSH1 0x20 DUP4 ADD MSTORE PUSH3 0xBE3 DUP2 DUP5 PUSH3 0xB77 JUMP JUMPDEST SWAP1 POP SWAP4 SWAP3 POP POP POP JUMP JUMPDEST PUSH1 0x0 DUP2 SWAP1 POP SWAP2 SWAP1 POP JUMP JUMPDEST PUSH3 0xC01 DUP2 PUSH3 0xBEC JUMP JUMPDEST DUP2 EQ PUSH3 0xC0D JUMPI PUSH1 0x0 DUP1 REVERT JUMPDEST POP JUMP JUMPDEST PUSH1 0x0 DUP2 MLOAD SWAP1 POP PUSH3 0xC21 DUP2 PUSH3 0xBF6 JUMP JUMPDEST SWAP3 SWAP2 POP POP JUMP JUMPDEST PUSH1 0x0 PUSH1 0x20 DUP3 DUP5 SUB SLT ISZERO PUSH3 0xC40 JUMPI PUSH3 0xC3F PUSH3 0x7E1 JUMP JUMPDEST JUMPDEST PUSH1 0x0 PUSH3 0xC50 DUP5 DUP3 DUP6 ADD PUSH3 0xC10 JUMP JUMPDEST SWAP2 POP POP SWAP3 SWAP2 POP POP JUMP JUMPDEST PUSH1 0x0 PUSH3 0xC67 DUP3 DUP7 PUSH3 0x928 JUMP JUMPDEST SWAP2 POP PUSH3 0xC74 DUP3 PUSH3 0x9B3 JUMP JUMPDEST PUSH1 0x1 DUP3 ADD SWAP2 POP PUSH3 0xC86 DUP3 DUP6 PUSH3 0xA1A JUMP JUMPDEST SWAP2 POP PUSH3 0xC93 DUP3 PUSH3 0x9B3 JUMP JUMPDEST PUSH1 0x1 DUP3 ADD SWAP2 POP PUSH3 0xCA5 DUP3 DUP5 PUSH3 0xA1A JUMP JUMPDEST SWAP2 POP DUP2 SWAP1 POP SWAP5 SWAP4 POP POP POP POP JUMP JUMPDEST PUSH32 0x20286D61696E7461626C655F746F6B656E696420696E742C2069636F6E207465 PUSH1 0x0 DUP3 ADD MSTORE PUSH32 0x78742C20646973706C61795F7479706520746578742C2074726169745F747970 PUSH1 0x20 DUP3 ADD MSTORE PUSH32 0x6520746578742C2076616C756520746578742C2074726169745F696420696E74 PUSH1 0x40 DUP3 ADD MSTORE PUSH32 0x293B000000000000000000000000000000000000000000000000000000000000 PUSH1 0x60 DUP3 ADD MSTORE POP JUMP JUMPDEST PUSH1 0x0 PUSH3 0xD5C PUSH1 0x62 DUP4 PUSH3 0x908 JUMP JUMPDEST SWAP2 POP PUSH3 0xD69 DUP3 PUSH3 0xCB2 JUMP JUMPDEST PUSH1 0x62 DUP3 ADD SWAP1 POP SWAP2 SWAP1 POP JUMP JUMPDEST PUSH1 0x0 PUSH3 0xD81 DUP3 PUSH3 0x87D JUMP JUMPDEST PUSH1 0xD DUP3 ADD SWAP2 POP PUSH3 0xD93 DUP3 DUP6 PUSH3 0x928 JUMP JUMPDEST SWAP2 POP PUSH3 0xDA0 DUP3 PUSH3 0x9B3 JUMP JUMPDEST PUSH1 0x1 DUP3 ADD SWAP2 POP PUSH3 0xDB2 DUP3 DUP5 PUSH3 0xA1A JUMP JUMPDEST SWAP2 POP PUSH3 0xDBF DUP3 PUSH3 0xD4D JUMP JUMPDEST SWAP2 POP DUP2 SWAP1 POP SWAP4 SWAP3 POP POP POP JUMP JUMPDEST PUSH32 0x4E487B7100000000000000000000000000000000000000000000000000000000 PUSH1 0x0 MSTORE PUSH1 0x11 PUSH1 0x4 MSTORE PUSH1 0x24 PUSH1 0x0 REVERT JUMPDEST PUSH1 0x0 PUSH3 0xE07 DUP3 PUSH3 0xBEC JUMP JUMPDEST SWAP2 POP PUSH32 0xFFFFFFFFFFFFFFFFFFFFFFFFFFFFFFFFFFFFFFFFFFFFFFFFFFFFFFFFFFFFFFFF DUP3 EQ ISZERO PUSH3 0xE3D JUMPI PUSH3 0xE3C PUSH3 0xDCB JUMP JUMPDEST JUMPDEST PUSH1 0x1 DUP3 ADD SWAP1 POP SWAP2 SWAP1 POP JUMP JUMPDEST PUSH32 0x4E487B7100000000000000000000000000000000000000000000000000000000 PUSH1 0x0 MSTORE PUSH1 0x12 PUSH1 0x4 MSTORE PUSH1 0x24 PUSH1 0x0 REVERT JUMPDEST PUSH1 0x0 PUSH3 0xE84 DUP3 PUSH3 0xBEC JUMP JUMPDEST SWAP2 POP PUSH3 0xE91 DUP4 PUSH3 0xBEC JUMP JUMPDEST SWAP3 POP DUP3 PUSH3 0xEA4 JUMPI PUSH3 0xEA3 PUSH3 0xE48 JUMP JUMPDEST JUMPDEST DUP3 DUP3 DIV SWAP1 POP SWAP3 SWAP2 POP POP JUMP JUMPDEST PUSH32 0x4E487B7100000000000000000000000000000000000000000000000000000000 PUSH1 0x0 MSTORE PUSH1 0x41 PUSH1 0x4 MSTORE PUSH1 0x24 PUSH1 0x0 REVERT JUMPDEST PUSH1 0x0 PUSH3 0xEEB DUP3 PUSH3 0xBEC JUMP JUMPDEST SWAP2 POP PUSH3 0xEF8 DUP4 PUSH3 0xBEC JUMP JUMPDEST SWAP3 POP DUP3 DUP3 LT ISZERO PUSH3 0xF0E JUMPI PUSH3 0xF0D PUSH3 0xDCB JUMP JUMPDEST JUMPDEST DUP3 DUP3 SUB SWAP1 POP SWAP3 SWAP2 POP POP JUMP JUMPDEST PUSH1 0x0 PUSH3 0xF26 DUP3 PUSH3 0xBEC JUMP JUMPDEST SWAP2 POP PUSH3 0xF33 DUP4 PUSH3 0xBEC JUMP JUMPDEST SWAP3 POP DUP3 PUSH3 0xF46 JUMPI PUSH3 0xF45 PUSH3 0xE48 JUMP JUMPDEST JUMPDEST DUP3 DUP3 MOD SWAP1 POP SWAP3 SWAP2 POP POP JUMP JUMPDEST PUSH1 0x0 PUSH3 0xF5E DUP3 PUSH3 0xBEC JUMP JUMPDEST SWAP2 POP PUSH3 0xF6B DUP4 PUSH3 0xBEC JUMP JUMPDEST SWAP3 POP DUP3 PUSH32 0xFFFFFFFFFFFFFFFFFFFFFFFFFFFFFFFFFFFFFFFFFFFFFFFFFFFFFFFFFFFFFFFF SUB DUP3 GT ISZERO PUSH3 0xFA3 JUMPI PUSH3 0xFA2 PUSH3 0xDCB JUMP JUMPDEST JUMPDEST DUP3 DUP3 ADD SWAP1 POP SWAP3 SWAP2 POP POP JUMP JUMPDEST PUSH32 0x4E487B7100000000000000000000000000000000000000000000000000000000 PUSH1 0x0 MSTORE PUSH1 0x32 PUSH1 0x4 MSTORE PUSH1 0x24 PUSH1 0x0 REVERT JUMPDEST PUSH2 0x56D7 DUP1 PUSH3 0xFED PUSH1 0x0 CODECOPY PUSH1 0x0 RETURN INVALID PUSH1 0x80 PUSH1 0x40 MSTORE CALLVALUE DUP1 ISZERO PUSH2 0x10 JUMPI PUSH1 0x0 DUP1 REVERT JUMPDEST POP PUSH1 0x4 CALLDATASIZE LT PUSH2 0x1DA JUMPI PUSH1 0x0 CALLDATALOAD PUSH1 0xE0 SHR DUP1 PUSH4 0x6352211E GT PUSH2 0x104 JUMPI DUP1 PUSH4 0xA217FDDF GT PUSH2 0xA2 JUMPI DUP1 PUSH4 0xC87B56DD GT PUSH2 0x71 JUMPI DUP1 PUSH4 0xC87B56DD EQ PUSH2 0x565 JUMPI DUP1 PUSH4 0xD547741F EQ PUSH2 0x595 JUMPI DUP1 PUSH4 0xE985E9C5 EQ PUSH2 0x5B1 JUMPI DUP1 PUSH4 0xF15DAA02 EQ PUSH2 0x5E1 JUMPI PUSH2 0x1DA JUMP JUMPDEST DUP1 PUSH4 0xA217FDDF EQ PUSH2 0x4F1 JUMPI DUP1 PUSH4 0xA22CB465 EQ PUSH2 0x50F JUMPI DUP1 PUSH4 0xA8E62F09 EQ PUSH2 0x52B JUMPI DUP1 PUSH4 0xB88D4FDE EQ PUSH2 0x549 JUMPI PUSH2 0x1DA JUMP JUMPDEST DUP1 PUSH4 0x8586B42F GT PUSH2 0xDE JUMPI DUP1 PUSH4 0x8586B42F EQ PUSH2 0x443 JUMPI DUP1 PUSH4 0x91D14854 EQ PUSH2 0x473 JUMPI DUP1 PUSH4 0x95D89B41 EQ PUSH2 0x4A3 JUMPI DUP1 PUSH4 0xA1CED596 EQ PUSH2 0x4C1 JUMPI PUSH2 0x1DA JUMP JUMPDEST DUP1 PUSH4 0x6352211E EQ PUSH2 0x3C5 JUMPI DUP1 PUSH4 0x70A08231 EQ PUSH2 0x3F5 JUMPI DUP1 PUSH4 0x7BC53BE9 EQ PUSH2 0x425 JUMPI PUSH2 0x1DA JUMP JUMPDEST DUP1 PUSH4 0x248A9CA3 GT PUSH2 0x17C JUMPI DUP1 PUSH4 0x42842E0E GT PUSH2 0x14B JUMPI DUP1 PUSH4 0x42842E0E EQ PUSH2 0x353 JUMPI DUP1 PUSH4 0x55F804B3 EQ PUSH2 0x36F JUMPI DUP1 PUSH4 0x5D21260A EQ PUSH2 0x38B JUMPI DUP1 PUSH4 0x60AF4275 EQ PUSH2 0x3A9 JUMPI PUSH2 0x1DA JUMP JUMPDEST DUP1 PUSH4 0x248A9CA3 EQ PUSH2 0x2CF JUMPI DUP1 PUSH4 0x2F2FF15D EQ PUSH2 0x2FF JUMPI DUP1 PUSH4 0x313E91CB EQ PUSH2 0x31B JUMPI DUP1 PUSH4 0x36568ABE EQ PUSH2 0x337 JUMPI PUSH2 0x1DA JUMP JUMPDEST DUP1 PUSH4 0x81812FC GT PUSH2 0x1B8 JUMPI DUP1 PUSH4 0x81812FC EQ PUSH2 0x249 JUMPI DUP1 PUSH4 0x91A77E7 EQ PUSH2 0x279 JUMPI DUP1 PUSH4 0x95EA7B3 EQ PUSH2 0x297 JUMPI DUP1 PUSH4 0x23B872DD EQ PUSH2 0x2B3 JUMPI PUSH2 0x1DA JUMP JUMPDEST DUP1 PUSH4 0x1637608 EQ PUSH2 0x1DF JUMPI DUP1 PUSH4 0x1FFC9A7 EQ PUSH2 0x1FB JUMPI DUP1 PUSH4 0x6FDDE03 EQ PUSH2 0x22B JUMPI JUMPDEST PUSH1 0x0 DUP1 REVERT JUMPDEST PUSH2 0x1F9 PUSH1 0x4 DUP1 CALLDATASIZE SUB DUP2 ADD SWAP1 PUSH2 0x1F4 SWAP2 SWAP1 PUSH2 0x32CB JUMP JUMPDEST PUSH2 0x5FD JUMP JUMPDEST STOP JUMPDEST PUSH2 0x215 PUSH1 0x4 DUP1 CALLDATASIZE SUB DUP2 ADD SWAP1 PUSH2 0x210 SWAP2 SWAP1 PUSH2 0x3392 JUMP JUMPDEST PUSH2 0x86C JUMP JUMPDEST PUSH1 0x40 MLOAD PUSH2 0x222 SWAP2 SWAP1 PUSH2 0x33DA JUMP JUMPDEST PUSH1 0x40 MLOAD DUP1 SWAP2 SUB SWAP1 RETURN JUMPDEST PUSH2 0x233 PUSH2 0x87E JUMP JUMPDEST PUSH1 0x40 MLOAD PUSH2 0x240 SWAP2 SWAP1 PUSH2 0x347D JUMP JUMPDEST PUSH1 0x40 MLOAD DUP1 SWAP2 SUB SWAP1 RETURN JUMPDEST PUSH2 0x263 PUSH1 0x4 DUP1 CALLDATASIZE SUB DUP2 ADD SWAP1 PUSH2 0x25E SWAP2 SWAP1 PUSH2 0x349F JUMP JUMPDEST PUSH2 0x910 JUMP JUMPDEST PUSH1 0x40 MLOAD PUSH2 0x270 SWAP2 SWAP1 PUSH2 0x350D JUMP JUMPDEST PUSH1 0x40 MLOAD DUP1 SWAP2 SUB SWAP1 RETURN JUMPDEST PUSH2 0x281 PUSH2 0x956 JUMP JUMPDEST PUSH1 0x40 MLOAD PUSH2 0x28E SWAP2 SWAP1 PUSH2 0x347D JUMP JUMPDEST PUSH1 0x40 MLOAD DUP1 SWAP2 SUB SWAP1 RETURN JUMPDEST PUSH2 0x2B1 PUSH1 0x4 DUP1 CALLDATASIZE SUB DUP2 ADD SWAP1 PUSH2 0x2AC SWAP2 SWAP1 PUSH2 0x3554 JUMP JUMPDEST PUSH2 0x98D JUMP JUMPDEST STOP JUMPDEST PUSH2 0x2CD PUSH1 0x4 DUP1 CALLDATASIZE SUB DUP2 ADD SWAP1 PUSH2 0x2C8 SWAP2 SWAP1 PUSH2 0x3594 JUMP JUMPDEST PUSH2 0xAA5 JUMP JUMPDEST STOP JUMPDEST PUSH2 0x2E9 PUSH1 0x4 DUP1 CALLDATASIZE SUB DUP2 ADD SWAP1 PUSH2 0x2E4 SWAP2 SWAP1 PUSH2 0x361D JUMP JUMPDEST PUSH2 0xB05 JUMP JUMPDEST PUSH1 0x40 MLOAD PUSH2 0x2F6 SWAP2 SWAP1 PUSH2 0x3659 JUMP JUMPDEST PUSH1 0x40 MLOAD DUP1 SWAP2 SUB SWAP1 RETURN JUMPDEST PUSH2 0x319 PUSH1 0x4 DUP1 CALLDATASIZE SUB DUP2 ADD SWAP1 PUSH2 0x314 SWAP2 SWAP1 PUSH2 0x3674 JUMP JUMPDEST PUSH2 0xB25 JUMP JUMPDEST STOP JUMPDEST PUSH2 0x335 PUSH1 0x4 DUP1 CALLDATASIZE SUB DUP2 ADD SWAP1 PUSH2 0x330 SWAP2 SWAP1 PUSH2 0x32CB JUMP JUMPDEST PUSH2 0xB46 JUMP JUMPDEST STOP JUMPDEST PUSH2 0x351 PUSH1 0x4 DUP1 CALLDATASIZE SUB DUP2 ADD SWAP1 PUSH2 0x34C SWAP2 SWAP1 PUSH2 0x3674 JUMP JUMPDEST PUSH2 0xDB5 JUMP JUMPDEST STOP JUMPDEST PUSH2 0x36D PUSH1 0x4 DUP1 CALLDATASIZE SUB DUP2 ADD SWAP1 PUSH2 0x368 SWAP2 SWAP1 PUSH2 0x3594 JUMP JUMPDEST PUSH2 0xE38 JUMP JUMPDEST STOP JUMPDEST PUSH2 0x389 PUSH1 0x4 DUP1 CALLDATASIZE SUB DUP2 ADD SWAP1 PUSH2 0x384 SWAP2 SWAP1 PUSH2 0x36B4 JUMP JUMPDEST PUSH2 0xE58 JUMP JUMPDEST STOP JUMPDEST PUSH2 0x393 PUSH2 0xE80 JUMP JUMPDEST PUSH1 0x40 MLOAD PUSH2 0x3A0 SWAP2 SWAP1 PUSH2 0x347D JUMP JUMPDEST PUSH1 0x40 MLOAD DUP1 SWAP2 SUB SWAP1 RETURN JUMPDEST PUSH2 0x3C3 PUSH1 0x4 DUP1 CALLDATASIZE SUB DUP2 ADD SWAP1 PUSH2 0x3BE SWAP2 SWAP1 PUSH2 0x32CB JUMP JUMPDEST PUSH2 0xF0E JUMP JUMPDEST STOP JUMPDEST PUSH2 0x3DF PUSH1 0x4 DUP1 CALLDATASIZE SUB DUP2 ADD SWAP1 PUSH2 0x3DA SWAP2 SWAP1 PUSH2 0x349F JUMP JUMPDEST PUSH2 0x117D JUMP JUMPDEST PUSH1 0x40 MLOAD PUSH2 0x3EC SWAP2 SWAP1 PUSH2 0x350D JUMP JUMPDEST PUSH1 0x40 MLOAD DUP1 SWAP2 SUB SWAP1 RETURN JUMPDEST PUSH2 0x40F PUSH1 0x4 DUP1 CALLDATASIZE SUB DUP2 ADD SWAP1 PUSH2 0x40A SWAP2 SWAP1 PUSH2 0x36FD JUMP JUMPDEST PUSH2 0x122F JUMP JUMPDEST PUSH1 0x40 MLOAD PUSH2 0x41C SWAP2 SWAP1 PUSH2 0x3739 JUMP JUMPDEST PUSH1 0x40 MLOAD DUP1 SWAP2 SUB SWAP1 RETURN JUMPDEST PUSH2 0x42D PUSH2 0x12E7 JUMP JUMPDEST PUSH1 0x40 MLOAD PUSH2 0x43A SWAP2 SWAP1 PUSH2 0x347D JUMP JUMPDEST PUSH1 0x40 MLOAD DUP1 SWAP2 SUB SWAP1 RETURN JUMPDEST PUSH2 0x45D PUSH1 0x4 DUP1 CALLDATASIZE SUB DUP2 ADD SWAP1 PUSH2 0x458 SWAP2 SWAP1 PUSH2 0x3754 JUMP JUMPDEST PUSH2 0x1375 JUMP JUMPDEST PUSH1 0x40 MLOAD PUSH2 0x46A SWAP2 SWAP1 PUSH2 0x3739 JUMP JUMPDEST PUSH1 0x40 MLOAD DUP1 SWAP2 SUB SWAP1 RETURN JUMPDEST PUSH2 0x48D PUSH1 0x4 DUP1 CALLDATASIZE SUB DUP2 ADD SWAP1 PUSH2 0x488 SWAP2 SWAP1 PUSH2 0x3674 JUMP JUMPDEST PUSH2 0x159C JUMP JUMPDEST PUSH1 0x40 MLOAD PUSH2 0x49A SWAP2 SWAP1 PUSH2 0x33DA JUMP JUMPDEST PUSH1 0x40 MLOAD DUP1 SWAP2 SUB SWAP1 RETURN JUMPDEST PUSH2 0x4AB PUSH2 0x1607 JUMP JUMPDEST PUSH1 0x40 MLOAD PUSH2 0x4B8 SWAP2 SWAP1 PUSH2 0x347D JUMP JUMPDEST PUSH1 0x40 MLOAD DUP1 SWAP2 SUB SWAP1 RETURN JUMPDEST PUSH2 0x4DB PUSH1 0x4 DUP1 CALLDATASIZE SUB DUP2 ADD SWAP1 PUSH2 0x4D6 SWAP2 SWAP1 PUSH2 0x38FE JUMP JUMPDEST PUSH2 0x1699 JUMP JUMPDEST PUSH1 0x40 MLOAD PUSH2 0x4E8 SWAP2 SWAP1 PUSH2 0x3739 JUMP JUMPDEST PUSH1 0x40 MLOAD DUP1 SWAP2 SUB SWAP1 RETURN JUMPDEST PUSH2 0x4F9 PUSH2 0x1910 JUMP JUMPDEST PUSH1 0x40 MLOAD PUSH2 0x506 SWAP2 SWAP1 PUSH2 0x3659 JUMP JUMPDEST PUSH1 0x40 MLOAD DUP1 SWAP2 SUB SWAP1 RETURN JUMPDEST PUSH2 0x529 PUSH1 0x4 DUP1 CALLDATASIZE SUB DUP2 ADD SWAP1 PUSH2 0x524 SWAP2 SWAP1 PUSH2 0x3A15 JUMP JUMPDEST PUSH2 0x1917 JUMP JUMPDEST STOP JUMPDEST PUSH2 0x533 PUSH2 0x192D JUMP JUMPDEST PUSH1 0x40 MLOAD PUSH2 0x540 SWAP2 SWAP1 PUSH2 0x347D JUMP JUMPDEST PUSH1 0x40 MLOAD DUP1 SWAP2 SUB SWAP1 RETURN JUMPDEST PUSH2 0x563 PUSH1 0x4 DUP1 CALLDATASIZE SUB DUP2 ADD SWAP1 PUSH2 0x55E SWAP2 SWAP1 PUSH2 0x3AF6 JUMP JUMPDEST PUSH2 0x1964 JUMP JUMPDEST STOP JUMPDEST PUSH2 0x57F PUSH1 0x4 DUP1 CALLDATASIZE SUB DUP2 ADD SWAP1 PUSH2 0x57A SWAP2 SWAP1 PUSH2 0x349F JUMP JUMPDEST PUSH2 0x19C6 JUMP JUMPDEST PUSH1 0x40 MLOAD PUSH2 0x58C SWAP2 SWAP1 PUSH2 0x347D JUMP JUMPDEST PUSH1 0x40 MLOAD DUP1 SWAP2 SUB SWAP1 RETURN JUMPDEST PUSH2 0x5AF PUSH1 0x4 DUP1 CALLDATASIZE SUB DUP2 ADD SWAP1 PUSH2 0x5AA SWAP2 SWAP1 PUSH2 0x3674 JUMP JUMPDEST PUSH2 0x1AA2 JUMP JUMPDEST STOP JUMPDEST PUSH2 0x5CB PUSH1 0x4 DUP1 CALLDATASIZE SUB DUP2 ADD SWAP1 PUSH2 0x5C6 SWAP2 SWAP1 PUSH2 0x3B79 JUMP JUMPDEST PUSH2 0x1AC3 JUMP JUMPDEST PUSH1 0x40 MLOAD PUSH2 0x5D8 SWAP2 SWAP1 PUSH2 0x33DA JUMP JUMPDEST PUSH1 0x40 MLOAD DUP1 SWAP2 SUB SWAP1 RETURN JUMPDEST PUSH2 0x5FB PUSH1 0x4 DUP1 CALLDATASIZE SUB DUP2 ADD SWAP1 PUSH2 0x5F6 SWAP2 SWAP1 PUSH2 0x32CB JUMP JUMPDEST PUSH2 0x1B57 JUMP JUMPDEST STOP JUMPDEST CALLER PUSH20 0xFFFFFFFFFFFFFFFFFFFFFFFFFFFFFFFFFFFFFFFF AND ADDRESS PUSH20 0xFFFFFFFFFFFFFFFFFFFFFFFFFFFFFFFFFFFFFFFF AND PUSH4 0x6352211E DUP6 PUSH1 0x40 MLOAD DUP3 PUSH4 0xFFFFFFFF AND PUSH1 0xE0 SHL DUP2 MSTORE PUSH1 0x4 ADD PUSH2 0x64D SWAP2 SWAP1 PUSH2 0x3739 JUMP JUMPDEST PUSH1 0x20 PUSH1 0x40 MLOAD DUP1 DUP4 SUB DUP2 DUP7 GAS STATICCALL ISZERO DUP1 ISZERO PUSH2 0x66A JUMPI RETURNDATASIZE PUSH1 0x0 DUP1 RETURNDATACOPY RETURNDATASIZE PUSH1 0x0 REVERT JUMPDEST POP POP POP POP PUSH1 0x40 MLOAD RETURNDATASIZE PUSH1 0x1F NOT PUSH1 0x1F DUP3 ADD AND DUP3 ADD DUP1 PUSH1 0x40 MSTORE POP DUP2 ADD SWAP1 PUSH2 0x68E SWAP2 SWAP1 PUSH2 0x3BCE JUMP JUMPDEST PUSH20 0xFFFFFFFFFFFFFFFFFFFFFFFFFFFFFFFFFFFFFFFF AND EQ PUSH2 0x6E4 JUMPI PUSH1 0x40 MLOAD PUSH32 0x8C379A000000000000000000000000000000000000000000000000000000000 DUP2 MSTORE PUSH1 0x4 ADD PUSH2 0x6DB SWAP1 PUSH2 0x3C47 JUMP JUMPDEST PUSH1 0x40 MLOAD DUP1 SWAP2 SUB SWAP1 REVERT JUMPDEST DUP2 PUSH1 0xF PUSH1 0x0 DUP6 DUP2 MSTORE PUSH1 0x20 ADD SWAP1 DUP2 MSTORE PUSH1 0x20 ADD PUSH1 0x0 KECCAK256 SLOAD LT ISZERO DUP1 ISZERO PUSH2 0x707 JUMPI POP PUSH1 0x0 DUP3 GT JUMPDEST PUSH2 0x746 JUMPI PUSH1 0x40 MLOAD PUSH32 0x8C379A000000000000000000000000000000000000000000000000000000000 DUP2 MSTORE PUSH1 0x4 ADD PUSH2 0x73D SWAP1 PUSH2 0x3CB3 JUMP JUMPDEST PUSH1 0x40 MLOAD DUP1 SWAP2 SUB SWAP1 REVERT JUMPDEST PUSH1 0x9 PUSH1 0x0 SWAP1 SLOAD SWAP1 PUSH2 0x100 EXP SWAP1 DIV PUSH20 0xFFFFFFFFFFFFFFFFFFFFFFFFFFFFFFFFFFFFFFFF AND PUSH20 0xFFFFFFFFFFFFFFFFFFFFFFFFFFFFFFFFFFFFFFFF AND PUSH4 0xEAF5D04E ADDRESS PUSH1 0xB SLOAD PUSH1 0xE DUP6 PUSH2 0x794 DUP10 PUSH2 0x1DC6 JUMP JUMPDEST PUSH2 0x79D DUP10 PUSH2 0x1DC6 JUMP JUMPDEST PUSH1 0x40 MLOAD PUSH1 0x20 ADD PUSH2 0x7B0 SWAP5 SWAP4 SWAP3 SWAP2 SWAP1 PUSH2 0x3EC2 JUMP JUMPDEST PUSH1 0x40 MLOAD PUSH1 0x20 DUP2 DUP4 SUB SUB DUP2 MSTORE SWAP1 PUSH1 0x40 MSTORE PUSH1 0x40 MLOAD DUP5 PUSH4 0xFFFFFFFF AND PUSH1 0xE0 SHL DUP2 MSTORE PUSH1 0x4 ADD PUSH2 0x7DD SWAP4 SWAP3 SWAP2 SWAP1 PUSH2 0x3F4B JUMP JUMPDEST PUSH1 0x0 PUSH1 0x40 MLOAD DUP1 DUP4 SUB DUP2 PUSH1 0x0 DUP8 DUP1 EXTCODESIZE ISZERO DUP1 ISZERO PUSH2 0x7F7 JUMPI PUSH1 0x0 DUP1 REVERT JUMPDEST POP GAS CALL ISZERO DUP1 ISZERO PUSH2 0x80B JUMPI RETURNDATASIZE PUSH1 0x0 DUP1 RETURNDATACOPY RETURNDATASIZE PUSH1 0x0 REVERT JUMPDEST POP POP POP POP CALLER PUSH20 0xFFFFFFFFFFFFFFFFFFFFFFFFFFFFFFFFFFFFFFFF AND PUSH32 0xBC3FDC5C3D813C4A99D9005E48663BAA4F6A682AFD7BB19427443C53942909C5 TIMESTAMP PUSH1 0xB SLOAD DUP5 DUP8 DUP8 PUSH1 0x40 MLOAD PUSH2 0x85F SWAP6 SWAP5 SWAP4 SWAP3 SWAP2 SWAP1 PUSH2 0x3F89 JUMP JUMPDEST PUSH1 0x40 MLOAD DUP1 SWAP2 SUB SWAP1 LOG2 POP POP POP JUMP JUMPDEST PUSH1 0x0 PUSH2 0x877 DUP3 PUSH2 0x1F27 JUMP JUMPDEST SWAP1 POP SWAP2 SWAP1 POP JUMP JUMPDEST PUSH1 0x60 PUSH1 0x0 DUP1 SLOAD PUSH2 0x88D SWAP1 PUSH2 0x3D28 JUMP JUMPDEST DUP1 PUSH1 0x1F ADD PUSH1 0x20 DUP1 SWAP2 DIV MUL PUSH1 0x20 ADD PUSH1 0x40 MLOAD SWAP1 DUP2 ADD PUSH1 0x40 MSTORE DUP1 SWAP3 SWAP2 SWAP1 DUP2 DUP2 MSTORE PUSH1 0x20 ADD DUP3 DUP1 SLOAD PUSH2 0x8B9 SWAP1 PUSH2 0x3D28 JUMP JUMPDEST DUP1 ISZERO PUSH2 0x906 JUMPI DUP1 PUSH1 0x1F LT PUSH2 0x8DB JUMPI PUSH2 0x100 DUP1 DUP4 SLOAD DIV MUL DUP4 MSTORE SWAP2 PUSH1 0x20 ADD SWAP2 PUSH2 0x906 JUMP JUMPDEST DUP3 ADD SWAP2 SWAP1 PUSH1 0x0 MSTORE PUSH1 0x20 PUSH1 0x0 KECCAK256 SWAP1 JUMPDEST DUP2 SLOAD DUP2 MSTORE SWAP1 PUSH1 0x1 ADD SWAP1 PUSH1 0x20 ADD DUP1 DUP4 GT PUSH2 0x8E9 JUMPI DUP3 SWAP1 SUB PUSH1 0x1F AND DUP3 ADD SWAP2 JUMPDEST POP POP POP POP POP SWAP1 POP SWAP1 JUMP JUMPDEST PUSH1 0x0 PUSH2 0x91B DUP3 PUSH2 0x1FA1 JUMP JUMPDEST PUSH1 0x4 PUSH1 0x0 DUP4 DUP2 MSTORE PUSH1 0x20 ADD SWAP1 DUP2 MSTORE PUSH1 0x20 ADD PUSH1 0x0 KECCAK256 PUSH1 0x0 SWAP1 SLOAD SWAP1 PUSH2 0x100 EXP SWAP1 DIV PUSH20 0xFFFFFFFFFFFFFFFFFFFFFFFFFFFFFFFFFFFFFFFF AND SWAP1 POP SWAP2 SWAP1 POP JUMP JUMPDEST PUSH1 0x60 PUSH1 0x0 PUSH2 0x962 PUSH2 0x1FEC JUMP JUMPDEST SWAP1 POP DUP1 PUSH1 0xE PUSH1 0x40 MLOAD PUSH1 0x20 ADD PUSH2 0x978 SWAP3 SWAP2 SWAP1 PUSH2 0x402F JUMP JUMPDEST PUSH1 0x40 MLOAD PUSH1 0x20 DUP2 DUP4 SUB SUB DUP2 MSTORE SWAP1 PUSH1 0x40 MSTORE SWAP2 POP POP SWAP1 JUMP JUMPDEST PUSH1 0x0 PUSH2 0x998 DUP3 PUSH2 0x117D JUMP JUMPDEST SWAP1 POP DUP1 PUSH20 0xFFFFFFFFFFFFFFFFFFFFFFFFFFFFFFFFFFFFFFFF AND DUP4 PUSH20 0xFFFFFFFFFFFFFFFFFFFFFFFFFFFFFFFFFFFFFFFF AND EQ ISZERO PUSH2 0xA09 JUMPI PUSH1 0x40 MLOAD PUSH32 0x8C379A000000000000000000000000000000000000000000000000000000000 DUP2 MSTORE PUSH1 0x4 ADD PUSH2 0xA00 SWAP1 PUSH2 0x40E3 JUMP JUMPDEST PUSH1 0x40 MLOAD DUP1 SWAP2 SUB SWAP1 REVERT JUMPDEST DUP1 PUSH20 0xFFFFFFFFFFFFFFFFFFFFFFFFFFFFFFFFFFFFFFFF AND PUSH2 0xA28 PUSH2 0x207E JUMP JUMPDEST PUSH20 0xFFFFFFFFFFFFFFFFFFFFFFFFFFFFFFFFFFFFFFFF AND EQ DUP1 PUSH2 0xA57 JUMPI POP PUSH2 0xA56 DUP2 PUSH2 0xA51 PUSH2 0x207E JUMP JUMPDEST PUSH2 0x1AC3 JUMP JUMPDEST JUMPDEST PUSH2 0xA96 JUMPI PUSH1 0x40 MLOAD PUSH32 0x8C379A000000000000000000000000000000000000000000000000000000000 DUP2 MSTORE PUSH1 0x4 ADD PUSH2 0xA8D SWAP1 PUSH2 0x4175 JUMP JUMPDEST PUSH1 0x40 MLOAD DUP1 SWAP2 SUB SWAP1 REVERT JUMPDEST PUSH2 0xAA0 DUP4 DUP4 PUSH2 0x2086 JUMP JUMPDEST POP POP POP JUMP JUMPDEST PUSH2 0xAB6 PUSH2 0xAB0 PUSH2 0x207E JUMP JUMPDEST DUP3 PUSH2 0x213F JUMP JUMPDEST PUSH2 0xAF5 JUMPI PUSH1 0x40 MLOAD PUSH32 0x8C379A000000000000000000000000000000000000000000000000000000000 DUP2 MSTORE PUSH1 0x4 ADD PUSH2 0xAEC SWAP1 PUSH2 0x4207 JUMP JUMPDEST PUSH1 0x40 MLOAD DUP1 SWAP2 SUB SWAP1 REVERT JUMPDEST PUSH2 0xB00 DUP4 DUP4 DUP4 PUSH2 0x21D4 JUMP JUMPDEST POP POP POP JUMP JUMPDEST PUSH1 0x0 PUSH1 0x6 PUSH1 0x0 DUP4 DUP2 MSTORE PUSH1 0x20 ADD SWAP1 DUP2 MSTORE PUSH1 0x20 ADD PUSH1 0x0 KECCAK256 PUSH1 0x1 ADD SLOAD SWAP1 POP SWAP2 SWAP1 POP JUMP JUMPDEST PUSH2 0xB2E DUP3 PUSH2 0xB05 JUMP JUMPDEST PUSH2 0xB37 DUP2 PUSH2 0x243B JUMP JUMPDEST PUSH2 0xB41 DUP4 DUP4 PUSH2 0x244F JUMP JUMPDEST POP POP POP JUMP JUMPDEST CALLER PUSH20 0xFFFFFFFFFFFFFFFFFFFFFFFFFFFFFFFFFFFFFFFF AND ADDRESS PUSH20 0xFFFFFFFFFFFFFFFFFFFFFFFFFFFFFFFFFFFFFFFF AND PUSH4 0x6352211E DUP6 PUSH1 0x40 MLOAD DUP3 PUSH4 0xFFFFFFFF AND PUSH1 0xE0 SHL DUP2 MSTORE PUSH1 0x4 ADD PUSH2 0xB96 SWAP2 SWAP1 PUSH2 0x3739 JUMP JUMPDEST PUSH1 0x20 PUSH1 0x40 MLOAD DUP1 DUP4 SUB DUP2 DUP7 GAS STATICCALL ISZERO DUP1 ISZERO PUSH2 0xBB3 JUMPI RETURNDATASIZE PUSH1 0x0 DUP1 RETURNDATACOPY RETURNDATASIZE PUSH1 0x0 REVERT JUMPDEST POP POP POP POP PUSH1 0x40 MLOAD RETURNDATASIZE PUSH1 0x1F NOT PUSH1 0x1F DUP3 ADD AND DUP3 ADD DUP1 PUSH1 0x40 MSTORE POP DUP2 ADD SWAP1 PUSH2 0xBD7 SWAP2 SWAP1 PUSH2 0x3BCE JUMP JUMPDEST PUSH20 0xFFFFFFFFFFFFFFFFFFFFFFFFFFFFFFFFFFFFFFFF AND EQ PUSH2 0xC2D JUMPI PUSH1 0x40 MLOAD PUSH32 0x8C379A000000000000000000000000000000000000000000000000000000000 DUP2 MSTORE PUSH1 0x4 ADD PUSH2 0xC24 SWAP1 PUSH2 0x3C47 JUMP JUMPDEST PUSH1 0x40 MLOAD DUP1 SWAP2 SUB SWAP1 REVERT JUMPDEST DUP2 PUSH1 0xF PUSH1 0x0 DUP6 DUP2 MSTORE PUSH1 0x20 ADD SWAP1 DUP2 MSTORE PUSH1 0x20 ADD PUSH1 0x0 KECCAK256 SLOAD LT ISZERO DUP1 ISZERO PUSH2 0xC50 JUMPI POP PUSH1 0x0 DUP3 GT JUMPDEST PUSH2 0xC8F JUMPI PUSH1 0x40 MLOAD PUSH32 0x8C379A000000000000000000000000000000000000000000000000000000000 DUP2 MSTORE PUSH1 0x4 ADD PUSH2 0xC86 SWAP1 PUSH2 0x3CB3 JUMP JUMPDEST PUSH1 0x40 MLOAD DUP1 SWAP2 SUB SWAP1 REVERT JUMPDEST PUSH1 0x9 PUSH1 0x0 SWAP1 SLOAD SWAP1 PUSH2 0x100 EXP SWAP1 DIV PUSH20 0xFFFFFFFFFFFFFFFFFFFFFFFFFFFFFFFFFFFFFFFF AND PUSH20 0xFFFFFFFFFFFFFFFFFFFFFFFFFFFFFFFFFFFFFFFF AND PUSH4 0xEAF5D04E ADDRESS PUSH1 0xB SLOAD PUSH1 0xE DUP6 PUSH2 0xCDD DUP10 PUSH2 0x1DC6 JUMP JUMPDEST PUSH2 0xCE6 DUP10 PUSH2 0x1DC6 JUMP JUMPDEST PUSH1 0x40 MLOAD PUSH1 0x20 ADD PUSH2 0xCF9 SWAP5 SWAP4 SWAP3 SWAP2 SWAP1 PUSH2 0x424D JUMP JUMPDEST PUSH1 0x40 MLOAD PUSH1 0x20 DUP2 DUP4 SUB SUB DUP2 MSTORE SWAP1 PUSH1 0x40 MSTORE PUSH1 0x40 MLOAD DUP5 PUSH4 0xFFFFFFFF AND PUSH1 0xE0 SHL DUP2 MSTORE PUSH1 0x4 ADD PUSH2 0xD26 SWAP4 SWAP3 SWAP2 SWAP1 PUSH2 0x3F4B JUMP JUMPDEST PUSH1 0x0 PUSH1 0x40 MLOAD DUP1 DUP4 SUB DUP2 PUSH1 0x0 DUP8 DUP1 EXTCODESIZE ISZERO DUP1 ISZERO PUSH2 0xD40 JUMPI PUSH1 0x0 DUP1 REVERT JUMPDEST POP GAS CALL ISZERO DUP1 ISZERO PUSH2 0xD54 JUMPI RETURNDATASIZE PUSH1 0x0 DUP1 RETURNDATACOPY RETURNDATASIZE PUSH1 0x0 REVERT JUMPDEST POP POP POP POP CALLER PUSH20 0xFFFFFFFFFFFFFFFFFFFFFFFFFFFFFFFFFFFFFFFF AND PUSH32 0xEC0F0D67678A9D5A686AB06FA92FADB72E148B9EBDEAD00EB6601B6A1FD07C8F TIMESTAMP PUSH1 0xB SLOAD DUP5 DUP8 DUP8 PUSH1 0x40 MLOAD PUSH2 0xDA8 SWAP6 SWAP5 SWAP4 SWAP3 SWAP2 SWAP1 PUSH2 0x3F89 JUMP JUMPDEST PUSH1 0x40 MLOAD DUP1 SWAP2 SUB SWAP1 LOG2 POP POP POP JUMP JUMPDEST PUSH2 0xDBD PUSH2 0x207E JUMP JUMPDEST PUSH20 0xFFFFFFFFFFFFFFFFFFFFFFFFFFFFFFFFFFFFFFFF AND DUP2 PUSH20 0xFFFFFFFFFFFFFFFFFFFFFFFFFFFFFFFFFFFFFFFF AND EQ PUSH2 0xE2A JUMPI PUSH1 0x40 MLOAD PUSH32 0x8C379A000000000000000000000000000000000000000000000000000000000 DUP2 MSTORE PUSH1 0x4 ADD PUSH2 0xE21 SWAP1 PUSH2 0x4348 JUMP JUMPDEST PUSH1 0x40 MLOAD DUP1 SWAP2 SUB SWAP1 REVERT JUMPDEST PUSH2 0xE34 DUP3 DUP3 PUSH2 0x2530 JUMP JUMPDEST POP POP JUMP JUMPDEST PUSH2 0xE53 DUP4 DUP4 DUP4 PUSH1 0x40 MLOAD DUP1 PUSH1 0x20 ADD PUSH1 0x40 MSTORE DUP1 PUSH1 0x0 DUP2 MSTORE POP PUSH2 0x1964 JUMP JUMPDEST POP POP POP JUMP JUMPDEST PUSH1 0x0 DUP1 SHL PUSH2 0xE65 DUP2 PUSH2 0x243B JUMP JUMPDEST DUP2 PUSH1 0x7 SWAP1 DUP1 MLOAD SWAP1 PUSH1 0x20 ADD SWAP1 PUSH2 0xE7B SWAP3 SWAP2 SWAP1 PUSH2 0x3098 JUMP JUMPDEST POP POP POP JUMP JUMPDEST PUSH1 0xD DUP1 SLOAD PUSH2 0xE8D SWAP1 PUSH2 0x3D28 JUMP JUMPDEST DUP1 PUSH1 0x1F ADD PUSH1 0x20 DUP1 SWAP2 DIV MUL PUSH1 0x20 ADD PUSH1 0x40 MLOAD SWAP1 DUP2 ADD PUSH1 0x40 MSTORE DUP1 SWAP3 SWAP2 SWAP1 DUP2 DUP2 MSTORE PUSH1 0x20 ADD DUP3 DUP1 SLOAD PUSH2 0xEB9 SWAP1 PUSH2 0x3D28 JUMP JUMPDEST DUP1 ISZERO PUSH2 0xF06 JUMPI DUP1 PUSH1 0x1F LT PUSH2 0xEDB JUMPI PUSH2 0x100 DUP1 DUP4 SLOAD DIV MUL DUP4 MSTORE SWAP2 PUSH1 0x20 ADD SWAP2 PUSH2 0xF06 JUMP JUMPDEST DUP3 ADD SWAP2 SWAP1 PUSH1 0x0 MSTORE PUSH1 0x20 PUSH1 0x0 KECCAK256 SWAP1 JUMPDEST DUP2 SLOAD DUP2 MSTORE SWAP1 PUSH1 0x1 ADD SWAP1 PUSH1 0x20 ADD DUP1 DUP4 GT PUSH2 0xEE9 JUMPI DUP3 SWAP1 SUB PUSH1 0x1F AND DUP3 ADD SWAP2 JUMPDEST POP POP POP POP POP DUP2 JUMP JUMPDEST CALLER PUSH20 0xFFFFFFFFFFFFFFFFFFFFFFFFFFFFFFFFFFFFFFFF AND ADDRESS PUSH20 0xFFFFFFFFFFFFFFFFFFFFFFFFFFFFFFFFFFFFFFFF AND PUSH4 0x6352211E DUP6 PUSH1 0x40 MLOAD DUP3 PUSH4 0xFFFFFFFF AND PUSH1 0xE0 SHL DUP2 MSTORE PUSH1 0x4 ADD PUSH2 0xF5E SWAP2 SWAP1 PUSH2 0x3739 JUMP JUMPDEST PUSH1 0x20 PUSH1 0x40 MLOAD DUP1 DUP4 SUB DUP2 DUP7 GAS STATICCALL ISZERO DUP1 ISZERO PUSH2 0xF7B JUMPI RETURNDATASIZE PUSH1 0x0 DUP1 RETURNDATACOPY RETURNDATASIZE PUSH1 0x0 REVERT JUMPDEST POP POP POP POP PUSH1 0x40 MLOAD RETURNDATASIZE PUSH1 0x1F NOT PUSH1 0x1F DUP3 ADD AND DUP3 ADD DUP1 PUSH1 0x40 MSTORE POP DUP2 ADD SWAP1 PUSH2 0xF9F SWAP2 SWAP1 PUSH2 0x3BCE JUMP JUMPDEST PUSH20 0xFFFFFFFFFFFFFFFFFFFFFFFFFFFFFFFFFFFFFFFF AND EQ PUSH2 0xFF5 JUMPI PUSH1 0x40 MLOAD PUSH32 0x8C379A000000000000000000000000000000000000000000000000000000000 DUP2 MSTORE PUSH1 0x4 ADD PUSH2 0xFEC SWAP1 PUSH2 0x3C47 JUMP JUMPDEST PUSH1 0x40 MLOAD DUP1 SWAP2 SUB SWAP1 REVERT JUMPDEST DUP2 PUSH1 0xF PUSH1 0x0 DUP6 DUP2 MSTORE PUSH1 0x20 ADD SWAP1 DUP2 MSTORE PUSH1 0x20 ADD PUSH1 0x0 KECCAK256 SLOAD LT ISZERO DUP1 ISZERO PUSH2 0x1018 JUMPI POP PUSH1 0x0 DUP3 GT JUMPDEST PUSH2 0x1057 JUMPI PUSH1 0x40 MLOAD PUSH32 0x8C379A000000000000000000000000000000000000000000000000000000000 DUP2 MSTORE PUSH1 0x4 ADD PUSH2 0x104E SWAP1 PUSH2 0x3CB3 JUMP JUMPDEST PUSH1 0x40 MLOAD DUP1 SWAP2 SUB SWAP1 REVERT JUMPDEST PUSH1 0x9 PUSH1 0x0 SWAP1 SLOAD SWAP1 PUSH2 0x100 EXP SWAP1 DIV PUSH20 0xFFFFFFFFFFFFFFFFFFFFFFFFFFFFFFFFFFFFFFFF AND PUSH20 0xFFFFFFFFFFFFFFFFFFFFFFFFFFFFFFFFFFFFFFFF AND PUSH4 0xEAF5D04E ADDRESS PUSH1 0xB SLOAD PUSH1 0xE DUP6 PUSH2 0x10A5 DUP10 PUSH2 0x1DC6 JUMP JUMPDEST PUSH2 0x10AE DUP10 PUSH2 0x1DC6 JUMP JUMPDEST PUSH1 0x40 MLOAD PUSH1 0x20 ADD PUSH2 0x10C1 SWAP5 SWAP4 SWAP3 SWAP2 SWAP1 PUSH2 0x438E JUMP JUMPDEST PUSH1 0x40 MLOAD PUSH1 0x20 DUP2 DUP4 SUB SUB DUP2 MSTORE SWAP1 PUSH1 0x40 MSTORE PUSH1 0x40 MLOAD DUP5 PUSH4 0xFFFFFFFF AND PUSH1 0xE0 SHL DUP2 MSTORE PUSH1 0x4 ADD PUSH2 0x10EE SWAP4 SWAP3 SWAP2 SWAP1 PUSH2 0x3F4B JUMP JUMPDEST PUSH1 0x0 PUSH1 0x40 MLOAD DUP1 DUP4 SUB DUP2 PUSH1 0x0 DUP8 DUP1 EXTCODESIZE ISZERO DUP1 ISZERO PUSH2 0x1108 JUMPI PUSH1 0x0 DUP1 REVERT JUMPDEST POP GAS CALL ISZERO DUP1 ISZERO PUSH2 0x111C JUMPI RETURNDATASIZE PUSH1 0x0 DUP1 RETURNDATACOPY RETURNDATASIZE PUSH1 0x0 REVERT JUMPDEST POP POP POP POP CALLER PUSH20 0xFFFFFFFFFFFFFFFFFFFFFFFFFFFFFFFFFFFFFFFF AND PUSH32 0x280BB8C24C5B69393733B8CF1779EC264023540E75149B5024DE5EA55A41736E TIMESTAMP PUSH1 0xB SLOAD DUP5 DUP8 DUP8 PUSH1 0x40 MLOAD PUSH2 0x1170 SWAP6 SWAP5 SWAP4 SWAP3 SWAP2 SWAP1 PUSH2 0x3F89 JUMP JUMPDEST PUSH1 0x40 MLOAD DUP1 SWAP2 SUB SWAP1 LOG2 POP POP POP JUMP JUMPDEST PUSH1 0x0 DUP1 PUSH1 0x2 PUSH1 0x0 DUP5 DUP2 MSTORE PUSH1 0x20 ADD SWAP1 DUP2 MSTORE PUSH1 0x20 ADD PUSH1 0x0 KECCAK256 PUSH1 0x0 SWAP1 SLOAD SWAP1 PUSH2 0x100 EXP SWAP1 DIV PUSH20 0xFFFFFFFFFFFFFFFFFFFFFFFFFFFFFFFFFFFFFFFF AND SWAP1 POP PUSH1 0x0 PUSH20 0xFFFFFFFFFFFFFFFFFFFFFFFFFFFFFFFFFFFFFFFF AND DUP2 PUSH20 0xFFFFFFFFFFFFFFFFFFFFFFFFFFFFFFFFFFFFFFFF AND EQ ISZERO PUSH2 0x1226 JUMPI PUSH1 0x40 MLOAD PUSH32 0x8C379A000000000000000000000000000000000000000000000000000000000 DUP2 MSTORE PUSH1 0x4 ADD PUSH2 0x121D SWAP1 PUSH2 0x4463 JUMP JUMPDEST PUSH1 0x40 MLOAD DUP1 SWAP2 SUB SWAP1 REVERT JUMPDEST DUP1 SWAP2 POP POP SWAP2 SWAP1 POP JUMP JUMPDEST PUSH1 0x0 DUP1 PUSH20 0xFFFFFFFFFFFFFFFFFFFFFFFFFFFFFFFFFFFFFFFF AND DUP3 PUSH20 0xFFFFFFFFFFFFFFFFFFFFFFFFFFFFFFFFFFFFFFFF AND EQ ISZERO PUSH2 0x12A0 JUMPI PUSH1 0x40 MLOAD PUSH32 0x8C379A000000000000000000000000000000000000000000000000000000000 DUP2 MSTORE PUSH1 0x4 ADD PUSH2 0x1297 SWAP1 PUSH2 0x44F5 JUMP JUMPDEST PUSH1 0x40 MLOAD DUP1 SWAP2 SUB SWAP1 REVERT JUMPDEST PUSH1 0x3 PUSH1 0x0 DUP4 PUSH20 0xFFFFFFFFFFFFFFFFFFFFFFFFFFFFFFFFFFFFFFFF AND PUSH20 0xFFFFFFFFFFFFFFFFFFFFFFFFFFFFFFFFFFFFFFFF AND DUP2 MSTORE PUSH1 0x20 ADD SWAP1 DUP2 MSTORE PUSH1 0x20 ADD PUSH1 0x0 KECCAK256 SLOAD SWAP1 POP SWAP2 SWAP1 POP JUMP JUMPDEST PUSH1 0xE DUP1 SLOAD PUSH2 0x12F4 SWAP1 PUSH2 0x3D28 JUMP JUMPDEST DUP1 PUSH1 0x1F ADD PUSH1 0x20 DUP1 SWAP2 DIV MUL PUSH1 0x20 ADD PUSH1 0x40 MLOAD SWAP1 DUP2 ADD PUSH1 0x40 MSTORE DUP1 SWAP3 SWAP2 SWAP1 DUP2 DUP2 MSTORE PUSH1 0x20 ADD DUP3 DUP1 SLOAD PUSH2 0x1320 SWAP1 PUSH2 0x3D28 JUMP JUMPDEST DUP1 ISZERO PUSH2 0x136D JUMPI DUP1 PUSH1 0x1F LT PUSH2 0x1342 JUMPI PUSH2 0x100 DUP1 DUP4 SLOAD DIV MUL DUP4 MSTORE SWAP2 PUSH1 0x20 ADD SWAP2 PUSH2 0x136D JUMP JUMPDEST DUP3 ADD SWAP2 SWAP1 PUSH1 0x0 MSTORE PUSH1 0x20 PUSH1 0x0 KECCAK256 SWAP1 JUMPDEST DUP2 SLOAD DUP2 MSTORE SWAP1 PUSH1 0x1 ADD SWAP1 PUSH1 0x20 ADD DUP1 DUP4 GT PUSH2 0x1350 JUMPI DUP3 SWAP1 SUB PUSH1 0x1F AND DUP3 ADD SWAP2 JUMPDEST POP POP POP POP POP DUP2 JUMP JUMPDEST PUSH1 0x0 DUP1 PUSH2 0x1382 PUSH1 0x8 PUSH2 0x2612 JUMP JUMPDEST SWAP1 POP PUSH1 0x9 PUSH1 0x0 SWAP1 SLOAD SWAP1 PUSH2 0x100 EXP SWAP1 DIV PUSH20 0xFFFFFFFFFFFFFFFFFFFFFFFFFFFFFFFFFFFFFFFF AND PUSH20 0xFFFFFFFFFFFFFFFFFFFFFFFFFFFFFFFFFFFFFFFF AND PUSH4 0xEAF5D04E ADDRESS PUSH1 0xA SLOAD PUSH1 0xD PUSH2 0x13D1 DUP7 PUSH2 0x1DC6 JUMP JUMPDEST DUP16 DUP16 DUP16 DUP16 PUSH1 0x40 MLOAD PUSH1 0x20 ADD PUSH2 0x13EA SWAP7 SWAP6 SWAP5 SWAP4 SWAP3 SWAP2 SWAP1 PUSH2 0x45F9 JUMP JUMPDEST PUSH1 0x40 MLOAD PUSH1 0x20 DUP2 DUP4 SUB SUB DUP2 MSTORE SWAP1 PUSH1 0x40 MSTORE PUSH1 0x40 MLOAD DUP5 PUSH4 0xFFFFFFFF AND PUSH1 0xE0 SHL DUP2 MSTORE PUSH1 0x4 ADD PUSH2 0x1417 SWAP4 SWAP3 SWAP2 SWAP1 PUSH2 0x3F4B JUMP JUMPDEST PUSH1 0x0 PUSH1 0x40 MLOAD DUP1 DUP4 SUB DUP2 PUSH1 0x0 DUP8 DUP1 EXTCODESIZE ISZERO DUP1 ISZERO PUSH2 0x1431 JUMPI PUSH1 0x0 DUP1 REVERT JUMPDEST POP GAS CALL ISZERO DUP1 ISZERO PUSH2 0x1445 JUMPI RETURNDATASIZE PUSH1 0x0 DUP1 RETURNDATACOPY RETURNDATASIZE PUSH1 0x0 REVERT JUMPDEST POP POP POP POP PUSH1 0x9 PUSH1 0x0 SWAP1 SLOAD SWAP1 PUSH2 0x100 EXP SWAP1 DIV PUSH20 0xFFFFFFFFFFFFFFFFFFFFFFFFFFFFFFFFFFFFFFFF AND PUSH20 0xFFFFFFFFFFFFFFFFFFFFFFFFFFFFFFFFFFFFFFFF AND PUSH4 0xEAF5D04E ADDRESS PUSH1 0xB SLOAD PUSH1 0xE PUSH2 0x1496 DUP7 PUSH2 0x1DC6 JUMP JUMPDEST DUP12 DUP12 DUP12 DUP12 PUSH1 0x40 MLOAD PUSH1 0x20 ADD PUSH2 0x14AF SWAP7 SWAP6 SWAP5 SWAP4 SWAP3 SWAP2 SWAP1 PUSH2 0x4774 JUMP JUMPDEST PUSH1 0x40 MLOAD PUSH1 0x20 DUP2 DUP4 SUB SUB DUP2 MSTORE SWAP1 PUSH1 0x40 MSTORE PUSH1 0x40 MLOAD DUP5 PUSH4 0xFFFFFFFF AND PUSH1 0xE0 SHL DUP2 MSTORE PUSH1 0x4 ADD PUSH2 0x14DC SWAP4 SWAP3 SWAP2 SWAP1 PUSH2 0x3F4B JUMP JUMPDEST PUSH1 0x0 PUSH1 0x40 MLOAD DUP1 DUP4 SUB DUP2 PUSH1 0x0 DUP8 DUP1 EXTCODESIZE ISZERO DUP1 ISZERO PUSH2 0x14F6 JUMPI PUSH1 0x0 DUP1 REVERT JUMPDEST POP GAS CALL ISZERO DUP1 ISZERO PUSH2 0x150A JUMPI RETURNDATASIZE PUSH1 0x0 DUP1 RETURNDATACOPY RETURNDATASIZE PUSH1 0x0 REVERT JUMPDEST POP POP POP POP PUSH2 0x1518 DUP12 DUP3 PUSH2 0x2620 JUMP JUMPDEST PUSH1 0x1 PUSH1 0xF PUSH1 0x0 DUP4 DUP2 MSTORE PUSH1 0x20 ADD SWAP1 DUP2 MSTORE PUSH1 0x20 ADD PUSH1 0x0 KECCAK256 DUP2 SWAP1 SSTORE POP PUSH2 0x153B PUSH1 0x8 PUSH2 0x263E JUMP JUMPDEST CALLER PUSH20 0xFFFFFFFFFFFFFFFFFFFFFFFFFFFFFFFFFFFFFFFF AND PUSH32 0x61B141191D79859F7CC6256C1B9E5F380052197831EFE9135841C0FF4DE7E63 TIMESTAMP DUP4 PUSH1 0x40 MLOAD PUSH2 0x1583 SWAP3 SWAP2 SWAP1 PUSH2 0x484F JUMP JUMPDEST PUSH1 0x40 MLOAD DUP1 SWAP2 SUB SWAP1 LOG2 DUP1 SWAP2 POP POP SWAP10 SWAP9 POP POP POP POP POP POP POP POP POP JUMP JUMPDEST PUSH1 0x0 PUSH1 0x6 PUSH1 0x0 DUP5 DUP2 MSTORE PUSH1 0x20 ADD SWAP1 DUP2 MSTORE PUSH1 0x20 ADD PUSH1 0x0 KECCAK256 PUSH1 0x0 ADD PUSH1 0x0 DUP4 PUSH20 0xFFFFFFFFFFFFFFFFFFFFFFFFFFFFFFFFFFFFFFFF AND PUSH20 0xFFFFFFFFFFFFFFFFFFFFFFFFFFFFFFFFFFFFFFFF AND DUP2 MSTORE PUSH1 0x20 ADD SWAP1 DUP2 MSTORE PUSH1 0x20 ADD PUSH1 0x0 KECCAK256 PUSH1 0x0 SWAP1 SLOAD SWAP1 PUSH2 0x100 EXP SWAP1 DIV PUSH1 0xFF AND SWAP1 POP SWAP3 SWAP2 POP POP JUMP JUMPDEST PUSH1 0x60 PUSH1 0x1 DUP1 SLOAD PUSH2 0x1616 SWAP1 PUSH2 0x3D28 JUMP JUMPDEST DUP1 PUSH1 0x1F ADD PUSH1 0x20 DUP1 SWAP2 DIV MUL PUSH1 0x20 ADD PUSH1 0x40 MLOAD SWAP1 DUP2 ADD PUSH1 0x40 MSTORE DUP1 SWAP3 SWAP2 SWAP1 DUP2 DUP2 MSTORE PUSH1 0x20 ADD DUP3 DUP1 SLOAD PUSH2 0x1642 SWAP1 PUSH2 0x3D28 JUMP JUMPDEST DUP1 ISZERO PUSH2 0x168F JUMPI DUP1 PUSH1 0x1F LT PUSH2 0x1664 JUMPI PUSH2 0x100 DUP1 DUP4 SLOAD DIV MUL DUP4 MSTORE SWAP2 PUSH1 0x20 ADD SWAP2 PUSH2 0x168F JUMP JUMPDEST DUP3 ADD SWAP2 SWAP1 PUSH1 0x0 MSTORE PUSH1 0x20 PUSH1 0x0 KECCAK256 SWAP1 JUMPDEST DUP2 SLOAD DUP2 MSTORE SWAP1 PUSH1 0x1 ADD SWAP1 PUSH1 0x20 ADD DUP1 DUP4 GT PUSH2 0x1672 JUMPI DUP3 SWAP1 SUB PUSH1 0x1F AND DUP3 ADD SWAP2 JUMPDEST POP POP POP POP POP SWAP1 POP SWAP1 JUMP JUMPDEST PUSH1 0x0 CALLER PUSH20 0xFFFFFFFFFFFFFFFFFFFFFFFFFFFFFFFFFFFFFFFF AND ADDRESS PUSH20 0xFFFFFFFFFFFFFFFFFFFFFFFFFFFFFFFFFFFFFFFF AND PUSH4 0x6352211E DUP9 PUSH1 0x40 MLOAD DUP3 PUSH4 0xFFFFFFFF AND PUSH1 0xE0 SHL DUP2 MSTORE PUSH1 0x4 ADD PUSH2 0x16EB SWAP2 SWAP1 PUSH2 0x3739 JUMP JUMPDEST PUSH1 0x20 PUSH1 0x40 MLOAD DUP1 DUP4 SUB DUP2 DUP7 GAS STATICCALL ISZERO DUP1 ISZERO PUSH2 0x1708 JUMPI RETURNDATASIZE PUSH1 0x0 DUP1 RETURNDATACOPY RETURNDATASIZE PUSH1 0x0 REVERT JUMPDEST POP POP POP POP PUSH1 0x40 MLOAD RETURNDATASIZE PUSH1 0x1F NOT PUSH1 0x1F DUP3 ADD AND DUP3 ADD DUP1 PUSH1 0x40 MSTORE POP DUP2 ADD SWAP1 PUSH2 0x172C SWAP2 SWAP1 PUSH2 0x3BCE JUMP JUMPDEST PUSH20 0xFFFFFFFFFFFFFFFFFFFFFFFFFFFFFFFFFFFFFFFF AND EQ PUSH2 0x1782 JUMPI PUSH1 0x40 MLOAD PUSH32 0x8C379A000000000000000000000000000000000000000000000000000000000 DUP2 MSTORE PUSH1 0x4 ADD PUSH2 0x1779 SWAP1 PUSH2 0x3C47 JUMP JUMPDEST PUSH1 0x40 MLOAD DUP1 SWAP2 SUB SWAP1 REVERT JUMPDEST PUSH1 0x0 PUSH1 0xF PUSH1 0x0 DUP9 DUP2 MSTORE PUSH1 0x20 ADD SWAP1 DUP2 MSTORE PUSH1 0x20 ADD PUSH1 0x0 KECCAK256 SLOAD SWAP1 POP PUSH1 0x9 PUSH1 0x0 SWAP1 SLOAD SWAP1 PUSH2 0x100 EXP SWAP1 DIV PUSH20 0xFFFFFFFFFFFFFFFFFFFFFFFFFFFFFFFFFFFFFFFF AND PUSH20 0xFFFFFFFFFFFFFFFFFFFFFFFFFFFFFFFFFFFFFFFF AND PUSH4 0xEAF5D04E ADDRESS PUSH1 0xB SLOAD PUSH1 0xE PUSH2 0x17E7 DUP13 PUSH2 0x1DC6 JUMP JUMPDEST DUP12 DUP12 DUP12 DUP12 PUSH2 0x1800 PUSH1 0x1 DUP13 PUSH2 0x17FB SWAP2 SWAP1 PUSH2 0x48A7 JUMP JUMPDEST PUSH2 0x1DC6 JUMP JUMPDEST PUSH1 0x40 MLOAD PUSH1 0x20 ADD PUSH2 0x1816 SWAP8 SWAP7 SWAP6 SWAP5 SWAP4 SWAP3 SWAP2 SWAP1 PUSH2 0x48FD JUMP JUMPDEST PUSH1 0x40 MLOAD PUSH1 0x20 DUP2 DUP4 SUB SUB DUP2 MSTORE SWAP1 PUSH1 0x40 MSTORE PUSH1 0x40 MLOAD DUP5 PUSH4 0xFFFFFFFF AND PUSH1 0xE0 SHL DUP2 MSTORE PUSH1 0x4 ADD PUSH2 0x1843 SWAP4 SWAP3 SWAP2 SWAP1 PUSH2 0x3F4B JUMP JUMPDEST PUSH1 0x0 PUSH1 0x40 MLOAD DUP1 DUP4 SUB DUP2 PUSH1 0x0 DUP8 DUP1 EXTCODESIZE ISZERO DUP1 ISZERO PUSH2 0x185D JUMPI PUSH1 0x0 DUP1 REVERT JUMPDEST POP GAS CALL ISZERO DUP1 ISZERO PUSH2 0x1871 JUMPI RETURNDATASIZE PUSH1 0x0 DUP1 RETURNDATACOPY RETURNDATASIZE PUSH1 0x0 REVERT JUMPDEST POP POP POP POP PUSH1 0x1 DUP2 PUSH2 0x1882 SWAP2 SWAP1 PUSH2 0x48A7 JUMP JUMPDEST PUSH1 0xF PUSH1 0x0 DUP10 DUP2 MSTORE PUSH1 0x20 ADD SWAP1 DUP2 MSTORE PUSH1 0x20 ADD PUSH1 0x0 KECCAK256 DUP2 SWAP1 SSTORE POP CALLER PUSH20 0xFFFFFFFFFFFFFFFFFFFFFFFFFFFFFFFFFFFFFFFF AND PUSH32 0x49F81050F063E5873E3DA74C80D522B979EF15124EA45757CE3E838D7E2D703E TIMESTAMP DUP10 PUSH1 0x1 DUP6 PUSH2 0x18E0 SWAP2 SWAP1 PUSH2 0x48A7 JUMP JUMPDEST PUSH1 0x40 MLOAD PUSH2 0x18EF SWAP4 SWAP3 SWAP2 SWAP1 PUSH2 0x49D6 JUMP JUMPDEST PUSH1 0x40 MLOAD DUP1 SWAP2 SUB SWAP1 LOG2 PUSH1 0x1 DUP2 PUSH2 0x1904 SWAP2 SWAP1 PUSH2 0x48A7 JUMP JUMPDEST SWAP2 POP POP SWAP6 SWAP5 POP POP POP POP POP JUMP JUMPDEST PUSH1 0x0 DUP1 SHL DUP2 JUMP JUMPDEST PUSH2 0x1929 PUSH2 0x1922 PUSH2 0x207E JUMP JUMPDEST DUP4 DUP4 PUSH2 0x2654 JUMP JUMPDEST POP POP JUMP JUMPDEST PUSH1 0x60 PUSH1 0x0 PUSH2 0x1939 PUSH2 0x1FEC JUMP JUMPDEST SWAP1 POP DUP1 PUSH1 0xD PUSH1 0x40 MLOAD PUSH1 0x20 ADD PUSH2 0x194F SWAP3 SWAP2 SWAP1 PUSH2 0x402F JUMP JUMPDEST PUSH1 0x40 MLOAD PUSH1 0x20 DUP2 DUP4 SUB SUB DUP2 MSTORE SWAP1 PUSH1 0x40 MSTORE SWAP2 POP POP SWAP1 JUMP JUMPDEST PUSH2 0x1975 PUSH2 0x196F PUSH2 0x207E JUMP JUMPDEST DUP4 PUSH2 0x213F JUMP JUMPDEST PUSH2 0x19B4 JUMPI PUSH1 0x40 MLOAD PUSH32 0x8C379A000000000000000000000000000000000000000000000000000000000 DUP2 MSTORE PUSH1 0x4 ADD PUSH2 0x19AB SWAP1 PUSH2 0x4207 JUMP JUMPDEST PUSH1 0x40 MLOAD DUP1 SWAP2 SUB SWAP1 REVERT JUMPDEST PUSH2 0x19C0 DUP5 DUP5 DUP5 DUP5 PUSH2 0x27C1 JUMP JUMPDEST POP POP POP POP JUMP JUMPDEST PUSH1 0x60 PUSH2 0x19D1 DUP3 PUSH2 0x281D JUMP JUMPDEST PUSH2 0x1A10 JUMPI PUSH1 0x40 MLOAD PUSH32 0x8C379A000000000000000000000000000000000000000000000000000000000 DUP2 MSTORE PUSH1 0x4 ADD PUSH2 0x1A07 SWAP1 PUSH2 0x4A7F JUMP JUMPDEST PUSH1 0x40 MLOAD DUP1 SWAP2 SUB SWAP1 REVERT JUMPDEST PUSH1 0x0 PUSH2 0x1A1A PUSH2 0x1FEC JUMP JUMPDEST SWAP1 POP PUSH1 0x0 DUP2 MLOAD EQ ISZERO PUSH2 0x1A3E JUMPI PUSH1 0x40 MLOAD DUP1 PUSH1 0x20 ADD PUSH1 0x40 MSTORE DUP1 PUSH1 0x0 DUP2 MSTORE POP SWAP2 POP POP PUSH2 0x1A9D JUMP JUMPDEST PUSH1 0x0 PUSH1 0xD PUSH1 0xE PUSH1 0xD PUSH1 0xE PUSH1 0x40 MLOAD PUSH1 0x20 ADD PUSH2 0x1A5B SWAP5 SWAP4 SWAP3 SWAP2 SWAP1 PUSH2 0x4DC2 JUMP JUMPDEST PUSH1 0x40 MLOAD PUSH1 0x20 DUP2 DUP4 SUB SUB DUP2 MSTORE SWAP1 PUSH1 0x40 MSTORE SWAP1 POP DUP2 DUP2 PUSH2 0x1A77 DUP7 PUSH2 0x1DC6 JUMP JUMPDEST PUSH1 0x40 MLOAD PUSH1 0x20 ADD PUSH2 0x1A89 SWAP4 SWAP3 SWAP2 SWAP1 PUSH2 0x4ECF JUMP JUMPDEST PUSH1 0x40 MLOAD PUSH1 0x20 DUP2 DUP4 SUB SUB DUP2 MSTORE SWAP1 PUSH1 0x40 MSTORE SWAP3 POP POP POP JUMPDEST SWAP2 SWAP1 POP JUMP JUMPDEST PUSH2 0x1AAB DUP3 PUSH2 0xB05 JUMP JUMPDEST PUSH2 0x1AB4 DUP2 PUSH2 0x243B JUMP JUMPDEST PUSH2 0x1ABE DUP4 DUP4 PUSH2 0x2530 JUMP JUMPDEST POP POP POP JUMP JUMPDEST PUSH1 0x0 PUSH1 0x5 PUSH1 0x0 DUP5 PUSH20 0xFFFFFFFFFFFFFFFFFFFFFFFFFFFFFFFFFFFFFFFF AND PUSH20 0xFFFFFFFFFFFFFFFFFFFFFFFFFFFFFFFFFFFFFFFF AND DUP2 MSTORE PUSH1 0x20 ADD SWAP1 DUP2 MSTORE PUSH1 0x20 ADD PUSH1 0x0 KECCAK256 PUSH1 0x0 DUP4 PUSH20 0xFFFFFFFFFFFFFFFFFFFFFFFFFFFFFFFFFFFFFFFF AND PUSH20 0xFFFFFFFFFFFFFFFFFFFFFFFFFFFFFFFFFFFFFFFF AND DUP2 MSTORE PUSH1 0x20 ADD SWAP1 DUP2 MSTORE PUSH1 0x20 ADD PUSH1 0x0 KECCAK256 PUSH1 0x0 SWAP1 SLOAD SWAP1 PUSH2 0x100 EXP SWAP1 DIV PUSH1 0xFF AND SWAP1 POP SWAP3 SWAP2 POP POP JUMP JUMPDEST CALLER PUSH20 0xFFFFFFFFFFFFFFFFFFFFFFFFFFFFFFFFFFFFFFFF AND ADDRESS PUSH20 0xFFFFFFFFFFFFFFFFFFFFFFFFFFFFFFFFFFFFFFFF AND PUSH4 0x6352211E DUP6 PUSH1 0x40 MLOAD DUP3 PUSH4 0xFFFFFFFF AND PUSH1 0xE0 SHL DUP2 MSTORE PUSH1 0x4 ADD PUSH2 0x1BA7 SWAP2 SWAP1 PUSH2 0x3739 JUMP JUMPDEST PUSH1 0x20 PUSH1 0x40 MLOAD DUP1 DUP4 SUB DUP2 DUP7 GAS STATICCALL ISZERO DUP1 ISZERO PUSH2 0x1BC4 JUMPI RETURNDATASIZE PUSH1 0x0 DUP1 RETURNDATACOPY RETURNDATASIZE PUSH1 0x0 REVERT JUMPDEST POP POP POP POP PUSH1 0x40 MLOAD RETURNDATASIZE PUSH1 0x1F NOT PUSH1 0x1F DUP3 ADD AND DUP3 ADD DUP1 PUSH1 0x40 MSTORE POP DUP2 ADD SWAP1 PUSH2 0x1BE8 SWAP2 SWAP1 PUSH2 0x3BCE JUMP JUMPDEST PUSH20 0xFFFFFFFFFFFFFFFFFFFFFFFFFFFFFFFFFFFFFFFF AND EQ PUSH2 0x1C3E JUMPI PUSH1 0x40 MLOAD PUSH32 0x8C379A000000000000000000000000000000000000000000000000000000000 DUP2 MSTORE PUSH1 0x4 ADD PUSH2 0x1C35 SWAP1 PUSH2 0x3C47 JUMP JUMPDEST PUSH1 0x40 MLOAD DUP1 SWAP2 SUB SWAP1 REVERT JUMPDEST DUP2 PUSH1 0xF PUSH1 0x0 DUP6 DUP2 MSTORE PUSH1 0x20 ADD SWAP1 DUP2 MSTORE PUSH1 0x20 ADD PUSH1 0x0 KECCAK256 SLOAD LT ISZERO DUP1 ISZERO PUSH2 0x1C61 JUMPI POP PUSH1 0x0 DUP3 GT JUMPDEST PUSH2 0x1CA0 JUMPI PUSH1 0x40 MLOAD PUSH32 0x8C379A000000000000000000000000000000000000000000000000000000000 DUP2 MSTORE PUSH1 0x4 ADD PUSH2 0x1C97 SWAP1 PUSH2 0x3CB3 JUMP JUMPDEST PUSH1 0x40 MLOAD DUP1 SWAP2 SUB SWAP1 REVERT JUMPDEST PUSH1 0x9 PUSH1 0x0 SWAP1 SLOAD SWAP1 PUSH2 0x100 EXP SWAP1 DIV PUSH20 0xFFFFFFFFFFFFFFFFFFFFFFFFFFFFFFFFFFFFFFFF AND PUSH20 0xFFFFFFFFFFFFFFFFFFFFFFFFFFFFFFFFFFFFFFFF AND PUSH4 0xEAF5D04E ADDRESS PUSH1 0xB SLOAD PUSH1 0xE DUP6 PUSH2 0x1CEE DUP10 PUSH2 0x1DC6 JUMP JUMPDEST PUSH2 0x1CF7 DUP10 PUSH2 0x1DC6 JUMP JUMPDEST PUSH1 0x40 MLOAD PUSH1 0x20 ADD PUSH2 0x1D0A SWAP5 SWAP4 SWAP3 SWAP2 SWAP1 PUSH2 0x4F3C JUMP JUMPDEST PUSH1 0x40 MLOAD PUSH1 0x20 DUP2 DUP4 SUB SUB DUP2 MSTORE SWAP1 PUSH1 0x40 MSTORE PUSH1 0x40 MLOAD DUP5 PUSH4 0xFFFFFFFF AND PUSH1 0xE0 SHL DUP2 MSTORE PUSH1 0x4 ADD PUSH2 0x1D37 SWAP4 SWAP3 SWAP2 SWAP1 PUSH2 0x3F4B JUMP JUMPDEST PUSH1 0x0 PUSH1 0x40 MLOAD DUP1 DUP4 SUB DUP2 PUSH1 0x0 DUP8 DUP1 EXTCODESIZE ISZERO DUP1 ISZERO PUSH2 0x1D51 JUMPI PUSH1 0x0 DUP1 REVERT JUMPDEST POP GAS CALL ISZERO DUP1 ISZERO PUSH2 0x1D65 JUMPI RETURNDATASIZE PUSH1 0x0 DUP1 RETURNDATACOPY RETURNDATASIZE PUSH1 0x0 REVERT JUMPDEST POP POP POP POP CALLER PUSH20 0xFFFFFFFFFFFFFFFFFFFFFFFFFFFFFFFFFFFFFFFF AND PUSH32 0x11BFB7CD1318679CBB7491B824432AAF8D65800EC0A83281DAD118A0373A4A23 TIMESTAMP PUSH1 0xB SLOAD DUP5 DUP8 DUP8 PUSH1 0x40 MLOAD PUSH2 0x1DB9 SWAP6 SWAP5 SWAP4 SWAP3 SWAP2 SWAP1 PUSH2 0x3F89 JUMP JUMPDEST PUSH1 0x40 MLOAD DUP1 SWAP2 SUB SWAP1 LOG2 POP POP POP JUMP JUMPDEST PUSH1 0x60 PUSH1 0x0 DUP3 EQ ISZERO PUSH2 0x1E0E JUMPI PUSH1 0x40 MLOAD DUP1 PUSH1 0x40 ADD PUSH1 0x40 MSTORE DUP1 PUSH1 0x1 DUP2 MSTORE PUSH1 0x20 ADD PUSH32 0x3000000000000000000000000000000000000000000000000000000000000000 DUP2 MSTORE POP SWAP1 POP PUSH2 0x1F22 JUMP JUMPDEST PUSH1 0x0 DUP3 SWAP1 POP PUSH1 0x0 JUMPDEST PUSH1 0x0 DUP3 EQ PUSH2 0x1E40 JUMPI DUP1 DUP1 PUSH2 0x1E29 SWAP1 PUSH2 0x4FC5 JUMP JUMPDEST SWAP2 POP POP PUSH1 0xA DUP3 PUSH2 0x1E39 SWAP2 SWAP1 PUSH2 0x503D JUMP JUMPDEST SWAP2 POP PUSH2 0x1E16 JUMP JUMPDEST PUSH1 0x0 DUP2 PUSH8 0xFFFFFFFFFFFFFFFF DUP2 GT ISZERO PUSH2 0x1E5C JUMPI PUSH2 0x1E5B PUSH2 0x31A0 JUMP JUMPDEST JUMPDEST PUSH1 0x40 MLOAD SWAP1 DUP1 DUP3 MSTORE DUP1 PUSH1 0x1F ADD PUSH1 0x1F NOT AND PUSH1 0x20 ADD DUP3 ADD PUSH1 0x40 MSTORE DUP1 ISZERO PUSH2 0x1E8E JUMPI DUP2 PUSH1 0x20 ADD PUSH1 0x1 DUP3 MUL DUP1 CALLDATASIZE DUP4 CALLDATACOPY DUP1 DUP3 ADD SWAP2 POP POP SWAP1 POP JUMPDEST POP SWAP1 POP JUMPDEST PUSH1 0x0 DUP6 EQ PUSH2 0x1F1B JUMPI PUSH1 0x1 DUP3 PUSH2 0x1EA7 SWAP2 SWAP1 PUSH2 0x506E JUMP JUMPDEST SWAP2 POP PUSH1 0xA DUP6 PUSH2 0x1EB6 SWAP2 SWAP1 PUSH2 0x50A2 JUMP JUMPDEST PUSH1 0x30 PUSH2 0x1EC2 SWAP2 SWAP1 PUSH2 0x48A7 JUMP JUMPDEST PUSH1 0xF8 SHL DUP2 DUP4 DUP2 MLOAD DUP2 LT PUSH2 0x1ED8 JUMPI PUSH2 0x1ED7 PUSH2 0x50D3 JUMP JUMPDEST JUMPDEST PUSH1 0x20 ADD ADD SWAP1 PUSH31 0xFFFFFFFFFFFFFFFFFFFFFFFFFFFFFFFFFFFFFFFFFFFFFFFFFFFFFFFFFFFFFF NOT AND SWAP1 DUP2 PUSH1 0x0 BYTE SWAP1 MSTORE8 POP PUSH1 0xA DUP6 PUSH2 0x1F14 SWAP2 SWAP1 PUSH2 0x503D JUMP JUMPDEST SWAP5 POP PUSH2 0x1E92 JUMP JUMPDEST DUP1 SWAP4 POP POP POP POP JUMPDEST SWAP2 SWAP1 POP JUMP JUMPDEST PUSH1 0x0 PUSH32 0x7965DB0B00000000000000000000000000000000000000000000000000000000 PUSH28 0xFFFFFFFFFFFFFFFFFFFFFFFFFFFFFFFFFFFFFFFFFFFFFFFFFFFFFFFF NOT AND DUP3 PUSH28 0xFFFFFFFFFFFFFFFFFFFFFFFFFFFFFFFFFFFFFFFFFFFFFFFFFFFFFFFF NOT AND EQ DUP1 PUSH2 0x1F9A JUMPI POP PUSH2 0x1F99 DUP3 PUSH2 0x2889 JUMP JUMPDEST JUMPDEST SWAP1 POP SWAP2 SWAP1 POP JUMP JUMPDEST PUSH2 0x1FAA DUP2 PUSH2 0x281D JUMP JUMPDEST PUSH2 0x1FE9 JUMPI PUSH1 0x40 MLOAD PUSH32 0x8C379A000000000000000000000000000000000000000000000000000000000 DUP2 MSTORE PUSH1 0x4 ADD PUSH2 0x1FE0 SWAP1 PUSH2 0x4463 JUMP JUMPDEST PUSH1 0x40 MLOAD DUP1 SWAP2 SUB SWAP1 REVERT JUMPDEST POP JUMP JUMPDEST PUSH1 0x60 PUSH1 0x7 DUP1 SLOAD PUSH2 0x1FFB SWAP1 PUSH2 0x3D28 JUMP JUMPDEST DUP1 PUSH1 0x1F ADD PUSH1 0x20 DUP1 SWAP2 DIV MUL PUSH1 0x20 ADD PUSH1 0x40 MLOAD SWAP1 DUP2 ADD PUSH1 0x40 MSTORE DUP1 SWAP3 SWAP2 SWAP1 DUP2 DUP2 MSTORE PUSH1 0x20 ADD DUP3 DUP1 SLOAD PUSH2 0x2027 SWAP1 PUSH2 0x3D28 JUMP JUMPDEST DUP1 ISZERO PUSH2 0x2074 JUMPI DUP1 PUSH1 0x1F LT PUSH2 0x2049 JUMPI PUSH2 0x100 DUP1 DUP4 SLOAD DIV MUL DUP4 MSTORE SWAP2 PUSH1 0x20 ADD SWAP2 PUSH2 0x2074 JUMP JUMPDEST DUP3 ADD SWAP2 SWAP1 PUSH1 0x0 MSTORE PUSH1 0x20 PUSH1 0x0 KECCAK256 SWAP1 JUMPDEST DUP2 SLOAD DUP2 MSTORE SWAP1 PUSH1 0x1 ADD SWAP1 PUSH1 0x20 ADD DUP1 DUP4 GT PUSH2 0x2057 JUMPI DUP3 SWAP1 SUB PUSH1 0x1F AND DUP3 ADD SWAP2 JUMPDEST POP POP POP POP POP SWAP1 POP SWAP1 JUMP JUMPDEST PUSH1 0x0 CALLER SWAP1 POP SWAP1 JUMP JUMPDEST DUP2 PUSH1 0x4 PUSH1 0x0 DUP4 DUP2 MSTORE PUSH1 0x20 ADD SWAP1 DUP2 MSTORE PUSH1 0x20 ADD PUSH1 0x0 KECCAK256 PUSH1 0x0 PUSH2 0x100 EXP DUP2 SLOAD DUP2 PUSH20 0xFFFFFFFFFFFFFFFFFFFFFFFFFFFFFFFFFFFFFFFF MUL NOT AND SWAP1 DUP4 PUSH20 0xFFFFFFFFFFFFFFFFFFFFFFFFFFFFFFFFFFFFFFFF AND MUL OR SWAP1 SSTORE POP DUP1 DUP3 PUSH20 0xFFFFFFFFFFFFFFFFFFFFFFFFFFFFFFFFFFFFFFFF AND PUSH2 0x20F9 DUP4 PUSH2 0x117D JUMP JUMPDEST PUSH20 0xFFFFFFFFFFFFFFFFFFFFFFFFFFFFFFFFFFFFFFFF AND PUSH32 0x8C5BE1E5EBEC7D5BD14F71427D1E84F3DD0314C0F7B2291E5B200AC8C7C3B925 PUSH1 0x40 MLOAD PUSH1 0x40 MLOAD DUP1 SWAP2 SUB SWAP1 LOG4 POP POP JUMP JUMPDEST PUSH1 0x0 DUP1 PUSH2 0x214B DUP4 PUSH2 0x117D JUMP JUMPDEST SWAP1 POP DUP1 PUSH20 0xFFFFFFFFFFFFFFFFFFFFFFFFFFFFFFFFFFFFFFFF AND DUP5 PUSH20 0xFFFFFFFFFFFFFFFFFFFFFFFFFFFFFFFFFFFFFFFF AND EQ DUP1 PUSH2 0x218D JUMPI POP PUSH2 0x218C DUP2 DUP6 PUSH2 0x1AC3 JUMP JUMPDEST JUMPDEST DUP1 PUSH2 0x21CB JUMPI POP DUP4 PUSH20 0xFFFFFFFFFFFFFFFFFFFFFFFFFFFFFFFFFFFFFFFF AND PUSH2 0x21B3 DUP5 PUSH2 0x910 JUMP JUMPDEST PUSH20 0xFFFFFFFFFFFFFFFFFFFFFFFFFFFFFFFFFFFFFFFF AND EQ JUMPDEST SWAP2 POP POP SWAP3 SWAP2 POP POP JUMP JUMPDEST DUP3 PUSH20 0xFFFFFFFFFFFFFFFFFFFFFFFFFFFFFFFFFFFFFFFF AND PUSH2 0x21F4 DUP3 PUSH2 0x117D JUMP JUMPDEST PUSH20 0xFFFFFFFFFFFFFFFFFFFFFFFFFFFFFFFFFFFFFFFF AND EQ PUSH2 0x224A JUMPI PUSH1 0x40 MLOAD PUSH32 0x8C379A000000000000000000000000000000000000000000000000000000000 DUP2 MSTORE PUSH1 0x4 ADD PUSH2 0x2241 SWAP1 PUSH2 0x5174 JUMP JUMPDEST PUSH1 0x40 MLOAD DUP1 SWAP2 SUB SWAP1 REVERT JUMPDEST PUSH1 0x0 PUSH20 0xFFFFFFFFFFFFFFFFFFFFFFFFFFFFFFFFFFFFFFFF AND DUP3 PUSH20 0xFFFFFFFFFFFFFFFFFFFFFFFFFFFFFFFFFFFFFFFF AND EQ ISZERO PUSH2 0x22BA JUMPI PUSH1 0x40 MLOAD PUSH32 0x8C379A000000000000000000000000000000000000000000000000000000000 DUP2 MSTORE PUSH1 0x4 ADD PUSH2 0x22B1 SWAP1 PUSH2 0x5206 JUMP JUMPDEST PUSH1 0x40 MLOAD DUP1 SWAP2 SUB SWAP1 REVERT JUMPDEST PUSH2 0x22C5 DUP4 DUP4 DUP4 PUSH2 0x296B JUMP JUMPDEST PUSH2 0x22D0 PUSH1 0x0 DUP3 PUSH2 0x2086 JUMP JUMPDEST PUSH1 0x1 PUSH1 0x3 PUSH1 0x0 DUP6 PUSH20 0xFFFFFFFFFFFFFFFFFFFFFFFFFFFFFFFFFFFFFFFF AND PUSH20 0xFFFFFFFFFFFFFFFFFFFFFFFFFFFFFFFFFFFFFFFF AND DUP2 MSTORE PUSH1 0x20 ADD SWAP1 DUP2 MSTORE PUSH1 0x20 ADD PUSH1 0x0 KECCAK256 PUSH1 0x0 DUP3 DUP3 SLOAD PUSH2 0x2320 SWAP2 SWAP1 PUSH2 0x506E JUMP JUMPDEST SWAP3 POP POP DUP2 SWAP1 SSTORE POP PUSH1 0x1 PUSH1 0x3 PUSH1 0x0 DUP5 PUSH20 0xFFFFFFFFFFFFFFFFFFFFFFFFFFFFFFFFFFFFFFFF AND PUSH20 0xFFFFFFFFFFFFFFFFFFFFFFFFFFFFFFFFFFFFFFFF AND DUP2 MSTORE PUSH1 0x20 ADD SWAP1 DUP2 MSTORE PUSH1 0x20 ADD PUSH1 0x0 KECCAK256 PUSH1 0x0 DUP3 DUP3 SLOAD PUSH2 0x2377 SWAP2 SWAP1 PUSH2 0x48A7 JUMP JUMPDEST SWAP3 POP POP DUP2 SWAP1 SSTORE POP DUP2 PUSH1 0x2 PUSH1 0x0 DUP4 DUP2 MSTORE PUSH1 0x20 ADD SWAP1 DUP2 MSTORE PUSH1 0x20 ADD PUSH1 0x0 KECCAK256 PUSH1 0x0 PUSH2 0x100 EXP DUP2 SLOAD DUP2 PUSH20 0xFFFFFFFFFFFFFFFFFFFFFFFFFFFFFFFFFFFFFFFF MUL NOT AND SWAP1 DUP4 PUSH20 0xFFFFFFFFFFFFFFFFFFFFFFFFFFFFFFFFFFFFFFFF AND MUL OR SWAP1 SSTORE POP DUP1 DUP3 PUSH20 0xFFFFFFFFFFFFFFFFFFFFFFFFFFFFFFFFFFFFFFFF AND DUP5 PUSH20 0xFFFFFFFFFFFFFFFFFFFFFFFFFFFFFFFFFFFFFFFF AND PUSH32 0xDDF252AD1BE2C89B69C2B068FC378DAA952BA7F163C4A11628F55A4DF523B3EF PUSH1 0x40 MLOAD PUSH1 0x40 MLOAD DUP1 SWAP2 SUB SWAP1 LOG4 PUSH2 0x2436 DUP4 DUP4 DUP4 PUSH2 0x2970 JUMP JUMPDEST POP POP POP JUMP JUMPDEST PUSH2 0x244C DUP2 PUSH2 0x2447 PUSH2 0x207E JUMP JUMPDEST PUSH2 0x2975 JUMP JUMPDEST POP JUMP JUMPDEST PUSH2 0x2459 DUP3 DUP3 PUSH2 0x159C JUMP JUMPDEST PUSH2 0x252C JUMPI PUSH1 0x1 PUSH1 0x6 PUSH1 0x0 DUP5 DUP2 MSTORE PUSH1 0x20 ADD SWAP1 DUP2 MSTORE PUSH1 0x20 ADD PUSH1 0x0 KECCAK256 PUSH1 0x0 ADD PUSH1 0x0 DUP4 PUSH20 0xFFFFFFFFFFFFFFFFFFFFFFFFFFFFFFFFFFFFFFFF AND PUSH20 0xFFFFFFFFFFFFFFFFFFFFFFFFFFFFFFFFFFFFFFFF AND DUP2 MSTORE PUSH1 0x20 ADD SWAP1 DUP2 MSTORE PUSH1 0x20 ADD PUSH1 0x0 KECCAK256 PUSH1 0x0 PUSH2 0x100 EXP DUP2 SLOAD DUP2 PUSH1 0xFF MUL NOT AND SWAP1 DUP4 ISZERO ISZERO MUL OR SWAP1 SSTORE POP PUSH2 0x24D1 PUSH2 0x207E JUMP JUMPDEST PUSH20 0xFFFFFFFFFFFFFFFFFFFFFFFFFFFFFFFFFFFFFFFF AND DUP2 PUSH20 0xFFFFFFFFFFFFFFFFFFFFFFFFFFFFFFFFFFFFFFFF AND DUP4 PUSH32 0x2F8788117E7EFF1D82E926EC794901D17C78024A50270940304540A733656F0D PUSH1 0x40 MLOAD PUSH1 0x40 MLOAD DUP1 SWAP2 SUB SWAP1 LOG4 JUMPDEST POP POP JUMP JUMPDEST PUSH2 0x253A DUP3 DUP3 PUSH2 0x159C JUMP JUMPDEST ISZERO PUSH2 0x260E JUMPI PUSH1 0x0 PUSH1 0x6 PUSH1 0x0 DUP5 DUP2 MSTORE PUSH1 0x20 ADD SWAP1 DUP2 MSTORE PUSH1 0x20 ADD PUSH1 0x0 KECCAK256 PUSH1 0x0 ADD PUSH1 0x0 DUP4 PUSH20 0xFFFFFFFFFFFFFFFFFFFFFFFFFFFFFFFFFFFFFFFF AND PUSH20 0xFFFFFFFFFFFFFFFFFFFFFFFFFFFFFFFFFFFFFFFF AND DUP2 MSTORE PUSH1 0x20 ADD SWAP1 DUP2 MSTORE PUSH1 0x20 ADD PUSH1 0x0 KECCAK256 PUSH1 0x0 PUSH2 0x100 EXP DUP2 SLOAD DUP2 PUSH1 0xFF MUL NOT AND SWAP1 DUP4 ISZERO ISZERO MUL OR SWAP1 SSTORE POP PUSH2 0x25B3 PUSH2 0x207E JUMP JUMPDEST PUSH20 0xFFFFFFFFFFFFFFFFFFFFFFFFFFFFFFFFFFFFFFFF AND DUP2 PUSH20 0xFFFFFFFFFFFFFFFFFFFFFFFFFFFFFFFFFFFFFFFF AND DUP4 PUSH32 0xF6391F5C32D9C69D2A47EA670B442974B53935D1EDC7FD64EB21E047A839171B PUSH1 0x40 MLOAD PUSH1 0x40 MLOAD DUP1 SWAP2 SUB SWAP1 LOG4 JUMPDEST POP POP JUMP JUMPDEST PUSH1 0x0 DUP2 PUSH1 0x0 ADD SLOAD SWAP1 POP SWAP2 SWAP1 POP JUMP JUMPDEST PUSH2 0x263A DUP3 DUP3 PUSH1 0x40 MLOAD DUP1 PUSH1 0x20 ADD PUSH1 0x40 MSTORE DUP1 PUSH1 0x0 DUP2 MSTORE POP PUSH2 0x2A12 JUMP JUMPDEST POP POP JUMP JUMPDEST PUSH1 0x1 DUP2 PUSH1 0x0 ADD PUSH1 0x0 DUP3 DUP3 SLOAD ADD SWAP3 POP POP DUP2 SWAP1 SSTORE POP POP JUMP JUMPDEST DUP2 PUSH20 0xFFFFFFFFFFFFFFFFFFFFFFFFFFFFFFFFFFFFFFFF AND DUP4 PUSH20 0xFFFFFFFFFFFFFFFFFFFFFFFFFFFFFFFFFFFFFFFF AND EQ ISZERO PUSH2 0x26C3 JUMPI PUSH1 0x40 MLOAD PUSH32 0x8C379A000000000000000000000000000000000000000000000000000000000 DUP2 MSTORE PUSH1 0x4 ADD PUSH2 0x26BA SWAP1 PUSH2 0x5272 JUMP JUMPDEST PUSH1 0x40 MLOAD DUP1 SWAP2 SUB SWAP1 REVERT JUMPDEST DUP1 PUSH1 0x5 PUSH1 0x0 DUP6 PUSH20 0xFFFFFFFFFFFFFFFFFFFFFFFFFFFFFFFFFFFFFFFF AND PUSH20 0xFFFFFFFFFFFFFFFFFFFFFFFFFFFFFFFFFFFFFFFF AND DUP2 MSTORE PUSH1 0x20 ADD SWAP1 DUP2 MSTORE PUSH1 0x20 ADD PUSH1 0x0 KECCAK256 PUSH1 0x0 DUP5 PUSH20 0xFFFFFFFFFFFFFFFFFFFFFFFFFFFFFFFFFFFFFFFF AND PUSH20 0xFFFFFFFFFFFFFFFFFFFFFFFFFFFFFFFFFFFFFFFF AND DUP2 MSTORE PUSH1 0x20 ADD SWAP1 DUP2 MSTORE PUSH1 0x20 ADD PUSH1 0x0 KECCAK256 PUSH1 0x0 PUSH2 0x100 EXP DUP2 SLOAD DUP2 PUSH1 0xFF MUL NOT AND SWAP1 DUP4 ISZERO ISZERO MUL OR SWAP1 SSTORE POP DUP2 PUSH20 0xFFFFFFFFFFFFFFFFFFFFFFFFFFFFFFFFFFFFFFFF AND DUP4 PUSH20 0xFFFFFFFFFFFFFFFFFFFFFFFFFFFFFFFFFFFFFFFF AND PUSH32 0x17307EAB39AB6107E8899845AD3D59BD9653F200F220920489CA2B5937696C31 DUP4 PUSH1 0x40 MLOAD PUSH2 0x27B4 SWAP2 SWAP1 PUSH2 0x33DA JUMP JUMPDEST PUSH1 0x40 MLOAD DUP1 SWAP2 SUB SWAP1 LOG3 POP POP POP JUMP JUMPDEST PUSH2 0x27CC DUP5 DUP5 DUP5 PUSH2 0x21D4 JUMP JUMPDEST PUSH2 0x27D8 DUP5 DUP5 DUP5 DUP5 PUSH2 0x2A6D JUMP JUMPDEST PUSH2 0x2817 JUMPI PUSH1 0x40 MLOAD PUSH32 0x8C379A000000000000000000000000000000000000000000000000000000000 DUP2 MSTORE PUSH1 0x4 ADD PUSH2 0x280E SWAP1 PUSH2 0x5304 JUMP JUMPDEST PUSH1 0x40 MLOAD DUP1 SWAP2 SUB SWAP1 REVERT JUMPDEST POP POP POP POP JUMP JUMPDEST PUSH1 0x0 DUP1 PUSH20 0xFFFFFFFFFFFFFFFFFFFFFFFFFFFFFFFFFFFFFFFF AND PUSH1 0x2 PUSH1 0x0 DUP5 DUP2 MSTORE PUSH1 0x20 ADD SWAP1 DUP2 MSTORE PUSH1 0x20 ADD PUSH1 0x0 KECCAK256 PUSH1 0x0 SWAP1 SLOAD SWAP1 PUSH2 0x100 EXP SWAP1 DIV PUSH20 0xFFFFFFFFFFFFFFFFFFFFFFFFFFFFFFFFFFFFFFFF AND PUSH20 0xFFFFFFFFFFFFFFFFFFFFFFFFFFFFFFFFFFFFFFFF AND EQ ISZERO SWAP1 POP SWAP2 SWAP1 POP JUMP JUMPDEST PUSH1 0x0 PUSH32 0x80AC58CD00000000000000000000000000000000000000000000000000000000 PUSH28 0xFFFFFFFFFFFFFFFFFFFFFFFFFFFFFFFFFFFFFFFFFFFFFFFFFFFFFFFF NOT AND DUP3 PUSH28 0xFFFFFFFFFFFFFFFFFFFFFFFFFFFFFFFFFFFFFFFFFFFFFFFFFFFFFFFF NOT AND EQ DUP1 PUSH2 0x2954 JUMPI POP PUSH32 0x5B5E139F00000000000000000000000000000000000000000000000000000000 PUSH28 0xFFFFFFFFFFFFFFFFFFFFFFFFFFFFFFFFFFFFFFFFFFFFFFFFFFFFFFFF NOT AND DUP3 PUSH28 0xFFFFFFFFFFFFFFFFFFFFFFFFFFFFFFFFFFFFFFFFFFFFFFFFFFFFFFFF NOT AND EQ JUMPDEST DUP1 PUSH2 0x2964 JUMPI POP PUSH2 0x2963 DUP3 PUSH2 0x2BF5 JUMP JUMPDEST JUMPDEST SWAP1 POP SWAP2 SWAP1 POP JUMP JUMPDEST POP POP POP JUMP JUMPDEST POP POP POP JUMP JUMPDEST PUSH2 0x297F DUP3 DUP3 PUSH2 0x159C JUMP JUMPDEST PUSH2 0x2A0E JUMPI PUSH2 0x29A4 DUP2 PUSH20 0xFFFFFFFFFFFFFFFFFFFFFFFFFFFFFFFFFFFFFFFF AND PUSH1 0x14 PUSH2 0x2C5F JUMP JUMPDEST PUSH2 0x29B2 DUP4 PUSH1 0x0 SHR PUSH1 0x20 PUSH2 0x2C5F JUMP JUMPDEST PUSH1 0x40 MLOAD PUSH1 0x20 ADD PUSH2 0x29C3 SWAP3 SWAP2 SWAP1 PUSH2 0x53BC JUMP JUMPDEST PUSH1 0x40 MLOAD PUSH1 0x20 DUP2 DUP4 SUB SUB DUP2 MSTORE SWAP1 PUSH1 0x40 MSTORE PUSH1 0x40 MLOAD PUSH32 0x8C379A000000000000000000000000000000000000000000000000000000000 DUP2 MSTORE PUSH1 0x4 ADD PUSH2 0x2A05 SWAP2 SWAP1 PUSH2 0x347D JUMP JUMPDEST PUSH1 0x40 MLOAD DUP1 SWAP2 SUB SWAP1 REVERT JUMPDEST POP POP JUMP JUMPDEST PUSH2 0x2A1C DUP4 DUP4 PUSH2 0x2E9B JUMP JUMPDEST PUSH2 0x2A29 PUSH1 0x0 DUP5 DUP5 DUP5 PUSH2 0x2A6D JUMP JUMPDEST PUSH2 0x2A68 JUMPI PUSH1 0x40 MLOAD PUSH32 0x8C379A000000000000000000000000000000000000000000000000000000000 DUP2 MSTORE PUSH1 0x4 ADD PUSH2 0x2A5F SWAP1 PUSH2 0x5304 JUMP JUMPDEST PUSH1 0x40 MLOAD DUP1 SWAP2 SUB SWAP1 REVERT JUMPDEST POP POP POP JUMP JUMPDEST PUSH1 0x0 PUSH2 0x2A8E DUP5 PUSH20 0xFFFFFFFFFFFFFFFFFFFFFFFFFFFFFFFFFFFFFFFF AND PUSH2 0x3075 JUMP JUMPDEST ISZERO PUSH2 0x2BE8 JUMPI DUP4 PUSH20 0xFFFFFFFFFFFFFFFFFFFFFFFFFFFFFFFFFFFFFFFF AND PUSH4 0x150B7A02 PUSH2 0x2AB7 PUSH2 0x207E JUMP JUMPDEST DUP8 DUP7 DUP7 PUSH1 0x40 MLOAD DUP6 PUSH4 0xFFFFFFFF AND PUSH1 0xE0 SHL DUP2 MSTORE PUSH1 0x4 ADD PUSH2 0x2AD9 SWAP5 SWAP4 SWAP3 SWAP2 SWAP1 PUSH2 0x544B JUMP JUMPDEST PUSH1 0x20 PUSH1 0x40 MLOAD DUP1 DUP4 SUB DUP2 PUSH1 0x0 DUP8 GAS CALL SWAP3 POP POP POP DUP1 ISZERO PUSH2 0x2B15 JUMPI POP PUSH1 0x40 MLOAD RETURNDATASIZE PUSH1 0x1F NOT PUSH1 0x1F DUP3 ADD AND DUP3 ADD DUP1 PUSH1 0x40 MSTORE POP DUP2 ADD SWAP1 PUSH2 0x2B12 SWAP2 SWAP1 PUSH2 0x54AC JUMP JUMPDEST PUSH1 0x1 JUMPDEST PUSH2 0x2B98 JUMPI RETURNDATASIZE DUP1 PUSH1 0x0 DUP2 EQ PUSH2 0x2B45 JUMPI PUSH1 0x40 MLOAD SWAP2 POP PUSH1 0x1F NOT PUSH1 0x3F RETURNDATASIZE ADD AND DUP3 ADD PUSH1 0x40 MSTORE RETURNDATASIZE DUP3 MSTORE RETURNDATASIZE PUSH1 0x0 PUSH1 0x20 DUP5 ADD RETURNDATACOPY PUSH2 0x2B4A JUMP JUMPDEST PUSH1 0x60 SWAP2 POP JUMPDEST POP PUSH1 0x0 DUP2 MLOAD EQ ISZERO PUSH2 0x2B90 JUMPI PUSH1 0x40 MLOAD PUSH32 0x8C379A000000000000000000000000000000000000000000000000000000000 DUP2 MSTORE PUSH1 0x4 ADD PUSH2 0x2B87 SWAP1 PUSH2 0x5304 JUMP JUMPDEST PUSH1 0x40 MLOAD DUP1 SWAP2 SUB SWAP1 REVERT JUMPDEST DUP1 MLOAD DUP2 PUSH1 0x20 ADD REVERT JUMPDEST PUSH4 0x150B7A02 PUSH1 0xE0 SHL PUSH28 0xFFFFFFFFFFFFFFFFFFFFFFFFFFFFFFFFFFFFFFFFFFFFFFFFFFFFFFFF NOT AND DUP2 PUSH28 0xFFFFFFFFFFFFFFFFFFFFFFFFFFFFFFFFFFFFFFFFFFFFFFFFFFFFFFFF NOT AND EQ SWAP2 POP POP PUSH2 0x2BED JUMP JUMPDEST PUSH1 0x1 SWAP1 POP JUMPDEST SWAP5 SWAP4 POP POP POP POP JUMP JUMPDEST PUSH1 0x0 PUSH32 0x1FFC9A700000000000000000000000000000000000000000000000000000000 PUSH28 0xFFFFFFFFFFFFFFFFFFFFFFFFFFFFFFFFFFFFFFFFFFFFFFFFFFFFFFFF NOT AND DUP3 PUSH28 0xFFFFFFFFFFFFFFFFFFFFFFFFFFFFFFFFFFFFFFFFFFFFFFFFFFFFFFFF NOT AND EQ SWAP1 POP SWAP2 SWAP1 POP JUMP JUMPDEST PUSH1 0x60 PUSH1 0x0 PUSH1 0x2 DUP4 PUSH1 0x2 PUSH2 0x2C72 SWAP2 SWAP1 PUSH2 0x54D9 JUMP JUMPDEST PUSH2 0x2C7C SWAP2 SWAP1 PUSH2 0x48A7 JUMP JUMPDEST PUSH8 0xFFFFFFFFFFFFFFFF DUP2 GT ISZERO PUSH2 0x2C95 JUMPI PUSH2 0x2C94 PUSH2 0x31A0 JUMP JUMPDEST JUMPDEST PUSH1 0x40 MLOAD SWAP1 DUP1 DUP3 MSTORE DUP1 PUSH1 0x1F ADD PUSH1 0x1F NOT AND PUSH1 0x20 ADD DUP3 ADD PUSH1 0x40 MSTORE DUP1 ISZERO PUSH2 0x2CC7 JUMPI DUP2 PUSH1 0x20 ADD PUSH1 0x1 DUP3 MUL DUP1 CALLDATASIZE DUP4 CALLDATACOPY DUP1 DUP3 ADD SWAP2 POP POP SWAP1 POP JUMPDEST POP SWAP1 POP PUSH32 0x3000000000000000000000000000000000000000000000000000000000000000 DUP2 PUSH1 0x0 DUP2 MLOAD DUP2 LT PUSH2 0x2CFF JUMPI PUSH2 0x2CFE PUSH2 0x50D3 JUMP JUMPDEST JUMPDEST PUSH1 0x20 ADD ADD SWAP1 PUSH31 0xFFFFFFFFFFFFFFFFFFFFFFFFFFFFFFFFFFFFFFFFFFFFFFFFFFFFFFFFFFFFFF NOT AND SWAP1 DUP2 PUSH1 0x0 BYTE SWAP1 MSTORE8 POP PUSH32 0x7800000000000000000000000000000000000000000000000000000000000000 DUP2 PUSH1 0x1 DUP2 MLOAD DUP2 LT PUSH2 0x2D63 JUMPI PUSH2 0x2D62 PUSH2 0x50D3 JUMP JUMPDEST JUMPDEST PUSH1 0x20 ADD ADD SWAP1 PUSH31 0xFFFFFFFFFFFFFFFFFFFFFFFFFFFFFFFFFFFFFFFFFFFFFFFFFFFFFFFFFFFFFF NOT AND SWAP1 DUP2 PUSH1 0x0 BYTE SWAP1 MSTORE8 POP PUSH1 0x0 PUSH1 0x1 DUP5 PUSH1 0x2 PUSH2 0x2DA3 SWAP2 SWAP1 PUSH2 0x54D9 JUMP JUMPDEST PUSH2 0x2DAD SWAP2 SWAP1 PUSH2 0x48A7 JUMP JUMPDEST SWAP1 POP JUMPDEST PUSH1 0x1 DUP2 GT ISZERO PUSH2 0x2E4D JUMPI PUSH32 0x3031323334353637383961626364656600000000000000000000000000000000 PUSH1 0xF DUP7 AND PUSH1 0x10 DUP2 LT PUSH2 0x2DEF JUMPI PUSH2 0x2DEE PUSH2 0x50D3 JUMP JUMPDEST JUMPDEST BYTE PUSH1 0xF8 SHL DUP3 DUP3 DUP2 MLOAD DUP2 LT PUSH2 0x2E06 JUMPI PUSH2 0x2E05 PUSH2 0x50D3 JUMP JUMPDEST JUMPDEST PUSH1 0x20 ADD ADD SWAP1 PUSH31 0xFFFFFFFFFFFFFFFFFFFFFFFFFFFFFFFFFFFFFFFFFFFFFFFFFFFFFFFFFFFFFF NOT AND SWAP1 DUP2 PUSH1 0x0 BYTE SWAP1 MSTORE8 POP PUSH1 0x4 DUP6 SWAP1 SHR SWAP5 POP DUP1 PUSH2 0x2E46 SWAP1 PUSH2 0x5533 JUMP JUMPDEST SWAP1 POP PUSH2 0x2DB0 JUMP JUMPDEST POP PUSH1 0x0 DUP5 EQ PUSH2 0x2E91 JUMPI PUSH1 0x40 MLOAD PUSH32 0x8C379A000000000000000000000000000000000000000000000000000000000 DUP2 MSTORE PUSH1 0x4 ADD PUSH2 0x2E88 SWAP1 PUSH2 0x55A9 JUMP JUMPDEST PUSH1 0x40 MLOAD DUP1 SWAP2 SUB SWAP1 REVERT JUMPDEST DUP1 SWAP2 POP POP SWAP3 SWAP2 POP POP JUMP JUMPDEST PUSH1 0x0 PUSH20 0xFFFFFFFFFFFFFFFFFFFFFFFFFFFFFFFFFFFFFFFF AND DUP3 PUSH20 0xFFFFFFFFFFFFFFFFFFFFFFFFFFFFFFFFFFFFFFFF AND EQ ISZERO PUSH2 0x2F0B JUMPI PUSH1 0x40 MLOAD PUSH32 0x8C379A000000000000000000000000000000000000000000000000000000000 DUP2 MSTORE PUSH1 0x4 ADD PUSH2 0x2F02 SWAP1 PUSH2 0x5615 JUMP JUMPDEST PUSH1 0x40 MLOAD DUP1 SWAP2 SUB SWAP1 REVERT JUMPDEST PUSH2 0x2F14 DUP2 PUSH2 0x281D JUMP JUMPDEST ISZERO PUSH2 0x2F54 JUMPI PUSH1 0x40 MLOAD PUSH32 0x8C379A000000000000000000000000000000000000000000000000000000000 DUP2 MSTORE PUSH1 0x4 ADD PUSH2 0x2F4B SWAP1 PUSH2 0x5681 JUMP JUMPDEST PUSH1 0x40 MLOAD DUP1 SWAP2 SUB SWAP1 REVERT JUMPDEST PUSH2 0x2F60 PUSH1 0x0 DUP4 DUP4 PUSH2 0x296B JUMP JUMPDEST PUSH1 0x1 PUSH1 0x3 PUSH1 0x0 DUP5 PUSH20 0xFFFFFFFFFFFFFFFFFFFFFFFFFFFFFFFFFFFFFFFF AND PUSH20 0xFFFFFFFFFFFFFFFFFFFFFFFFFFFFFFFFFFFFFFFF AND DUP2 MSTORE PUSH1 0x20 ADD SWAP1 DUP2 MSTORE PUSH1 0x20 ADD PUSH1 0x0 KECCAK256 PUSH1 0x0 DUP3 DUP3 SLOAD PUSH2 0x2FB0 SWAP2 SWAP1 PUSH2 0x48A7 JUMP JUMPDEST SWAP3 POP POP DUP2 SWAP1 SSTORE POP DUP2 PUSH1 0x2 PUSH1 0x0 DUP4 DUP2 MSTORE PUSH1 0x20 ADD SWAP1 DUP2 MSTORE PUSH1 0x20 ADD PUSH1 0x0 KECCAK256 PUSH1 0x0 PUSH2 0x100 EXP DUP2 SLOAD DUP2 PUSH20 0xFFFFFFFFFFFFFFFFFFFFFFFFFFFFFFFFFFFFFFFF MUL NOT AND SWAP1 DUP4 PUSH20 0xFFFFFFFFFFFFFFFFFFFFFFFFFFFFFFFFFFFFFFFF AND MUL OR SWAP1 SSTORE POP DUP1 DUP3 PUSH20 0xFFFFFFFFFFFFFFFFFFFFFFFFFFFFFFFFFFFFFFFF AND PUSH1 0x0 PUSH20 0xFFFFFFFFFFFFFFFFFFFFFFFFFFFFFFFFFFFFFFFF AND PUSH32 0xDDF252AD1BE2C89B69C2B068FC378DAA952BA7F163C4A11628F55A4DF523B3EF PUSH1 0x40 MLOAD PUSH1 0x40 MLOAD DUP1 SWAP2 SUB SWAP1 LOG4 PUSH2 0x3071 PUSH1 0x0 DUP4 DUP4 PUSH2 0x2970 JUMP JUMPDEST POP POP JUMP JUMPDEST PUSH1 0x0 DUP1 DUP3 PUSH20 0xFFFFFFFFFFFFFFFFFFFFFFFFFFFFFFFFFFFFFFFF AND EXTCODESIZE GT SWAP1 POP SWAP2 SWAP1 POP JUMP JUMPDEST DUP3 DUP1 SLOAD PUSH2 0x30A4 SWAP1 PUSH2 0x3D28 JUMP JUMPDEST SWAP1 PUSH1 0x0 MSTORE PUSH1 0x20 PUSH1 0x0 KECCAK256 SWAP1 PUSH1 0x1F ADD PUSH1 0x20 SWAP1 DIV DUP2 ADD SWAP3 DUP3 PUSH2 0x30C6 JUMPI PUSH1 0x0 DUP6 SSTORE PUSH2 0x310D JUMP JUMPDEST DUP3 PUSH1 0x1F LT PUSH2 0x30DF JUMPI DUP1 MLOAD PUSH1 0xFF NOT AND DUP4 DUP1 ADD OR DUP6 SSTORE PUSH2 0x310D JUMP JUMPDEST DUP3 DUP1 ADD PUSH1 0x1 ADD DUP6 SSTORE DUP3 ISZERO PUSH2 0x310D JUMPI SWAP2 DUP3 ADD JUMPDEST DUP3 DUP2 GT ISZERO PUSH2 0x310C JUMPI DUP3 MLOAD DUP3 SSTORE SWAP2 PUSH1 0x20 ADD SWAP2 SWAP1 PUSH1 0x1 ADD SWAP1 PUSH2 0x30F1 JUMP JUMPDEST JUMPDEST POP SWAP1 POP PUSH2 0x311A SWAP2 SWAP1 PUSH2 0x311E JUMP JUMPDEST POP SWAP1 JUMP JUMPDEST JUMPDEST DUP1 DUP3 GT ISZERO PUSH2 0x3137 JUMPI PUSH1 0x0 DUP2 PUSH1 0x0 SWAP1 SSTORE POP PUSH1 0x1 ADD PUSH2 0x311F JUMP JUMPDEST POP SWAP1 JUMP JUMPDEST PUSH1 0x0 PUSH1 0x40 MLOAD SWAP1 POP SWAP1 JUMP JUMPDEST PUSH1 0x0 DUP1 REVERT JUMPDEST PUSH1 0x0 DUP1 REVERT JUMPDEST PUSH1 0x0 DUP2 SWAP1 POP SWAP2 SWAP1 POP JUMP JUMPDEST PUSH2 0x3162 DUP2 PUSH2 0x314F JUMP JUMPDEST DUP2 EQ PUSH2 0x316D JUMPI PUSH1 0x0 DUP1 REVERT JUMPDEST POP JUMP JUMPDEST PUSH1 0x0 DUP2 CALLDATALOAD SWAP1 POP PUSH2 0x317F DUP2 PUSH2 0x3159 JUMP JUMPDEST SWAP3 SWAP2 POP POP JUMP JUMPDEST PUSH1 0x0 DUP1 REVERT JUMPDEST PUSH1 0x0 DUP1 REVERT JUMPDEST PUSH1 0x0 PUSH1 0x1F NOT PUSH1 0x1F DUP4 ADD AND SWAP1 POP SWAP2 SWAP1 POP JUMP JUMPDEST PUSH32 0x4E487B7100000000000000000000000000000000000000000000000000000000 PUSH1 0x0 MSTORE PUSH1 0x41 PUSH1 0x4 MSTORE PUSH1 0x24 PUSH1 0x0 REVERT JUMPDEST PUSH2 0x31D8 DUP3 PUSH2 0x318F JUMP JUMPDEST DUP2 ADD DUP2 DUP2 LT PUSH8 0xFFFFFFFFFFFFFFFF DUP3 GT OR ISZERO PUSH2 0x31F7 JUMPI PUSH2 0x31F6 PUSH2 0x31A0 JUMP JUMPDEST JUMPDEST DUP1 PUSH1 0x40 MSTORE POP POP POP JUMP JUMPDEST PUSH1 0x0 PUSH2 0x320A PUSH2 0x313B JUMP JUMPDEST SWAP1 POP PUSH2 0x3216 DUP3 DUP3 PUSH2 0x31CF JUMP JUMPDEST SWAP2 SWAP1 POP JUMP JUMPDEST PUSH1 0x0 PUSH8 0xFFFFFFFFFFFFFFFF DUP3 GT ISZERO PUSH2 0x3236 JUMPI PUSH2 0x3235 PUSH2 0x31A0 JUMP JUMPDEST JUMPDEST PUSH2 0x323F DUP3 PUSH2 0x318F JUMP JUMPDEST SWAP1 POP PUSH1 0x20 DUP2 ADD SWAP1 POP SWAP2 SWAP1 POP JUMP JUMPDEST DUP3 DUP2 DUP4 CALLDATACOPY PUSH1 0x0 DUP4 DUP4 ADD MSTORE POP POP POP JUMP JUMPDEST PUSH1 0x0 PUSH2 0x326E PUSH2 0x3269 DUP5 PUSH2 0x321B JUMP JUMPDEST PUSH2 0x3200 JUMP JUMPDEST SWAP1 POP DUP3 DUP2 MSTORE PUSH1 0x20 DUP2 ADD DUP5 DUP5 DUP5 ADD GT ISZERO PUSH2 0x328A JUMPI PUSH2 0x3289 PUSH2 0x318A JUMP JUMPDEST JUMPDEST PUSH2 0x3295 DUP5 DUP3 DUP6 PUSH2 0x324C JUMP JUMPDEST POP SWAP4 SWAP3 POP POP POP JUMP JUMPDEST PUSH1 0x0 DUP3 PUSH1 0x1F DUP4 ADD SLT PUSH2 0x32B2 JUMPI PUSH2 0x32B1 PUSH2 0x3185 JUMP JUMPDEST JUMPDEST DUP2 CALLDATALOAD PUSH2 0x32C2 DUP5 DUP3 PUSH1 0x20 DUP7 ADD PUSH2 0x325B JUMP JUMPDEST SWAP2 POP POP SWAP3 SWAP2 POP POP JUMP JUMPDEST PUSH1 0x0 DUP1 PUSH1 0x0 PUSH1 0x60 DUP5 DUP7 SUB SLT ISZERO PUSH2 0x32E4 JUMPI PUSH2 0x32E3 PUSH2 0x3145 JUMP JUMPDEST JUMPDEST PUSH1 0x0 PUSH2 0x32F2 DUP7 DUP3 DUP8 ADD PUSH2 0x3170 JUMP JUMPDEST SWAP4 POP POP PUSH1 0x20 PUSH2 0x3303 DUP7 DUP3 DUP8 ADD PUSH2 0x3170 JUMP JUMPDEST SWAP3 POP POP PUSH1 0x40 DUP5 ADD CALLDATALOAD PUSH8 0xFFFFFFFFFFFFFFFF DUP2 GT ISZERO PUSH2 0x3324 JUMPI PUSH2 0x3323 PUSH2 0x314A JUMP JUMPDEST JUMPDEST PUSH2 0x3330 DUP7 DUP3 DUP8 ADD PUSH2 0x329D JUMP JUMPDEST SWAP2 POP POP SWAP3 POP SWAP3 POP SWAP3 JUMP JUMPDEST PUSH1 0x0 PUSH32 0xFFFFFFFF00000000000000000000000000000000000000000000000000000000 DUP3 AND SWAP1 POP SWAP2 SWAP1 POP JUMP JUMPDEST PUSH2 0x336F DUP2 PUSH2 0x333A JUMP JUMPDEST DUP2 EQ PUSH2 0x337A JUMPI PUSH1 0x0 DUP1 REVERT JUMPDEST POP JUMP JUMPDEST PUSH1 0x0 DUP2 CALLDATALOAD SWAP1 POP PUSH2 0x338C DUP2 PUSH2 0x3366 JUMP JUMPDEST SWAP3 SWAP2 POP POP JUMP JUMPDEST PUSH1 0x0 PUSH1 0x20 DUP3 DUP5 SUB SLT ISZERO PUSH2 0x33A8 JUMPI PUSH2 0x33A7 PUSH2 0x3145 JUMP JUMPDEST JUMPDEST PUSH1 0x0 PUSH2 0x33B6 DUP5 DUP3 DUP6 ADD PUSH2 0x337D JUMP JUMPDEST SWAP2 POP POP SWAP3 SWAP2 POP POP JUMP JUMPDEST PUSH1 0x0 DUP2 ISZERO ISZERO SWAP1 POP SWAP2 SWAP1 POP JUMP JUMPDEST PUSH2 0x33D4 DUP2 PUSH2 0x33BF JUMP JUMPDEST DUP3 MSTORE POP POP JUMP JUMPDEST PUSH1 0x0 PUSH1 0x20 DUP3 ADD SWAP1 POP PUSH2 0x33EF PUSH1 0x0 DUP4 ADD DUP5 PUSH2 0x33CB JUMP JUMPDEST SWAP3 SWAP2 POP POP JUMP JUMPDEST PUSH1 0x0 DUP2 MLOAD SWAP1 POP SWAP2 SWAP1 POP JUMP JUMPDEST PUSH1 0x0 DUP3 DUP3 MSTORE PUSH1 0x20 DUP3 ADD SWAP1 POP SWAP3 SWAP2 POP POP JUMP JUMPDEST PUSH1 0x0 JUMPDEST DUP4 DUP2 LT ISZERO PUSH2 0x342F JUMPI DUP1 DUP3 ADD MLOAD DUP2 DUP5 ADD MSTORE PUSH1 0x20 DUP2 ADD SWAP1 POP PUSH2 0x3414 JUMP JUMPDEST DUP4 DUP2 GT ISZERO PUSH2 0x343E JUMPI PUSH1 0x0 DUP5 DUP5 ADD MSTORE JUMPDEST POP POP POP POP JUMP JUMPDEST PUSH1 0x0 PUSH2 0x344F DUP3 PUSH2 0x33F5 JUMP JUMPDEST PUSH2 0x3459 DUP2 DUP6 PUSH2 0x3400 JUMP JUMPDEST SWAP4 POP PUSH2 0x3469 DUP2 DUP6 PUSH1 0x20 DUP7 ADD PUSH2 0x3411 JUMP JUMPDEST PUSH2 0x3472 DUP2 PUSH2 0x318F JUMP JUMPDEST DUP5 ADD SWAP2 POP POP SWAP3 SWAP2 POP POP JUMP JUMPDEST PUSH1 0x0 PUSH1 0x20 DUP3 ADD SWAP1 POP DUP2 DUP2 SUB PUSH1 0x0 DUP4 ADD MSTORE PUSH2 0x3497 DUP2 DUP5 PUSH2 0x3444 JUMP JUMPDEST SWAP1 POP SWAP3 SWAP2 POP POP JUMP JUMPDEST PUSH1 0x0 PUSH1 0x20 DUP3 DUP5 SUB SLT ISZERO PUSH2 0x34B5 JUMPI PUSH2 0x34B4 PUSH2 0x3145 JUMP JUMPDEST JUMPDEST PUSH1 0x0 PUSH2 0x34C3 DUP5 DUP3 DUP6 ADD PUSH2 0x3170 JUMP JUMPDEST SWAP2 POP POP SWAP3 SWAP2 POP POP JUMP JUMPDEST PUSH1 0x0 PUSH20 0xFFFFFFFFFFFFFFFFFFFFFFFFFFFFFFFFFFFFFFFF DUP3 AND SWAP1 POP SWAP2 SWAP1 POP JUMP JUMPDEST PUSH1 0x0 PUSH2 0x34F7 DUP3 PUSH2 0x34CC JUMP JUMPDEST SWAP1 POP SWAP2 SWAP1 POP JUMP JUMPDEST PUSH2 0x3507 DUP2 PUSH2 0x34EC JUMP JUMPDEST DUP3 MSTORE POP POP JUMP JUMPDEST PUSH1 0x0 PUSH1 0x20 DUP3 ADD SWAP1 POP PUSH2 0x3522 PUSH1 0x0 DUP4 ADD DUP5 PUSH2 0x34FE JUMP JUMPDEST SWAP3 SWAP2 POP POP JUMP JUMPDEST PUSH2 0x3531 DUP2 PUSH2 0x34EC JUMP JUMPDEST DUP2 EQ PUSH2 0x353C JUMPI PUSH1 0x0 DUP1 REVERT JUMPDEST POP JUMP JUMPDEST PUSH1 0x0 DUP2 CALLDATALOAD SWAP1 POP PUSH2 0x354E DUP2 PUSH2 0x3528 JUMP JUMPDEST SWAP3 SWAP2 POP POP JUMP JUMPDEST PUSH1 0x0 DUP1 PUSH1 0x40 DUP4 DUP6 SUB SLT ISZERO PUSH2 0x356B JUMPI PUSH2 0x356A PUSH2 0x3145 JUMP JUMPDEST JUMPDEST PUSH1 0x0 PUSH2 0x3579 DUP6 DUP3 DUP7 ADD PUSH2 0x353F JUMP JUMPDEST SWAP3 POP POP PUSH1 0x20 PUSH2 0x358A DUP6 DUP3 DUP7 ADD PUSH2 0x3170 JUMP JUMPDEST SWAP2 POP POP SWAP3 POP SWAP3 SWAP1 POP JUMP JUMPDEST PUSH1 0x0 DUP1 PUSH1 0x0 PUSH1 0x60 DUP5 DUP7 SUB SLT ISZERO PUSH2 0x35AD JUMPI PUSH2 0x35AC PUSH2 0x3145 JUMP JUMPDEST JUMPDEST PUSH1 0x0 PUSH2 0x35BB DUP7 DUP3 DUP8 ADD PUSH2 0x353F JUMP JUMPDEST SWAP4 POP POP PUSH1 0x20 PUSH2 0x35CC DUP7 DUP3 DUP8 ADD PUSH2 0x353F JUMP JUMPDEST SWAP3 POP POP PUSH1 0x40 PUSH2 0x35DD DUP7 DUP3 DUP8 ADD PUSH2 0x3170 JUMP JUMPDEST SWAP2 POP POP SWAP3 POP SWAP3 POP SWAP3 JUMP JUMPDEST PUSH1 0x0 DUP2 SWAP1 POP SWAP2 SWAP1 POP JUMP JUMPDEST PUSH2 0x35FA DUP2 PUSH2 0x35E7 JUMP JUMPDEST DUP2 EQ PUSH2 0x3605 JUMPI PUSH1 0x0 DUP1 REVERT JUMPDEST POP JUMP JUMPDEST PUSH1 0x0 DUP2 CALLDATALOAD SWAP1 POP PUSH2 0x3617 DUP2 PUSH2 0x35F1 JUMP JUMPDEST SWAP3 SWAP2 POP POP JUMP JUMPDEST PUSH1 0x0 PUSH1 0x20 DUP3 DUP5 SUB SLT ISZERO PUSH2 0x3633 JUMPI PUSH2 0x3632 PUSH2 0x3145 JUMP JUMPDEST JUMPDEST PUSH1 0x0 PUSH2 0x3641 DUP5 DUP3 DUP6 ADD PUSH2 0x3608 JUMP JUMPDEST SWAP2 POP POP SWAP3 SWAP2 POP POP JUMP JUMPDEST PUSH2 0x3653 DUP2 PUSH2 0x35E7 JUMP JUMPDEST DUP3 MSTORE POP POP JUMP JUMPDEST PUSH1 0x0 PUSH1 0x20 DUP3 ADD SWAP1 POP PUSH2 0x366E PUSH1 0x0 DUP4 ADD DUP5 PUSH2 0x364A JUMP JUMPDEST SWAP3 SWAP2 POP POP JUMP JUMPDEST PUSH1 0x0 DUP1 PUSH1 0x40 DUP4 DUP6 SUB SLT ISZERO PUSH2 0x368B JUMPI PUSH2 0x368A PUSH2 0x3145 JUMP JUMPDEST JUMPDEST PUSH1 0x0 PUSH2 0x3699 DUP6 DUP3 DUP7 ADD PUSH2 0x3608 JUMP JUMPDEST SWAP3 POP POP PUSH1 0x20 PUSH2 0x36AA DUP6 DUP3 DUP7 ADD PUSH2 0x353F JUMP JUMPDEST SWAP2 POP POP SWAP3 POP SWAP3 SWAP1 POP JUMP JUMPDEST PUSH1 0x0 PUSH1 0x20 DUP3 DUP5 SUB SLT ISZERO PUSH2 0x36CA JUMPI PUSH2 0x36C9 PUSH2 0x3145 JUMP JUMPDEST JUMPDEST PUSH1 0x0 DUP3 ADD CALLDATALOAD PUSH8 0xFFFFFFFFFFFFFFFF DUP2 GT ISZERO PUSH2 0x36E8 JUMPI PUSH2 0x36E7 PUSH2 0x314A JUMP JUMPDEST JUMPDEST PUSH2 0x36F4 DUP5 DUP3 DUP6 ADD PUSH2 0x329D JUMP JUMPDEST SWAP2 POP POP SWAP3 SWAP2 POP POP JUMP JUMPDEST PUSH1 0x0 PUSH1 0x20 DUP3 DUP5 SUB SLT ISZERO PUSH2 0x3713 JUMPI PUSH2 0x3712 PUSH2 0x3145 JUMP JUMPDEST JUMPDEST PUSH1 0x0 PUSH2 0x3721 DUP5 DUP3 DUP6 ADD PUSH2 0x353F JUMP JUMPDEST SWAP2 POP POP SWAP3 SWAP2 POP POP JUMP JUMPDEST PUSH2 0x3733 DUP2 PUSH2 0x314F JUMP JUMPDEST DUP3 MSTORE POP POP JUMP JUMPDEST PUSH1 0x0 PUSH1 0x20 DUP3 ADD SWAP1 POP PUSH2 0x374E PUSH1 0x0 DUP4 ADD DUP5 PUSH2 0x372A JUMP JUMPDEST SWAP3 SWAP2 POP POP JUMP JUMPDEST PUSH1 0x0 DUP1 PUSH1 0x0 DUP1 PUSH1 0x0 DUP1 PUSH1 0x0 DUP1 PUSH1 0x0 PUSH2 0x120 DUP11 DUP13 SUB SLT ISZERO PUSH2 0x3777 JUMPI PUSH2 0x3776 PUSH2 0x3145 JUMP JUMPDEST JUMPDEST PUSH1 0x0 PUSH2 0x3785 DUP13 DUP3 DUP14 ADD PUSH2 0x353F JUMP JUMPDEST SWAP10 POP POP PUSH1 0x20 DUP11 ADD CALLDATALOAD PUSH8 0xFFFFFFFFFFFFFFFF DUP2 GT ISZERO PUSH2 0x37A6 JUMPI PUSH2 0x37A5 PUSH2 0x314A JUMP JUMPDEST JUMPDEST PUSH2 0x37B2 DUP13 DUP3 DUP14 ADD PUSH2 0x329D JUMP JUMPDEST SWAP9 POP POP PUSH1 0x40 DUP11 ADD CALLDATALOAD PUSH8 0xFFFFFFFFFFFFFFFF DUP2 GT ISZERO PUSH2 0x37D3 JUMPI PUSH2 0x37D2 PUSH2 0x314A JUMP JUMPDEST JUMPDEST PUSH2 0x37DF DUP13 DUP3 DUP14 ADD PUSH2 0x329D JUMP JUMPDEST SWAP8 POP POP PUSH1 0x60 DUP11 ADD CALLDATALOAD PUSH8 0xFFFFFFFFFFFFFFFF DUP2 GT ISZERO PUSH2 0x3800 JUMPI PUSH2 0x37FF PUSH2 0x314A JUMP JUMPDEST JUMPDEST PUSH2 0x380C DUP13 DUP3 DUP14 ADD PUSH2 0x329D JUMP JUMPDEST SWAP7 POP POP PUSH1 0x80 DUP11 ADD CALLDATALOAD PUSH8 0xFFFFFFFFFFFFFFFF DUP2 GT ISZERO PUSH2 0x382D JUMPI PUSH2 0x382C PUSH2 0x314A JUMP JUMPDEST JUMPDEST PUSH2 0x3839 DUP13 DUP3 DUP14 ADD PUSH2 0x329D JUMP JUMPDEST SWAP6 POP POP PUSH1 0xA0 DUP11 ADD CALLDATALOAD PUSH8 0xFFFFFFFFFFFFFFFF DUP2 GT ISZERO PUSH2 0x385A JUMPI PUSH2 0x3859 PUSH2 0x314A JUMP JUMPDEST JUMPDEST PUSH2 0x3866 DUP13 DUP3 DUP14 ADD PUSH2 0x329D JUMP JUMPDEST SWAP5 POP POP PUSH1 0xC0 DUP11 ADD CALLDATALOAD PUSH8 0xFFFFFFFFFFFFFFFF DUP2 GT ISZERO PUSH2 0x3887 JUMPI PUSH2 0x3886 PUSH2 0x314A JUMP JUMPDEST JUMPDEST PUSH2 0x3893 DUP13 DUP3 DUP14 ADD PUSH2 0x329D JUMP JUMPDEST SWAP4 POP POP PUSH1 0xE0 DUP11 ADD CALLDATALOAD PUSH8 0xFFFFFFFFFFFFFFFF DUP2 GT ISZERO PUSH2 0x38B4 JUMPI PUSH2 0x38B3 PUSH2 0x314A JUMP JUMPDEST JUMPDEST PUSH2 0x38C0 DUP13 DUP3 DUP14 ADD PUSH2 0x329D JUMP JUMPDEST SWAP3 POP POP PUSH2 0x100 DUP11 ADD CALLDATALOAD PUSH8 0xFFFFFFFFFFFFFFFF DUP2 GT ISZERO PUSH2 0x38E2 JUMPI PUSH2 0x38E1 PUSH2 0x314A JUMP JUMPDEST JUMPDEST PUSH2 0x38EE DUP13 DUP3 DUP14 ADD PUSH2 0x329D JUMP JUMPDEST SWAP2 POP POP SWAP3 SWAP6 SWAP9 POP SWAP3 SWAP6 SWAP9 POP SWAP3 SWAP6 SWAP9 JUMP JUMPDEST PUSH1 0x0 DUP1 PUSH1 0x0 DUP1 PUSH1 0x0 PUSH1 0xA0 DUP7 DUP9 SUB SLT ISZERO PUSH2 0x391A JUMPI PUSH2 0x3919 PUSH2 0x3145 JUMP JUMPDEST JUMPDEST PUSH1 0x0 PUSH2 0x3928 DUP9 DUP3 DUP10 ADD PUSH2 0x3170 JUMP JUMPDEST SWAP6 POP POP PUSH1 0x20 DUP7 ADD CALLDATALOAD PUSH8 0xFFFFFFFFFFFFFFFF DUP2 GT ISZERO PUSH2 0x3949 JUMPI PUSH2 0x3948 PUSH2 0x314A JUMP JUMPDEST JUMPDEST PUSH2 0x3955 DUP9 DUP3 DUP10 ADD PUSH2 0x329D JUMP JUMPDEST SWAP5 POP POP PUSH1 0x40 DUP7 ADD CALLDATALOAD PUSH8 0xFFFFFFFFFFFFFFFF DUP2 GT ISZERO PUSH2 0x3976 JUMPI PUSH2 0x3975 PUSH2 0x314A JUMP JUMPDEST JUMPDEST PUSH2 0x3982 DUP9 DUP3 DUP10 ADD PUSH2 0x329D JUMP JUMPDEST SWAP4 POP POP PUSH1 0x60 DUP7 ADD CALLDATALOAD PUSH8 0xFFFFFFFFFFFFFFFF DUP2 GT ISZERO PUSH2 0x39A3 JUMPI PUSH2 0x39A2 PUSH2 0x314A JUMP JUMPDEST JUMPDEST PUSH2 0x39AF DUP9 DUP3 DUP10 ADD PUSH2 0x329D JUMP JUMPDEST SWAP3 POP POP PUSH1 0x80 DUP7 ADD CALLDATALOAD PUSH8 0xFFFFFFFFFFFFFFFF DUP2 GT ISZERO PUSH2 0x39D0 JUMPI PUSH2 0x39CF PUSH2 0x314A JUMP JUMPDEST JUMPDEST PUSH2 0x39DC DUP9 DUP3 DUP10 ADD PUSH2 0x329D JUMP JUMPDEST SWAP2 POP POP SWAP3 SWAP6 POP SWAP3 SWAP6 SWAP1 SWAP4 POP JUMP JUMPDEST PUSH2 0x39F2 DUP2 PUSH2 0x33BF JUMP JUMPDEST DUP2 EQ PUSH2 0x39FD JUMPI PUSH1 0x0 DUP1 REVERT JUMPDEST POP JUMP JUMPDEST PUSH1 0x0 DUP2 CALLDATALOAD SWAP1 POP PUSH2 0x3A0F DUP2 PUSH2 0x39E9 JUMP JUMPDEST SWAP3 SWAP2 POP POP JUMP JUMPDEST PUSH1 0x0 DUP1 PUSH1 0x40 DUP4 DUP6 SUB SLT ISZERO PUSH2 0x3A2C JUMPI PUSH2 0x3A2B PUSH2 0x3145 JUMP JUMPDEST JUMPDEST PUSH1 0x0 PUSH2 0x3A3A DUP6 DUP3 DUP7 ADD PUSH2 0x353F JUMP JUMPDEST SWAP3 POP POP PUSH1 0x20 PUSH2 0x3A4B DUP6 DUP3 DUP7 ADD PUSH2 0x3A00 JUMP JUMPDEST SWAP2 POP POP SWAP3 POP SWAP3 SWAP1 POP JUMP JUMPDEST PUSH1 0x0 PUSH8 0xFFFFFFFFFFFFFFFF DUP3 GT ISZERO PUSH2 0x3A70 JUMPI PUSH2 0x3A6F PUSH2 0x31A0 JUMP JUMPDEST JUMPDEST PUSH2 0x3A79 DUP3 PUSH2 0x318F JUMP JUMPDEST SWAP1 POP PUSH1 0x20 DUP2 ADD SWAP1 POP SWAP2 SWAP1 POP JUMP JUMPDEST PUSH1 0x0 PUSH2 0x3A99 PUSH2 0x3A94 DUP5 PUSH2 0x3A55 JUMP JUMPDEST PUSH2 0x3200 JUMP JUMPDEST SWAP1 POP DUP3 DUP2 MSTORE PUSH1 0x20 DUP2 ADD DUP5 DUP5 DUP5 ADD GT ISZERO PUSH2 0x3AB5 JUMPI PUSH2 0x3AB4 PUSH2 0x318A JUMP JUMPDEST JUMPDEST PUSH2 0x3AC0 DUP5 DUP3 DUP6 PUSH2 0x324C JUMP JUMPDEST POP SWAP4 SWAP3 POP POP POP JUMP JUMPDEST PUSH1 0x0 DUP3 PUSH1 0x1F DUP4 ADD SLT PUSH2 0x3ADD JUMPI PUSH2 0x3ADC PUSH2 0x3185 JUMP JUMPDEST JUMPDEST DUP2 CALLDATALOAD PUSH2 0x3AED DUP5 DUP3 PUSH1 0x20 DUP7 ADD PUSH2 0x3A86 JUMP JUMPDEST SWAP2 POP POP SWAP3 SWAP2 POP POP JUMP JUMPDEST PUSH1 0x0 DUP1 PUSH1 0x0 DUP1 PUSH1 0x80 DUP6 DUP8 SUB SLT ISZERO PUSH2 0x3B10 JUMPI PUSH2 0x3B0F PUSH2 0x3145 JUMP JUMPDEST JUMPDEST PUSH1 0x0 PUSH2 0x3B1E DUP8 DUP3 DUP9 ADD PUSH2 0x353F JUMP JUMPDEST SWAP5 POP POP PUSH1 0x20 PUSH2 0x3B2F DUP8 DUP3 DUP9 ADD PUSH2 0x353F JUMP JUMPDEST SWAP4 POP POP PUSH1 0x40 PUSH2 0x3B40 DUP8 DUP3 DUP9 ADD PUSH2 0x3170 JUMP JUMPDEST SWAP3 POP POP PUSH1 0x60 DUP6 ADD CALLDATALOAD PUSH8 0xFFFFFFFFFFFFFFFF DUP2 GT ISZERO PUSH2 0x3B61 JUMPI PUSH2 0x3B60 PUSH2 0x314A JUMP JUMPDEST JUMPDEST PUSH2 0x3B6D DUP8 DUP3 DUP9 ADD PUSH2 0x3AC8 JUMP JUMPDEST SWAP2 POP POP SWAP3 SWAP6 SWAP2 SWAP5 POP SWAP3 POP JUMP JUMPDEST PUSH1 0x0 DUP1 PUSH1 0x40 DUP4 DUP6 SUB SLT ISZERO PUSH2 0x3B90 JUMPI PUSH2 0x3B8F PUSH2 0x3145 JUMP JUMPDEST JUMPDEST PUSH1 0x0 PUSH2 0x3B9E DUP6 DUP3 DUP7 ADD PUSH2 0x353F JUMP JUMPDEST SWAP3 POP POP PUSH1 0x20 PUSH2 0x3BAF DUP6 DUP3 DUP7 ADD PUSH2 0x353F JUMP JUMPDEST SWAP2 POP POP SWAP3 POP SWAP3 SWAP1 POP JUMP JUMPDEST PUSH1 0x0 DUP2 MLOAD SWAP1 POP PUSH2 0x3BC8 DUP2 PUSH2 0x3528 JUMP JUMPDEST SWAP3 SWAP2 POP POP JUMP JUMPDEST PUSH1 0x0 PUSH1 0x20 DUP3 DUP5 SUB SLT ISZERO PUSH2 0x3BE4 JUMPI PUSH2 0x3BE3 PUSH2 0x3145 JUMP JUMPDEST JUMPDEST PUSH1 0x0 PUSH2 0x3BF2 DUP5 DUP3 DUP6 ADD PUSH2 0x3BB9 JUMP JUMPDEST SWAP2 POP POP SWAP3 SWAP2 POP POP JUMP JUMPDEST PUSH32 0x496E76616C6964206F776E657200000000000000000000000000000000000000 PUSH1 0x0 DUP3 ADD MSTORE POP JUMP JUMPDEST PUSH1 0x0 PUSH2 0x3C31 PUSH1 0xD DUP4 PUSH2 0x3400 JUMP JUMPDEST SWAP2 POP PUSH2 0x3C3C DUP3 PUSH2 0x3BFB JUMP JUMPDEST PUSH1 0x20 DUP3 ADD SWAP1 POP SWAP2 SWAP1 POP JUMP JUMPDEST PUSH1 0x0 PUSH1 0x20 DUP3 ADD SWAP1 POP DUP2 DUP2 SUB PUSH1 0x0 DUP4 ADD MSTORE PUSH2 0x3C60 DUP2 PUSH2 0x3C24 JUMP JUMPDEST SWAP1 POP SWAP2 SWAP1 POP JUMP JUMPDEST PUSH32 0x74726169745F6964206E6F7420666F756E642000000000000000000000000000 PUSH1 0x0 DUP3 ADD MSTORE POP JUMP JUMPDEST PUSH1 0x0 PUSH2 0x3C9D PUSH1 0x13 DUP4 PUSH2 0x3400 JUMP JUMPDEST SWAP2 POP PUSH2 0x3CA8 DUP3 PUSH2 0x3C67 JUMP JUMPDEST PUSH1 0x20 DUP3 ADD SWAP1 POP SWAP2 SWAP1 POP JUMP JUMPDEST PUSH1 0x0 PUSH1 0x20 DUP3 ADD SWAP1 POP DUP2 DUP2 SUB PUSH1 0x0 DUP4 ADD MSTORE PUSH2 0x3CCC DUP2 PUSH2 0x3C90 JUMP JUMPDEST SWAP1 POP SWAP2 SWAP1 POP JUMP JUMPDEST PUSH32 0x5550444154452000000000000000000000000000000000000000000000000000 DUP2 MSTORE POP JUMP JUMPDEST PUSH32 0x4E487B7100000000000000000000000000000000000000000000000000000000 PUSH1 0x0 MSTORE PUSH1 0x22 PUSH1 0x4 MSTORE PUSH1 0x24 PUSH1 0x0 REVERT JUMPDEST PUSH1 0x0 PUSH1 0x2 DUP3 DIV SWAP1 POP PUSH1 0x1 DUP3 AND DUP1 PUSH2 0x3D40 JUMPI PUSH1 0x7F DUP3 AND SWAP2 POP JUMPDEST PUSH1 0x20 DUP3 LT DUP2 EQ ISZERO PUSH2 0x3D54 JUMPI PUSH2 0x3D53 PUSH2 0x3CF9 JUMP JUMPDEST JUMPDEST POP SWAP2 SWAP1 POP JUMP JUMPDEST PUSH1 0x0 DUP2 SWAP1 POP SWAP3 SWAP2 POP POP JUMP JUMPDEST PUSH1 0x0 DUP2 SWAP1 POP DUP2 PUSH1 0x0 MSTORE PUSH1 0x20 PUSH1 0x0 KECCAK256 SWAP1 POP SWAP2 SWAP1 POP JUMP JUMPDEST PUSH1 0x0 DUP2 SLOAD PUSH2 0x3D87 DUP2 PUSH2 0x3D28 JUMP JUMPDEST PUSH2 0x3D91 DUP2 DUP7 PUSH2 0x3D5A JUMP JUMPDEST SWAP5 POP PUSH1 0x1 DUP3 AND PUSH1 0x0 DUP2 EQ PUSH2 0x3DAC JUMPI PUSH1 0x1 DUP2 EQ PUSH2 0x3DBD JUMPI PUSH2 0x3DF0 JUMP JUMPDEST PUSH1 0xFF NOT DUP4 AND DUP7 MSTORE DUP2 DUP7 ADD SWAP4 POP PUSH2 0x3DF0 JUMP JUMPDEST PUSH2 0x3DC6 DUP6 PUSH2 0x3D65 JUMP JUMPDEST PUSH1 0x0 JUMPDEST DUP4 DUP2 LT ISZERO PUSH2 0x3DE8 JUMPI DUP2 SLOAD DUP2 DUP10 ADD MSTORE PUSH1 0x1 DUP3 ADD SWAP2 POP PUSH1 0x20 DUP2 ADD SWAP1 POP PUSH2 0x3DC9 JUMP JUMPDEST DUP4 DUP9 ADD SWAP6 POP POP POP JUMPDEST POP POP POP SWAP3 SWAP2 POP POP JUMP JUMPDEST PUSH32 0x205345542076616C7565203D2027000000000000000000000000000000000000 DUP2 MSTORE POP JUMP JUMPDEST PUSH1 0x0 PUSH2 0x3E2A DUP3 PUSH2 0x33F5 JUMP JUMPDEST PUSH2 0x3E34 DUP2 DUP6 PUSH2 0x3D5A JUMP JUMPDEST SWAP4 POP PUSH2 0x3E44 DUP2 DUP6 PUSH1 0x20 DUP7 ADD PUSH2 0x3411 JUMP JUMPDEST DUP1 DUP5 ADD SWAP2 POP POP SWAP3 SWAP2 POP POP JUMP JUMPDEST PUSH32 0x27205748455245206D61696E7461626C655F746F6B656E6964203D2000000000 DUP2 MSTORE POP JUMP JUMPDEST PUSH32 0x20414E442074726169745F6964203D2000000000000000000000000000000000 DUP2 MSTORE POP JUMP JUMPDEST PUSH32 0x3B00000000000000000000000000000000000000000000000000000000000000 DUP2 MSTORE POP JUMP JUMPDEST PUSH1 0x0 PUSH2 0x3ECD DUP3 PUSH2 0x3CD3 JUMP JUMPDEST PUSH1 0x7 DUP3 ADD SWAP2 POP PUSH2 0x3EDD DUP3 DUP8 PUSH2 0x3D7A JUMP JUMPDEST SWAP2 POP PUSH2 0x3EE8 DUP3 PUSH2 0x3DF9 JUMP JUMPDEST PUSH1 0xE DUP3 ADD SWAP2 POP PUSH2 0x3EF8 DUP3 DUP7 PUSH2 0x3E1F JUMP JUMPDEST SWAP2 POP PUSH2 0x3F03 DUP3 PUSH2 0x3E50 JUMP JUMPDEST PUSH1 0x1C DUP3 ADD SWAP2 POP PUSH2 0x3F13 DUP3 DUP6 PUSH2 0x3E1F JUMP JUMPDEST SWAP2 POP PUSH2 0x3F1E DUP3 PUSH2 0x3E76 JUMP JUMPDEST PUSH1 0x10 DUP3 ADD SWAP2 POP PUSH2 0x3F2E DUP3 DUP5 PUSH2 0x3E1F JUMP JUMPDEST SWAP2 POP PUSH2 0x3F39 DUP3 PUSH2 0x3E9C JUMP JUMPDEST PUSH1 0x1 DUP3 ADD SWAP2 POP DUP2 SWAP1 POP SWAP6 SWAP5 POP POP POP POP POP JUMP JUMPDEST PUSH1 0x0 PUSH1 0x60 DUP3 ADD SWAP1 POP PUSH2 0x3F60 PUSH1 0x0 DUP4 ADD DUP7 PUSH2 0x34FE JUMP JUMPDEST PUSH2 0x3F6D PUSH1 0x20 DUP4 ADD DUP6 PUSH2 0x372A JUMP JUMPDEST DUP2 DUP2 SUB PUSH1 0x40 DUP4 ADD MSTORE PUSH2 0x3F7F DUP2 DUP5 PUSH2 0x3444 JUMP JUMPDEST SWAP1 POP SWAP5 SWAP4 POP POP POP POP JUMP JUMPDEST PUSH1 0x0 PUSH1 0xA0 DUP3 ADD SWAP1 POP PUSH2 0x3F9E PUSH1 0x0 DUP4 ADD DUP9 PUSH2 0x372A JUMP JUMPDEST PUSH2 0x3FAB PUSH1 0x20 DUP4 ADD DUP8 PUSH2 0x372A JUMP JUMPDEST DUP2 DUP2 SUB PUSH1 0x40 DUP4 ADD MSTORE PUSH2 0x3FBD DUP2 DUP7 PUSH2 0x3444 JUMP JUMPDEST SWAP1 POP PUSH2 0x3FCC PUSH1 0x60 DUP4 ADD DUP6 PUSH2 0x372A JUMP JUMPDEST PUSH2 0x3FD9 PUSH1 0x80 DUP4 ADD DUP5 PUSH2 0x372A JUMP JUMPDEST SWAP7 SWAP6 POP POP POP POP POP POP JUMP JUMPDEST PUSH32 0x756E777261703D7472756526657874726163743D66616C736526733D00000000 DUP2 MSTORE POP JUMP JUMPDEST PUSH32 0x53454C4543542532302A25323046524F4D253230000000000000000000000000 DUP2 MSTORE POP JUMP JUMPDEST PUSH1 0x0 PUSH2 0x403B DUP3 DUP6 PUSH2 0x3E1F JUMP JUMPDEST SWAP2 POP PUSH2 0x4046 DUP3 PUSH2 0x3FE3 JUMP JUMPDEST PUSH1 0x1C DUP3 ADD SWAP2 POP PUSH2 0x4055 DUP3 PUSH2 0x4009 JUMP JUMPDEST PUSH1 0x14 DUP3 ADD SWAP2 POP PUSH2 0x4065 DUP3 DUP5 PUSH2 0x3D7A JUMP JUMPDEST SWAP2 POP DUP2 SWAP1 POP SWAP4 SWAP3 POP POP POP JUMP JUMPDEST PUSH32 0x4552433732313A20617070726F76616C20746F2063757272656E74206F776E65 PUSH1 0x0 DUP3 ADD MSTORE PUSH32 0x7200000000000000000000000000000000000000000000000000000000000000 PUSH1 0x20 DUP3 ADD MSTORE POP JUMP JUMPDEST PUSH1 0x0 PUSH2 0x40CD PUSH1 0x21 DUP4 PUSH2 0x3400 JUMP JUMPDEST SWAP2 POP PUSH2 0x40D8 DUP3 PUSH2 0x4071 JUMP JUMPDEST PUSH1 0x40 DUP3 ADD SWAP1 POP SWAP2 SWAP1 POP JUMP JUMPDEST PUSH1 0x0 PUSH1 0x20 DUP3 ADD SWAP1 POP DUP2 DUP2 SUB PUSH1 0x0 DUP4 ADD MSTORE PUSH2 0x40FC DUP2 PUSH2 0x40C0 JUMP JUMPDEST SWAP1 POP SWAP2 SWAP1 POP JUMP JUMPDEST PUSH32 0x4552433732313A20617070726F76652063616C6C6572206973206E6F7420746F PUSH1 0x0 DUP3 ADD MSTORE PUSH32 0x6B656E206F776E6572206E6F7220617070726F76656420666F7220616C6C0000 PUSH1 0x20 DUP3 ADD MSTORE POP JUMP JUMPDEST PUSH1 0x0 PUSH2 0x415F PUSH1 0x3E DUP4 PUSH2 0x3400 JUMP JUMPDEST SWAP2 POP PUSH2 0x416A DUP3 PUSH2 0x4103 JUMP JUMPDEST PUSH1 0x40 DUP3 ADD SWAP1 POP SWAP2 SWAP1 POP JUMP JUMPDEST PUSH1 0x0 PUSH1 0x20 DUP3 ADD SWAP1 POP DUP2 DUP2 SUB PUSH1 0x0 DUP4 ADD MSTORE PUSH2 0x418E DUP2 PUSH2 0x4152 JUMP JUMPDEST SWAP1 POP SWAP2 SWAP1 POP JUMP JUMPDEST PUSH32 0x4552433732313A2063616C6C6572206973206E6F7420746F6B656E206F776E65 PUSH1 0x0 DUP3 ADD MSTORE PUSH32 0x72206E6F7220617070726F766564000000000000000000000000000000000000 PUSH1 0x20 DUP3 ADD MSTORE POP JUMP JUMPDEST PUSH1 0x0 PUSH2 0x41F1 PUSH1 0x2E DUP4 PUSH2 0x3400 JUMP JUMPDEST SWAP2 POP PUSH2 0x41FC DUP3 PUSH2 0x4195 JUMP JUMPDEST PUSH1 0x40 DUP3 ADD SWAP1 POP SWAP2 SWAP1 POP JUMP JUMPDEST PUSH1 0x0 PUSH1 0x20 DUP3 ADD SWAP1 POP DUP2 DUP2 SUB PUSH1 0x0 DUP4 ADD MSTORE PUSH2 0x4220 DUP2 PUSH2 0x41E4 JUMP JUMPDEST SWAP1 POP SWAP2 SWAP1 POP JUMP JUMPDEST PUSH32 0x205345542074726169745F74797065203D202700000000000000000000000000 DUP2 MSTORE POP JUMP JUMPDEST PUSH1 0x0 PUSH2 0x4258 DUP3 PUSH2 0x3CD3 JUMP JUMPDEST PUSH1 0x7 DUP3 ADD SWAP2 POP PUSH2 0x4268 DUP3 DUP8 PUSH2 0x3D7A JUMP JUMPDEST SWAP2 POP PUSH2 0x4273 DUP3 PUSH2 0x4227 JUMP JUMPDEST PUSH1 0x13 DUP3 ADD SWAP2 POP PUSH2 0x4283 DUP3 DUP7 PUSH2 0x3E1F JUMP JUMPDEST SWAP2 POP PUSH2 0x428E DUP3 PUSH2 0x3E50 JUMP JUMPDEST PUSH1 0x1C DUP3 ADD SWAP2 POP PUSH2 0x429E DUP3 DUP6 PUSH2 0x3E1F JUMP JUMPDEST SWAP2 POP PUSH2 0x42A9 DUP3 PUSH2 0x3E76 JUMP JUMPDEST PUSH1 0x10 DUP3 ADD SWAP2 POP PUSH2 0x42B9 DUP3 DUP5 PUSH2 0x3E1F JUMP JUMPDEST SWAP2 POP PUSH2 0x42C4 DUP3 PUSH2 0x3E9C JUMP JUMPDEST PUSH1 0x1 DUP3 ADD SWAP2 POP DUP2 SWAP1 POP SWAP6 SWAP5 POP POP POP POP POP JUMP JUMPDEST PUSH32 0x416363657373436F6E74726F6C3A2063616E206F6E6C792072656E6F756E6365 PUSH1 0x0 DUP3 ADD MSTORE PUSH32 0x20726F6C657320666F722073656C660000000000000000000000000000000000 PUSH1 0x20 DUP3 ADD MSTORE POP JUMP JUMPDEST PUSH1 0x0 PUSH2 0x4332 PUSH1 0x2F DUP4 PUSH2 0x3400 JUMP JUMPDEST SWAP2 POP PUSH2 0x433D DUP3 PUSH2 0x42D6 JUMP JUMPDEST PUSH1 0x40 DUP3 ADD SWAP1 POP SWAP2 SWAP1 POP JUMP JUMPDEST PUSH1 0x0 PUSH1 0x20 DUP3 ADD SWAP1 POP DUP2 DUP2 SUB PUSH1 0x0 DUP4 ADD MSTORE PUSH2 0x4361 DUP2 PUSH2 0x4325 JUMP JUMPDEST SWAP1 POP SWAP2 SWAP1 POP JUMP JUMPDEST PUSH32 0x205345542069636F6E203D202700000000000000000000000000000000000000 DUP2 MSTORE POP JUMP JUMPDEST PUSH1 0x0 PUSH2 0x4399 DUP3 PUSH2 0x3CD3 JUMP JUMPDEST PUSH1 0x7 DUP3 ADD SWAP2 POP PUSH2 0x43A9 DUP3 DUP8 PUSH2 0x3D7A JUMP JUMPDEST SWAP2 POP PUSH2 0x43B4 DUP3 PUSH2 0x4368 JUMP JUMPDEST PUSH1 0xD DUP3 ADD SWAP2 POP PUSH2 0x43C4 DUP3 DUP7 PUSH2 0x3E1F JUMP JUMPDEST SWAP2 POP PUSH2 0x43CF DUP3 PUSH2 0x3E50 JUMP JUMPDEST PUSH1 0x1C DUP3 ADD SWAP2 POP PUSH2 0x43DF DUP3 DUP6 PUSH2 0x3E1F JUMP JUMPDEST SWAP2 POP PUSH2 0x43EA DUP3 PUSH2 0x3E76 JUMP JUMPDEST PUSH1 0x10 DUP3 ADD SWAP2 POP PUSH2 0x43FA DUP3 DUP5 PUSH2 0x3E1F JUMP JUMPDEST SWAP2 POP PUSH2 0x4405 DUP3 PUSH2 0x3E9C JUMP JUMPDEST PUSH1 0x1 DUP3 ADD SWAP2 POP DUP2 SWAP1 POP SWAP6 SWAP5 POP POP POP POP POP JUMP JUMPDEST PUSH32 0x4552433732313A20696E76616C696420746F6B656E2049440000000000000000 PUSH1 0x0 DUP3 ADD MSTORE POP JUMP JUMPDEST PUSH1 0x0 PUSH2 0x444D PUSH1 0x18 DUP4 PUSH2 0x3400 JUMP JUMPDEST SWAP2 POP PUSH2 0x4458 DUP3 PUSH2 0x4417 JUMP JUMPDEST PUSH1 0x20 DUP3 ADD SWAP1 POP SWAP2 SWAP1 POP JUMP JUMPDEST PUSH1 0x0 PUSH1 0x20 DUP3 ADD SWAP1 POP DUP2 DUP2 SUB PUSH1 0x0 DUP4 ADD MSTORE PUSH2 0x447C DUP2 PUSH2 0x4440 JUMP JUMPDEST SWAP1 POP SWAP2 SWAP1 POP JUMP JUMPDEST PUSH32 0x4552433732313A2061646472657373207A65726F206973206E6F742061207661 PUSH1 0x0 DUP3 ADD MSTORE PUSH32 0x6C6964206F776E65720000000000000000000000000000000000000000000000 PUSH1 0x20 DUP3 ADD MSTORE POP JUMP JUMPDEST PUSH1 0x0 PUSH2 0x44DF PUSH1 0x29 DUP4 PUSH2 0x3400 JUMP JUMPDEST SWAP2 POP PUSH2 0x44EA DUP3 PUSH2 0x4483 JUMP JUMPDEST PUSH1 0x40 DUP3 ADD SWAP1 POP SWAP2 SWAP1 POP JUMP JUMPDEST PUSH1 0x0 PUSH1 0x20 DUP3 ADD SWAP1 POP DUP2 DUP2 SUB PUSH1 0x0 DUP4 ADD MSTORE PUSH2 0x450E DUP2 PUSH2 0x44D2 JUMP JUMPDEST SWAP1 POP SWAP2 SWAP1 POP JUMP JUMPDEST PUSH32 0x494E5345525420494E544F200000000000000000000000000000000000000000 DUP2 MSTORE POP JUMP JUMPDEST PUSH32 0x2028746F6B656E69642C206E616D652C206465736372697074696F6E2C20696D PUSH1 0x0 DUP3 ADD MSTORE PUSH32 0x6167652C2065787465726E616C5F75726C292056414C55455320282700000000 PUSH1 0x20 DUP3 ADD MSTORE POP JUMP JUMPDEST PUSH1 0x0 PUSH2 0x4597 PUSH1 0x3C DUP4 PUSH2 0x3D5A JUMP JUMPDEST SWAP2 POP PUSH2 0x45A2 DUP3 PUSH2 0x453B JUMP JUMPDEST PUSH1 0x3C DUP3 ADD SWAP1 POP SWAP2 SWAP1 POP JUMP JUMPDEST PUSH32 0x272C202700000000000000000000000000000000000000000000000000000000 DUP2 MSTORE POP JUMP JUMPDEST PUSH32 0x2729000000000000000000000000000000000000000000000000000000000000 DUP2 MSTORE POP JUMP JUMPDEST PUSH1 0x0 PUSH2 0x4604 DUP3 PUSH2 0x4515 JUMP JUMPDEST PUSH1 0xC DUP3 ADD SWAP2 POP PUSH2 0x4614 DUP3 DUP10 PUSH2 0x3D7A JUMP JUMPDEST SWAP2 POP PUSH2 0x461F DUP3 PUSH2 0x458A JUMP JUMPDEST SWAP2 POP PUSH2 0x462B DUP3 DUP9 PUSH2 0x3E1F JUMP JUMPDEST SWAP2 POP PUSH2 0x4636 DUP3 PUSH2 0x45AD JUMP JUMPDEST PUSH1 0x4 DUP3 ADD SWAP2 POP PUSH2 0x4646 DUP3 DUP8 PUSH2 0x3E1F JUMP JUMPDEST SWAP2 POP PUSH2 0x4651 DUP3 PUSH2 0x45AD JUMP JUMPDEST PUSH1 0x4 DUP3 ADD SWAP2 POP PUSH2 0x4661 DUP3 DUP7 PUSH2 0x3E1F JUMP JUMPDEST SWAP2 POP PUSH2 0x466C DUP3 PUSH2 0x45AD JUMP JUMPDEST PUSH1 0x4 DUP3 ADD SWAP2 POP PUSH2 0x467C DUP3 DUP6 PUSH2 0x3E1F JUMP JUMPDEST SWAP2 POP PUSH2 0x4687 DUP3 PUSH2 0x45AD JUMP JUMPDEST PUSH1 0x4 DUP3 ADD SWAP2 POP PUSH2 0x4697 DUP3 DUP5 PUSH2 0x3E1F JUMP JUMPDEST SWAP2 POP PUSH2 0x46A2 DUP3 PUSH2 0x45D3 JUMP JUMPDEST PUSH1 0x2 DUP3 ADD SWAP2 POP DUP2 SWAP1 POP SWAP8 SWAP7 POP POP POP POP POP POP POP JUMP JUMPDEST PUSH32 0x20286D61696E7461626C655F746F6B656E69642C2069636F6E2C20646973706C PUSH1 0x0 DUP3 ADD MSTORE PUSH32 0x61795F747970652C2074726169745F747970652C2076616C75652C2074726169 PUSH1 0x20 DUP3 ADD MSTORE PUSH32 0x745F6964292056414C5545532028270000000000000000000000000000000000 PUSH1 0x40 DUP3 ADD MSTORE POP JUMP JUMPDEST PUSH1 0x0 PUSH2 0x4738 PUSH1 0x4F DUP4 PUSH2 0x3D5A JUMP JUMPDEST SWAP2 POP PUSH2 0x4743 DUP3 PUSH2 0x46B6 JUMP JUMPDEST PUSH1 0x4F DUP3 ADD SWAP1 POP SWAP2 SWAP1 POP JUMP JUMPDEST PUSH32 0x3100000000000000000000000000000000000000000000000000000000000000 DUP2 MSTORE POP JUMP JUMPDEST PUSH1 0x0 PUSH2 0x477F DUP3 PUSH2 0x4515 JUMP JUMPDEST PUSH1 0xC DUP3 ADD SWAP2 POP PUSH2 0x478F DUP3 DUP10 PUSH2 0x3D7A JUMP JUMPDEST SWAP2 POP PUSH2 0x479A DUP3 PUSH2 0x472B JUMP JUMPDEST SWAP2 POP PUSH2 0x47A6 DUP3 DUP9 PUSH2 0x3E1F JUMP JUMPDEST SWAP2 POP PUSH2 0x47B1 DUP3 PUSH2 0x45AD JUMP JUMPDEST PUSH1 0x4 DUP3 ADD SWAP2 POP PUSH2 0x47C1 DUP3 DUP8 PUSH2 0x3E1F JUMP JUMPDEST SWAP2 POP PUSH2 0x47CC DUP3 PUSH2 0x45AD JUMP JUMPDEST PUSH1 0x4 DUP3 ADD SWAP2 POP PUSH2 0x47DC DUP3 DUP7 PUSH2 0x3E1F JUMP JUMPDEST SWAP2 POP PUSH2 0x47E7 DUP3 PUSH2 0x45AD JUMP JUMPDEST PUSH1 0x4 DUP3 ADD SWAP2 POP PUSH2 0x47F7 DUP3 DUP6 PUSH2 0x3E1F JUMP JUMPDEST SWAP2 POP PUSH2 0x4802 DUP3 PUSH2 0x45AD JUMP JUMPDEST PUSH1 0x4 DUP3 ADD SWAP2 POP PUSH2 0x4812 DUP3 DUP5 PUSH2 0x3E1F JUMP JUMPDEST SWAP2 POP PUSH2 0x481D DUP3 PUSH2 0x45AD JUMP JUMPDEST PUSH1 0x4 DUP3 ADD SWAP2 POP PUSH2 0x482C DUP3 PUSH2 0x474E JUMP JUMPDEST PUSH1 0x1 DUP3 ADD SWAP2 POP PUSH2 0x483B DUP3 PUSH2 0x45D3 JUMP JUMPDEST PUSH1 0x2 DUP3 ADD SWAP2 POP DUP2 SWAP1 POP SWAP8 SWAP7 POP POP POP POP POP POP POP JUMP JUMPDEST PUSH1 0x0 PUSH1 0x40 DUP3 ADD SWAP1 POP PUSH2 0x4864 PUSH1 0x0 DUP4 ADD DUP6 PUSH2 0x372A JUMP JUMPDEST PUSH2 0x4871 PUSH1 0x20 DUP4 ADD DUP5 PUSH2 0x372A JUMP JUMPDEST SWAP4 SWAP3 POP POP POP JUMP JUMPDEST PUSH32 0x4E487B7100000000000000000000000000000000000000000000000000000000 PUSH1 0x0 MSTORE PUSH1 0x11 PUSH1 0x4 MSTORE PUSH1 0x24 PUSH1 0x0 REVERT JUMPDEST PUSH1 0x0 PUSH2 0x48B2 DUP3 PUSH2 0x314F JUMP JUMPDEST SWAP2 POP PUSH2 0x48BD DUP4 PUSH2 0x314F JUMP JUMPDEST SWAP3 POP DUP3 PUSH32 0xFFFFFFFFFFFFFFFFFFFFFFFFFFFFFFFFFFFFFFFFFFFFFFFFFFFFFFFFFFFFFFFF SUB DUP3 GT ISZERO PUSH2 0x48F2 JUMPI PUSH2 0x48F1 PUSH2 0x4878 JUMP JUMPDEST JUMPDEST DUP3 DUP3 ADD SWAP1 POP SWAP3 SWAP2 POP POP JUMP JUMPDEST PUSH1 0x0 PUSH2 0x4908 DUP3 PUSH2 0x4515 JUMP JUMPDEST PUSH1 0xC DUP3 ADD SWAP2 POP PUSH2 0x4918 DUP3 DUP11 PUSH2 0x3D7A JUMP JUMPDEST SWAP2 POP PUSH2 0x4923 DUP3 PUSH2 0x472B JUMP JUMPDEST SWAP2 POP PUSH2 0x492F DUP3 DUP10 PUSH2 0x3E1F JUMP JUMPDEST SWAP2 POP PUSH2 0x493A DUP3 PUSH2 0x45AD JUMP JUMPDEST PUSH1 0x4 DUP3 ADD SWAP2 POP PUSH2 0x494A DUP3 DUP9 PUSH2 0x3E1F JUMP JUMPDEST SWAP2 POP PUSH2 0x4955 DUP3 PUSH2 0x45AD JUMP JUMPDEST PUSH1 0x4 DUP3 ADD SWAP2 POP PUSH2 0x4965 DUP3 DUP8 PUSH2 0x3E1F JUMP JUMPDEST SWAP2 POP PUSH2 0x4970 DUP3 PUSH2 0x45AD JUMP JUMPDEST PUSH1 0x4 DUP3 ADD SWAP2 POP PUSH2 0x4980 DUP3 DUP7 PUSH2 0x3E1F JUMP JUMPDEST SWAP2 POP PUSH2 0x498B DUP3 PUSH2 0x45AD JUMP JUMPDEST PUSH1 0x4 DUP3 ADD SWAP2 POP PUSH2 0x499B DUP3 DUP6 PUSH2 0x3E1F JUMP JUMPDEST SWAP2 POP PUSH2 0x49A6 DUP3 PUSH2 0x45AD JUMP JUMPDEST PUSH1 0x4 DUP3 ADD SWAP2 POP PUSH2 0x49B6 DUP3 DUP5 PUSH2 0x3E1F JUMP JUMPDEST SWAP2 POP PUSH2 0x49C1 DUP3 PUSH2 0x45D3 JUMP JUMPDEST PUSH1 0x2 DUP3 ADD SWAP2 POP DUP2 SWAP1 POP SWAP9 SWAP8 POP POP POP POP POP POP POP POP JUMP JUMPDEST PUSH1 0x0 PUSH1 0x60 DUP3 ADD SWAP1 POP PUSH2 0x49EB PUSH1 0x0 DUP4 ADD DUP7 PUSH2 0x372A JUMP JUMPDEST PUSH2 0x49F8 PUSH1 0x20 DUP4 ADD DUP6 PUSH2 0x372A JUMP JUMPDEST PUSH2 0x4A05 PUSH1 0x40 DUP4 ADD DUP5 PUSH2 0x372A JUMP JUMPDEST SWAP5 SWAP4 POP POP POP POP JUMP JUMPDEST PUSH32 0x4552433732314D657461646174613A2055524920717565727920666F72206E6F PUSH1 0x0 DUP3 ADD MSTORE PUSH32 0x6E6578697374656E7420746F6B656E0000000000000000000000000000000000 PUSH1 0x20 DUP3 ADD MSTORE POP JUMP JUMPDEST PUSH1 0x0 PUSH2 0x4A69 PUSH1 0x2F DUP4 PUSH2 0x3400 JUMP JUMPDEST SWAP2 POP PUSH2 0x4A74 DUP3 PUSH2 0x4A0D JUMP JUMPDEST PUSH1 0x40 DUP3 ADD SWAP1 POP SWAP2 SWAP1 POP JUMP JUMPDEST PUSH1 0x0 PUSH1 0x20 DUP3 ADD SWAP1 POP DUP2 DUP2 SUB PUSH1 0x0 DUP4 ADD MSTORE PUSH2 0x4A98 DUP2 PUSH2 0x4A5C JUMP JUMPDEST SWAP1 POP SWAP2 SWAP1 POP JUMP JUMPDEST PUSH32 0x53454C4543542532306A736F6E5F6F626A656374253238253237696425323725 PUSH1 0x0 DUP3 ADD MSTORE PUSH32 0x3243746F6B656E69642532432532376E616D652532372532436E616D65253243 PUSH1 0x20 DUP3 ADD MSTORE PUSH32 0x2532376465736372697074696F6E2532372532436465736372697074696F6E25 PUSH1 0x40 DUP3 ADD MSTORE PUSH32 0x3243253237696D616765253237253243696D6167652532432532376578746572 PUSH1 0x60 DUP3 ADD MSTORE PUSH32 0x6E616C5F75726C25323725324365787465726E616C5F75726C25324325323761 PUSH1 0x80 DUP3 ADD MSTORE PUSH32 0x7474726962757465732532372532436A736F6E5F67726F75705F617272617925 PUSH1 0xA0 DUP3 ADD MSTORE PUSH32 0x32386A736F6E5F6F626A65637425323825323769636F6E25323725324369636F PUSH1 0xC0 DUP3 ADD MSTORE PUSH32 0x6E253243253237646973706C61795F74797065253237253243646973706C6179 PUSH1 0xE0 DUP3 ADD MSTORE PUSH32 0x5F7479706525324325323774726169745F747970652532372532437472616974 PUSH2 0x100 DUP3 ADD MSTORE PUSH32 0x5F7479706525324325323776616C756525323725324376616C75652532392532 PUSH2 0x120 DUP3 ADD MSTORE PUSH32 0x3925323925323046524F4D253230000000000000000000000000000000000000 PUSH2 0x140 DUP3 ADD MSTORE POP JUMP JUMPDEST PUSH1 0x0 PUSH2 0x4C55 PUSH2 0x14E DUP4 PUSH2 0x3D5A JUMP JUMPDEST SWAP2 POP PUSH2 0x4C60 DUP3 PUSH2 0x4A9F JUMP JUMPDEST PUSH2 0x14E DUP3 ADD SWAP1 POP SWAP2 SWAP1 POP JUMP JUMPDEST PUSH32 0x2532304A4F494E25323000000000000000000000000000000000000000000000 PUSH1 0x0 DUP3 ADD MSTORE POP JUMP JUMPDEST PUSH1 0x0 PUSH2 0x4CA2 PUSH1 0xA DUP4 PUSH2 0x3D5A JUMP JUMPDEST SWAP2 POP PUSH2 0x4CAD DUP3 PUSH2 0x4C6C JUMP JUMPDEST PUSH1 0xA DUP3 ADD SWAP1 POP SWAP2 SWAP1 POP JUMP JUMPDEST PUSH32 0x2532304F4E253230000000000000000000000000000000000000000000000000 PUSH1 0x0 DUP3 ADD MSTORE POP JUMP JUMPDEST PUSH1 0x0 PUSH2 0x4CEE PUSH1 0x8 DUP4 PUSH2 0x3D5A JUMP JUMPDEST SWAP2 POP PUSH2 0x4CF9 DUP3 PUSH2 0x4CB8 JUMP JUMPDEST PUSH1 0x8 DUP3 ADD SWAP1 POP SWAP2 SWAP1 POP JUMP JUMPDEST PUSH32 0x253245746F6B656E696425323025334425323000000000000000000000000000 PUSH1 0x0 DUP3 ADD MSTORE POP JUMP JUMPDEST PUSH1 0x0 PUSH2 0x4D3A PUSH1 0x13 DUP4 PUSH2 0x3D5A JUMP JUMPDEST SWAP2 POP PUSH2 0x4D45 DUP3 PUSH2 0x4D04 JUMP JUMPDEST PUSH1 0x13 DUP3 ADD SWAP1 POP SWAP2 SWAP1 POP JUMP JUMPDEST PUSH32 0x2532456D61696E7461626C655F746F6B656E6964253230574845524525323074 PUSH1 0x0 DUP3 ADD MSTORE PUSH32 0x6F6B656E69642533440000000000000000000000000000000000000000000000 PUSH1 0x20 DUP3 ADD MSTORE POP JUMP JUMPDEST PUSH1 0x0 PUSH2 0x4DAC PUSH1 0x29 DUP4 PUSH2 0x3D5A JUMP JUMPDEST SWAP2 POP PUSH2 0x4DB7 DUP3 PUSH2 0x4D50 JUMP JUMPDEST PUSH1 0x29 DUP3 ADD SWAP1 POP SWAP2 SWAP1 POP JUMP JUMPDEST PUSH1 0x0 PUSH2 0x4DCD DUP3 PUSH2 0x4C47 JUMP JUMPDEST SWAP2 POP PUSH2 0x4DD9 DUP3 DUP8 PUSH2 0x3D7A JUMP JUMPDEST SWAP2 POP PUSH2 0x4DE4 DUP3 PUSH2 0x4C95 JUMP JUMPDEST SWAP2 POP PUSH2 0x4DF0 DUP3 DUP7 PUSH2 0x3D7A JUMP JUMPDEST SWAP2 POP PUSH2 0x4DFB DUP3 PUSH2 0x4CE1 JUMP JUMPDEST SWAP2 POP PUSH2 0x4E07 DUP3 DUP6 PUSH2 0x3D7A JUMP JUMPDEST SWAP2 POP PUSH2 0x4E12 DUP3 PUSH2 0x4D2D JUMP JUMPDEST SWAP2 POP PUSH2 0x4E1E DUP3 DUP5 PUSH2 0x3D7A JUMP JUMPDEST SWAP2 POP PUSH2 0x4E29 DUP3 PUSH2 0x4D9F JUMP JUMPDEST SWAP2 POP DUP2 SWAP1 POP SWAP6 SWAP5 POP POP POP POP POP JUMP JUMPDEST PUSH32 0x756E777261703D7472756526657874726163743D7472756526733D0000000000 PUSH1 0x0 DUP3 ADD MSTORE POP JUMP JUMPDEST PUSH1 0x0 PUSH2 0x4E6D PUSH1 0x1B DUP4 PUSH2 0x3D5A JUMP JUMPDEST SWAP2 POP PUSH2 0x4E78 DUP3 PUSH2 0x4E37 JUMP JUMPDEST PUSH1 0x1B DUP3 ADD SWAP1 POP SWAP2 SWAP1 POP JUMP JUMPDEST PUSH32 0x25323067726F75702532306279253230746F6B656E6964000000000000000000 PUSH1 0x0 DUP3 ADD MSTORE POP JUMP JUMPDEST PUSH1 0x0 PUSH2 0x4EB9 PUSH1 0x17 DUP4 PUSH2 0x3D5A JUMP JUMPDEST SWAP2 POP PUSH2 0x4EC4 DUP3 PUSH2 0x4E83 JUMP JUMPDEST PUSH1 0x17 DUP3 ADD SWAP1 POP SWAP2 SWAP1 POP JUMP JUMPDEST PUSH1 0x0 PUSH2 0x4EDB DUP3 DUP7 PUSH2 0x3E1F JUMP JUMPDEST SWAP2 POP PUSH2 0x4EE6 DUP3 PUSH2 0x4E60 JUMP JUMPDEST SWAP2 POP PUSH2 0x4EF2 DUP3 DUP6 PUSH2 0x3E1F JUMP JUMPDEST SWAP2 POP PUSH2 0x4EFE DUP3 DUP5 PUSH2 0x3E1F JUMP JUMPDEST SWAP2 POP PUSH2 0x4F09 DUP3 PUSH2 0x4EAC JUMP JUMPDEST SWAP2 POP DUP2 SWAP1 POP SWAP5 SWAP4 POP POP POP POP JUMP JUMPDEST PUSH32 0x2053455420646973706C61795F74797065203D20270000000000000000000000 DUP2 MSTORE POP JUMP JUMPDEST PUSH1 0x0 PUSH2 0x4F47 DUP3 PUSH2 0x3CD3 JUMP JUMPDEST PUSH1 0x7 DUP3 ADD SWAP2 POP PUSH2 0x4F57 DUP3 DUP8 PUSH2 0x3D7A JUMP JUMPDEST SWAP2 POP PUSH2 0x4F62 DUP3 PUSH2 0x4F16 JUMP JUMPDEST PUSH1 0x15 DUP3 ADD SWAP2 POP PUSH2 0x4F72 DUP3 DUP7 PUSH2 0x3E1F JUMP JUMPDEST SWAP2 POP PUSH2 0x4F7D DUP3 PUSH2 0x3E50 JUMP JUMPDEST PUSH1 0x1C DUP3 ADD SWAP2 POP PUSH2 0x4F8D DUP3 DUP6 PUSH2 0x3E1F JUMP JUMPDEST SWAP2 POP PUSH2 0x4F98 DUP3 PUSH2 0x3E76 JUMP JUMPDEST PUSH1 0x10 DUP3 ADD SWAP2 POP PUSH2 0x4FA8 DUP3 DUP5 PUSH2 0x3E1F JUMP JUMPDEST SWAP2 POP PUSH2 0x4FB3 DUP3 PUSH2 0x3E9C JUMP JUMPDEST PUSH1 0x1 DUP3 ADD SWAP2 POP DUP2 SWAP1 POP SWAP6 SWAP5 POP POP POP POP POP JUMP JUMPDEST PUSH1 0x0 PUSH2 0x4FD0 DUP3 PUSH2 0x314F JUMP JUMPDEST SWAP2 POP PUSH32 0xFFFFFFFFFFFFFFFFFFFFFFFFFFFFFFFFFFFFFFFFFFFFFFFFFFFFFFFFFFFFFFFF DUP3 EQ ISZERO PUSH2 0x5003 JUMPI PUSH2 0x5002 PUSH2 0x4878 JUMP JUMPDEST JUMPDEST PUSH1 0x1 DUP3 ADD SWAP1 POP SWAP2 SWAP1 POP JUMP JUMPDEST PUSH32 0x4E487B7100000000000000000000000000000000000000000000000000000000 PUSH1 0x0 MSTORE PUSH1 0x12 PUSH1 0x4 MSTORE PUSH1 0x24 PUSH1 0x0 REVERT JUMPDEST PUSH1 0x0 PUSH2 0x5048 DUP3 PUSH2 0x314F JUMP JUMPDEST SWAP2 POP PUSH2 0x5053 DUP4 PUSH2 0x314F JUMP JUMPDEST SWAP3 POP DUP3 PUSH2 0x5063 JUMPI PUSH2 0x5062 PUSH2 0x500E JUMP JUMPDEST JUMPDEST DUP3 DUP3 DIV SWAP1 POP SWAP3 SWAP2 POP POP JUMP JUMPDEST PUSH1 0x0 PUSH2 0x5079 DUP3 PUSH2 0x314F JUMP JUMPDEST SWAP2 POP PUSH2 0x5084 DUP4 PUSH2 0x314F JUMP JUMPDEST SWAP3 POP DUP3 DUP3 LT ISZERO PUSH2 0x5097 JUMPI PUSH2 0x5096 PUSH2 0x4878 JUMP JUMPDEST JUMPDEST DUP3 DUP3 SUB SWAP1 POP SWAP3 SWAP2 POP POP JUMP JUMPDEST PUSH1 0x0 PUSH2 0x50AD DUP3 PUSH2 0x314F JUMP JUMPDEST SWAP2 POP PUSH2 0x50B8 DUP4 PUSH2 0x314F JUMP JUMPDEST SWAP3 POP DUP3 PUSH2 0x50C8 JUMPI PUSH2 0x50C7 PUSH2 0x500E JUMP JUMPDEST JUMPDEST DUP3 DUP3 MOD SWAP1 POP SWAP3 SWAP2 POP POP JUMP JUMPDEST PUSH32 0x4E487B7100000000000000000000000000000000000000000000000000000000 PUSH1 0x0 MSTORE PUSH1 0x32 PUSH1 0x4 MSTORE PUSH1 0x24 PUSH1 0x0 REVERT JUMPDEST PUSH32 0x4552433732313A207472616E736665722066726F6D20696E636F727265637420 PUSH1 0x0 DUP3 ADD MSTORE PUSH32 0x6F776E6572000000000000000000000000000000000000000000000000000000 PUSH1 0x20 DUP3 ADD MSTORE POP JUMP JUMPDEST PUSH1 0x0 PUSH2 0x515E PUSH1 0x25 DUP4 PUSH2 0x3400 JUMP JUMPDEST SWAP2 POP PUSH2 0x5169 DUP3 PUSH2 0x5102 JUMP JUMPDEST PUSH1 0x40 DUP3 ADD SWAP1 POP SWAP2 SWAP1 POP JUMP JUMPDEST PUSH1 0x0 PUSH1 0x20 DUP3 ADD SWAP1 POP DUP2 DUP2 SUB PUSH1 0x0 DUP4 ADD MSTORE PUSH2 0x518D DUP2 PUSH2 0x5151 JUMP JUMPDEST SWAP1 POP SWAP2 SWAP1 POP JUMP JUMPDEST PUSH32 0x4552433732313A207472616E7366657220746F20746865207A65726F20616464 PUSH1 0x0 DUP3 ADD MSTORE PUSH32 0x7265737300000000000000000000000000000000000000000000000000000000 PUSH1 0x20 DUP3 ADD MSTORE POP JUMP JUMPDEST PUSH1 0x0 PUSH2 0x51F0 PUSH1 0x24 DUP4 PUSH2 0x3400 JUMP JUMPDEST SWAP2 POP PUSH2 0x51FB DUP3 PUSH2 0x5194 JUMP JUMPDEST PUSH1 0x40 DUP3 ADD SWAP1 POP SWAP2 SWAP1 POP JUMP JUMPDEST PUSH1 0x0 PUSH1 0x20 DUP3 ADD SWAP1 POP DUP2 DUP2 SUB PUSH1 0x0 DUP4 ADD MSTORE PUSH2 0x521F DUP2 PUSH2 0x51E3 JUMP JUMPDEST SWAP1 POP SWAP2 SWAP1 POP JUMP JUMPDEST PUSH32 0x4552433732313A20617070726F766520746F2063616C6C657200000000000000 PUSH1 0x0 DUP3 ADD MSTORE POP JUMP JUMPDEST PUSH1 0x0 PUSH2 0x525C PUSH1 0x19 DUP4 PUSH2 0x3400 JUMP JUMPDEST SWAP2 POP PUSH2 0x5267 DUP3 PUSH2 0x5226 JUMP JUMPDEST PUSH1 0x20 DUP3 ADD SWAP1 POP SWAP2 SWAP1 POP JUMP JUMPDEST PUSH1 0x0 PUSH1 0x20 DUP3 ADD SWAP1 POP DUP2 DUP2 SUB PUSH1 0x0 DUP4 ADD MSTORE PUSH2 0x528B DUP2 PUSH2 0x524F JUMP JUMPDEST SWAP1 POP SWAP2 SWAP1 POP JUMP JUMPDEST PUSH32 0x4552433732313A207472616E7366657220746F206E6F6E204552433732315265 PUSH1 0x0 DUP3 ADD MSTORE PUSH32 0x63656976657220696D706C656D656E7465720000000000000000000000000000 PUSH1 0x20 DUP3 ADD MSTORE POP JUMP JUMPDEST PUSH1 0x0 PUSH2 0x52EE PUSH1 0x32 DUP4 PUSH2 0x3400 JUMP JUMPDEST SWAP2 POP PUSH2 0x52F9 DUP3 PUSH2 0x5292 JUMP JUMPDEST PUSH1 0x40 DUP3 ADD SWAP1 POP SWAP2 SWAP1 POP JUMP JUMPDEST PUSH1 0x0 PUSH1 0x20 DUP3 ADD SWAP1 POP DUP2 DUP2 SUB PUSH1 0x0 DUP4 ADD MSTORE PUSH2 0x531D DUP2 PUSH2 0x52E1 JUMP JUMPDEST SWAP1 POP SWAP2 SWAP1 POP JUMP JUMPDEST PUSH32 0x416363657373436F6E74726F6C3A206163636F756E7420000000000000000000 PUSH1 0x0 DUP3 ADD MSTORE POP JUMP JUMPDEST PUSH1 0x0 PUSH2 0x535A PUSH1 0x17 DUP4 PUSH2 0x3D5A JUMP JUMPDEST SWAP2 POP PUSH2 0x5365 DUP3 PUSH2 0x5324 JUMP JUMPDEST PUSH1 0x17 DUP3 ADD SWAP1 POP SWAP2 SWAP1 POP JUMP JUMPDEST PUSH32 0x206973206D697373696E6720726F6C6520000000000000000000000000000000 PUSH1 0x0 DUP3 ADD MSTORE POP JUMP JUMPDEST PUSH1 0x0 PUSH2 0x53A6 PUSH1 0x11 DUP4 PUSH2 0x3D5A JUMP JUMPDEST SWAP2 POP PUSH2 0x53B1 DUP3 PUSH2 0x5370 JUMP JUMPDEST PUSH1 0x11 DUP3 ADD SWAP1 POP SWAP2 SWAP1 POP JUMP JUMPDEST PUSH1 0x0 PUSH2 0x53C7 DUP3 PUSH2 0x534D JUMP JUMPDEST SWAP2 POP PUSH2 0x53D3 DUP3 DUP6 PUSH2 0x3E1F JUMP JUMPDEST SWAP2 POP PUSH2 0x53DE DUP3 PUSH2 0x5399 JUMP JUMPDEST SWAP2 POP PUSH2 0x53EA DUP3 DUP5 PUSH2 0x3E1F JUMP JUMPDEST SWAP2 POP DUP2 SWAP1 POP SWAP4 SWAP3 POP POP POP JUMP JUMPDEST PUSH1 0x0 DUP2 MLOAD SWAP1 POP SWAP2 SWAP1 POP JUMP JUMPDEST PUSH1 0x0 DUP3 DUP3 MSTORE PUSH1 0x20 DUP3 ADD SWAP1 POP SWAP3 SWAP2 POP POP JUMP JUMPDEST PUSH1 0x0 PUSH2 0x541D DUP3 PUSH2 0x53F6 JUMP JUMPDEST PUSH2 0x5427 DUP2 DUP6 PUSH2 0x5401 JUMP JUMPDEST SWAP4 POP PUSH2 0x5437 DUP2 DUP6 PUSH1 0x20 DUP7 ADD PUSH2 0x3411 JUMP JUMPDEST PUSH2 0x5440 DUP2 PUSH2 0x318F JUMP JUMPDEST DUP5 ADD SWAP2 POP POP SWAP3 SWAP2 POP POP JUMP JUMPDEST PUSH1 0x0 PUSH1 0x80 DUP3 ADD SWAP1 POP PUSH2 0x5460 PUSH1 0x0 DUP4 ADD DUP8 PUSH2 0x34FE JUMP JUMPDEST PUSH2 0x546D PUSH1 0x20 DUP4 ADD DUP7 PUSH2 0x34FE JUMP JUMPDEST PUSH2 0x547A PUSH1 0x40 DUP4 ADD DUP6 PUSH2 0x372A JUMP JUMPDEST DUP2 DUP2 SUB PUSH1 0x60 DUP4 ADD MSTORE PUSH2 0x548C DUP2 DUP5 PUSH2 0x5412 JUMP JUMPDEST SWAP1 POP SWAP6 SWAP5 POP POP POP POP POP JUMP JUMPDEST PUSH1 0x0 DUP2 MLOAD SWAP1 POP PUSH2 0x54A6 DUP2 PUSH2 0x3366 JUMP JUMPDEST SWAP3 SWAP2 POP POP JUMP JUMPDEST PUSH1 0x0 PUSH1 0x20 DUP3 DUP5 SUB SLT ISZERO PUSH2 0x54C2 JUMPI PUSH2 0x54C1 PUSH2 0x3145 JUMP JUMPDEST JUMPDEST PUSH1 0x0 PUSH2 0x54D0 DUP5 DUP3 DUP6 ADD PUSH2 0x5497 JUMP JUMPDEST SWAP2 POP POP SWAP3 SWAP2 POP POP JUMP JUMPDEST PUSH1 0x0 PUSH2 0x54E4 DUP3 PUSH2 0x314F JUMP JUMPDEST SWAP2 POP PUSH2 0x54EF DUP4 PUSH2 0x314F JUMP JUMPDEST SWAP3 POP DUP2 PUSH32 0xFFFFFFFFFFFFFFFFFFFFFFFFFFFFFFFFFFFFFFFFFFFFFFFFFFFFFFFFFFFFFFFF DIV DUP4 GT DUP3 ISZERO ISZERO AND ISZERO PUSH2 0x5528 JUMPI PUSH2 0x5527 PUSH2 0x4878 JUMP JUMPDEST JUMPDEST DUP3 DUP3 MUL SWAP1 POP SWAP3 SWAP2 POP POP JUMP JUMPDEST PUSH1 0x0 PUSH2 0x553E DUP3 PUSH2 0x314F JUMP JUMPDEST SWAP2 POP PUSH1 0x0 DUP3 EQ ISZERO PUSH2 0x5552 JUMPI PUSH2 0x5551 PUSH2 0x4878 JUMP JUMPDEST JUMPDEST PUSH1 0x1 DUP3 SUB SWAP1 POP SWAP2 SWAP1 POP JUMP JUMPDEST PUSH32 0x537472696E67733A20686578206C656E67746820696E73756666696369656E74 PUSH1 0x0 DUP3 ADD MSTORE POP JUMP JUMPDEST PUSH1 0x0 PUSH2 0x5593 PUSH1 0x20 DUP4 PUSH2 0x3400 JUMP JUMPDEST SWAP2 POP PUSH2 0x559E DUP3 PUSH2 0x555D JUMP JUMPDEST PUSH1 0x20 DUP3 ADD SWAP1 POP SWAP2 SWAP1 POP JUMP JUMPDEST PUSH1 0x0 PUSH1 0x20 DUP3 ADD SWAP1 POP DUP2 DUP2 SUB PUSH1 0x0 DUP4 ADD MSTORE PUSH2 0x55C2 DUP2 PUSH2 0x5586 JUMP JUMPDEST SWAP1 POP SWAP2 SWAP1 POP JUMP JUMPDEST PUSH32 0x4552433732313A206D696E7420746F20746865207A65726F2061646472657373 PUSH1 0x0 DUP3 ADD MSTORE POP JUMP JUMPDEST PUSH1 0x0 PUSH2 0x55FF PUSH1 0x20 DUP4 PUSH2 0x3400 JUMP JUMPDEST SWAP2 POP PUSH2 0x560A DUP3 PUSH2 0x55C9 JUMP JUMPDEST PUSH1 0x20 DUP3 ADD SWAP1 POP SWAP2 SWAP1 POP JUMP JUMPDEST PUSH1 0x0 PUSH1 0x20 DUP3 ADD SWAP1 POP DUP2 DUP2 SUB PUSH1 0x0 DUP4 ADD MSTORE PUSH2 0x562E DUP2 PUSH2 0x55F2 JUMP JUMPDEST SWAP1 POP SWAP2 SWAP1 POP JUMP JUMPDEST PUSH32 0x4552433732313A20746F6B656E20616C7265616479206D696E74656400000000 PUSH1 0x0 DUP3 ADD MSTORE POP JUMP JUMPDEST PUSH1 0x0 PUSH2 0x566B PUSH1 0x1C DUP4 PUSH2 0x3400 JUMP JUMPDEST SWAP2 POP PUSH2 0x5676 DUP3 PUSH2 0x5635 JUMP JUMPDEST PUSH1 0x20 DUP3 ADD SWAP1 POP SWAP2 SWAP1 POP JUMP JUMPDEST PUSH1 0x0 PUSH1 0x20 DUP3 ADD SWAP1 POP DUP2 DUP2 SUB PUSH1 0x0 DUP4 ADD MSTORE PUSH2 0x569A DUP2 PUSH2 0x565E JUMP JUMPDEST SWAP1 POP SWAP2 SWAP1 POP JUMP INVALID LOG2 PUSH5 0x6970667358 0x22 SLT KECCAK256 DUP9 0xEB 0xEB 0xBE PUSH16 0xECC838B04458FBEF2B4A5AC3FBD48F48 PUSH17 0xE1EA5D8F51F417DD4C0064736F6C634300 ADDMOD 0xC STOP CALLER PUSH9 0x747470733A2F2F7465 PUSH20 0x746E65742E7461626C656C616E642E6E6574776F PUSH19 0x6B2F71756572793F0000000000000000000000 "},"methodIdentifiers":{"DEFAULT_ADMIN_ROLE()":"a217fddf","add_new_attribute(uint256,string,string,string,string)":"a1ced596","approve(address,uint256)":"095ea7b3","attributesTable()":"7bc53be9","attributes_metadataURI()":"091a77e7","balanceOf(address)":"70a08231","getApproved(uint256)":"081812fc","getRoleAdmin(bytes32)":"248a9ca3","grantRole(bytes32,address)":"2f2ff15d","hasRole(bytes32,address)":"91d14854","isApprovedForAll(address,address)":"e985e9c5","mainTable()":"5d21260a","main_metadataURI()":"a8e62f09","name()":"06fdde03","ownerOf(uint256)":"6352211e","renounceRole(bytes32,address)":"36568abe","revokeRole(bytes32,address)":"d547741f","safeMint(address,string,string,string,string,string,string,string,string)":"8586b42f","safeTransferFrom(address,address,uint256)":"42842e0e","safeTransferFrom(address,address,uint256,bytes)":"b88d4fde","setApprovalForAll(address,bool)":"a22cb465","setBaseURI(string)":"55f804b3","supportsInterface(bytes4)":"01ffc9a7","symbol()":"95d89b41","tokenURI(uint256)":"c87b56dd","transferFrom(address,address,uint256)":"23b872dd","update_display_type(uint256,uint256,string)":"f15daa02","update_icon(uint256,uint256,string)":"60af4275","update_trait_type(uint256,uint256,string)":"313e91cb","update_value(uint256,uint256,string)":"01637608"}},"storageLayout":{"storage":[{"astId":418,"contract":"contracts/mint_tea_ERC721.sol:MTEA","label":"_name","offset":0,"slot":"0","type":"t_string_storage"},{"astId":420,"contract":"contracts/mint_tea_ERC721.sol:MTEA","label":"_symbol","offset":0,"slot":"1","type":"t_string_storage"},{"astId":424,"contract":"contracts/mint_tea_ERC721.sol:MTEA","label":"_owners","offset":0,"slot":"2","type":"t_mapping(t_uint256,t_address)"},{"astId":428,"contract":"contracts/mint_tea_ERC721.sol:MTEA","label":"_balances","offset":0,"slot":"3","type":"t_mapping(t_address,t_uint256)"},{"astId":432,"contract":"contracts/mint_tea_ERC721.sol:MTEA","label":"_tokenApprovals","offset":0,"slot":"4","type":"t_mapping(t_uint256,t_address)"},{"astId":438,"contract":"contracts/mint_tea_ERC721.sol:MTEA","label":"_operatorApprovals","offset":0,"slot":"5","type":"t_mapping(t_address,t_mapping(t_address,t_bool))"},{"astId":24,"contract":"contracts/mint_tea_ERC721.sol:MTEA","label":"_roles","offset":0,"slot":"6","type":"t_mapping(t_bytes32,t_struct(RoleData)19_storage)"},{"astId":2232,"contract":"contracts/mint_tea_ERC721.sol:MTEA","label":"_baseURIString","offset":0,"slot":"7","type":"t_string_storage"},{"astId":2235,"contract":"contracts/mint_tea_ERC721.sol:MTEA","label":"_tokenIdCounter","offset":0,"slot":"8","type":"t_struct(Counter)1743_storage"},{"astId":2238,"contract":"contracts/mint_tea_ERC721.sol:MTEA","label":"_tableland","offset":0,"slot":"9","type":"t_contract(ITablelandTables)2214"},{"astId":2240,"contract":"contracts/mint_tea_ERC721.sol:MTEA","label":"_metadataTableId","offset":0,"slot":"10","type":"t_uint256"},{"astId":2242,"contract":"contracts/mint_tea_ERC721.sol:MTEA","label":"_attributesTableId","offset":0,"slot":"11","type":"t_uint256"},{"astId":2245,"contract":"contracts/mint_tea_ERC721.sol:MTEA","label":"_tablePrefix","offset":0,"slot":"12","type":"t_string_storage"},{"astId":2248,"contract":"contracts/mint_tea_ERC721.sol:MTEA","label":"mainTable","offset":0,"slot":"13","type":"t_string_storage"},{"astId":2251,"contract":"contracts/mint_tea_ERC721.sol:MTEA","label":"attributesTable","offset":0,"slot":"14","type":"t_string_storage"},{"astId":2255,"contract":"contracts/mint_tea_ERC721.sol:MTEA","label":"nb_of_attributes","offset":0,"slot":"15","type":"t_mapping(t_uint256,t_uint256)"}],"types":{"t_address":{"encoding":"inplace","label":"address","numberOfBytes":"20"},"t_bool":{"encoding":"inplace","label":"bool","numberOfBytes":"1"},"t_bytes32":{"encoding":"inplace","label":"bytes32","numberOfBytes":"32"},"t_contract(ITablelandTables)2214":{"encoding":"inplace","label":"contract ITablelandTables","numberOfBytes":"20"},"t_mapping(t_address,t_bool)":{"encoding":"mapping","key":"t_address","label":"mapping(address => bool)","numberOfBytes":"32","value":"t_bool"},"t_mapping(t_address,t_mapping(t_address,t_bool))":{"encoding":"mapping","key":"t_address","label":"mapping(address => mapping(address => bool))","numberOfBytes":"32","value":"t_mapping(t_address,t_bool)"},"t_mapping(t_address,t_uint256)":{"encoding":"mapping","key":"t_address","label":"mapping(address => uint256)","numberOfBytes":"32","value":"t_uint256"},"t_mapping(t_bytes32,t_struct(RoleData)19_storage)":{"encoding":"mapping","key":"t_bytes32","label":"mapping(bytes32 => struct AccessControl.RoleData)","numberOfBytes":"32","value":"t_struct(RoleData)19_storage"},"t_mapping(t_uint256,t_address)":{"encoding":"mapping","key":"t_uint256","label":"mapping(uint256 => address)","numberOfBytes":"32","value":"t_address"},"t_mapping(t_uint256,t_uint256)":{"encoding":"mapping","key":"t_uint256","label":"mapping(uint256 => uint256)","numberOfBytes":"32","value":"t_uint256"},"t_string_storage":{"encoding":"bytes","label":"string","numberOfBytes":"32"},"t_struct(Counter)1743_storage":{"encoding":"inplace","label":"struct Counters.Counter","members":[{"astId":1742,"contract":"contracts/mint_tea_ERC721.sol:MTEA","label":"_value","offset":0,"slot":"0","type":"t_uint256"}],"numberOfBytes":"32"},"t_struct(RoleData)19_storage":{"encoding":"inplace","label":"struct AccessControl.RoleData","members":[{"astId":16,"contract":"contracts/mint_tea_ERC721.sol:MTEA","label":"members","offset":0,"slot":"0","type":"t_mapping(t_address,t_bool)"},{"astId":18,"contract":"contracts/mint_tea_ERC721.sol:MTEA","label":"adminRole","offset":0,"slot":"1","type":"t_bytes32"}],"numberOfBytes":"64"},"t_uint256":{"encoding":"inplace","label":"uint256","numberOfBytes":"32"}}}}}}