{"contracts/mint_tea_ERC721.sol":{"MTEA":{"abi":[{"inputs":[{"internalType":"address","name":"registry","type":"address"}],"stateMutability":"nonpayable","type":"constructor"},{"anonymous":false,"inputs":[{"indexed":true,"internalType":"address","name":"owner","type":"address"},{"indexed":true,"internalType":"address","name":"approved","type":"address"},{"indexed":true,"internalType":"uint256","name":"tokenId","type":"uint256"}],"name":"Approval","type":"event"},{"anonymous":false,"inputs":[{"indexed":true,"internalType":"address","name":"owner","type":"address"},{"indexed":true,"internalType":"address","name":"operator","type":"address"},{"indexed":false,"internalType":"bool","name":"approved","type":"bool"}],"name":"ApprovalForAll","type":"event"},{"anonymous":false,"inputs":[{"indexed":true,"internalType":"address","name":"from","type":"address"},{"indexed":false,"internalType":"uint256","name":"timestamp","type":"uint256"},{"indexed":false,"internalType":"uint256","name":"tokenId","type":"uint256"}],"name":"NewNftMinted","type":"event"},{"anonymous":false,"inputs":[{"indexed":true,"internalType":"bytes32","name":"role","type":"bytes32"},{"indexed":true,"internalType":"bytes32","name":"previousAdminRole","type":"bytes32"},{"indexed":true,"internalType":"bytes32","name":"newAdminRole","type":"bytes32"}],"name":"RoleAdminChanged","type":"event"},{"anonymous":false,"inputs":[{"indexed":true,"internalType":"bytes32","name":"role","type":"bytes32"},{"indexed":true,"internalType":"address","name":"account","type":"address"},{"indexed":true,"internalType":"address","name":"sender","type":"address"}],"name":"RoleGranted","type":"event"},{"anonymous":false,"inputs":[{"indexed":true,"internalType":"bytes32","name":"role","type":"bytes32"},{"indexed":true,"internalType":"address","name":"account","type":"address"},{"indexed":true,"internalType":"address","name":"sender","type":"address"}],"name":"RoleRevoked","type":"event"},{"anonymous":false,"inputs":[{"indexed":true,"internalType":"address","name":"from","type":"address"},{"indexed":true,"internalType":"address","name":"to","type":"address"},{"indexed":true,"internalType":"uint256","name":"tokenId","type":"uint256"}],"name":"Transfer","type":"event"},{"inputs":[],"name":"DEFAULT_ADMIN_ROLE","outputs":[{"internalType":"bytes32","name":"","type":"bytes32"}],"stateMutability":"view","type":"function"},{"inputs":[{"internalType":"address","name":"to","type":"address"},{"internalType":"uint256","name":"tokenId","type":"uint256"}],"name":"approve","outputs":[],"stateMutability":"nonpayable","type":"function"},{"inputs":[],"name":"attributesTable","outputs":[{"internalType":"string","name":"","type":"string"}],"stateMutability":"view","type":"function"},{"inputs":[],"name":"attributes_metadataURI","outputs":[{"internalType":"string","name":"","type":"string"}],"stateMutability":"view","type":"function"},{"inputs":[{"internalType":"address","name":"owner","type":"address"}],"name":"balanceOf","outputs":[{"internalType":"uint256","name":"","type":"uint256"}],"stateMutability":"view","type":"function"},{"inputs":[{"internalType":"uint256","name":"tokenId","type":"uint256"}],"name":"getApproved","outputs":[{"internalType":"address","name":"","type":"address"}],"stateMutability":"view","type":"function"},{"inputs":[{"internalType":"bytes32","name":"role","type":"bytes32"}],"name":"getRoleAdmin","outputs":[{"internalType":"bytes32","name":"","type":"bytes32"}],"stateMutability":"view","type":"function"},{"inputs":[{"internalType":"bytes32","name":"role","type":"bytes32"},{"internalType":"address","name":"account","type":"address"}],"name":"grantRole","outputs":[],"stateMutability":"nonpayable","type":"function"},{"inputs":[{"internalType":"bytes32","name":"role","type":"bytes32"},{"internalType":"address","name":"account","type":"address"}],"name":"hasRole","outputs":[{"internalType":"bool","name":"","type":"bool"}],"stateMutability":"view","type":"function"},{"inputs":[{"internalType":"address","name":"owner","type":"address"},{"internalType":"address","name":"operator","type":"address"}],"name":"isApprovedForAll","outputs":[{"internalType":"bool","name":"","type":"bool"}],"stateMutability":"view","type":"function"},{"inputs":[],"name":"mainTable","outputs":[{"internalType":"string","name":"","type":"string"}],"stateMutability":"view","type":"function"},{"inputs":[],"name":"main_metadataURI","outputs":[{"internalType":"string","name":"","type":"string"}],"stateMutability":"view","type":"function"},{"inputs":[],"name":"name","outputs":[{"internalType":"string","name":"","type":"string"}],"stateMutability":"view","type":"function"},{"inputs":[{"internalType":"uint256","name":"tokenId","type":"uint256"}],"name":"ownerOf","outputs":[{"internalType":"address","name":"","type":"address"}],"stateMutability":"view","type":"function"},{"inputs":[{"internalType":"bytes32","name":"role","type":"bytes32"},{"internalType":"address","name":"account","type":"address"}],"name":"renounceRole","outputs":[],"stateMutability":"nonpayable","type":"function"},{"inputs":[{"internalType":"bytes32","name":"role","type":"bytes32"},{"internalType":"address","name":"account","type":"address"}],"name":"revokeRole","outputs":[],"stateMutability":"nonpayable","type":"function"},{"inputs":[{"internalType":"address","name":"to","type":"address"},{"internalType":"string","name":"_name","type":"string"},{"internalType":"string","name":"_description","type":"string"},{"internalType":"string","name":"_image_url","type":"string"},{"internalType":"string","name":"_external_url","type":"string"},{"internalType":"string","name":"_icon","type":"string"},{"internalType":"string","name":"_display_type","type":"string"},{"internalType":"string","name":"_trait_type","type":"string"},{"internalType":"uint256","name":"_value","type":"uint256"}],"name":"safeMint","outputs":[{"internalType":"uint256","name":"","type":"uint256"}],"stateMutability":"nonpayable","type":"function"},{"inputs":[{"internalType":"address","name":"from","type":"address"},{"internalType":"address","name":"to","type":"address"},{"internalType":"uint256","name":"tokenId","type":"uint256"}],"name":"safeTransferFrom","outputs":[],"stateMutability":"nonpayable","type":"function"},{"inputs":[{"internalType":"address","name":"from","type":"address"},{"internalType":"address","name":"to","type":"address"},{"internalType":"uint256","name":"tokenId","type":"uint256"},{"internalType":"bytes","name":"data","type":"bytes"}],"name":"safeTransferFrom","outputs":[],"stateMutability":"nonpayable","type":"function"},{"inputs":[{"internalType":"address","name":"operator","type":"address"},{"internalType":"bool","name":"approved","type":"bool"}],"name":"setApprovalForAll","outputs":[],"stateMutability":"nonpayable","type":"function"},{"inputs":[{"internalType":"string","name":"baseURI","type":"string"}],"name":"setBaseURI","outputs":[],"stateMutability":"nonpayable","type":"function"},{"inputs":[{"internalType":"bytes4","name":"interfaceId","type":"bytes4"}],"name":"supportsInterface","outputs":[{"internalType":"bool","name":"","type":"bool"}],"stateMutability":"view","type":"function"},{"inputs":[],"name":"symbol","outputs":[{"internalType":"string","name":"","type":"string"}],"stateMutability":"view","type":"function"},{"inputs":[{"internalType":"uint256","name":"_tokenId","type":"uint256"}],"name":"tokenURI","outputs":[{"internalType":"string","name":"","type":"string"}],"stateMutability":"view","type":"function"},{"inputs":[{"internalType":"address","name":"from","type":"address"},{"internalType":"address","name":"to","type":"address"},{"internalType":"uint256","name":"tokenId","type":"uint256"}],"name":"transferFrom","outputs":[],"stateMutability":"nonpayable","type":"function"}],"evm":{"bytecode":{"linkReferences":{},"object":"60806040526040518060600160405280602881526020016200518c60289139600790805190602001906200003592919062000731565b506040518060400160405280600881526020017f4d696e745f544541000000000000000000000000000000000000000000000000815250600c90805190602001906200008392919062000731565b503480156200009157600080fd5b50604051620051b4380380620051b48339818101604052810190620000b791906200084b565b6040518060400160405280600481526020017f4d544541000000000000000000000000000000000000000000000000000000008152506040518060400160405280600281526020017f4d5400000000000000000000000000000000000000000000000000000000000081525081600090805190602001906200013b92919062000731565b5080600190805190602001906200015492919062000731565b5050506200016c6000801b336200045260201b60201c565b80600960006101000a81548173ffffffffffffffffffffffffffffffffffffffff021916908373ffffffffffffffffffffffffffffffffffffffff160217905550600960009054906101000a900473ffffffffffffffffffffffffffffffffffffffff1673ffffffffffffffffffffffffffffffffffffffff16633a9151b030600c62000204466200054460201b6200107b1760201c565b6040516020016200021792919062000aed565b6040516020818303038152906040526040518363ffffffff1660e01b81526004016200024592919062000bb8565b6020604051808303816000875af115801562000265573d6000803e3d6000fd5b505050506040513d601f19601f820116820180604052508101906200028b919062000c27565b600a81905550600c620002a9466200054460201b6200107b1760201c565b620002c1600a546200054460201b6200107b1760201c565b604051602001620002d59392919062000c59565b604051602081830303815290604052600d9080519060200190620002fb92919062000731565b50600960009054906101000a900473ffffffffffffffffffffffffffffffffffffffff1673ffffffffffffffffffffffffffffffffffffffff16633a9151b030600c62000353466200054460201b6200107b1760201c565b6040516020016200036692919062000d4e565b6040516020818303038152906040526040518363ffffffff1660e01b81526004016200039492919062000bb8565b6020604051808303816000875af1158015620003b4573d6000803e3d6000fd5b505050506040513d601f19601f82011682018060405250810190620003da919062000c27565b600b81905550600c620003f8466200054460201b6200107b1760201c565b62000410600b546200054460201b6200107b1760201c565b604051602001620004249392919062000c59565b604051602081830303815290604052600e90805190602001906200044a92919062000731565b505062000fb7565b620004648282620006be60201b60201c565b620005405760016006600084815260200190815260200160002060000160008373ffffffffffffffffffffffffffffffffffffffff1673ffffffffffffffffffffffffffffffffffffffff16815260200190815260200160002060006101000a81548160ff021916908315150217905550620004e56200072960201b60201c565b73ffffffffffffffffffffffffffffffffffffffff168173ffffffffffffffffffffffffffffffffffffffff16837f2f8788117e7eff1d82e926ec794901d17c78024a50270940304540a733656f0d60405160405180910390a45b5050565b606060008214156200058e576040518060400160405280600181526020017f30000000000000000000000000000000000000000000000000000000000000008152509050620006b9565b600082905060005b60008214620005c6578080620005ac9062000dd4565b915050600a82620005be919062000e51565b915062000596565b60008167ffffffffffffffff811115620005e557620005e462000e89565b5b6040519080825280601f01601f191660200182016040528015620006185781602001600182028036833780820191505090505b5090505b60008514620006b25760018262000634919062000eb8565b9150600a8562000645919062000ef3565b603062000653919062000f2b565b60f81b8183815181106200066c576200066b62000f88565b5b60200101907effffffffffffffffffffffffffffffffffffffffffffffffffffffffffffff1916908160001a905350600a85620006aa919062000e51565b94506200061c565b8093505050505b919050565b60006006600084815260200190815260200160002060000160008373ffffffffffffffffffffffffffffffffffffffff1673ffffffffffffffffffffffffffffffffffffffff16815260200190815260200160002060009054906101000a900460ff16905092915050565b600033905090565b8280546200073f90620008d2565b90600052602060002090601f016020900481019282620007635760008555620007af565b82601f106200077e57805160ff1916838001178555620007af565b82800160010185558215620007af579182015b82811115620007ae57825182559160200191906001019062000791565b5b509050620007be9190620007c2565b5090565b5b80821115620007dd576000816000905550600101620007c3565b5090565b600080fd5b600073ffffffffffffffffffffffffffffffffffffffff82169050919050565b60006200081382620007e6565b9050919050565b620008258162000806565b81146200083157600080fd5b50565b60008151905062000845816200081a565b92915050565b600060208284031215620008645762000863620007e1565b5b6000620008748482850162000834565b91505092915050565b7f435245415445205441424c452000000000000000000000000000000000000000815250565b7f4e487b7100000000000000000000000000000000000000000000000000000000600052602260045260246000fd5b60006002820490506001821680620008eb57607f821691505b60208210811415620009025762000901620008a3565b5b50919050565b600081905092915050565b60008190508160005260206000209050919050565b600081546200093781620008d2565b62000943818662000908565b945060018216600081146200096157600181146200097357620009aa565b60ff19831686528186019350620009aa565b6200097e8562000913565b60005b83811015620009a25781548189015260018201915060208101905062000981565b838801955050505b50505092915050565b7f5f00000000000000000000000000000000000000000000000000000000000000815250565b600081519050919050565b60005b8381101562000a04578082015181840152602081019050620009e7565b8381111562000a14576000848401525b50505050565b600062000a2782620009d9565b62000a33818562000908565b935062000a45818560208601620009e4565b80840191505092915050565b7f2028746f6b656e696420696e742c206e616d6520746578742c2064657363726960008201527f7074696f6e20746578742c20696d61676520746578742c2065787465726e616c60208201527f5f75726c2074657874293b000000000000000000000000000000000000000000604082015250565b600062000ad5604b8362000908565b915062000ae28262000a51565b604b82019050919050565b600062000afa826200087d565b600d8201915062000b0c828562000928565b915062000b1982620009b3565b60018201915062000b2b828462000a1a565b915062000b388262000ac6565b91508190509392505050565b62000b4f8162000806565b82525050565b600082825260208201905092915050565b6000601f19601f8301169050919050565b600062000b8482620009d9565b62000b90818562000b55565b935062000ba2818560208601620009e4565b62000bad8162000b66565b840191505092915050565b600060408201905062000bcf600083018562000b44565b818103602083015262000be3818462000b77565b90509392505050565b6000819050919050565b62000c018162000bec565b811462000c0d57600080fd5b50565b60008151905062000c218162000bf6565b92915050565b60006020828403121562000c405762000c3f620007e1565b5b600062000c508482850162000c10565b91505092915050565b600062000c67828662000928565b915062000c7482620009b3565b60018201915062000c86828562000a1a565b915062000c9382620009b3565b60018201915062000ca5828462000a1a565b9150819050949350505050565b7f20286d61696e7461626c655f746f6b656e696420696e742c2069636f6e20746560008201527f78742c20646973706c61795f7479706520746578742c2074726169745f74797060208201527f6520746578742c2076616c756520696e74293b00000000000000000000000000604082015250565b600062000d3660538362000908565b915062000d438262000cb2565b605382019050919050565b600062000d5b826200087d565b600d8201915062000d6d828562000928565b915062000d7a82620009b3565b60018201915062000d8c828462000a1a565b915062000d998262000d27565b91508190509392505050565b7f4e487b7100000000000000000000000000000000000000000000000000000000600052601160045260246000fd5b600062000de18262000bec565b91507fffffffffffffffffffffffffffffffffffffffffffffffffffffffffffffffff82141562000e175762000e1662000da5565b5b600182019050919050565b7f4e487b7100000000000000000000000000000000000000000000000000000000600052601260045260246000fd5b600062000e5e8262000bec565b915062000e6b8362000bec565b92508262000e7e5762000e7d62000e22565b5b828204905092915050565b7f4e487b7100000000000000000000000000000000000000000000000000000000600052604160045260246000fd5b600062000ec58262000bec565b915062000ed28362000bec565b92508282101562000ee85762000ee762000da5565b5b828203905092915050565b600062000f008262000bec565b915062000f0d8362000bec565b92508262000f205762000f1f62000e22565b5b828206905092915050565b600062000f388262000bec565b915062000f458362000bec565b9250827fffffffffffffffffffffffffffffffffffffffffffffffffffffffffffffffff0382111562000f7d5762000f7c62000da5565b5b828201905092915050565b7f4e487b7100000000000000000000000000000000000000000000000000000000600052603260045260246000fd5b6141c58062000fc76000396000f3fe608060405234801561001057600080fd5b50600436106101735760003560e01c80636352211e116100de578063a22cb46511610097578063c87b56dd11610071578063c87b56dd1461044a578063d547741f1461047a578063e65dcf5314610496578063e985e9c5146104c657610173565b8063a22cb465146103f4578063a8e62f0914610410578063b88d4fde1461042e57610173565b80636352211e1461030a57806370a082311461033a5780637bc53be91461036a57806391d148541461038857806395d89b41146103b8578063a217fddf146103d657610173565b8063248a9ca311610130578063248a9ca31461024c5780632f2ff15d1461027c57806336568abe1461029857806342842e0e146102b457806355f804b3146102d05780635d21260a146102ec57610173565b806301ffc9a71461017857806306fdde03146101a8578063081812fc146101c6578063091a77e7146101f6578063095ea7b31461021457806323b872dd14610230575b600080fd5b610192600480360381019061018d919061245c565b6104f6565b60405161019f91906124a4565b60405180910390f35b6101b0610508565b6040516101bd9190612558565b60405180910390f35b6101e060048036038101906101db91906125b0565b61059a565b6040516101ed919061261e565b60405180910390f35b6101fe6105e0565b60405161020b9190612558565b60405180910390f35b61022e60048036038101906102299190612665565b610617565b005b61024a600480360381019061024591906126a5565b61072f565b005b6102666004803603810190610261919061272e565b61078f565b604051610273919061276a565b60405180910390f35b61029660048036038101906102919190612785565b6107af565b005b6102b260048036038101906102ad9190612785565b6107d0565b005b6102ce60048036038101906102c991906126a5565b610853565b005b6102ea60048036038101906102e591906128fa565b610873565b005b6102f461089b565b6040516103019190612558565b60405180910390f35b610324600480360381019061031f91906125b0565b610929565b604051610331919061261e565b60405180910390f35b610354600480360381019061034f9190612943565b6109db565b604051610361919061297f565b60405180910390f35b610372610a93565b60405161037f9190612558565b60405180910390f35b6103a2600480360381019061039d9190612785565b610b21565b6040516103af91906124a4565b60405180910390f35b6103c0610b8c565b6040516103cd9190612558565b60405180910390f35b6103de610c1e565b6040516103eb919061276a565b60405180910390f35b61040e600480360381019061040991906129c6565b610c25565b005b610418610c3b565b6040516104259190612558565b60405180910390f35b61044860048036038101906104439190612aa7565b610c72565b005b610464600480360381019061045f91906125b0565b610cd4565b6040516104719190612558565b60405180910390f35b610494600480360381019061048f9190612785565b610db0565b005b6104b060048036038101906104ab9190612b2a565b610dd1565b6040516104bd919061297f565b60405180910390f35b6104e060048036038101906104db9190612cb8565b610fe7565b6040516104ed91906124a4565b60405180910390f35b6000610501826111dc565b9050919050565b60606000805461051790612d27565b80601f016020809104026020016040519081016040528092919081815260200182805461054390612d27565b80156105905780601f1061056557610100808354040283529160200191610590565b820191906000526020600020905b81548152906001019060200180831161057357829003601f168201915b5050505050905090565b60006105a582611256565b6004600083815260200190815260200160002060009054906101000a900473ffffffffffffffffffffffffffffffffffffffff169050919050565b606060006105ec6112a1565b905080600e604051602001610602929190612e4f565b60405160208183030381529060405291505090565b600061062282610929565b90508073ffffffffffffffffffffffffffffffffffffffff168373ffffffffffffffffffffffffffffffffffffffff161415610693576040517f08c379a000000000000000000000000000000000000000000000000000000000815260040161068a90612ef4565b60405180910390fd5b8073ffffffffffffffffffffffffffffffffffffffff166106b2611333565b73ffffffffffffffffffffffffffffffffffffffff1614806106e157506106e0816106db611333565b610fe7565b5b610720576040517f08c379a000000000000000000000000000000000000000000000000000000000815260040161071790612f86565b60405180910390fd5b61072a838361133b565b505050565b61074061073a611333565b826113f4565b61077f576040517f08c379a000000000000000000000000000000000000000000000000000000000815260040161077690613018565b60405180910390fd5b61078a838383611489565b505050565b600060066000838152602001908152602001600020600101549050919050565b6107b88261078f565b6107c1816116f0565b6107cb8383611704565b505050565b6107d8611333565b73ffffffffffffffffffffffffffffffffffffffff168173ffffffffffffffffffffffffffffffffffffffff1614610845576040517f08c379a000000000000000000000000000000000000000000000000000000000815260040161083c906130aa565b60405180910390fd5b61084f82826117e5565b5050565b61086e83838360405180602001604052806000815250610c72565b505050565b6000801b610880816116f0565b816007908051906020019061089692919061234d565b505050565b600d80546108a890612d27565b80601f01602080910402602001604051908101604052809291908181526020018280546108d490612d27565b80156109215780601f106108f657610100808354040283529160200191610921565b820191906000526020600020905b81548152906001019060200180831161090457829003601f168201915b505050505081565b6000806002600084815260200190815260200160002060009054906101000a900473ffffffffffffffffffffffffffffffffffffffff169050600073ffffffffffffffffffffffffffffffffffffffff168173ffffffffffffffffffffffffffffffffffffffff1614156109d2576040517f08c379a00000000000000000000000000000000000000000000000000000000081526004016109c990613116565b60405180910390fd5b80915050919050565b60008073ffffffffffffffffffffffffffffffffffffffff168273ffffffffffffffffffffffffffffffffffffffff161415610a4c576040517f08c379a0000000000000000000000000000000000000000000000000000000008152600401610a43906131a8565b60405180910390fd5b600360008373ffffffffffffffffffffffffffffffffffffffff1673ffffffffffffffffffffffffffffffffffffffff168152602001908152602001600020549050919050565b600e8054610aa090612d27565b80601f0160208091040260200160405190810160405280929190818152602001828054610acc90612d27565b8015610b195780601f10610aee57610100808354040283529160200191610b19565b820191906000526020600020905b815481529060010190602001808311610afc57829003601f168201915b505050505081565b60006006600084815260200190815260200160002060000160008373ffffffffffffffffffffffffffffffffffffffff1673ffffffffffffffffffffffffffffffffffffffff16815260200190815260200160002060009054906101000a900460ff16905092915050565b606060018054610b9b90612d27565b80601f0160208091040260200160405190810160405280929190818152602001828054610bc790612d27565b8015610c145780601f10610be957610100808354040283529160200191610c14565b820191906000526020600020905b815481529060010190602001808311610bf757829003601f168201915b5050505050905090565b6000801b81565b610c37610c30611333565b83836118c7565b5050565b60606000610c476112a1565b905080600d604051602001610c5d929190612e4f565b60405160208183030381529060405291505090565b610c83610c7d611333565b836113f4565b610cc2576040517f08c379a0000000000000000000000000000000000000000000000000000000008152600401610cb990613018565b60405180910390fd5b610cce84848484611a34565b50505050565b6060610cdf82611a90565b610d1e576040517f08c379a0000000000000000000000000000000000000000000000000000000008152600401610d159061323a565b60405180910390fd5b6000610d286112a1565b9050600081511415610d4c5760405180602001604052806000815250915050610dab565b6000600d600e600d600e604051602001610d69949392919061357d565b60405160208183030381529060405290508181610d858661107b565b604051602001610d979392919061368a565b604051602081830303815290604052925050505b919050565b610db98261078f565b610dc2816116f0565b610dcc83836117e5565b505050565b600080610dde6008611afc565b9050600960009054906101000a900473ffffffffffffffffffffffffffffffffffffffff1673ffffffffffffffffffffffffffffffffffffffff1663eaf5d04e30600a54600d610e2d8661107b565b8f8f8f8f604051602001610e46969594939291906137b5565b6040516020818303038152906040526040518463ffffffff1660e01b8152600401610e7393929190613872565b600060405180830381600087803b158015610e8d57600080fd5b505af1158015610ea1573d6000803e3d6000fd5b50505050600960009054906101000a900473ffffffffffffffffffffffffffffffffffffffff1673ffffffffffffffffffffffffffffffffffffffff1663eaf5d04e30600b54600e610ef28661107b565b8b8b8b610efe8c61107b565b604051602001610f1396959493929190613948565b6040516020818303038152906040526040518463ffffffff1660e01b8152600401610f4093929190613872565b600060405180830381600087803b158015610f5a57600080fd5b505af1158015610f6e573d6000803e3d6000fd5b50505050610f7c8b82611b0a565b610f866008611b28565b3373ffffffffffffffffffffffffffffffffffffffff167f061b141191d79859f7cc6256c1b9e5f380052197831efe9135841c0ff4de7e634283604051610fce929190613a05565b60405180910390a2809150509998505050505050505050565b6000600560008473ffffffffffffffffffffffffffffffffffffffff1673ffffffffffffffffffffffffffffffffffffffff16815260200190815260200160002060008373ffffffffffffffffffffffffffffffffffffffff1673ffffffffffffffffffffffffffffffffffffffff16815260200190815260200160002060009054906101000a900460ff16905092915050565b606060008214156110c3576040518060400160405280600181526020017f300000000000000000000000000000000000000000000000000000000000000081525090506111d7565b600082905060005b600082146110f55780806110de90613a5d565b915050600a826110ee9190613ad5565b91506110cb565b60008167ffffffffffffffff811115611111576111106127cf565b5b6040519080825280601f01601f1916602001820160405280156111435781602001600182028036833780820191505090505b5090505b600085146111d05760018261115c9190613b06565b9150600a8561116b9190613b3a565b60306111779190613b6b565b60f81b81838151811061118d5761118c613bc1565b5b60200101907effffffffffffffffffffffffffffffffffffffffffffffffffffffffffffff1916908160001a905350600a856111c99190613ad5565b9450611147565b8093505050505b919050565b60007f7965db0b000000000000000000000000000000000000000000000000000000007bffffffffffffffffffffffffffffffffffffffffffffffffffffffff1916827bffffffffffffffffffffffffffffffffffffffffffffffffffffffff1916148061124f575061124e82611b3e565b5b9050919050565b61125f81611a90565b61129e576040517f08c379a000000000000000000000000000000000000000000000000000000000815260040161129590613116565b60405180910390fd5b50565b6060600780546112b090612d27565b80601f01602080910402602001604051908101604052809291908181526020018280546112dc90612d27565b80156113295780601f106112fe57610100808354040283529160200191611329565b820191906000526020600020905b81548152906001019060200180831161130c57829003601f168201915b5050505050905090565b600033905090565b816004600083815260200190815260200160002060006101000a81548173ffffffffffffffffffffffffffffffffffffffff021916908373ffffffffffffffffffffffffffffffffffffffff160217905550808273ffffffffffffffffffffffffffffffffffffffff166113ae83610929565b73ffffffffffffffffffffffffffffffffffffffff167f8c5be1e5ebec7d5bd14f71427d1e84f3dd0314c0f7b2291e5b200ac8c7c3b92560405160405180910390a45050565b60008061140083610929565b90508073ffffffffffffffffffffffffffffffffffffffff168473ffffffffffffffffffffffffffffffffffffffff16148061144257506114418185610fe7565b5b8061148057508373ffffffffffffffffffffffffffffffffffffffff166114688461059a565b73ffffffffffffffffffffffffffffffffffffffff16145b91505092915050565b8273ffffffffffffffffffffffffffffffffffffffff166114a982610929565b73ffffffffffffffffffffffffffffffffffffffff16146114ff576040517f08c379a00000000000000000000000000000000000000000000000000000000081526004016114f690613c62565b60405180910390fd5b600073ffffffffffffffffffffffffffffffffffffffff168273ffffffffffffffffffffffffffffffffffffffff16141561156f576040517f08c379a000000000000000000000000000000000000000000000000000000000815260040161156690613cf4565b60405180910390fd5b61157a838383611c20565b61158560008261133b565b6001600360008573ffffffffffffffffffffffffffffffffffffffff1673ffffffffffffffffffffffffffffffffffffffff16815260200190815260200160002060008282546115d59190613b06565b925050819055506001600360008473ffffffffffffffffffffffffffffffffffffffff1673ffffffffffffffffffffffffffffffffffffffff168152602001908152602001600020600082825461162c9190613b6b565b92505081905550816002600083815260200190815260200160002060006101000a81548173ffffffffffffffffffffffffffffffffffffffff021916908373ffffffffffffffffffffffffffffffffffffffff160217905550808273ffffffffffffffffffffffffffffffffffffffff168473ffffffffffffffffffffffffffffffffffffffff167fddf252ad1be2c89b69c2b068fc378daa952ba7f163c4a11628f55a4df523b3ef60405160405180910390a46116eb838383611c25565b505050565b611701816116fc611333565b611c2a565b50565b61170e8282610b21565b6117e15760016006600084815260200190815260200160002060000160008373ffffffffffffffffffffffffffffffffffffffff1673ffffffffffffffffffffffffffffffffffffffff16815260200190815260200160002060006101000a81548160ff021916908315150217905550611786611333565b73ffffffffffffffffffffffffffffffffffffffff168173ffffffffffffffffffffffffffffffffffffffff16837f2f8788117e7eff1d82e926ec794901d17c78024a50270940304540a733656f0d60405160405180910390a45b5050565b6117ef8282610b21565b156118c35760006006600084815260200190815260200160002060000160008373ffffffffffffffffffffffffffffffffffffffff1673ffffffffffffffffffffffffffffffffffffffff16815260200190815260200160002060006101000a81548160ff021916908315150217905550611868611333565b73ffffffffffffffffffffffffffffffffffffffff168173ffffffffffffffffffffffffffffffffffffffff16837ff6391f5c32d9c69d2a47ea670b442974b53935d1edc7fd64eb21e047a839171b60405160405180910390a45b5050565b8173ffffffffffffffffffffffffffffffffffffffff168373ffffffffffffffffffffffffffffffffffffffff161415611936576040517f08c379a000000000000000000000000000000000000000000000000000000000815260040161192d90613d60565b60405180910390fd5b80600560008573ffffffffffffffffffffffffffffffffffffffff1673ffffffffffffffffffffffffffffffffffffffff16815260200190815260200160002060008473ffffffffffffffffffffffffffffffffffffffff1673ffffffffffffffffffffffffffffffffffffffff16815260200190815260200160002060006101000a81548160ff0219169083151502179055508173ffffffffffffffffffffffffffffffffffffffff168373ffffffffffffffffffffffffffffffffffffffff167f17307eab39ab6107e8899845ad3d59bd9653f200f220920489ca2b5937696c3183604051611a2791906124a4565b60405180910390a3505050565b611a3f848484611489565b611a4b84848484611cc7565b611a8a576040517f08c379a0000000000000000000000000000000000000000000000000000000008152600401611a8190613df2565b60405180910390fd5b50505050565b60008073ffffffffffffffffffffffffffffffffffffffff166002600084815260200190815260200160002060009054906101000a900473ffffffffffffffffffffffffffffffffffffffff1673ffffffffffffffffffffffffffffffffffffffff1614159050919050565b600081600001549050919050565b611b24828260405180602001604052806000815250611e4f565b5050565b6001816000016000828254019250508190555050565b60007f80ac58cd000000000000000000000000000000000000000000000000000000007bffffffffffffffffffffffffffffffffffffffffffffffffffffffff1916827bffffffffffffffffffffffffffffffffffffffffffffffffffffffff19161480611c0957507f5b5e139f000000000000000000000000000000000000000000000000000000007bffffffffffffffffffffffffffffffffffffffffffffffffffffffff1916827bffffffffffffffffffffffffffffffffffffffffffffffffffffffff1916145b80611c195750611c1882611eaa565b5b9050919050565b505050565b505050565b611c348282610b21565b611cc357611c598173ffffffffffffffffffffffffffffffffffffffff166014611f14565b611c678360001c6020611f14565b604051602001611c78929190613eaa565b6040516020818303038152906040526040517f08c379a0000000000000000000000000000000000000000000000000000000008152600401611cba9190612558565b60405180910390fd5b5050565b6000611ce88473ffffffffffffffffffffffffffffffffffffffff16612150565b15611e42578373ffffffffffffffffffffffffffffffffffffffff1663150b7a02611d11611333565b8786866040518563ffffffff1660e01b8152600401611d339493929190613f39565b6020604051808303816000875af1925050508015611d6f57506040513d601f19601f82011682018060405250810190611d6c9190613f9a565b60015b611df2573d8060008114611d9f576040519150601f19603f3d011682016040523d82523d6000602084013e611da4565b606091505b50600081511415611dea576040517f08c379a0000000000000000000000000000000000000000000000000000000008152600401611de190613df2565b60405180910390fd5b805181602001fd5b63150b7a0260e01b7bffffffffffffffffffffffffffffffffffffffffffffffffffffffff1916817bffffffffffffffffffffffffffffffffffffffffffffffffffffffff191614915050611e47565b600190505b949350505050565b611e598383612173565b611e666000848484611cc7565b611ea5576040517f08c379a0000000000000000000000000000000000000000000000000000000008152600401611e9c90613df2565b60405180910390fd5b505050565b60007f01ffc9a7000000000000000000000000000000000000000000000000000000007bffffffffffffffffffffffffffffffffffffffffffffffffffffffff1916827bffffffffffffffffffffffffffffffffffffffffffffffffffffffff1916149050919050565b606060006002836002611f279190613fc7565b611f319190613b6b565b67ffffffffffffffff811115611f4a57611f496127cf565b5b6040519080825280601f01601f191660200182016040528015611f7c5781602001600182028036833780820191505090505b5090507f300000000000000000000000000000000000000000000000000000000000000081600081518110611fb457611fb3613bc1565b5b60200101907effffffffffffffffffffffffffffffffffffffffffffffffffffffffffffff1916908160001a9053507f78000000000000000000000000000000000000000000000000000000000000008160018151811061201857612017613bc1565b5b60200101907effffffffffffffffffffffffffffffffffffffffffffffffffffffffffffff1916908160001a905350600060018460026120589190613fc7565b6120629190613b6b565b90505b6001811115612102577f3031323334353637383961626364656600000000000000000000000000000000600f8616601081106120a4576120a3613bc1565b5b1a60f81b8282815181106120bb576120ba613bc1565b5b60200101907effffffffffffffffffffffffffffffffffffffffffffffffffffffffffffff1916908160001a905350600485901c9450806120fb90614021565b9050612065565b5060008414612146576040517f08c379a000000000000000000000000000000000000000000000000000000000815260040161213d90614097565b60405180910390fd5b8091505092915050565b6000808273ffffffffffffffffffffffffffffffffffffffff163b119050919050565b600073ffffffffffffffffffffffffffffffffffffffff168273ffffffffffffffffffffffffffffffffffffffff1614156121e3576040517f08c379a00000000000000000000000000000000000000000000000000000000081526004016121da90614103565b60405180910390fd5b6121ec81611a90565b1561222c576040517f08c379a00000000000000000000000000000000000000000000000000000000081526004016122239061416f565b60405180910390fd5b61223860008383611c20565b6001600360008473ffffffffffffffffffffffffffffffffffffffff1673ffffffffffffffffffffffffffffffffffffffff16815260200190815260200160002060008282546122889190613b6b565b92505081905550816002600083815260200190815260200160002060006101000a81548173ffffffffffffffffffffffffffffffffffffffff021916908373ffffffffffffffffffffffffffffffffffffffff160217905550808273ffffffffffffffffffffffffffffffffffffffff16600073ffffffffffffffffffffffffffffffffffffffff167fddf252ad1be2c89b69c2b068fc378daa952ba7f163c4a11628f55a4df523b3ef60405160405180910390a461234960008383611c25565b5050565b82805461235990612d27565b90600052602060002090601f01602090048101928261237b57600085556123c2565b82601f1061239457805160ff19168380011785556123c2565b828001600101855582156123c2579182015b828111156123c15782518255916020019190600101906123a6565b5b5090506123cf91906123d3565b5090565b5b808211156123ec5760008160009055506001016123d4565b5090565b6000604051905090565b600080fd5b600080fd5b60007fffffffff0000000000000000000000000000000000000000000000000000000082169050919050565b61243981612404565b811461244457600080fd5b50565b60008135905061245681612430565b92915050565b600060208284031215612472576124716123fa565b5b600061248084828501612447565b91505092915050565b60008115159050919050565b61249e81612489565b82525050565b60006020820190506124b96000830184612495565b92915050565b600081519050919050565b600082825260208201905092915050565b60005b838110156124f95780820151818401526020810190506124de565b83811115612508576000848401525b50505050565b6000601f19601f8301169050919050565b600061252a826124bf565b61253481856124ca565b93506125448185602086016124db565b61254d8161250e565b840191505092915050565b60006020820190508181036000830152612572818461251f565b905092915050565b6000819050919050565b61258d8161257a565b811461259857600080fd5b50565b6000813590506125aa81612584565b92915050565b6000602082840312156125c6576125c56123fa565b5b60006125d48482850161259b565b91505092915050565b600073ffffffffffffffffffffffffffffffffffffffff82169050919050565b6000612608826125dd565b9050919050565b612618816125fd565b82525050565b6000602082019050612633600083018461260f565b92915050565b612642816125fd565b811461264d57600080fd5b50565b60008135905061265f81612639565b92915050565b6000806040838503121561267c5761267b6123fa565b5b600061268a85828601612650565b925050602061269b8582860161259b565b9150509250929050565b6000806000606084860312156126be576126bd6123fa565b5b60006126cc86828701612650565b93505060206126dd86828701612650565b92505060406126ee8682870161259b565b9150509250925092565b6000819050919050565b61270b816126f8565b811461271657600080fd5b50565b60008135905061272881612702565b92915050565b600060208284031215612744576127436123fa565b5b600061275284828501612719565b91505092915050565b612764816126f8565b82525050565b600060208201905061277f600083018461275b565b92915050565b6000806040838503121561279c5761279b6123fa565b5b60006127aa85828601612719565b92505060206127bb85828601612650565b9150509250929050565b600080fd5b600080fd5b7f4e487b7100000000000000000000000000000000000000000000000000000000600052604160045260246000fd5b6128078261250e565b810181811067ffffffffffffffff82111715612826576128256127cf565b5b80604052505050565b60006128396123f0565b905061284582826127fe565b919050565b600067ffffffffffffffff821115612865576128646127cf565b5b61286e8261250e565b9050602081019050919050565b82818337600083830152505050565b600061289d6128988461284a565b61282f565b9050828152602081018484840111156128b9576128b86127ca565b5b6128c484828561287b565b509392505050565b600082601f8301126128e1576128e06127c5565b5b81356128f184826020860161288a565b91505092915050565b6000602082840312156129105761290f6123fa565b5b600082013567ffffffffffffffff81111561292e5761292d6123ff565b5b61293a848285016128cc565b91505092915050565b600060208284031215612959576129586123fa565b5b600061296784828501612650565b91505092915050565b6129798161257a565b82525050565b60006020820190506129946000830184612970565b92915050565b6129a381612489565b81146129ae57600080fd5b50565b6000813590506129c08161299a565b92915050565b600080604083850312156129dd576129dc6123fa565b5b60006129eb85828601612650565b92505060206129fc858286016129b1565b9150509250929050565b600067ffffffffffffffff821115612a2157612a206127cf565b5b612a2a8261250e565b9050602081019050919050565b6000612a4a612a4584612a06565b61282f565b905082815260208101848484011115612a6657612a656127ca565b5b612a7184828561287b565b509392505050565b600082601f830112612a8e57612a8d6127c5565b5b8135612a9e848260208601612a37565b91505092915050565b60008060008060808587031215612ac157612ac06123fa565b5b6000612acf87828801612650565b9450506020612ae087828801612650565b9350506040612af18782880161259b565b925050606085013567ffffffffffffffff811115612b1257612b116123ff565b5b612b1e87828801612a79565b91505092959194509250565b60008060008060008060008060006101208a8c031215612b4d57612b4c6123fa565b5b6000612b5b8c828d01612650565b99505060208a013567ffffffffffffffff811115612b7c57612b7b6123ff565b5b612b888c828d016128cc565b98505060408a013567ffffffffffffffff811115612ba957612ba86123ff565b5b612bb58c828d016128cc565b97505060608a013567ffffffffffffffff811115612bd657612bd56123ff565b5b612be28c828d016128cc565b96505060808a013567ffffffffffffffff811115612c0357612c026123ff565b5b612c0f8c828d016128cc565b95505060a08a013567ffffffffffffffff811115612c3057612c2f6123ff565b5b612c3c8c828d016128cc565b94505060c08a013567ffffffffffffffff811115612c5d57612c5c6123ff565b5b612c698c828d016128cc565b93505060e08a013567ffffffffffffffff811115612c8a57612c896123ff565b5b612c968c828d016128cc565b925050610100612ca88c828d0161259b565b9150509295985092959850929598565b60008060408385031215612ccf57612cce6123fa565b5b6000612cdd85828601612650565b9250506020612cee85828601612650565b9150509250929050565b7f4e487b7100000000000000000000000000000000000000000000000000000000600052602260045260246000fd5b60006002820490506001821680612d3f57607f821691505b60208210811415612d5357612d52612cf8565b5b50919050565b600081905092915050565b6000612d6f826124bf565b612d798185612d59565b9350612d898185602086016124db565b80840191505092915050565b7f53454c4543542532302a25323046524f4d253230000000000000000000000000815250565b60008190508160005260206000209050919050565b60008154612ddd81612d27565b612de78186612d59565b94506001821660008114612e025760018114612e1357612e46565b60ff19831686528186019350612e46565b612e1c85612dbb565b60005b83811015612e3e57815481890152600182019150602081019050612e1f565b838801955050505b50505092915050565b6000612e5b8285612d64565b9150612e6682612d95565b601482019150612e768284612dd0565b91508190509392505050565b7f4552433732313a20617070726f76616c20746f2063757272656e74206f776e6560008201527f7200000000000000000000000000000000000000000000000000000000000000602082015250565b6000612ede6021836124ca565b9150612ee982612e82565b604082019050919050565b60006020820190508181036000830152612f0d81612ed1565b9050919050565b7f4552433732313a20617070726f76652063616c6c6572206973206e6f7420746f60008201527f6b656e206f776e6572206e6f7220617070726f76656420666f7220616c6c0000602082015250565b6000612f70603e836124ca565b9150612f7b82612f14565b604082019050919050565b60006020820190508181036000830152612f9f81612f63565b9050919050565b7f4552433732313a2063616c6c6572206973206e6f7420746f6b656e206f776e6560008201527f72206e6f7220617070726f766564000000000000000000000000000000000000602082015250565b6000613002602e836124ca565b915061300d82612fa6565b604082019050919050565b6000602082019050818103600083015261303181612ff5565b9050919050565b7f416363657373436f6e74726f6c3a2063616e206f6e6c792072656e6f756e636560008201527f20726f6c657320666f722073656c660000000000000000000000000000000000602082015250565b6000613094602f836124ca565b915061309f82613038565b604082019050919050565b600060208201905081810360008301526130c381613087565b9050919050565b7f4552433732313a20696e76616c696420746f6b656e2049440000000000000000600082015250565b60006131006018836124ca565b915061310b826130ca565b602082019050919050565b6000602082019050818103600083015261312f816130f3565b9050919050565b7f4552433732313a2061646472657373207a65726f206973206e6f74206120766160008201527f6c6964206f776e65720000000000000000000000000000000000000000000000602082015250565b60006131926029836124ca565b915061319d82613136565b604082019050919050565b600060208201905081810360008301526131c181613185565b9050919050565b7f4552433732314d657461646174613a2055524920717565727920666f72206e6f60008201527f6e6578697374656e7420746f6b656e0000000000000000000000000000000000602082015250565b6000613224602f836124ca565b915061322f826131c8565b604082019050919050565b6000602082019050818103600083015261325381613217565b9050919050565b7f53454c4543542532306a736f6e5f6f626a65637425323825323769642532372560008201527f3243746f6b656e69642532432532376e616d652532372532436e616d6525324360208201527f2532376465736372697074696f6e2532372532436465736372697074696f6e2560408201527f3243253237696d616765253237253243696d616765253243253237657874657260608201527f6e616c5f75726c25323725324365787465726e616c5f75726c2532432532376160808201527f7474726962757465732532372532436a736f6e5f67726f75705f61727261792560a08201527f32386a736f6e5f6f626a65637425323825323769636f6e25323725324369636f60c08201527f6e253243253237646973706c61795f74797065253237253243646973706c617960e08201527f5f7479706525324325323774726169745f7479706525323725324374726169746101008201527f5f7479706525324325323776616c756525323725324376616c756525323925326101208201527f3925323925323046524f4d25323000000000000000000000000000000000000061014082015250565b600061341061014e83612d59565b915061341b8261325a565b61014e82019050919050565b7f2532304a4f494e25323000000000000000000000000000000000000000000000600082015250565b600061345d600a83612d59565b915061346882613427565b600a82019050919050565b7f2532304f4e253230000000000000000000000000000000000000000000000000600082015250565b60006134a9600883612d59565b91506134b482613473565b600882019050919050565b7f253245746f6b656e696425323025334425323000000000000000000000000000600082015250565b60006134f5601383612d59565b9150613500826134bf565b601382019050919050565b7f2532456d61696e7461626c655f746f6b656e696425323057484552452532307460008201527f6f6b656e69642533440000000000000000000000000000000000000000000000602082015250565b6000613567602983612d59565b91506135728261350b565b602982019050919050565b600061358882613402565b91506135948287612dd0565b915061359f82613450565b91506135ab8286612dd0565b91506135b68261349c565b91506135c28285612dd0565b91506135cd826134e8565b91506135d98284612dd0565b91506135e48261355a565b915081905095945050505050565b7f6d6f64653d6c69737426733d0000000000000000000000000000000000000000600082015250565b6000613628600c83612d59565b9150613633826135f2565b600c82019050919050565b7f25323067726f75702532306279253230746f6b656e6964000000000000000000600082015250565b6000613674601783612d59565b915061367f8261363e565b601782019050919050565b60006136968286612d64565b91506136a18261361b565b91506136ad8285612d64565b91506136b98284612d64565b91506136c482613667565b9150819050949350505050565b7f494e5345525420494e544f200000000000000000000000000000000000000000815250565b7f2028746f6b656e69642c206e616d652c206465736372697074696f6e2c20696d60008201527f6167652c2065787465726e616c5f75726c292056414c55455320282700000000602082015250565b6000613753603c83612d59565b915061375e826136f7565b603c82019050919050565b7f272c202700000000000000000000000000000000000000000000000000000000815250565b7f2729000000000000000000000000000000000000000000000000000000000000815250565b60006137c0826136d1565b600c820191506137d08289612dd0565b91506137db82613746565b91506137e78288612d64565b91506137f282613769565b6004820191506138028287612d64565b915061380d82613769565b60048201915061381d8286612d64565b915061382882613769565b6004820191506138388285612d64565b915061384382613769565b6004820191506138538284612d64565b915061385e8261378f565b600282019150819050979650505050505050565b6000606082019050613887600083018661260f565b6138946020830185612970565b81810360408301526138a6818461251f565b9050949350505050565b7f20286d61696e7461626c655f746f6b656e69642c2069636f6e2c20646973706c60008201527f61795f747970652c2074726169745f747970652c2076616c7565292056414c5560208201527f4553202827000000000000000000000000000000000000000000000000000000604082015250565b6000613932604583612d59565b915061393d826138b0565b604582019050919050565b6000613953826136d1565b600c820191506139638289612dd0565b915061396e82613925565b915061397a8288612d64565b915061398582613769565b6004820191506139958287612d64565b91506139a082613769565b6004820191506139b08286612d64565b91506139bb82613769565b6004820191506139cb8285612d64565b91506139d682613769565b6004820191506139e68284612d64565b91506139f18261378f565b600282019150819050979650505050505050565b6000604082019050613a1a6000830185612970565b613a276020830184612970565b9392505050565b7f4e487b7100000000000000000000000000000000000000000000000000000000600052601160045260246000fd5b6000613a688261257a565b91507fffffffffffffffffffffffffffffffffffffffffffffffffffffffffffffffff821415613a9b57613a9a613a2e565b5b600182019050919050565b7f4e487b7100000000000000000000000000000000000000000000000000000000600052601260045260246000fd5b6000613ae08261257a565b9150613aeb8361257a565b925082613afb57613afa613aa6565b5b828204905092915050565b6000613b118261257a565b9150613b1c8361257a565b925082821015613b2f57613b2e613a2e565b5b828203905092915050565b6000613b458261257a565b9150613b508361257a565b925082613b6057613b5f613aa6565b5b828206905092915050565b6000613b768261257a565b9150613b818361257a565b9250827fffffffffffffffffffffffffffffffffffffffffffffffffffffffffffffffff03821115613bb657613bb5613a2e565b5b828201905092915050565b7f4e487b7100000000000000000000000000000000000000000000000000000000600052603260045260246000fd5b7f4552433732313a207472616e736665722066726f6d20696e636f72726563742060008201527f6f776e6572000000000000000000000000000000000000000000000000000000602082015250565b6000613c4c6025836124ca565b9150613c5782613bf0565b604082019050919050565b60006020820190508181036000830152613c7b81613c3f565b9050919050565b7f4552433732313a207472616e7366657220746f20746865207a65726f2061646460008201527f7265737300000000000000000000000000000000000000000000000000000000602082015250565b6000613cde6024836124ca565b9150613ce982613c82565b604082019050919050565b60006020820190508181036000830152613d0d81613cd1565b9050919050565b7f4552433732313a20617070726f766520746f2063616c6c657200000000000000600082015250565b6000613d4a6019836124ca565b9150613d5582613d14565b602082019050919050565b60006020820190508181036000830152613d7981613d3d565b9050919050565b7f4552433732313a207472616e7366657220746f206e6f6e20455243373231526560008201527f63656976657220696d706c656d656e7465720000000000000000000000000000602082015250565b6000613ddc6032836124ca565b9150613de782613d80565b604082019050919050565b60006020820190508181036000830152613e0b81613dcf565b9050919050565b7f416363657373436f6e74726f6c3a206163636f756e7420000000000000000000600082015250565b6000613e48601783612d59565b9150613e5382613e12565b601782019050919050565b7f206973206d697373696e6720726f6c6520000000000000000000000000000000600082015250565b6000613e94601183612d59565b9150613e9f82613e5e565b601182019050919050565b6000613eb582613e3b565b9150613ec18285612d64565b9150613ecc82613e87565b9150613ed88284612d64565b91508190509392505050565b600081519050919050565b600082825260208201905092915050565b6000613f0b82613ee4565b613f158185613eef565b9350613f258185602086016124db565b613f2e8161250e565b840191505092915050565b6000608082019050613f4e600083018761260f565b613f5b602083018661260f565b613f686040830185612970565b8181036060830152613f7a8184613f00565b905095945050505050565b600081519050613f9481612430565b92915050565b600060208284031215613fb057613faf6123fa565b5b6000613fbe84828501613f85565b91505092915050565b6000613fd28261257a565b9150613fdd8361257a565b9250817fffffffffffffffffffffffffffffffffffffffffffffffffffffffffffffffff048311821515161561401657614015613a2e565b5b828202905092915050565b600061402c8261257a565b915060008214156140405761403f613a2e565b5b600182039050919050565b7f537472696e67733a20686578206c656e67746820696e73756666696369656e74600082015250565b60006140816020836124ca565b915061408c8261404b565b602082019050919050565b600060208201905081810360008301526140b081614074565b9050919050565b7f4552433732313a206d696e7420746f20746865207a65726f2061646472657373600082015250565b60006140ed6020836124ca565b91506140f8826140b7565b602082019050919050565b6000602082019050818103600083015261411c816140e0565b9050919050565b7f4552433732313a20746f6b656e20616c7265616479206d696e74656400000000600082015250565b6000614159601c836124ca565b915061416482614123565b602082019050919050565b600060208201905081810360008301526141888161414c565b905091905056fea2646970667358221220c45a94297628c81db94fb30b6c86401dc65938704433318022e7b1f6e2dcfba064736f6c634300080c003368747470733a2f2f746573746e65742e7461626c656c616e642e6e6574776f726b2f71756572793f","opcodes":"PUSH1 0x80 PUSH1 0x40 MSTORE PUSH1 0x40 MLOAD DUP1 PUSH1 0x60 ADD PUSH1 0x40 MSTORE DUP1 PUSH1 0x28 DUP2 MSTORE PUSH1 0x20 ADD PUSH3 0x518C PUSH1 0x28 SWAP2 CODECOPY PUSH1 0x7 SWAP1 DUP1 MLOAD SWAP1 PUSH1 0x20 ADD SWAP1 PUSH3 0x35 SWAP3 SWAP2 SWAP1 PUSH3 0x731 JUMP JUMPDEST POP PUSH1 0x40 MLOAD DUP1 PUSH1 0x40 ADD PUSH1 0x40 MSTORE DUP1 PUSH1 0x8 DUP2 MSTORE PUSH1 0x20 ADD PUSH32 0x4D696E745F544541000000000000000000000000000000000000000000000000 DUP2 MSTORE POP PUSH1 0xC SWAP1 DUP1 MLOAD SWAP1 PUSH1 0x20 ADD SWAP1 PUSH3 0x83 SWAP3 SWAP2 SWAP1 PUSH3 0x731 JUMP JUMPDEST POP CALLVALUE DUP1 ISZERO PUSH3 0x91 JUMPI PUSH1 0x0 DUP1 REVERT JUMPDEST POP PUSH1 0x40 MLOAD PUSH3 0x51B4 CODESIZE SUB DUP1 PUSH3 0x51B4 DUP4 CODECOPY DUP2 DUP2 ADD PUSH1 0x40 MSTORE DUP2 ADD SWAP1 PUSH3 0xB7 SWAP2 SWAP1 PUSH3 0x84B JUMP JUMPDEST PUSH1 0x40 MLOAD DUP1 PUSH1 0x40 ADD PUSH1 0x40 MSTORE DUP1 PUSH1 0x4 DUP2 MSTORE PUSH1 0x20 ADD PUSH32 0x4D54454100000000000000000000000000000000000000000000000000000000 DUP2 MSTORE POP PUSH1 0x40 MLOAD DUP1 PUSH1 0x40 ADD PUSH1 0x40 MSTORE DUP1 PUSH1 0x2 DUP2 MSTORE PUSH1 0x20 ADD PUSH32 0x4D54000000000000000000000000000000000000000000000000000000000000 DUP2 MSTORE POP DUP2 PUSH1 0x0 SWAP1 DUP1 MLOAD SWAP1 PUSH1 0x20 ADD SWAP1 PUSH3 0x13B SWAP3 SWAP2 SWAP1 PUSH3 0x731 JUMP JUMPDEST POP DUP1 PUSH1 0x1 SWAP1 DUP1 MLOAD SWAP1 PUSH1 0x20 ADD SWAP1 PUSH3 0x154 SWAP3 SWAP2 SWAP1 PUSH3 0x731 JUMP JUMPDEST POP POP POP PUSH3 0x16C PUSH1 0x0 DUP1 SHL CALLER PUSH3 0x452 PUSH1 0x20 SHL PUSH1 0x20 SHR JUMP JUMPDEST DUP1 PUSH1 0x9 PUSH1 0x0 PUSH2 0x100 EXP DUP2 SLOAD DUP2 PUSH20 0xFFFFFFFFFFFFFFFFFFFFFFFFFFFFFFFFFFFFFFFF MUL NOT AND SWAP1 DUP4 PUSH20 0xFFFFFFFFFFFFFFFFFFFFFFFFFFFFFFFFFFFFFFFF AND MUL OR SWAP1 SSTORE POP PUSH1 0x9 PUSH1 0x0 SWAP1 SLOAD SWAP1 PUSH2 0x100 EXP SWAP1 DIV PUSH20 0xFFFFFFFFFFFFFFFFFFFFFFFFFFFFFFFFFFFFFFFF AND PUSH20 0xFFFFFFFFFFFFFFFFFFFFFFFFFFFFFFFFFFFFFFFF AND PUSH4 0x3A9151B0 ADDRESS PUSH1 0xC PUSH3 0x204 CHAINID PUSH3 0x544 PUSH1 0x20 SHL PUSH3 0x107B OR PUSH1 0x20 SHR JUMP JUMPDEST PUSH1 0x40 MLOAD PUSH1 0x20 ADD PUSH3 0x217 SWAP3 SWAP2 SWAP1 PUSH3 0xAED JUMP JUMPDEST PUSH1 0x40 MLOAD PUSH1 0x20 DUP2 DUP4 SUB SUB DUP2 MSTORE SWAP1 PUSH1 0x40 MSTORE PUSH1 0x40 MLOAD DUP4 PUSH4 0xFFFFFFFF AND PUSH1 0xE0 SHL DUP2 MSTORE PUSH1 0x4 ADD PUSH3 0x245 SWAP3 SWAP2 SWAP1 PUSH3 0xBB8 JUMP JUMPDEST PUSH1 0x20 PUSH1 0x40 MLOAD DUP1 DUP4 SUB DUP2 PUSH1 0x0 DUP8 GAS CALL ISZERO DUP1 ISZERO PUSH3 0x265 JUMPI RETURNDATASIZE PUSH1 0x0 DUP1 RETURNDATACOPY RETURNDATASIZE PUSH1 0x0 REVERT JUMPDEST POP POP POP POP PUSH1 0x40 MLOAD RETURNDATASIZE PUSH1 0x1F NOT PUSH1 0x1F DUP3 ADD AND DUP3 ADD DUP1 PUSH1 0x40 MSTORE POP DUP2 ADD SWAP1 PUSH3 0x28B SWAP2 SWAP1 PUSH3 0xC27 JUMP JUMPDEST PUSH1 0xA DUP2 SWAP1 SSTORE POP PUSH1 0xC PUSH3 0x2A9 CHAINID PUSH3 0x544 PUSH1 0x20 SHL PUSH3 0x107B OR PUSH1 0x20 SHR JUMP JUMPDEST PUSH3 0x2C1 PUSH1 0xA SLOAD PUSH3 0x544 PUSH1 0x20 SHL PUSH3 0x107B OR PUSH1 0x20 SHR JUMP JUMPDEST PUSH1 0x40 MLOAD PUSH1 0x20 ADD PUSH3 0x2D5 SWAP4 SWAP3 SWAP2 SWAP1 PUSH3 0xC59 JUMP JUMPDEST PUSH1 0x40 MLOAD PUSH1 0x20 DUP2 DUP4 SUB SUB DUP2 MSTORE SWAP1 PUSH1 0x40 MSTORE PUSH1 0xD SWAP1 DUP1 MLOAD SWAP1 PUSH1 0x20 ADD SWAP1 PUSH3 0x2FB SWAP3 SWAP2 SWAP1 PUSH3 0x731 JUMP JUMPDEST POP PUSH1 0x9 PUSH1 0x0 SWAP1 SLOAD SWAP1 PUSH2 0x100 EXP SWAP1 DIV PUSH20 0xFFFFFFFFFFFFFFFFFFFFFFFFFFFFFFFFFFFFFFFF AND PUSH20 0xFFFFFFFFFFFFFFFFFFFFFFFFFFFFFFFFFFFFFFFF AND PUSH4 0x3A9151B0 ADDRESS PUSH1 0xC PUSH3 0x353 CHAINID PUSH3 0x544 PUSH1 0x20 SHL PUSH3 0x107B OR PUSH1 0x20 SHR JUMP JUMPDEST PUSH1 0x40 MLOAD PUSH1 0x20 ADD PUSH3 0x366 SWAP3 SWAP2 SWAP1 PUSH3 0xD4E JUMP JUMPDEST PUSH1 0x40 MLOAD PUSH1 0x20 DUP2 DUP4 SUB SUB DUP2 MSTORE SWAP1 PUSH1 0x40 MSTORE PUSH1 0x40 MLOAD DUP4 PUSH4 0xFFFFFFFF AND PUSH1 0xE0 SHL DUP2 MSTORE PUSH1 0x4 ADD PUSH3 0x394 SWAP3 SWAP2 SWAP1 PUSH3 0xBB8 JUMP JUMPDEST PUSH1 0x20 PUSH1 0x40 MLOAD DUP1 DUP4 SUB DUP2 PUSH1 0x0 DUP8 GAS CALL ISZERO DUP1 ISZERO PUSH3 0x3B4 JUMPI RETURNDATASIZE PUSH1 0x0 DUP1 RETURNDATACOPY RETURNDATASIZE PUSH1 0x0 REVERT JUMPDEST POP POP POP POP PUSH1 0x40 MLOAD RETURNDATASIZE PUSH1 0x1F NOT PUSH1 0x1F DUP3 ADD AND DUP3 ADD DUP1 PUSH1 0x40 MSTORE POP DUP2 ADD SWAP1 PUSH3 0x3DA SWAP2 SWAP1 PUSH3 0xC27 JUMP JUMPDEST PUSH1 0xB DUP2 SWAP1 SSTORE POP PUSH1 0xC PUSH3 0x3F8 CHAINID PUSH3 0x544 PUSH1 0x20 SHL PUSH3 0x107B OR PUSH1 0x20 SHR JUMP JUMPDEST PUSH3 0x410 PUSH1 0xB SLOAD PUSH3 0x544 PUSH1 0x20 SHL PUSH3 0x107B OR PUSH1 0x20 SHR JUMP JUMPDEST PUSH1 0x40 MLOAD PUSH1 0x20 ADD PUSH3 0x424 SWAP4 SWAP3 SWAP2 SWAP1 PUSH3 0xC59 JUMP JUMPDEST PUSH1 0x40 MLOAD PUSH1 0x20 DUP2 DUP4 SUB SUB DUP2 MSTORE SWAP1 PUSH1 0x40 MSTORE PUSH1 0xE SWAP1 DUP1 MLOAD SWAP1 PUSH1 0x20 ADD SWAP1 PUSH3 0x44A SWAP3 SWAP2 SWAP1 PUSH3 0x731 JUMP JUMPDEST POP POP PUSH3 0xFB7 JUMP JUMPDEST PUSH3 0x464 DUP3 DUP3 PUSH3 0x6BE PUSH1 0x20 SHL PUSH1 0x20 SHR JUMP JUMPDEST PUSH3 0x540 JUMPI PUSH1 0x1 PUSH1 0x6 PUSH1 0x0 DUP5 DUP2 MSTORE PUSH1 0x20 ADD SWAP1 DUP2 MSTORE PUSH1 0x20 ADD PUSH1 0x0 KECCAK256 PUSH1 0x0 ADD PUSH1 0x0 DUP4 PUSH20 0xFFFFFFFFFFFFFFFFFFFFFFFFFFFFFFFFFFFFFFFF AND PUSH20 0xFFFFFFFFFFFFFFFFFFFFFFFFFFFFFFFFFFFFFFFF AND DUP2 MSTORE PUSH1 0x20 ADD SWAP1 DUP2 MSTORE PUSH1 0x20 ADD PUSH1 0x0 KECCAK256 PUSH1 0x0 PUSH2 0x100 EXP DUP2 SLOAD DUP2 PUSH1 0xFF MUL NOT AND SWAP1 DUP4 ISZERO ISZERO MUL OR SWAP1 SSTORE POP PUSH3 0x4E5 PUSH3 0x729 PUSH1 0x20 SHL PUSH1 0x20 SHR JUMP JUMPDEST PUSH20 0xFFFFFFFFFFFFFFFFFFFFFFFFFFFFFFFFFFFFFFFF AND DUP2 PUSH20 0xFFFFFFFFFFFFFFFFFFFFFFFFFFFFFFFFFFFFFFFF AND DUP4 PUSH32 0x2F8788117E7EFF1D82E926EC794901D17C78024A50270940304540A733656F0D PUSH1 0x40 MLOAD PUSH1 0x40 MLOAD DUP1 SWAP2 SUB SWAP1 LOG4 JUMPDEST POP POP JUMP JUMPDEST PUSH1 0x60 PUSH1 0x0 DUP3 EQ ISZERO PUSH3 0x58E JUMPI PUSH1 0x40 MLOAD DUP1 PUSH1 0x40 ADD PUSH1 0x40 MSTORE DUP1 PUSH1 0x1 DUP2 MSTORE PUSH1 0x20 ADD PUSH32 0x3000000000000000000000000000000000000000000000000000000000000000 DUP2 MSTORE POP SWAP1 POP PUSH3 0x6B9 JUMP JUMPDEST PUSH1 0x0 DUP3 SWAP1 POP PUSH1 0x0 JUMPDEST PUSH1 0x0 DUP3 EQ PUSH3 0x5C6 JUMPI DUP1 DUP1 PUSH3 0x5AC SWAP1 PUSH3 0xDD4 JUMP JUMPDEST SWAP2 POP POP PUSH1 0xA DUP3 PUSH3 0x5BE SWAP2 SWAP1 PUSH3 0xE51 JUMP JUMPDEST SWAP2 POP PUSH3 0x596 JUMP JUMPDEST PUSH1 0x0 DUP2 PUSH8 0xFFFFFFFFFFFFFFFF DUP2 GT ISZERO PUSH3 0x5E5 JUMPI PUSH3 0x5E4 PUSH3 0xE89 JUMP JUMPDEST JUMPDEST PUSH1 0x40 MLOAD SWAP1 DUP1 DUP3 MSTORE DUP1 PUSH1 0x1F ADD PUSH1 0x1F NOT AND PUSH1 0x20 ADD DUP3 ADD PUSH1 0x40 MSTORE DUP1 ISZERO PUSH3 0x618 JUMPI DUP2 PUSH1 0x20 ADD PUSH1 0x1 DUP3 MUL DUP1 CALLDATASIZE DUP4 CALLDATACOPY DUP1 DUP3 ADD SWAP2 POP POP SWAP1 POP JUMPDEST POP SWAP1 POP JUMPDEST PUSH1 0x0 DUP6 EQ PUSH3 0x6B2 JUMPI PUSH1 0x1 DUP3 PUSH3 0x634 SWAP2 SWAP1 PUSH3 0xEB8 JUMP JUMPDEST SWAP2 POP PUSH1 0xA DUP6 PUSH3 0x645 SWAP2 SWAP1 PUSH3 0xEF3 JUMP JUMPDEST PUSH1 0x30 PUSH3 0x653 SWAP2 SWAP1 PUSH3 0xF2B JUMP JUMPDEST PUSH1 0xF8 SHL DUP2 DUP4 DUP2 MLOAD DUP2 LT PUSH3 0x66C JUMPI PUSH3 0x66B PUSH3 0xF88 JUMP JUMPDEST JUMPDEST PUSH1 0x20 ADD ADD SWAP1 PUSH31 0xFFFFFFFFFFFFFFFFFFFFFFFFFFFFFFFFFFFFFFFFFFFFFFFFFFFFFFFFFFFFFF NOT AND SWAP1 DUP2 PUSH1 0x0 BYTE SWAP1 MSTORE8 POP PUSH1 0xA DUP6 PUSH3 0x6AA SWAP2 SWAP1 PUSH3 0xE51 JUMP JUMPDEST SWAP5 POP PUSH3 0x61C JUMP JUMPDEST DUP1 SWAP4 POP POP POP POP JUMPDEST SWAP2 SWAP1 POP JUMP JUMPDEST PUSH1 0x0 PUSH1 0x6 PUSH1 0x0 DUP5 DUP2 MSTORE PUSH1 0x20 ADD SWAP1 DUP2 MSTORE PUSH1 0x20 ADD PUSH1 0x0 KECCAK256 PUSH1 0x0 ADD PUSH1 0x0 DUP4 PUSH20 0xFFFFFFFFFFFFFFFFFFFFFFFFFFFFFFFFFFFFFFFF AND PUSH20 0xFFFFFFFFFFFFFFFFFFFFFFFFFFFFFFFFFFFFFFFF AND DUP2 MSTORE PUSH1 0x20 ADD SWAP1 DUP2 MSTORE PUSH1 0x20 ADD PUSH1 0x0 KECCAK256 PUSH1 0x0 SWAP1 SLOAD SWAP1 PUSH2 0x100 EXP SWAP1 DIV PUSH1 0xFF AND SWAP1 POP SWAP3 SWAP2 POP POP JUMP JUMPDEST PUSH1 0x0 CALLER SWAP1 POP SWAP1 JUMP JUMPDEST DUP3 DUP1 SLOAD PUSH3 0x73F SWAP1 PUSH3 0x8D2 JUMP JUMPDEST SWAP1 PUSH1 0x0 MSTORE PUSH1 0x20 PUSH1 0x0 KECCAK256 SWAP1 PUSH1 0x1F ADD PUSH1 0x20 SWAP1 DIV DUP2 ADD SWAP3 DUP3 PUSH3 0x763 JUMPI PUSH1 0x0 DUP6 SSTORE PUSH3 0x7AF JUMP JUMPDEST DUP3 PUSH1 0x1F LT PUSH3 0x77E JUMPI DUP1 MLOAD PUSH1 0xFF NOT AND DUP4 DUP1 ADD OR DUP6 SSTORE PUSH3 0x7AF JUMP JUMPDEST DUP3 DUP1 ADD PUSH1 0x1 ADD DUP6 SSTORE DUP3 ISZERO PUSH3 0x7AF JUMPI SWAP2 DUP3 ADD JUMPDEST DUP3 DUP2 GT ISZERO PUSH3 0x7AE JUMPI DUP3 MLOAD DUP3 SSTORE SWAP2 PUSH1 0x20 ADD SWAP2 SWAP1 PUSH1 0x1 ADD SWAP1 PUSH3 0x791 JUMP JUMPDEST JUMPDEST POP SWAP1 POP PUSH3 0x7BE SWAP2 SWAP1 PUSH3 0x7C2 JUMP JUMPDEST POP SWAP1 JUMP JUMPDEST JUMPDEST DUP1 DUP3 GT ISZERO PUSH3 0x7DD JUMPI PUSH1 0x0 DUP2 PUSH1 0x0 SWAP1 SSTORE POP PUSH1 0x1 ADD PUSH3 0x7C3 JUMP JUMPDEST POP SWAP1 JUMP JUMPDEST PUSH1 0x0 DUP1 REVERT JUMPDEST PUSH1 0x0 PUSH20 0xFFFFFFFFFFFFFFFFFFFFFFFFFFFFFFFFFFFFFFFF DUP3 AND SWAP1 POP SWAP2 SWAP1 POP JUMP JUMPDEST PUSH1 0x0 PUSH3 0x813 DUP3 PUSH3 0x7E6 JUMP JUMPDEST SWAP1 POP SWAP2 SWAP1 POP JUMP JUMPDEST PUSH3 0x825 DUP2 PUSH3 0x806 JUMP JUMPDEST DUP2 EQ PUSH3 0x831 JUMPI PUSH1 0x0 DUP1 REVERT JUMPDEST POP JUMP JUMPDEST PUSH1 0x0 DUP2 MLOAD SWAP1 POP PUSH3 0x845 DUP2 PUSH3 0x81A JUMP JUMPDEST SWAP3 SWAP2 POP POP JUMP JUMPDEST PUSH1 0x0 PUSH1 0x20 DUP3 DUP5 SUB SLT ISZERO PUSH3 0x864 JUMPI PUSH3 0x863 PUSH3 0x7E1 JUMP JUMPDEST JUMPDEST PUSH1 0x0 PUSH3 0x874 DUP5 DUP3 DUP6 ADD PUSH3 0x834 JUMP JUMPDEST SWAP2 POP POP SWAP3 SWAP2 POP POP JUMP JUMPDEST PUSH32 0x435245415445205441424C452000000000000000000000000000000000000000 DUP2 MSTORE POP JUMP JUMPDEST PUSH32 0x4E487B7100000000000000000000000000000000000000000000000000000000 PUSH1 0x0 MSTORE PUSH1 0x22 PUSH1 0x4 MSTORE PUSH1 0x24 PUSH1 0x0 REVERT JUMPDEST PUSH1 0x0 PUSH1 0x2 DUP3 DIV SWAP1 POP PUSH1 0x1 DUP3 AND DUP1 PUSH3 0x8EB JUMPI PUSH1 0x7F DUP3 AND SWAP2 POP JUMPDEST PUSH1 0x20 DUP3 LT DUP2 EQ ISZERO PUSH3 0x902 JUMPI PUSH3 0x901 PUSH3 0x8A3 JUMP JUMPDEST JUMPDEST POP SWAP2 SWAP1 POP JUMP JUMPDEST PUSH1 0x0 DUP2 SWAP1 POP SWAP3 SWAP2 POP POP JUMP JUMPDEST PUSH1 0x0 DUP2 SWAP1 POP DUP2 PUSH1 0x0 MSTORE PUSH1 0x20 PUSH1 0x0 KECCAK256 SWAP1 POP SWAP2 SWAP1 POP JUMP JUMPDEST PUSH1 0x0 DUP2 SLOAD PUSH3 0x937 DUP2 PUSH3 0x8D2 JUMP JUMPDEST PUSH3 0x943 DUP2 DUP7 PUSH3 0x908 JUMP JUMPDEST SWAP5 POP PUSH1 0x1 DUP3 AND PUSH1 0x0 DUP2 EQ PUSH3 0x961 JUMPI PUSH1 0x1 DUP2 EQ PUSH3 0x973 JUMPI PUSH3 0x9AA JUMP JUMPDEST PUSH1 0xFF NOT DUP4 AND DUP7 MSTORE DUP2 DUP7 ADD SWAP4 POP PUSH3 0x9AA JUMP JUMPDEST PUSH3 0x97E DUP6 PUSH3 0x913 JUMP JUMPDEST PUSH1 0x0 JUMPDEST DUP4 DUP2 LT ISZERO PUSH3 0x9A2 JUMPI DUP2 SLOAD DUP2 DUP10 ADD MSTORE PUSH1 0x1 DUP3 ADD SWAP2 POP PUSH1 0x20 DUP2 ADD SWAP1 POP PUSH3 0x981 JUMP JUMPDEST DUP4 DUP9 ADD SWAP6 POP POP POP JUMPDEST POP POP POP SWAP3 SWAP2 POP POP JUMP JUMPDEST PUSH32 0x5F00000000000000000000000000000000000000000000000000000000000000 DUP2 MSTORE POP JUMP JUMPDEST PUSH1 0x0 DUP2 MLOAD SWAP1 POP SWAP2 SWAP1 POP JUMP JUMPDEST PUSH1 0x0 JUMPDEST DUP4 DUP2 LT ISZERO PUSH3 0xA04 JUMPI DUP1 DUP3 ADD MLOAD DUP2 DUP5 ADD MSTORE PUSH1 0x20 DUP2 ADD SWAP1 POP PUSH3 0x9E7 JUMP JUMPDEST DUP4 DUP2 GT ISZERO PUSH3 0xA14 JUMPI PUSH1 0x0 DUP5 DUP5 ADD MSTORE JUMPDEST POP POP POP POP JUMP JUMPDEST PUSH1 0x0 PUSH3 0xA27 DUP3 PUSH3 0x9D9 JUMP JUMPDEST PUSH3 0xA33 DUP2 DUP6 PUSH3 0x908 JUMP JUMPDEST SWAP4 POP PUSH3 0xA45 DUP2 DUP6 PUSH1 0x20 DUP7 ADD PUSH3 0x9E4 JUMP JUMPDEST DUP1 DUP5 ADD SWAP2 POP POP SWAP3 SWAP2 POP POP JUMP JUMPDEST PUSH32 0x2028746F6B656E696420696E742C206E616D6520746578742C20646573637269 PUSH1 0x0 DUP3 ADD MSTORE PUSH32 0x7074696F6E20746578742C20696D61676520746578742C2065787465726E616C PUSH1 0x20 DUP3 ADD MSTORE PUSH32 0x5F75726C2074657874293B000000000000000000000000000000000000000000 PUSH1 0x40 DUP3 ADD MSTORE POP JUMP JUMPDEST PUSH1 0x0 PUSH3 0xAD5 PUSH1 0x4B DUP4 PUSH3 0x908 JUMP JUMPDEST SWAP2 POP PUSH3 0xAE2 DUP3 PUSH3 0xA51 JUMP JUMPDEST PUSH1 0x4B DUP3 ADD SWAP1 POP SWAP2 SWAP1 POP JUMP JUMPDEST PUSH1 0x0 PUSH3 0xAFA DUP3 PUSH3 0x87D JUMP JUMPDEST PUSH1 0xD DUP3 ADD SWAP2 POP PUSH3 0xB0C DUP3 DUP6 PUSH3 0x928 JUMP JUMPDEST SWAP2 POP PUSH3 0xB19 DUP3 PUSH3 0x9B3 JUMP JUMPDEST PUSH1 0x1 DUP3 ADD SWAP2 POP PUSH3 0xB2B DUP3 DUP5 PUSH3 0xA1A JUMP JUMPDEST SWAP2 POP PUSH3 0xB38 DUP3 PUSH3 0xAC6 JUMP JUMPDEST SWAP2 POP DUP2 SWAP1 POP SWAP4 SWAP3 POP POP POP JUMP JUMPDEST PUSH3 0xB4F DUP2 PUSH3 0x806 JUMP JUMPDEST DUP3 MSTORE POP POP JUMP JUMPDEST PUSH1 0x0 DUP3 DUP3 MSTORE PUSH1 0x20 DUP3 ADD SWAP1 POP SWAP3 SWAP2 POP POP JUMP JUMPDEST PUSH1 0x0 PUSH1 0x1F NOT PUSH1 0x1F DUP4 ADD AND SWAP1 POP SWAP2 SWAP1 POP JUMP JUMPDEST PUSH1 0x0 PUSH3 0xB84 DUP3 PUSH3 0x9D9 JUMP JUMPDEST PUSH3 0xB90 DUP2 DUP6 PUSH3 0xB55 JUMP JUMPDEST SWAP4 POP PUSH3 0xBA2 DUP2 DUP6 PUSH1 0x20 DUP7 ADD PUSH3 0x9E4 JUMP JUMPDEST PUSH3 0xBAD DUP2 PUSH3 0xB66 JUMP JUMPDEST DUP5 ADD SWAP2 POP POP SWAP3 SWAP2 POP POP JUMP JUMPDEST PUSH1 0x0 PUSH1 0x40 DUP3 ADD SWAP1 POP PUSH3 0xBCF PUSH1 0x0 DUP4 ADD DUP6 PUSH3 0xB44 JUMP JUMPDEST DUP2 DUP2 SUB PUSH1 0x20 DUP4 ADD MSTORE PUSH3 0xBE3 DUP2 DUP5 PUSH3 0xB77 JUMP JUMPDEST SWAP1 POP SWAP4 SWAP3 POP POP POP JUMP JUMPDEST PUSH1 0x0 DUP2 SWAP1 POP SWAP2 SWAP1 POP JUMP JUMPDEST PUSH3 0xC01 DUP2 PUSH3 0xBEC JUMP JUMPDEST DUP2 EQ PUSH3 0xC0D JUMPI PUSH1 0x0 DUP1 REVERT JUMPDEST POP JUMP JUMPDEST PUSH1 0x0 DUP2 MLOAD SWAP1 POP PUSH3 0xC21 DUP2 PUSH3 0xBF6 JUMP JUMPDEST SWAP3 SWAP2 POP POP JUMP JUMPDEST PUSH1 0x0 PUSH1 0x20 DUP3 DUP5 SUB SLT ISZERO PUSH3 0xC40 JUMPI PUSH3 0xC3F PUSH3 0x7E1 JUMP JUMPDEST JUMPDEST PUSH1 0x0 PUSH3 0xC50 DUP5 DUP3 DUP6 ADD PUSH3 0xC10 JUMP JUMPDEST SWAP2 POP POP SWAP3 SWAP2 POP POP JUMP JUMPDEST PUSH1 0x0 PUSH3 0xC67 DUP3 DUP7 PUSH3 0x928 JUMP JUMPDEST SWAP2 POP PUSH3 0xC74 DUP3 PUSH3 0x9B3 JUMP JUMPDEST PUSH1 0x1 DUP3 ADD SWAP2 POP PUSH3 0xC86 DUP3 DUP6 PUSH3 0xA1A JUMP JUMPDEST SWAP2 POP PUSH3 0xC93 DUP3 PUSH3 0x9B3 JUMP JUMPDEST PUSH1 0x1 DUP3 ADD SWAP2 POP PUSH3 0xCA5 DUP3 DUP5 PUSH3 0xA1A JUMP JUMPDEST SWAP2 POP DUP2 SWAP1 POP SWAP5 SWAP4 POP POP POP POP JUMP JUMPDEST PUSH32 0x20286D61696E7461626C655F746F6B656E696420696E742C2069636F6E207465 PUSH1 0x0 DUP3 ADD MSTORE PUSH32 0x78742C20646973706C61795F7479706520746578742C2074726169745F747970 PUSH1 0x20 DUP3 ADD MSTORE PUSH32 0x6520746578742C2076616C756520696E74293B00000000000000000000000000 PUSH1 0x40 DUP3 ADD MSTORE POP JUMP JUMPDEST PUSH1 0x0 PUSH3 0xD36 PUSH1 0x53 DUP4 PUSH3 0x908 JUMP JUMPDEST SWAP2 POP PUSH3 0xD43 DUP3 PUSH3 0xCB2 JUMP JUMPDEST PUSH1 0x53 DUP3 ADD SWAP1 POP SWAP2 SWAP1 POP JUMP JUMPDEST PUSH1 0x0 PUSH3 0xD5B DUP3 PUSH3 0x87D JUMP JUMPDEST PUSH1 0xD DUP3 ADD SWAP2 POP PUSH3 0xD6D DUP3 DUP6 PUSH3 0x928 JUMP JUMPDEST SWAP2 POP PUSH3 0xD7A DUP3 PUSH3 0x9B3 JUMP JUMPDEST PUSH1 0x1 DUP3 ADD SWAP2 POP PUSH3 0xD8C DUP3 DUP5 PUSH3 0xA1A JUMP JUMPDEST SWAP2 POP PUSH3 0xD99 DUP3 PUSH3 0xD27 JUMP JUMPDEST SWAP2 POP DUP2 SWAP1 POP SWAP4 SWAP3 POP POP POP JUMP JUMPDEST PUSH32 0x4E487B7100000000000000000000000000000000000000000000000000000000 PUSH1 0x0 MSTORE PUSH1 0x11 PUSH1 0x4 MSTORE PUSH1 0x24 PUSH1 0x0 REVERT JUMPDEST PUSH1 0x0 PUSH3 0xDE1 DUP3 PUSH3 0xBEC JUMP JUMPDEST SWAP2 POP PUSH32 0xFFFFFFFFFFFFFFFFFFFFFFFFFFFFFFFFFFFFFFFFFFFFFFFFFFFFFFFFFFFFFFFF DUP3 EQ ISZERO PUSH3 0xE17 JUMPI PUSH3 0xE16 PUSH3 0xDA5 JUMP JUMPDEST JUMPDEST PUSH1 0x1 DUP3 ADD SWAP1 POP SWAP2 SWAP1 POP JUMP JUMPDEST PUSH32 0x4E487B7100000000000000000000000000000000000000000000000000000000 PUSH1 0x0 MSTORE PUSH1 0x12 PUSH1 0x4 MSTORE PUSH1 0x24 PUSH1 0x0 REVERT JUMPDEST PUSH1 0x0 PUSH3 0xE5E DUP3 PUSH3 0xBEC JUMP JUMPDEST SWAP2 POP PUSH3 0xE6B DUP4 PUSH3 0xBEC JUMP JUMPDEST SWAP3 POP DUP3 PUSH3 0xE7E JUMPI PUSH3 0xE7D PUSH3 0xE22 JUMP JUMPDEST JUMPDEST DUP3 DUP3 DIV SWAP1 POP SWAP3 SWAP2 POP POP JUMP JUMPDEST PUSH32 0x4E487B7100000000000000000000000000000000000000000000000000000000 PUSH1 0x0 MSTORE PUSH1 0x41 PUSH1 0x4 MSTORE PUSH1 0x24 PUSH1 0x0 REVERT JUMPDEST PUSH1 0x0 PUSH3 0xEC5 DUP3 PUSH3 0xBEC JUMP JUMPDEST SWAP2 POP PUSH3 0xED2 DUP4 PUSH3 0xBEC JUMP JUMPDEST SWAP3 POP DUP3 DUP3 LT ISZERO PUSH3 0xEE8 JUMPI PUSH3 0xEE7 PUSH3 0xDA5 JUMP JUMPDEST JUMPDEST DUP3 DUP3 SUB SWAP1 POP SWAP3 SWAP2 POP POP JUMP JUMPDEST PUSH1 0x0 PUSH3 0xF00 DUP3 PUSH3 0xBEC JUMP JUMPDEST SWAP2 POP PUSH3 0xF0D DUP4 PUSH3 0xBEC JUMP JUMPDEST SWAP3 POP DUP3 PUSH3 0xF20 JUMPI PUSH3 0xF1F PUSH3 0xE22 JUMP JUMPDEST JUMPDEST DUP3 DUP3 MOD SWAP1 POP SWAP3 SWAP2 POP POP JUMP JUMPDEST PUSH1 0x0 PUSH3 0xF38 DUP3 PUSH3 0xBEC JUMP JUMPDEST SWAP2 POP PUSH3 0xF45 DUP4 PUSH3 0xBEC JUMP JUMPDEST SWAP3 POP DUP3 PUSH32 0xFFFFFFFFFFFFFFFFFFFFFFFFFFFFFFFFFFFFFFFFFFFFFFFFFFFFFFFFFFFFFFFF SUB DUP3 GT ISZERO PUSH3 0xF7D JUMPI PUSH3 0xF7C PUSH3 0xDA5 JUMP JUMPDEST JUMPDEST DUP3 DUP3 ADD SWAP1 POP SWAP3 SWAP2 POP POP JUMP JUMPDEST PUSH32 0x4E487B7100000000000000000000000000000000000000000000000000000000 PUSH1 0x0 MSTORE PUSH1 0x32 PUSH1 0x4 MSTORE PUSH1 0x24 PUSH1 0x0 REVERT JUMPDEST PUSH2 0x41C5 DUP1 PUSH3 0xFC7 PUSH1 0x0 CODECOPY PUSH1 0x0 RETURN INVALID PUSH1 0x80 PUSH1 0x40 MSTORE CALLVALUE DUP1 ISZERO PUSH2 0x10 JUMPI PUSH1 0x0 DUP1 REVERT JUMPDEST POP PUSH1 0x4 CALLDATASIZE LT PUSH2 0x173 JUMPI PUSH1 0x0 CALLDATALOAD PUSH1 0xE0 SHR DUP1 PUSH4 0x6352211E GT PUSH2 0xDE JUMPI DUP1 PUSH4 0xA22CB465 GT PUSH2 0x97 JUMPI DUP1 PUSH4 0xC87B56DD GT PUSH2 0x71 JUMPI DUP1 PUSH4 0xC87B56DD EQ PUSH2 0x44A JUMPI DUP1 PUSH4 0xD547741F EQ PUSH2 0x47A JUMPI DUP1 PUSH4 0xE65DCF53 EQ PUSH2 0x496 JUMPI DUP1 PUSH4 0xE985E9C5 EQ PUSH2 0x4C6 JUMPI PUSH2 0x173 JUMP JUMPDEST DUP1 PUSH4 0xA22CB465 EQ PUSH2 0x3F4 JUMPI DUP1 PUSH4 0xA8E62F09 EQ PUSH2 0x410 JUMPI DUP1 PUSH4 0xB88D4FDE EQ PUSH2 0x42E JUMPI PUSH2 0x173 JUMP JUMPDEST DUP1 PUSH4 0x6352211E EQ PUSH2 0x30A JUMPI DUP1 PUSH4 0x70A08231 EQ PUSH2 0x33A JUMPI DUP1 PUSH4 0x7BC53BE9 EQ PUSH2 0x36A JUMPI DUP1 PUSH4 0x91D14854 EQ PUSH2 0x388 JUMPI DUP1 PUSH4 0x95D89B41 EQ PUSH2 0x3B8 JUMPI DUP1 PUSH4 0xA217FDDF EQ PUSH2 0x3D6 JUMPI PUSH2 0x173 JUMP JUMPDEST DUP1 PUSH4 0x248A9CA3 GT PUSH2 0x130 JUMPI DUP1 PUSH4 0x248A9CA3 EQ PUSH2 0x24C JUMPI DUP1 PUSH4 0x2F2FF15D EQ PUSH2 0x27C JUMPI DUP1 PUSH4 0x36568ABE EQ PUSH2 0x298 JUMPI DUP1 PUSH4 0x42842E0E EQ PUSH2 0x2B4 JUMPI DUP1 PUSH4 0x55F804B3 EQ PUSH2 0x2D0 JUMPI DUP1 PUSH4 0x5D21260A EQ PUSH2 0x2EC JUMPI PUSH2 0x173 JUMP JUMPDEST DUP1 PUSH4 0x1FFC9A7 EQ PUSH2 0x178 JUMPI DUP1 PUSH4 0x6FDDE03 EQ PUSH2 0x1A8 JUMPI DUP1 PUSH4 0x81812FC EQ PUSH2 0x1C6 JUMPI DUP1 PUSH4 0x91A77E7 EQ PUSH2 0x1F6 JUMPI DUP1 PUSH4 0x95EA7B3 EQ PUSH2 0x214 JUMPI DUP1 PUSH4 0x23B872DD EQ PUSH2 0x230 JUMPI JUMPDEST PUSH1 0x0 DUP1 REVERT JUMPDEST PUSH2 0x192 PUSH1 0x4 DUP1 CALLDATASIZE SUB DUP2 ADD SWAP1 PUSH2 0x18D SWAP2 SWAP1 PUSH2 0x245C JUMP JUMPDEST PUSH2 0x4F6 JUMP JUMPDEST PUSH1 0x40 MLOAD PUSH2 0x19F SWAP2 SWAP1 PUSH2 0x24A4 JUMP JUMPDEST PUSH1 0x40 MLOAD DUP1 SWAP2 SUB SWAP1 RETURN JUMPDEST PUSH2 0x1B0 PUSH2 0x508 JUMP JUMPDEST PUSH1 0x40 MLOAD PUSH2 0x1BD SWAP2 SWAP1 PUSH2 0x2558 JUMP JUMPDEST PUSH1 0x40 MLOAD DUP1 SWAP2 SUB SWAP1 RETURN JUMPDEST PUSH2 0x1E0 PUSH1 0x4 DUP1 CALLDATASIZE SUB DUP2 ADD SWAP1 PUSH2 0x1DB SWAP2 SWAP1 PUSH2 0x25B0 JUMP JUMPDEST PUSH2 0x59A JUMP JUMPDEST PUSH1 0x40 MLOAD PUSH2 0x1ED SWAP2 SWAP1 PUSH2 0x261E JUMP JUMPDEST PUSH1 0x40 MLOAD DUP1 SWAP2 SUB SWAP1 RETURN JUMPDEST PUSH2 0x1FE PUSH2 0x5E0 JUMP JUMPDEST PUSH1 0x40 MLOAD PUSH2 0x20B SWAP2 SWAP1 PUSH2 0x2558 JUMP JUMPDEST PUSH1 0x40 MLOAD DUP1 SWAP2 SUB SWAP1 RETURN JUMPDEST PUSH2 0x22E PUSH1 0x4 DUP1 CALLDATASIZE SUB DUP2 ADD SWAP1 PUSH2 0x229 SWAP2 SWAP1 PUSH2 0x2665 JUMP JUMPDEST PUSH2 0x617 JUMP JUMPDEST STOP JUMPDEST PUSH2 0x24A PUSH1 0x4 DUP1 CALLDATASIZE SUB DUP2 ADD SWAP1 PUSH2 0x245 SWAP2 SWAP1 PUSH2 0x26A5 JUMP JUMPDEST PUSH2 0x72F JUMP JUMPDEST STOP JUMPDEST PUSH2 0x266 PUSH1 0x4 DUP1 CALLDATASIZE SUB DUP2 ADD SWAP1 PUSH2 0x261 SWAP2 SWAP1 PUSH2 0x272E JUMP JUMPDEST PUSH2 0x78F JUMP JUMPDEST PUSH1 0x40 MLOAD PUSH2 0x273 SWAP2 SWAP1 PUSH2 0x276A JUMP JUMPDEST PUSH1 0x40 MLOAD DUP1 SWAP2 SUB SWAP1 RETURN JUMPDEST PUSH2 0x296 PUSH1 0x4 DUP1 CALLDATASIZE SUB DUP2 ADD SWAP1 PUSH2 0x291 SWAP2 SWAP1 PUSH2 0x2785 JUMP JUMPDEST PUSH2 0x7AF JUMP JUMPDEST STOP JUMPDEST PUSH2 0x2B2 PUSH1 0x4 DUP1 CALLDATASIZE SUB DUP2 ADD SWAP1 PUSH2 0x2AD SWAP2 SWAP1 PUSH2 0x2785 JUMP JUMPDEST PUSH2 0x7D0 JUMP JUMPDEST STOP JUMPDEST PUSH2 0x2CE PUSH1 0x4 DUP1 CALLDATASIZE SUB DUP2 ADD SWAP1 PUSH2 0x2C9 SWAP2 SWAP1 PUSH2 0x26A5 JUMP JUMPDEST PUSH2 0x853 JUMP JUMPDEST STOP JUMPDEST PUSH2 0x2EA PUSH1 0x4 DUP1 CALLDATASIZE SUB DUP2 ADD SWAP1 PUSH2 0x2E5 SWAP2 SWAP1 PUSH2 0x28FA JUMP JUMPDEST PUSH2 0x873 JUMP JUMPDEST STOP JUMPDEST PUSH2 0x2F4 PUSH2 0x89B JUMP JUMPDEST PUSH1 0x40 MLOAD PUSH2 0x301 SWAP2 SWAP1 PUSH2 0x2558 JUMP JUMPDEST PUSH1 0x40 MLOAD DUP1 SWAP2 SUB SWAP1 RETURN JUMPDEST PUSH2 0x324 PUSH1 0x4 DUP1 CALLDATASIZE SUB DUP2 ADD SWAP1 PUSH2 0x31F SWAP2 SWAP1 PUSH2 0x25B0 JUMP JUMPDEST PUSH2 0x929 JUMP JUMPDEST PUSH1 0x40 MLOAD PUSH2 0x331 SWAP2 SWAP1 PUSH2 0x261E JUMP JUMPDEST PUSH1 0x40 MLOAD DUP1 SWAP2 SUB SWAP1 RETURN JUMPDEST PUSH2 0x354 PUSH1 0x4 DUP1 CALLDATASIZE SUB DUP2 ADD SWAP1 PUSH2 0x34F SWAP2 SWAP1 PUSH2 0x2943 JUMP JUMPDEST PUSH2 0x9DB JUMP JUMPDEST PUSH1 0x40 MLOAD PUSH2 0x361 SWAP2 SWAP1 PUSH2 0x297F JUMP JUMPDEST PUSH1 0x40 MLOAD DUP1 SWAP2 SUB SWAP1 RETURN JUMPDEST PUSH2 0x372 PUSH2 0xA93 JUMP JUMPDEST PUSH1 0x40 MLOAD PUSH2 0x37F SWAP2 SWAP1 PUSH2 0x2558 JUMP JUMPDEST PUSH1 0x40 MLOAD DUP1 SWAP2 SUB SWAP1 RETURN JUMPDEST PUSH2 0x3A2 PUSH1 0x4 DUP1 CALLDATASIZE SUB DUP2 ADD SWAP1 PUSH2 0x39D SWAP2 SWAP1 PUSH2 0x2785 JUMP JUMPDEST PUSH2 0xB21 JUMP JUMPDEST PUSH1 0x40 MLOAD PUSH2 0x3AF SWAP2 SWAP1 PUSH2 0x24A4 JUMP JUMPDEST PUSH1 0x40 MLOAD DUP1 SWAP2 SUB SWAP1 RETURN JUMPDEST PUSH2 0x3C0 PUSH2 0xB8C JUMP JUMPDEST PUSH1 0x40 MLOAD PUSH2 0x3CD SWAP2 SWAP1 PUSH2 0x2558 JUMP JUMPDEST PUSH1 0x40 MLOAD DUP1 SWAP2 SUB SWAP1 RETURN JUMPDEST PUSH2 0x3DE PUSH2 0xC1E JUMP JUMPDEST PUSH1 0x40 MLOAD PUSH2 0x3EB SWAP2 SWAP1 PUSH2 0x276A JUMP JUMPDEST PUSH1 0x40 MLOAD DUP1 SWAP2 SUB SWAP1 RETURN JUMPDEST PUSH2 0x40E PUSH1 0x4 DUP1 CALLDATASIZE SUB DUP2 ADD SWAP1 PUSH2 0x409 SWAP2 SWAP1 PUSH2 0x29C6 JUMP JUMPDEST PUSH2 0xC25 JUMP JUMPDEST STOP JUMPDEST PUSH2 0x418 PUSH2 0xC3B JUMP JUMPDEST PUSH1 0x40 MLOAD PUSH2 0x425 SWAP2 SWAP1 PUSH2 0x2558 JUMP JUMPDEST PUSH1 0x40 MLOAD DUP1 SWAP2 SUB SWAP1 RETURN JUMPDEST PUSH2 0x448 PUSH1 0x4 DUP1 CALLDATASIZE SUB DUP2 ADD SWAP1 PUSH2 0x443 SWAP2 SWAP1 PUSH2 0x2AA7 JUMP JUMPDEST PUSH2 0xC72 JUMP JUMPDEST STOP JUMPDEST PUSH2 0x464 PUSH1 0x4 DUP1 CALLDATASIZE SUB DUP2 ADD SWAP1 PUSH2 0x45F SWAP2 SWAP1 PUSH2 0x25B0 JUMP JUMPDEST PUSH2 0xCD4 JUMP JUMPDEST PUSH1 0x40 MLOAD PUSH2 0x471 SWAP2 SWAP1 PUSH2 0x2558 JUMP JUMPDEST PUSH1 0x40 MLOAD DUP1 SWAP2 SUB SWAP1 RETURN JUMPDEST PUSH2 0x494 PUSH1 0x4 DUP1 CALLDATASIZE SUB DUP2 ADD SWAP1 PUSH2 0x48F SWAP2 SWAP1 PUSH2 0x2785 JUMP JUMPDEST PUSH2 0xDB0 JUMP JUMPDEST STOP JUMPDEST PUSH2 0x4B0 PUSH1 0x4 DUP1 CALLDATASIZE SUB DUP2 ADD SWAP1 PUSH2 0x4AB SWAP2 SWAP1 PUSH2 0x2B2A JUMP JUMPDEST PUSH2 0xDD1 JUMP JUMPDEST PUSH1 0x40 MLOAD PUSH2 0x4BD SWAP2 SWAP1 PUSH2 0x297F JUMP JUMPDEST PUSH1 0x40 MLOAD DUP1 SWAP2 SUB SWAP1 RETURN JUMPDEST PUSH2 0x4E0 PUSH1 0x4 DUP1 CALLDATASIZE SUB DUP2 ADD SWAP1 PUSH2 0x4DB SWAP2 SWAP1 PUSH2 0x2CB8 JUMP JUMPDEST PUSH2 0xFE7 JUMP JUMPDEST PUSH1 0x40 MLOAD PUSH2 0x4ED SWAP2 SWAP1 PUSH2 0x24A4 JUMP JUMPDEST PUSH1 0x40 MLOAD DUP1 SWAP2 SUB SWAP1 RETURN JUMPDEST PUSH1 0x0 PUSH2 0x501 DUP3 PUSH2 0x11DC JUMP JUMPDEST SWAP1 POP SWAP2 SWAP1 POP JUMP JUMPDEST PUSH1 0x60 PUSH1 0x0 DUP1 SLOAD PUSH2 0x517 SWAP1 PUSH2 0x2D27 JUMP JUMPDEST DUP1 PUSH1 0x1F ADD PUSH1 0x20 DUP1 SWAP2 DIV MUL PUSH1 0x20 ADD PUSH1 0x40 MLOAD SWAP1 DUP2 ADD PUSH1 0x40 MSTORE DUP1 SWAP3 SWAP2 SWAP1 DUP2 DUP2 MSTORE PUSH1 0x20 ADD DUP3 DUP1 SLOAD PUSH2 0x543 SWAP1 PUSH2 0x2D27 JUMP JUMPDEST DUP1 ISZERO PUSH2 0x590 JUMPI DUP1 PUSH1 0x1F LT PUSH2 0x565 JUMPI PUSH2 0x100 DUP1 DUP4 SLOAD DIV MUL DUP4 MSTORE SWAP2 PUSH1 0x20 ADD SWAP2 PUSH2 0x590 JUMP JUMPDEST DUP3 ADD SWAP2 SWAP1 PUSH1 0x0 MSTORE PUSH1 0x20 PUSH1 0x0 KECCAK256 SWAP1 JUMPDEST DUP2 SLOAD DUP2 MSTORE SWAP1 PUSH1 0x1 ADD SWAP1 PUSH1 0x20 ADD DUP1 DUP4 GT PUSH2 0x573 JUMPI DUP3 SWAP1 SUB PUSH1 0x1F AND DUP3 ADD SWAP2 JUMPDEST POP POP POP POP POP SWAP1 POP SWAP1 JUMP JUMPDEST PUSH1 0x0 PUSH2 0x5A5 DUP3 PUSH2 0x1256 JUMP JUMPDEST PUSH1 0x4 PUSH1 0x0 DUP4 DUP2 MSTORE PUSH1 0x20 ADD SWAP1 DUP2 MSTORE PUSH1 0x20 ADD PUSH1 0x0 KECCAK256 PUSH1 0x0 SWAP1 SLOAD SWAP1 PUSH2 0x100 EXP SWAP1 DIV PUSH20 0xFFFFFFFFFFFFFFFFFFFFFFFFFFFFFFFFFFFFFFFF AND SWAP1 POP SWAP2 SWAP1 POP JUMP JUMPDEST PUSH1 0x60 PUSH1 0x0 PUSH2 0x5EC PUSH2 0x12A1 JUMP JUMPDEST SWAP1 POP DUP1 PUSH1 0xE PUSH1 0x40 MLOAD PUSH1 0x20 ADD PUSH2 0x602 SWAP3 SWAP2 SWAP1 PUSH2 0x2E4F JUMP JUMPDEST PUSH1 0x40 MLOAD PUSH1 0x20 DUP2 DUP4 SUB SUB DUP2 MSTORE SWAP1 PUSH1 0x40 MSTORE SWAP2 POP POP SWAP1 JUMP JUMPDEST PUSH1 0x0 PUSH2 0x622 DUP3 PUSH2 0x929 JUMP JUMPDEST SWAP1 POP DUP1 PUSH20 0xFFFFFFFFFFFFFFFFFFFFFFFFFFFFFFFFFFFFFFFF AND DUP4 PUSH20 0xFFFFFFFFFFFFFFFFFFFFFFFFFFFFFFFFFFFFFFFF AND EQ ISZERO PUSH2 0x693 JUMPI PUSH1 0x40 MLOAD PUSH32 0x8C379A000000000000000000000000000000000000000000000000000000000 DUP2 MSTORE PUSH1 0x4 ADD PUSH2 0x68A SWAP1 PUSH2 0x2EF4 JUMP JUMPDEST PUSH1 0x40 MLOAD DUP1 SWAP2 SUB SWAP1 REVERT JUMPDEST DUP1 PUSH20 0xFFFFFFFFFFFFFFFFFFFFFFFFFFFFFFFFFFFFFFFF AND PUSH2 0x6B2 PUSH2 0x1333 JUMP JUMPDEST PUSH20 0xFFFFFFFFFFFFFFFFFFFFFFFFFFFFFFFFFFFFFFFF AND EQ DUP1 PUSH2 0x6E1 JUMPI POP PUSH2 0x6E0 DUP2 PUSH2 0x6DB PUSH2 0x1333 JUMP JUMPDEST PUSH2 0xFE7 JUMP JUMPDEST JUMPDEST PUSH2 0x720 JUMPI PUSH1 0x40 MLOAD PUSH32 0x8C379A000000000000000000000000000000000000000000000000000000000 DUP2 MSTORE PUSH1 0x4 ADD PUSH2 0x717 SWAP1 PUSH2 0x2F86 JUMP JUMPDEST PUSH1 0x40 MLOAD DUP1 SWAP2 SUB SWAP1 REVERT JUMPDEST PUSH2 0x72A DUP4 DUP4 PUSH2 0x133B JUMP JUMPDEST POP POP POP JUMP JUMPDEST PUSH2 0x740 PUSH2 0x73A PUSH2 0x1333 JUMP JUMPDEST DUP3 PUSH2 0x13F4 JUMP JUMPDEST PUSH2 0x77F JUMPI PUSH1 0x40 MLOAD PUSH32 0x8C379A000000000000000000000000000000000000000000000000000000000 DUP2 MSTORE PUSH1 0x4 ADD PUSH2 0x776 SWAP1 PUSH2 0x3018 JUMP JUMPDEST PUSH1 0x40 MLOAD DUP1 SWAP2 SUB SWAP1 REVERT JUMPDEST PUSH2 0x78A DUP4 DUP4 DUP4 PUSH2 0x1489 JUMP JUMPDEST POP POP POP JUMP JUMPDEST PUSH1 0x0 PUSH1 0x6 PUSH1 0x0 DUP4 DUP2 MSTORE PUSH1 0x20 ADD SWAP1 DUP2 MSTORE PUSH1 0x20 ADD PUSH1 0x0 KECCAK256 PUSH1 0x1 ADD SLOAD SWAP1 POP SWAP2 SWAP1 POP JUMP JUMPDEST PUSH2 0x7B8 DUP3 PUSH2 0x78F JUMP JUMPDEST PUSH2 0x7C1 DUP2 PUSH2 0x16F0 JUMP JUMPDEST PUSH2 0x7CB DUP4 DUP4 PUSH2 0x1704 JUMP JUMPDEST POP POP POP JUMP JUMPDEST PUSH2 0x7D8 PUSH2 0x1333 JUMP JUMPDEST PUSH20 0xFFFFFFFFFFFFFFFFFFFFFFFFFFFFFFFFFFFFFFFF AND DUP2 PUSH20 0xFFFFFFFFFFFFFFFFFFFFFFFFFFFFFFFFFFFFFFFF AND EQ PUSH2 0x845 JUMPI PUSH1 0x40 MLOAD PUSH32 0x8C379A000000000000000000000000000000000000000000000000000000000 DUP2 MSTORE PUSH1 0x4 ADD PUSH2 0x83C SWAP1 PUSH2 0x30AA JUMP JUMPDEST PUSH1 0x40 MLOAD DUP1 SWAP2 SUB SWAP1 REVERT JUMPDEST PUSH2 0x84F DUP3 DUP3 PUSH2 0x17E5 JUMP JUMPDEST POP POP JUMP JUMPDEST PUSH2 0x86E DUP4 DUP4 DUP4 PUSH1 0x40 MLOAD DUP1 PUSH1 0x20 ADD PUSH1 0x40 MSTORE DUP1 PUSH1 0x0 DUP2 MSTORE POP PUSH2 0xC72 JUMP JUMPDEST POP POP POP JUMP JUMPDEST PUSH1 0x0 DUP1 SHL PUSH2 0x880 DUP2 PUSH2 0x16F0 JUMP JUMPDEST DUP2 PUSH1 0x7 SWAP1 DUP1 MLOAD SWAP1 PUSH1 0x20 ADD SWAP1 PUSH2 0x896 SWAP3 SWAP2 SWAP1 PUSH2 0x234D JUMP JUMPDEST POP POP POP JUMP JUMPDEST PUSH1 0xD DUP1 SLOAD PUSH2 0x8A8 SWAP1 PUSH2 0x2D27 JUMP JUMPDEST DUP1 PUSH1 0x1F ADD PUSH1 0x20 DUP1 SWAP2 DIV MUL PUSH1 0x20 ADD PUSH1 0x40 MLOAD SWAP1 DUP2 ADD PUSH1 0x40 MSTORE DUP1 SWAP3 SWAP2 SWAP1 DUP2 DUP2 MSTORE PUSH1 0x20 ADD DUP3 DUP1 SLOAD PUSH2 0x8D4 SWAP1 PUSH2 0x2D27 JUMP JUMPDEST DUP1 ISZERO PUSH2 0x921 JUMPI DUP1 PUSH1 0x1F LT PUSH2 0x8F6 JUMPI PUSH2 0x100 DUP1 DUP4 SLOAD DIV MUL DUP4 MSTORE SWAP2 PUSH1 0x20 ADD SWAP2 PUSH2 0x921 JUMP JUMPDEST DUP3 ADD SWAP2 SWAP1 PUSH1 0x0 MSTORE PUSH1 0x20 PUSH1 0x0 KECCAK256 SWAP1 JUMPDEST DUP2 SLOAD DUP2 MSTORE SWAP1 PUSH1 0x1 ADD SWAP1 PUSH1 0x20 ADD DUP1 DUP4 GT PUSH2 0x904 JUMPI DUP3 SWAP1 SUB PUSH1 0x1F AND DUP3 ADD SWAP2 JUMPDEST POP POP POP POP POP DUP2 JUMP JUMPDEST PUSH1 0x0 DUP1 PUSH1 0x2 PUSH1 0x0 DUP5 DUP2 MSTORE PUSH1 0x20 ADD SWAP1 DUP2 MSTORE PUSH1 0x20 ADD PUSH1 0x0 KECCAK256 PUSH1 0x0 SWAP1 SLOAD SWAP1 PUSH2 0x100 EXP SWAP1 DIV PUSH20 0xFFFFFFFFFFFFFFFFFFFFFFFFFFFFFFFFFFFFFFFF AND SWAP1 POP PUSH1 0x0 PUSH20 0xFFFFFFFFFFFFFFFFFFFFFFFFFFFFFFFFFFFFFFFF AND DUP2 PUSH20 0xFFFFFFFFFFFFFFFFFFFFFFFFFFFFFFFFFFFFFFFF AND EQ ISZERO PUSH2 0x9D2 JUMPI PUSH1 0x40 MLOAD PUSH32 0x8C379A000000000000000000000000000000000000000000000000000000000 DUP2 MSTORE PUSH1 0x4 ADD PUSH2 0x9C9 SWAP1 PUSH2 0x3116 JUMP JUMPDEST PUSH1 0x40 MLOAD DUP1 SWAP2 SUB SWAP1 REVERT JUMPDEST DUP1 SWAP2 POP POP SWAP2 SWAP1 POP JUMP JUMPDEST PUSH1 0x0 DUP1 PUSH20 0xFFFFFFFFFFFFFFFFFFFFFFFFFFFFFFFFFFFFFFFF AND DUP3 PUSH20 0xFFFFFFFFFFFFFFFFFFFFFFFFFFFFFFFFFFFFFFFF AND EQ ISZERO PUSH2 0xA4C JUMPI PUSH1 0x40 MLOAD PUSH32 0x8C379A000000000000000000000000000000000000000000000000000000000 DUP2 MSTORE PUSH1 0x4 ADD PUSH2 0xA43 SWAP1 PUSH2 0x31A8 JUMP JUMPDEST PUSH1 0x40 MLOAD DUP1 SWAP2 SUB SWAP1 REVERT JUMPDEST PUSH1 0x3 PUSH1 0x0 DUP4 PUSH20 0xFFFFFFFFFFFFFFFFFFFFFFFFFFFFFFFFFFFFFFFF AND PUSH20 0xFFFFFFFFFFFFFFFFFFFFFFFFFFFFFFFFFFFFFFFF AND DUP2 MSTORE PUSH1 0x20 ADD SWAP1 DUP2 MSTORE PUSH1 0x20 ADD PUSH1 0x0 KECCAK256 SLOAD SWAP1 POP SWAP2 SWAP1 POP JUMP JUMPDEST PUSH1 0xE DUP1 SLOAD PUSH2 0xAA0 SWAP1 PUSH2 0x2D27 JUMP JUMPDEST DUP1 PUSH1 0x1F ADD PUSH1 0x20 DUP1 SWAP2 DIV MUL PUSH1 0x20 ADD PUSH1 0x40 MLOAD SWAP1 DUP2 ADD PUSH1 0x40 MSTORE DUP1 SWAP3 SWAP2 SWAP1 DUP2 DUP2 MSTORE PUSH1 0x20 ADD DUP3 DUP1 SLOAD PUSH2 0xACC SWAP1 PUSH2 0x2D27 JUMP JUMPDEST DUP1 ISZERO PUSH2 0xB19 JUMPI DUP1 PUSH1 0x1F LT PUSH2 0xAEE JUMPI PUSH2 0x100 DUP1 DUP4 SLOAD DIV MUL DUP4 MSTORE SWAP2 PUSH1 0x20 ADD SWAP2 PUSH2 0xB19 JUMP JUMPDEST DUP3 ADD SWAP2 SWAP1 PUSH1 0x0 MSTORE PUSH1 0x20 PUSH1 0x0 KECCAK256 SWAP1 JUMPDEST DUP2 SLOAD DUP2 MSTORE SWAP1 PUSH1 0x1 ADD SWAP1 PUSH1 0x20 ADD DUP1 DUP4 GT PUSH2 0xAFC JUMPI DUP3 SWAP1 SUB PUSH1 0x1F AND DUP3 ADD SWAP2 JUMPDEST POP POP POP POP POP DUP2 JUMP JUMPDEST PUSH1 0x0 PUSH1 0x6 PUSH1 0x0 DUP5 DUP2 MSTORE PUSH1 0x20 ADD SWAP1 DUP2 MSTORE PUSH1 0x20 ADD PUSH1 0x0 KECCAK256 PUSH1 0x0 ADD PUSH1 0x0 DUP4 PUSH20 0xFFFFFFFFFFFFFFFFFFFFFFFFFFFFFFFFFFFFFFFF AND PUSH20 0xFFFFFFFFFFFFFFFFFFFFFFFFFFFFFFFFFFFFFFFF AND DUP2 MSTORE PUSH1 0x20 ADD SWAP1 DUP2 MSTORE PUSH1 0x20 ADD PUSH1 0x0 KECCAK256 PUSH1 0x0 SWAP1 SLOAD SWAP1 PUSH2 0x100 EXP SWAP1 DIV PUSH1 0xFF AND SWAP1 POP SWAP3 SWAP2 POP POP JUMP JUMPDEST PUSH1 0x60 PUSH1 0x1 DUP1 SLOAD PUSH2 0xB9B SWAP1 PUSH2 0x2D27 JUMP JUMPDEST DUP1 PUSH1 0x1F ADD PUSH1 0x20 DUP1 SWAP2 DIV MUL PUSH1 0x20 ADD PUSH1 0x40 MLOAD SWAP1 DUP2 ADD PUSH1 0x40 MSTORE DUP1 SWAP3 SWAP2 SWAP1 DUP2 DUP2 MSTORE PUSH1 0x20 ADD DUP3 DUP1 SLOAD PUSH2 0xBC7 SWAP1 PUSH2 0x2D27 JUMP JUMPDEST DUP1 ISZERO PUSH2 0xC14 JUMPI DUP1 PUSH1 0x1F LT PUSH2 0xBE9 JUMPI PUSH2 0x100 DUP1 DUP4 SLOAD DIV MUL DUP4 MSTORE SWAP2 PUSH1 0x20 ADD SWAP2 PUSH2 0xC14 JUMP JUMPDEST DUP3 ADD SWAP2 SWAP1 PUSH1 0x0 MSTORE PUSH1 0x20 PUSH1 0x0 KECCAK256 SWAP1 JUMPDEST DUP2 SLOAD DUP2 MSTORE SWAP1 PUSH1 0x1 ADD SWAP1 PUSH1 0x20 ADD DUP1 DUP4 GT PUSH2 0xBF7 JUMPI DUP3 SWAP1 SUB PUSH1 0x1F AND DUP3 ADD SWAP2 JUMPDEST POP POP POP POP POP SWAP1 POP SWAP1 JUMP JUMPDEST PUSH1 0x0 DUP1 SHL DUP2 JUMP JUMPDEST PUSH2 0xC37 PUSH2 0xC30 PUSH2 0x1333 JUMP JUMPDEST DUP4 DUP4 PUSH2 0x18C7 JUMP JUMPDEST POP POP JUMP JUMPDEST PUSH1 0x60 PUSH1 0x0 PUSH2 0xC47 PUSH2 0x12A1 JUMP JUMPDEST SWAP1 POP DUP1 PUSH1 0xD PUSH1 0x40 MLOAD PUSH1 0x20 ADD PUSH2 0xC5D SWAP3 SWAP2 SWAP1 PUSH2 0x2E4F JUMP JUMPDEST PUSH1 0x40 MLOAD PUSH1 0x20 DUP2 DUP4 SUB SUB DUP2 MSTORE SWAP1 PUSH1 0x40 MSTORE SWAP2 POP POP SWAP1 JUMP JUMPDEST PUSH2 0xC83 PUSH2 0xC7D PUSH2 0x1333 JUMP JUMPDEST DUP4 PUSH2 0x13F4 JUMP JUMPDEST PUSH2 0xCC2 JUMPI PUSH1 0x40 MLOAD PUSH32 0x8C379A000000000000000000000000000000000000000000000000000000000 DUP2 MSTORE PUSH1 0x4 ADD PUSH2 0xCB9 SWAP1 PUSH2 0x3018 JUMP JUMPDEST PUSH1 0x40 MLOAD DUP1 SWAP2 SUB SWAP1 REVERT JUMPDEST PUSH2 0xCCE DUP5 DUP5 DUP5 DUP5 PUSH2 0x1A34 JUMP JUMPDEST POP POP POP POP JUMP JUMPDEST PUSH1 0x60 PUSH2 0xCDF DUP3 PUSH2 0x1A90 JUMP JUMPDEST PUSH2 0xD1E JUMPI PUSH1 0x40 MLOAD PUSH32 0x8C379A000000000000000000000000000000000000000000000000000000000 DUP2 MSTORE PUSH1 0x4 ADD PUSH2 0xD15 SWAP1 PUSH2 0x323A JUMP JUMPDEST PUSH1 0x40 MLOAD DUP1 SWAP2 SUB SWAP1 REVERT JUMPDEST PUSH1 0x0 PUSH2 0xD28 PUSH2 0x12A1 JUMP JUMPDEST SWAP1 POP PUSH1 0x0 DUP2 MLOAD EQ ISZERO PUSH2 0xD4C JUMPI PUSH1 0x40 MLOAD DUP1 PUSH1 0x20 ADD PUSH1 0x40 MSTORE DUP1 PUSH1 0x0 DUP2 MSTORE POP SWAP2 POP POP PUSH2 0xDAB JUMP JUMPDEST PUSH1 0x0 PUSH1 0xD PUSH1 0xE PUSH1 0xD PUSH1 0xE PUSH1 0x40 MLOAD PUSH1 0x20 ADD PUSH2 0xD69 SWAP5 SWAP4 SWAP3 SWAP2 SWAP1 PUSH2 0x357D JUMP JUMPDEST PUSH1 0x40 MLOAD PUSH1 0x20 DUP2 DUP4 SUB SUB DUP2 MSTORE SWAP1 PUSH1 0x40 MSTORE SWAP1 POP DUP2 DUP2 PUSH2 0xD85 DUP7 PUSH2 0x107B JUMP JUMPDEST PUSH1 0x40 MLOAD PUSH1 0x20 ADD PUSH2 0xD97 SWAP4 SWAP3 SWAP2 SWAP1 PUSH2 0x368A JUMP JUMPDEST PUSH1 0x40 MLOAD PUSH1 0x20 DUP2 DUP4 SUB SUB DUP2 MSTORE SWAP1 PUSH1 0x40 MSTORE SWAP3 POP POP POP JUMPDEST SWAP2 SWAP1 POP JUMP JUMPDEST PUSH2 0xDB9 DUP3 PUSH2 0x78F JUMP JUMPDEST PUSH2 0xDC2 DUP2 PUSH2 0x16F0 JUMP JUMPDEST PUSH2 0xDCC DUP4 DUP4 PUSH2 0x17E5 JUMP JUMPDEST POP POP POP JUMP JUMPDEST PUSH1 0x0 DUP1 PUSH2 0xDDE PUSH1 0x8 PUSH2 0x1AFC JUMP JUMPDEST SWAP1 POP PUSH1 0x9 PUSH1 0x0 SWAP1 SLOAD SWAP1 PUSH2 0x100 EXP SWAP1 DIV PUSH20 0xFFFFFFFFFFFFFFFFFFFFFFFFFFFFFFFFFFFFFFFF AND PUSH20 0xFFFFFFFFFFFFFFFFFFFFFFFFFFFFFFFFFFFFFFFF AND PUSH4 0xEAF5D04E ADDRESS PUSH1 0xA SLOAD PUSH1 0xD PUSH2 0xE2D DUP7 PUSH2 0x107B JUMP JUMPDEST DUP16 DUP16 DUP16 DUP16 PUSH1 0x40 MLOAD PUSH1 0x20 ADD PUSH2 0xE46 SWAP7 SWAP6 SWAP5 SWAP4 SWAP3 SWAP2 SWAP1 PUSH2 0x37B5 JUMP JUMPDEST PUSH1 0x40 MLOAD PUSH1 0x20 DUP2 DUP4 SUB SUB DUP2 MSTORE SWAP1 PUSH1 0x40 MSTORE PUSH1 0x40 MLOAD DUP5 PUSH4 0xFFFFFFFF AND PUSH1 0xE0 SHL DUP2 MSTORE PUSH1 0x4 ADD PUSH2 0xE73 SWAP4 SWAP3 SWAP2 SWAP1 PUSH2 0x3872 JUMP JUMPDEST PUSH1 0x0 PUSH1 0x40 MLOAD DUP1 DUP4 SUB DUP2 PUSH1 0x0 DUP8 DUP1 EXTCODESIZE ISZERO DUP1 ISZERO PUSH2 0xE8D JUMPI PUSH1 0x0 DUP1 REVERT JUMPDEST POP GAS CALL ISZERO DUP1 ISZERO PUSH2 0xEA1 JUMPI RETURNDATASIZE PUSH1 0x0 DUP1 RETURNDATACOPY RETURNDATASIZE PUSH1 0x0 REVERT JUMPDEST POP POP POP POP PUSH1 0x9 PUSH1 0x0 SWAP1 SLOAD SWAP1 PUSH2 0x100 EXP SWAP1 DIV PUSH20 0xFFFFFFFFFFFFFFFFFFFFFFFFFFFFFFFFFFFFFFFF AND PUSH20 0xFFFFFFFFFFFFFFFFFFFFFFFFFFFFFFFFFFFFFFFF AND PUSH4 0xEAF5D04E ADDRESS PUSH1 0xB SLOAD PUSH1 0xE PUSH2 0xEF2 DUP7 PUSH2 0x107B JUMP JUMPDEST DUP12 DUP12 DUP12 PUSH2 0xEFE DUP13 PUSH2 0x107B JUMP JUMPDEST PUSH1 0x40 MLOAD PUSH1 0x20 ADD PUSH2 0xF13 SWAP7 SWAP6 SWAP5 SWAP4 SWAP3 SWAP2 SWAP1 PUSH2 0x3948 JUMP JUMPDEST PUSH1 0x40 MLOAD PUSH1 0x20 DUP2 DUP4 SUB SUB DUP2 MSTORE SWAP1 PUSH1 0x40 MSTORE PUSH1 0x40 MLOAD DUP5 PUSH4 0xFFFFFFFF AND PUSH1 0xE0 SHL DUP2 MSTORE PUSH1 0x4 ADD PUSH2 0xF40 SWAP4 SWAP3 SWAP2 SWAP1 PUSH2 0x3872 JUMP JUMPDEST PUSH1 0x0 PUSH1 0x40 MLOAD DUP1 DUP4 SUB DUP2 PUSH1 0x0 DUP8 DUP1 EXTCODESIZE ISZERO DUP1 ISZERO PUSH2 0xF5A JUMPI PUSH1 0x0 DUP1 REVERT JUMPDEST POP GAS CALL ISZERO DUP1 ISZERO PUSH2 0xF6E JUMPI RETURNDATASIZE PUSH1 0x0 DUP1 RETURNDATACOPY RETURNDATASIZE PUSH1 0x0 REVERT JUMPDEST POP POP POP POP PUSH2 0xF7C DUP12 DUP3 PUSH2 0x1B0A JUMP JUMPDEST PUSH2 0xF86 PUSH1 0x8 PUSH2 0x1B28 JUMP JUMPDEST CALLER PUSH20 0xFFFFFFFFFFFFFFFFFFFFFFFFFFFFFFFFFFFFFFFF AND PUSH32 0x61B141191D79859F7CC6256C1B9E5F380052197831EFE9135841C0FF4DE7E63 TIMESTAMP DUP4 PUSH1 0x40 MLOAD PUSH2 0xFCE SWAP3 SWAP2 SWAP1 PUSH2 0x3A05 JUMP JUMPDEST PUSH1 0x40 MLOAD DUP1 SWAP2 SUB SWAP1 LOG2 DUP1 SWAP2 POP POP SWAP10 SWAP9 POP POP POP POP POP POP POP POP POP JUMP JUMPDEST PUSH1 0x0 PUSH1 0x5 PUSH1 0x0 DUP5 PUSH20 0xFFFFFFFFFFFFFFFFFFFFFFFFFFFFFFFFFFFFFFFF AND PUSH20 0xFFFFFFFFFFFFFFFFFFFFFFFFFFFFFFFFFFFFFFFF AND DUP2 MSTORE PUSH1 0x20 ADD SWAP1 DUP2 MSTORE PUSH1 0x20 ADD PUSH1 0x0 KECCAK256 PUSH1 0x0 DUP4 PUSH20 0xFFFFFFFFFFFFFFFFFFFFFFFFFFFFFFFFFFFFFFFF AND PUSH20 0xFFFFFFFFFFFFFFFFFFFFFFFFFFFFFFFFFFFFFFFF AND DUP2 MSTORE PUSH1 0x20 ADD SWAP1 DUP2 MSTORE PUSH1 0x20 ADD PUSH1 0x0 KECCAK256 PUSH1 0x0 SWAP1 SLOAD SWAP1 PUSH2 0x100 EXP SWAP1 DIV PUSH1 0xFF AND SWAP1 POP SWAP3 SWAP2 POP POP JUMP JUMPDEST PUSH1 0x60 PUSH1 0x0 DUP3 EQ ISZERO PUSH2 0x10C3 JUMPI PUSH1 0x40 MLOAD DUP1 PUSH1 0x40 ADD PUSH1 0x40 MSTORE DUP1 PUSH1 0x1 DUP2 MSTORE PUSH1 0x20 ADD PUSH32 0x3000000000000000000000000000000000000000000000000000000000000000 DUP2 MSTORE POP SWAP1 POP PUSH2 0x11D7 JUMP JUMPDEST PUSH1 0x0 DUP3 SWAP1 POP PUSH1 0x0 JUMPDEST PUSH1 0x0 DUP3 EQ PUSH2 0x10F5 JUMPI DUP1 DUP1 PUSH2 0x10DE SWAP1 PUSH2 0x3A5D JUMP JUMPDEST SWAP2 POP POP PUSH1 0xA DUP3 PUSH2 0x10EE SWAP2 SWAP1 PUSH2 0x3AD5 JUMP JUMPDEST SWAP2 POP PUSH2 0x10CB JUMP JUMPDEST PUSH1 0x0 DUP2 PUSH8 0xFFFFFFFFFFFFFFFF DUP2 GT ISZERO PUSH2 0x1111 JUMPI PUSH2 0x1110 PUSH2 0x27CF JUMP JUMPDEST JUMPDEST PUSH1 0x40 MLOAD SWAP1 DUP1 DUP3 MSTORE DUP1 PUSH1 0x1F ADD PUSH1 0x1F NOT AND PUSH1 0x20 ADD DUP3 ADD PUSH1 0x40 MSTORE DUP1 ISZERO PUSH2 0x1143 JUMPI DUP2 PUSH1 0x20 ADD PUSH1 0x1 DUP3 MUL DUP1 CALLDATASIZE DUP4 CALLDATACOPY DUP1 DUP3 ADD SWAP2 POP POP SWAP1 POP JUMPDEST POP SWAP1 POP JUMPDEST PUSH1 0x0 DUP6 EQ PUSH2 0x11D0 JUMPI PUSH1 0x1 DUP3 PUSH2 0x115C SWAP2 SWAP1 PUSH2 0x3B06 JUMP JUMPDEST SWAP2 POP PUSH1 0xA DUP6 PUSH2 0x116B SWAP2 SWAP1 PUSH2 0x3B3A JUMP JUMPDEST PUSH1 0x30 PUSH2 0x1177 SWAP2 SWAP1 PUSH2 0x3B6B JUMP JUMPDEST PUSH1 0xF8 SHL DUP2 DUP4 DUP2 MLOAD DUP2 LT PUSH2 0x118D JUMPI PUSH2 0x118C PUSH2 0x3BC1 JUMP JUMPDEST JUMPDEST PUSH1 0x20 ADD ADD SWAP1 PUSH31 0xFFFFFFFFFFFFFFFFFFFFFFFFFFFFFFFFFFFFFFFFFFFFFFFFFFFFFFFFFFFFFF NOT AND SWAP1 DUP2 PUSH1 0x0 BYTE SWAP1 MSTORE8 POP PUSH1 0xA DUP6 PUSH2 0x11C9 SWAP2 SWAP1 PUSH2 0x3AD5 JUMP JUMPDEST SWAP5 POP PUSH2 0x1147 JUMP JUMPDEST DUP1 SWAP4 POP POP POP POP JUMPDEST SWAP2 SWAP1 POP JUMP JUMPDEST PUSH1 0x0 PUSH32 0x7965DB0B00000000000000000000000000000000000000000000000000000000 PUSH28 0xFFFFFFFFFFFFFFFFFFFFFFFFFFFFFFFFFFFFFFFFFFFFFFFFFFFFFFFF NOT AND DUP3 PUSH28 0xFFFFFFFFFFFFFFFFFFFFFFFFFFFFFFFFFFFFFFFFFFFFFFFFFFFFFFFF NOT AND EQ DUP1 PUSH2 0x124F JUMPI POP PUSH2 0x124E DUP3 PUSH2 0x1B3E JUMP JUMPDEST JUMPDEST SWAP1 POP SWAP2 SWAP1 POP JUMP JUMPDEST PUSH2 0x125F DUP2 PUSH2 0x1A90 JUMP JUMPDEST PUSH2 0x129E JUMPI PUSH1 0x40 MLOAD PUSH32 0x8C379A000000000000000000000000000000000000000000000000000000000 DUP2 MSTORE PUSH1 0x4 ADD PUSH2 0x1295 SWAP1 PUSH2 0x3116 JUMP JUMPDEST PUSH1 0x40 MLOAD DUP1 SWAP2 SUB SWAP1 REVERT JUMPDEST POP JUMP JUMPDEST PUSH1 0x60 PUSH1 0x7 DUP1 SLOAD PUSH2 0x12B0 SWAP1 PUSH2 0x2D27 JUMP JUMPDEST DUP1 PUSH1 0x1F ADD PUSH1 0x20 DUP1 SWAP2 DIV MUL PUSH1 0x20 ADD PUSH1 0x40 MLOAD SWAP1 DUP2 ADD PUSH1 0x40 MSTORE DUP1 SWAP3 SWAP2 SWAP1 DUP2 DUP2 MSTORE PUSH1 0x20 ADD DUP3 DUP1 SLOAD PUSH2 0x12DC SWAP1 PUSH2 0x2D27 JUMP JUMPDEST DUP1 ISZERO PUSH2 0x1329 JUMPI DUP1 PUSH1 0x1F LT PUSH2 0x12FE JUMPI PUSH2 0x100 DUP1 DUP4 SLOAD DIV MUL DUP4 MSTORE SWAP2 PUSH1 0x20 ADD SWAP2 PUSH2 0x1329 JUMP JUMPDEST DUP3 ADD SWAP2 SWAP1 PUSH1 0x0 MSTORE PUSH1 0x20 PUSH1 0x0 KECCAK256 SWAP1 JUMPDEST DUP2 SLOAD DUP2 MSTORE SWAP1 PUSH1 0x1 ADD SWAP1 PUSH1 0x20 ADD DUP1 DUP4 GT PUSH2 0x130C JUMPI DUP3 SWAP1 SUB PUSH1 0x1F AND DUP3 ADD SWAP2 JUMPDEST POP POP POP POP POP SWAP1 POP SWAP1 JUMP JUMPDEST PUSH1 0x0 CALLER SWAP1 POP SWAP1 JUMP JUMPDEST DUP2 PUSH1 0x4 PUSH1 0x0 DUP4 DUP2 MSTORE PUSH1 0x20 ADD SWAP1 DUP2 MSTORE PUSH1 0x20 ADD PUSH1 0x0 KECCAK256 PUSH1 0x0 PUSH2 0x100 EXP DUP2 SLOAD DUP2 PUSH20 0xFFFFFFFFFFFFFFFFFFFFFFFFFFFFFFFFFFFFFFFF MUL NOT AND SWAP1 DUP4 PUSH20 0xFFFFFFFFFFFFFFFFFFFFFFFFFFFFFFFFFFFFFFFF AND MUL OR SWAP1 SSTORE POP DUP1 DUP3 PUSH20 0xFFFFFFFFFFFFFFFFFFFFFFFFFFFFFFFFFFFFFFFF AND PUSH2 0x13AE DUP4 PUSH2 0x929 JUMP JUMPDEST PUSH20 0xFFFFFFFFFFFFFFFFFFFFFFFFFFFFFFFFFFFFFFFF AND PUSH32 0x8C5BE1E5EBEC7D5BD14F71427D1E84F3DD0314C0F7B2291E5B200AC8C7C3B925 PUSH1 0x40 MLOAD PUSH1 0x40 MLOAD DUP1 SWAP2 SUB SWAP1 LOG4 POP POP JUMP JUMPDEST PUSH1 0x0 DUP1 PUSH2 0x1400 DUP4 PUSH2 0x929 JUMP JUMPDEST SWAP1 POP DUP1 PUSH20 0xFFFFFFFFFFFFFFFFFFFFFFFFFFFFFFFFFFFFFFFF AND DUP5 PUSH20 0xFFFFFFFFFFFFFFFFFFFFFFFFFFFFFFFFFFFFFFFF AND EQ DUP1 PUSH2 0x1442 JUMPI POP PUSH2 0x1441 DUP2 DUP6 PUSH2 0xFE7 JUMP JUMPDEST JUMPDEST DUP1 PUSH2 0x1480 JUMPI POP DUP4 PUSH20 0xFFFFFFFFFFFFFFFFFFFFFFFFFFFFFFFFFFFFFFFF AND PUSH2 0x1468 DUP5 PUSH2 0x59A JUMP JUMPDEST PUSH20 0xFFFFFFFFFFFFFFFFFFFFFFFFFFFFFFFFFFFFFFFF AND EQ JUMPDEST SWAP2 POP POP SWAP3 SWAP2 POP POP JUMP JUMPDEST DUP3 PUSH20 0xFFFFFFFFFFFFFFFFFFFFFFFFFFFFFFFFFFFFFFFF AND PUSH2 0x14A9 DUP3 PUSH2 0x929 JUMP JUMPDEST PUSH20 0xFFFFFFFFFFFFFFFFFFFFFFFFFFFFFFFFFFFFFFFF AND EQ PUSH2 0x14FF JUMPI PUSH1 0x40 MLOAD PUSH32 0x8C379A000000000000000000000000000000000000000000000000000000000 DUP2 MSTORE PUSH1 0x4 ADD PUSH2 0x14F6 SWAP1 PUSH2 0x3C62 JUMP JUMPDEST PUSH1 0x40 MLOAD DUP1 SWAP2 SUB SWAP1 REVERT JUMPDEST PUSH1 0x0 PUSH20 0xFFFFFFFFFFFFFFFFFFFFFFFFFFFFFFFFFFFFFFFF AND DUP3 PUSH20 0xFFFFFFFFFFFFFFFFFFFFFFFFFFFFFFFFFFFFFFFF AND EQ ISZERO PUSH2 0x156F JUMPI PUSH1 0x40 MLOAD PUSH32 0x8C379A000000000000000000000000000000000000000000000000000000000 DUP2 MSTORE PUSH1 0x4 ADD PUSH2 0x1566 SWAP1 PUSH2 0x3CF4 JUMP JUMPDEST PUSH1 0x40 MLOAD DUP1 SWAP2 SUB SWAP1 REVERT JUMPDEST PUSH2 0x157A DUP4 DUP4 DUP4 PUSH2 0x1C20 JUMP JUMPDEST PUSH2 0x1585 PUSH1 0x0 DUP3 PUSH2 0x133B JUMP JUMPDEST PUSH1 0x1 PUSH1 0x3 PUSH1 0x0 DUP6 PUSH20 0xFFFFFFFFFFFFFFFFFFFFFFFFFFFFFFFFFFFFFFFF AND PUSH20 0xFFFFFFFFFFFFFFFFFFFFFFFFFFFFFFFFFFFFFFFF AND DUP2 MSTORE PUSH1 0x20 ADD SWAP1 DUP2 MSTORE PUSH1 0x20 ADD PUSH1 0x0 KECCAK256 PUSH1 0x0 DUP3 DUP3 SLOAD PUSH2 0x15D5 SWAP2 SWAP1 PUSH2 0x3B06 JUMP JUMPDEST SWAP3 POP POP DUP2 SWAP1 SSTORE POP PUSH1 0x1 PUSH1 0x3 PUSH1 0x0 DUP5 PUSH20 0xFFFFFFFFFFFFFFFFFFFFFFFFFFFFFFFFFFFFFFFF AND PUSH20 0xFFFFFFFFFFFFFFFFFFFFFFFFFFFFFFFFFFFFFFFF AND DUP2 MSTORE PUSH1 0x20 ADD SWAP1 DUP2 MSTORE PUSH1 0x20 ADD PUSH1 0x0 KECCAK256 PUSH1 0x0 DUP3 DUP3 SLOAD PUSH2 0x162C SWAP2 SWAP1 PUSH2 0x3B6B JUMP JUMPDEST SWAP3 POP POP DUP2 SWAP1 SSTORE POP DUP2 PUSH1 0x2 PUSH1 0x0 DUP4 DUP2 MSTORE PUSH1 0x20 ADD SWAP1 DUP2 MSTORE PUSH1 0x20 ADD PUSH1 0x0 KECCAK256 PUSH1 0x0 PUSH2 0x100 EXP DUP2 SLOAD DUP2 PUSH20 0xFFFFFFFFFFFFFFFFFFFFFFFFFFFFFFFFFFFFFFFF MUL NOT AND SWAP1 DUP4 PUSH20 0xFFFFFFFFFFFFFFFFFFFFFFFFFFFFFFFFFFFFFFFF AND MUL OR SWAP1 SSTORE POP DUP1 DUP3 PUSH20 0xFFFFFFFFFFFFFFFFFFFFFFFFFFFFFFFFFFFFFFFF AND DUP5 PUSH20 0xFFFFFFFFFFFFFFFFFFFFFFFFFFFFFFFFFFFFFFFF AND PUSH32 0xDDF252AD1BE2C89B69C2B068FC378DAA952BA7F163C4A11628F55A4DF523B3EF PUSH1 0x40 MLOAD PUSH1 0x40 MLOAD DUP1 SWAP2 SUB SWAP1 LOG4 PUSH2 0x16EB DUP4 DUP4 DUP4 PUSH2 0x1C25 JUMP JUMPDEST POP POP POP JUMP JUMPDEST PUSH2 0x1701 DUP2 PUSH2 0x16FC PUSH2 0x1333 JUMP JUMPDEST PUSH2 0x1C2A JUMP JUMPDEST POP JUMP JUMPDEST PUSH2 0x170E DUP3 DUP3 PUSH2 0xB21 JUMP JUMPDEST PUSH2 0x17E1 JUMPI PUSH1 0x1 PUSH1 0x6 PUSH1 0x0 DUP5 DUP2 MSTORE PUSH1 0x20 ADD SWAP1 DUP2 MSTORE PUSH1 0x20 ADD PUSH1 0x0 KECCAK256 PUSH1 0x0 ADD PUSH1 0x0 DUP4 PUSH20 0xFFFFFFFFFFFFFFFFFFFFFFFFFFFFFFFFFFFFFFFF AND PUSH20 0xFFFFFFFFFFFFFFFFFFFFFFFFFFFFFFFFFFFFFFFF AND DUP2 MSTORE PUSH1 0x20 ADD SWAP1 DUP2 MSTORE PUSH1 0x20 ADD PUSH1 0x0 KECCAK256 PUSH1 0x0 PUSH2 0x100 EXP DUP2 SLOAD DUP2 PUSH1 0xFF MUL NOT AND SWAP1 DUP4 ISZERO ISZERO MUL OR SWAP1 SSTORE POP PUSH2 0x1786 PUSH2 0x1333 JUMP JUMPDEST PUSH20 0xFFFFFFFFFFFFFFFFFFFFFFFFFFFFFFFFFFFFFFFF AND DUP2 PUSH20 0xFFFFFFFFFFFFFFFFFFFFFFFFFFFFFFFFFFFFFFFF AND DUP4 PUSH32 0x2F8788117E7EFF1D82E926EC794901D17C78024A50270940304540A733656F0D PUSH1 0x40 MLOAD PUSH1 0x40 MLOAD DUP1 SWAP2 SUB SWAP1 LOG4 JUMPDEST POP POP JUMP JUMPDEST PUSH2 0x17EF DUP3 DUP3 PUSH2 0xB21 JUMP JUMPDEST ISZERO PUSH2 0x18C3 JUMPI PUSH1 0x0 PUSH1 0x6 PUSH1 0x0 DUP5 DUP2 MSTORE PUSH1 0x20 ADD SWAP1 DUP2 MSTORE PUSH1 0x20 ADD PUSH1 0x0 KECCAK256 PUSH1 0x0 ADD PUSH1 0x0 DUP4 PUSH20 0xFFFFFFFFFFFFFFFFFFFFFFFFFFFFFFFFFFFFFFFF AND PUSH20 0xFFFFFFFFFFFFFFFFFFFFFFFFFFFFFFFFFFFFFFFF AND DUP2 MSTORE PUSH1 0x20 ADD SWAP1 DUP2 MSTORE PUSH1 0x20 ADD PUSH1 0x0 KECCAK256 PUSH1 0x0 PUSH2 0x100 EXP DUP2 SLOAD DUP2 PUSH1 0xFF MUL NOT AND SWAP1 DUP4 ISZERO ISZERO MUL OR SWAP1 SSTORE POP PUSH2 0x1868 PUSH2 0x1333 JUMP JUMPDEST PUSH20 0xFFFFFFFFFFFFFFFFFFFFFFFFFFFFFFFFFFFFFFFF AND DUP2 PUSH20 0xFFFFFFFFFFFFFFFFFFFFFFFFFFFFFFFFFFFFFFFF AND DUP4 PUSH32 0xF6391F5C32D9C69D2A47EA670B442974B53935D1EDC7FD64EB21E047A839171B PUSH1 0x40 MLOAD PUSH1 0x40 MLOAD DUP1 SWAP2 SUB SWAP1 LOG4 JUMPDEST POP POP JUMP JUMPDEST DUP2 PUSH20 0xFFFFFFFFFFFFFFFFFFFFFFFFFFFFFFFFFFFFFFFF AND DUP4 PUSH20 0xFFFFFFFFFFFFFFFFFFFFFFFFFFFFFFFFFFFFFFFF AND EQ ISZERO PUSH2 0x1936 JUMPI PUSH1 0x40 MLOAD PUSH32 0x8C379A000000000000000000000000000000000000000000000000000000000 DUP2 MSTORE PUSH1 0x4 ADD PUSH2 0x192D SWAP1 PUSH2 0x3D60 JUMP JUMPDEST PUSH1 0x40 MLOAD DUP1 SWAP2 SUB SWAP1 REVERT JUMPDEST DUP1 PUSH1 0x5 PUSH1 0x0 DUP6 PUSH20 0xFFFFFFFFFFFFFFFFFFFFFFFFFFFFFFFFFFFFFFFF AND PUSH20 0xFFFFFFFFFFFFFFFFFFFFFFFFFFFFFFFFFFFFFFFF AND DUP2 MSTORE PUSH1 0x20 ADD SWAP1 DUP2 MSTORE PUSH1 0x20 ADD PUSH1 0x0 KECCAK256 PUSH1 0x0 DUP5 PUSH20 0xFFFFFFFFFFFFFFFFFFFFFFFFFFFFFFFFFFFFFFFF AND PUSH20 0xFFFFFFFFFFFFFFFFFFFFFFFFFFFFFFFFFFFFFFFF AND DUP2 MSTORE PUSH1 0x20 ADD SWAP1 DUP2 MSTORE PUSH1 0x20 ADD PUSH1 0x0 KECCAK256 PUSH1 0x0 PUSH2 0x100 EXP DUP2 SLOAD DUP2 PUSH1 0xFF MUL NOT AND SWAP1 DUP4 ISZERO ISZERO MUL OR SWAP1 SSTORE POP DUP2 PUSH20 0xFFFFFFFFFFFFFFFFFFFFFFFFFFFFFFFFFFFFFFFF AND DUP4 PUSH20 0xFFFFFFFFFFFFFFFFFFFFFFFFFFFFFFFFFFFFFFFF AND PUSH32 0x17307EAB39AB6107E8899845AD3D59BD9653F200F220920489CA2B5937696C31 DUP4 PUSH1 0x40 MLOAD PUSH2 0x1A27 SWAP2 SWAP1 PUSH2 0x24A4 JUMP JUMPDEST PUSH1 0x40 MLOAD DUP1 SWAP2 SUB SWAP1 LOG3 POP POP POP JUMP JUMPDEST PUSH2 0x1A3F DUP5 DUP5 DUP5 PUSH2 0x1489 JUMP JUMPDEST PUSH2 0x1A4B DUP5 DUP5 DUP5 DUP5 PUSH2 0x1CC7 JUMP JUMPDEST PUSH2 0x1A8A JUMPI PUSH1 0x40 MLOAD PUSH32 0x8C379A000000000000000000000000000000000000000000000000000000000 DUP2 MSTORE PUSH1 0x4 ADD PUSH2 0x1A81 SWAP1 PUSH2 0x3DF2 JUMP JUMPDEST PUSH1 0x40 MLOAD DUP1 SWAP2 SUB SWAP1 REVERT JUMPDEST POP POP POP POP JUMP JUMPDEST PUSH1 0x0 DUP1 PUSH20 0xFFFFFFFFFFFFFFFFFFFFFFFFFFFFFFFFFFFFFFFF AND PUSH1 0x2 PUSH1 0x0 DUP5 DUP2 MSTORE PUSH1 0x20 ADD SWAP1 DUP2 MSTORE PUSH1 0x20 ADD PUSH1 0x0 KECCAK256 PUSH1 0x0 SWAP1 SLOAD SWAP1 PUSH2 0x100 EXP SWAP1 DIV PUSH20 0xFFFFFFFFFFFFFFFFFFFFFFFFFFFFFFFFFFFFFFFF AND PUSH20 0xFFFFFFFFFFFFFFFFFFFFFFFFFFFFFFFFFFFFFFFF AND EQ ISZERO SWAP1 POP SWAP2 SWAP1 POP JUMP JUMPDEST PUSH1 0x0 DUP2 PUSH1 0x0 ADD SLOAD SWAP1 POP SWAP2 SWAP1 POP JUMP JUMPDEST PUSH2 0x1B24 DUP3 DUP3 PUSH1 0x40 MLOAD DUP1 PUSH1 0x20 ADD PUSH1 0x40 MSTORE DUP1 PUSH1 0x0 DUP2 MSTORE POP PUSH2 0x1E4F JUMP JUMPDEST POP POP JUMP JUMPDEST PUSH1 0x1 DUP2 PUSH1 0x0 ADD PUSH1 0x0 DUP3 DUP3 SLOAD ADD SWAP3 POP POP DUP2 SWAP1 SSTORE POP POP JUMP JUMPDEST PUSH1 0x0 PUSH32 0x80AC58CD00000000000000000000000000000000000000000000000000000000 PUSH28 0xFFFFFFFFFFFFFFFFFFFFFFFFFFFFFFFFFFFFFFFFFFFFFFFFFFFFFFFF NOT AND DUP3 PUSH28 0xFFFFFFFFFFFFFFFFFFFFFFFFFFFFFFFFFFFFFFFFFFFFFFFFFFFFFFFF NOT AND EQ DUP1 PUSH2 0x1C09 JUMPI POP PUSH32 0x5B5E139F00000000000000000000000000000000000000000000000000000000 PUSH28 0xFFFFFFFFFFFFFFFFFFFFFFFFFFFFFFFFFFFFFFFFFFFFFFFFFFFFFFFF NOT AND DUP3 PUSH28 0xFFFFFFFFFFFFFFFFFFFFFFFFFFFFFFFFFFFFFFFFFFFFFFFFFFFFFFFF NOT AND EQ JUMPDEST DUP1 PUSH2 0x1C19 JUMPI POP PUSH2 0x1C18 DUP3 PUSH2 0x1EAA JUMP JUMPDEST JUMPDEST SWAP1 POP SWAP2 SWAP1 POP JUMP JUMPDEST POP POP POP JUMP JUMPDEST POP POP POP JUMP JUMPDEST PUSH2 0x1C34 DUP3 DUP3 PUSH2 0xB21 JUMP JUMPDEST PUSH2 0x1CC3 JUMPI PUSH2 0x1C59 DUP2 PUSH20 0xFFFFFFFFFFFFFFFFFFFFFFFFFFFFFFFFFFFFFFFF AND PUSH1 0x14 PUSH2 0x1F14 JUMP JUMPDEST PUSH2 0x1C67 DUP4 PUSH1 0x0 SHR PUSH1 0x20 PUSH2 0x1F14 JUMP JUMPDEST PUSH1 0x40 MLOAD PUSH1 0x20 ADD PUSH2 0x1C78 SWAP3 SWAP2 SWAP1 PUSH2 0x3EAA JUMP JUMPDEST PUSH1 0x40 MLOAD PUSH1 0x20 DUP2 DUP4 SUB SUB DUP2 MSTORE SWAP1 PUSH1 0x40 MSTORE PUSH1 0x40 MLOAD PUSH32 0x8C379A000000000000000000000000000000000000000000000000000000000 DUP2 MSTORE PUSH1 0x4 ADD PUSH2 0x1CBA SWAP2 SWAP1 PUSH2 0x2558 JUMP JUMPDEST PUSH1 0x40 MLOAD DUP1 SWAP2 SUB SWAP1 REVERT JUMPDEST POP POP JUMP JUMPDEST PUSH1 0x0 PUSH2 0x1CE8 DUP5 PUSH20 0xFFFFFFFFFFFFFFFFFFFFFFFFFFFFFFFFFFFFFFFF AND PUSH2 0x2150 JUMP JUMPDEST ISZERO PUSH2 0x1E42 JUMPI DUP4 PUSH20 0xFFFFFFFFFFFFFFFFFFFFFFFFFFFFFFFFFFFFFFFF AND PUSH4 0x150B7A02 PUSH2 0x1D11 PUSH2 0x1333 JUMP JUMPDEST DUP8 DUP7 DUP7 PUSH1 0x40 MLOAD DUP6 PUSH4 0xFFFFFFFF AND PUSH1 0xE0 SHL DUP2 MSTORE PUSH1 0x4 ADD PUSH2 0x1D33 SWAP5 SWAP4 SWAP3 SWAP2 SWAP1 PUSH2 0x3F39 JUMP JUMPDEST PUSH1 0x20 PUSH1 0x40 MLOAD DUP1 DUP4 SUB DUP2 PUSH1 0x0 DUP8 GAS CALL SWAP3 POP POP POP DUP1 ISZERO PUSH2 0x1D6F JUMPI POP PUSH1 0x40 MLOAD RETURNDATASIZE PUSH1 0x1F NOT PUSH1 0x1F DUP3 ADD AND DUP3 ADD DUP1 PUSH1 0x40 MSTORE POP DUP2 ADD SWAP1 PUSH2 0x1D6C SWAP2 SWAP1 PUSH2 0x3F9A JUMP JUMPDEST PUSH1 0x1 JUMPDEST PUSH2 0x1DF2 JUMPI RETURNDATASIZE DUP1 PUSH1 0x0 DUP2 EQ PUSH2 0x1D9F JUMPI PUSH1 0x40 MLOAD SWAP2 POP PUSH1 0x1F NOT PUSH1 0x3F RETURNDATASIZE ADD AND DUP3 ADD PUSH1 0x40 MSTORE RETURNDATASIZE DUP3 MSTORE RETURNDATASIZE PUSH1 0x0 PUSH1 0x20 DUP5 ADD RETURNDATACOPY PUSH2 0x1DA4 JUMP JUMPDEST PUSH1 0x60 SWAP2 POP JUMPDEST POP PUSH1 0x0 DUP2 MLOAD EQ ISZERO PUSH2 0x1DEA JUMPI PUSH1 0x40 MLOAD PUSH32 0x8C379A000000000000000000000000000000000000000000000000000000000 DUP2 MSTORE PUSH1 0x4 ADD PUSH2 0x1DE1 SWAP1 PUSH2 0x3DF2 JUMP JUMPDEST PUSH1 0x40 MLOAD DUP1 SWAP2 SUB SWAP1 REVERT JUMPDEST DUP1 MLOAD DUP2 PUSH1 0x20 ADD REVERT JUMPDEST PUSH4 0x150B7A02 PUSH1 0xE0 SHL PUSH28 0xFFFFFFFFFFFFFFFFFFFFFFFFFFFFFFFFFFFFFFFFFFFFFFFFFFFFFFFF NOT AND DUP2 PUSH28 0xFFFFFFFFFFFFFFFFFFFFFFFFFFFFFFFFFFFFFFFFFFFFFFFFFFFFFFFF NOT AND EQ SWAP2 POP POP PUSH2 0x1E47 JUMP JUMPDEST PUSH1 0x1 SWAP1 POP JUMPDEST SWAP5 SWAP4 POP POP POP POP JUMP JUMPDEST PUSH2 0x1E59 DUP4 DUP4 PUSH2 0x2173 JUMP JUMPDEST PUSH2 0x1E66 PUSH1 0x0 DUP5 DUP5 DUP5 PUSH2 0x1CC7 JUMP JUMPDEST PUSH2 0x1EA5 JUMPI PUSH1 0x40 MLOAD PUSH32 0x8C379A000000000000000000000000000000000000000000000000000000000 DUP2 MSTORE PUSH1 0x4 ADD PUSH2 0x1E9C SWAP1 PUSH2 0x3DF2 JUMP JUMPDEST PUSH1 0x40 MLOAD DUP1 SWAP2 SUB SWAP1 REVERT JUMPDEST POP POP POP JUMP JUMPDEST PUSH1 0x0 PUSH32 0x1FFC9A700000000000000000000000000000000000000000000000000000000 PUSH28 0xFFFFFFFFFFFFFFFFFFFFFFFFFFFFFFFFFFFFFFFFFFFFFFFFFFFFFFFF NOT AND DUP3 PUSH28 0xFFFFFFFFFFFFFFFFFFFFFFFFFFFFFFFFFFFFFFFFFFFFFFFFFFFFFFFF NOT AND EQ SWAP1 POP SWAP2 SWAP1 POP JUMP JUMPDEST PUSH1 0x60 PUSH1 0x0 PUSH1 0x2 DUP4 PUSH1 0x2 PUSH2 0x1F27 SWAP2 SWAP1 PUSH2 0x3FC7 JUMP JUMPDEST PUSH2 0x1F31 SWAP2 SWAP1 PUSH2 0x3B6B JUMP JUMPDEST PUSH8 0xFFFFFFFFFFFFFFFF DUP2 GT ISZERO PUSH2 0x1F4A JUMPI PUSH2 0x1F49 PUSH2 0x27CF JUMP JUMPDEST JUMPDEST PUSH1 0x40 MLOAD SWAP1 DUP1 DUP3 MSTORE DUP1 PUSH1 0x1F ADD PUSH1 0x1F NOT AND PUSH1 0x20 ADD DUP3 ADD PUSH1 0x40 MSTORE DUP1 ISZERO PUSH2 0x1F7C JUMPI DUP2 PUSH1 0x20 ADD PUSH1 0x1 DUP3 MUL DUP1 CALLDATASIZE DUP4 CALLDATACOPY DUP1 DUP3 ADD SWAP2 POP POP SWAP1 POP JUMPDEST POP SWAP1 POP PUSH32 0x3000000000000000000000000000000000000000000000000000000000000000 DUP2 PUSH1 0x0 DUP2 MLOAD DUP2 LT PUSH2 0x1FB4 JUMPI PUSH2 0x1FB3 PUSH2 0x3BC1 JUMP JUMPDEST JUMPDEST PUSH1 0x20 ADD ADD SWAP1 PUSH31 0xFFFFFFFFFFFFFFFFFFFFFFFFFFFFFFFFFFFFFFFFFFFFFFFFFFFFFFFFFFFFFF NOT AND SWAP1 DUP2 PUSH1 0x0 BYTE SWAP1 MSTORE8 POP PUSH32 0x7800000000000000000000000000000000000000000000000000000000000000 DUP2 PUSH1 0x1 DUP2 MLOAD DUP2 LT PUSH2 0x2018 JUMPI PUSH2 0x2017 PUSH2 0x3BC1 JUMP JUMPDEST JUMPDEST PUSH1 0x20 ADD ADD SWAP1 PUSH31 0xFFFFFFFFFFFFFFFFFFFFFFFFFFFFFFFFFFFFFFFFFFFFFFFFFFFFFFFFFFFFFF NOT AND SWAP1 DUP2 PUSH1 0x0 BYTE SWAP1 MSTORE8 POP PUSH1 0x0 PUSH1 0x1 DUP5 PUSH1 0x2 PUSH2 0x2058 SWAP2 SWAP1 PUSH2 0x3FC7 JUMP JUMPDEST PUSH2 0x2062 SWAP2 SWAP1 PUSH2 0x3B6B JUMP JUMPDEST SWAP1 POP JUMPDEST PUSH1 0x1 DUP2 GT ISZERO PUSH2 0x2102 JUMPI PUSH32 0x3031323334353637383961626364656600000000000000000000000000000000 PUSH1 0xF DUP7 AND PUSH1 0x10 DUP2 LT PUSH2 0x20A4 JUMPI PUSH2 0x20A3 PUSH2 0x3BC1 JUMP JUMPDEST JUMPDEST BYTE PUSH1 0xF8 SHL DUP3 DUP3 DUP2 MLOAD DUP2 LT PUSH2 0x20BB JUMPI PUSH2 0x20BA PUSH2 0x3BC1 JUMP JUMPDEST JUMPDEST PUSH1 0x20 ADD ADD SWAP1 PUSH31 0xFFFFFFFFFFFFFFFFFFFFFFFFFFFFFFFFFFFFFFFFFFFFFFFFFFFFFFFFFFFFFF NOT AND SWAP1 DUP2 PUSH1 0x0 BYTE SWAP1 MSTORE8 POP PUSH1 0x4 DUP6 SWAP1 SHR SWAP5 POP DUP1 PUSH2 0x20FB SWAP1 PUSH2 0x4021 JUMP JUMPDEST SWAP1 POP PUSH2 0x2065 JUMP JUMPDEST POP PUSH1 0x0 DUP5 EQ PUSH2 0x2146 JUMPI PUSH1 0x40 MLOAD PUSH32 0x8C379A000000000000000000000000000000000000000000000000000000000 DUP2 MSTORE PUSH1 0x4 ADD PUSH2 0x213D SWAP1 PUSH2 0x4097 JUMP JUMPDEST PUSH1 0x40 MLOAD DUP1 SWAP2 SUB SWAP1 REVERT JUMPDEST DUP1 SWAP2 POP POP SWAP3 SWAP2 POP POP JUMP JUMPDEST PUSH1 0x0 DUP1 DUP3 PUSH20 0xFFFFFFFFFFFFFFFFFFFFFFFFFFFFFFFFFFFFFFFF AND EXTCODESIZE GT SWAP1 POP SWAP2 SWAP1 POP JUMP JUMPDEST PUSH1 0x0 PUSH20 0xFFFFFFFFFFFFFFFFFFFFFFFFFFFFFFFFFFFFFFFF AND DUP3 PUSH20 0xFFFFFFFFFFFFFFFFFFFFFFFFFFFFFFFFFFFFFFFF AND EQ ISZERO PUSH2 0x21E3 JUMPI PUSH1 0x40 MLOAD PUSH32 0x8C379A000000000000000000000000000000000000000000000000000000000 DUP2 MSTORE PUSH1 0x4 ADD PUSH2 0x21DA SWAP1 PUSH2 0x4103 JUMP JUMPDEST PUSH1 0x40 MLOAD DUP1 SWAP2 SUB SWAP1 REVERT JUMPDEST PUSH2 0x21EC DUP2 PUSH2 0x1A90 JUMP JUMPDEST ISZERO PUSH2 0x222C JUMPI PUSH1 0x40 MLOAD PUSH32 0x8C379A000000000000000000000000000000000000000000000000000000000 DUP2 MSTORE PUSH1 0x4 ADD PUSH2 0x2223 SWAP1 PUSH2 0x416F JUMP JUMPDEST PUSH1 0x40 MLOAD DUP1 SWAP2 SUB SWAP1 REVERT JUMPDEST PUSH2 0x2238 PUSH1 0x0 DUP4 DUP4 PUSH2 0x1C20 JUMP JUMPDEST PUSH1 0x1 PUSH1 0x3 PUSH1 0x0 DUP5 PUSH20 0xFFFFFFFFFFFFFFFFFFFFFFFFFFFFFFFFFFFFFFFF AND PUSH20 0xFFFFFFFFFFFFFFFFFFFFFFFFFFFFFFFFFFFFFFFF AND DUP2 MSTORE PUSH1 0x20 ADD SWAP1 DUP2 MSTORE PUSH1 0x20 ADD PUSH1 0x0 KECCAK256 PUSH1 0x0 DUP3 DUP3 SLOAD PUSH2 0x2288 SWAP2 SWAP1 PUSH2 0x3B6B JUMP JUMPDEST SWAP3 POP POP DUP2 SWAP1 SSTORE POP DUP2 PUSH1 0x2 PUSH1 0x0 DUP4 DUP2 MSTORE PUSH1 0x20 ADD SWAP1 DUP2 MSTORE PUSH1 0x20 ADD PUSH1 0x0 KECCAK256 PUSH1 0x0 PUSH2 0x100 EXP DUP2 SLOAD DUP2 PUSH20 0xFFFFFFFFFFFFFFFFFFFFFFFFFFFFFFFFFFFFFFFF MUL NOT AND SWAP1 DUP4 PUSH20 0xFFFFFFFFFFFFFFFFFFFFFFFFFFFFFFFFFFFFFFFF AND MUL OR SWAP1 SSTORE POP DUP1 DUP3 PUSH20 0xFFFFFFFFFFFFFFFFFFFFFFFFFFFFFFFFFFFFFFFF AND PUSH1 0x0 PUSH20 0xFFFFFFFFFFFFFFFFFFFFFFFFFFFFFFFFFFFFFFFF AND PUSH32 0xDDF252AD1BE2C89B69C2B068FC378DAA952BA7F163C4A11628F55A4DF523B3EF PUSH1 0x40 MLOAD PUSH1 0x40 MLOAD DUP1 SWAP2 SUB SWAP1 LOG4 PUSH2 0x2349 PUSH1 0x0 DUP4 DUP4 PUSH2 0x1C25 JUMP JUMPDEST POP POP JUMP JUMPDEST DUP3 DUP1 SLOAD PUSH2 0x2359 SWAP1 PUSH2 0x2D27 JUMP JUMPDEST SWAP1 PUSH1 0x0 MSTORE PUSH1 0x20 PUSH1 0x0 KECCAK256 SWAP1 PUSH1 0x1F ADD PUSH1 0x20 SWAP1 DIV DUP2 ADD SWAP3 DUP3 PUSH2 0x237B JUMPI PUSH1 0x0 DUP6 SSTORE PUSH2 0x23C2 JUMP JUMPDEST DUP3 PUSH1 0x1F LT PUSH2 0x2394 JUMPI DUP1 MLOAD PUSH1 0xFF NOT AND DUP4 DUP1 ADD OR DUP6 SSTORE PUSH2 0x23C2 JUMP JUMPDEST DUP3 DUP1 ADD PUSH1 0x1 ADD DUP6 SSTORE DUP3 ISZERO PUSH2 0x23C2 JUMPI SWAP2 DUP3 ADD JUMPDEST DUP3 DUP2 GT ISZERO PUSH2 0x23C1 JUMPI DUP3 MLOAD DUP3 SSTORE SWAP2 PUSH1 0x20 ADD SWAP2 SWAP1 PUSH1 0x1 ADD SWAP1 PUSH2 0x23A6 JUMP JUMPDEST JUMPDEST POP SWAP1 POP PUSH2 0x23CF SWAP2 SWAP1 PUSH2 0x23D3 JUMP JUMPDEST POP SWAP1 JUMP JUMPDEST JUMPDEST DUP1 DUP3 GT ISZERO PUSH2 0x23EC JUMPI PUSH1 0x0 DUP2 PUSH1 0x0 SWAP1 SSTORE POP PUSH1 0x1 ADD PUSH2 0x23D4 JUMP JUMPDEST POP SWAP1 JUMP JUMPDEST PUSH1 0x0 PUSH1 0x40 MLOAD SWAP1 POP SWAP1 JUMP JUMPDEST PUSH1 0x0 DUP1 REVERT JUMPDEST PUSH1 0x0 DUP1 REVERT JUMPDEST PUSH1 0x0 PUSH32 0xFFFFFFFF00000000000000000000000000000000000000000000000000000000 DUP3 AND SWAP1 POP SWAP2 SWAP1 POP JUMP JUMPDEST PUSH2 0x2439 DUP2 PUSH2 0x2404 JUMP JUMPDEST DUP2 EQ PUSH2 0x2444 JUMPI PUSH1 0x0 DUP1 REVERT JUMPDEST POP JUMP JUMPDEST PUSH1 0x0 DUP2 CALLDATALOAD SWAP1 POP PUSH2 0x2456 DUP2 PUSH2 0x2430 JUMP JUMPDEST SWAP3 SWAP2 POP POP JUMP JUMPDEST PUSH1 0x0 PUSH1 0x20 DUP3 DUP5 SUB SLT ISZERO PUSH2 0x2472 JUMPI PUSH2 0x2471 PUSH2 0x23FA JUMP JUMPDEST JUMPDEST PUSH1 0x0 PUSH2 0x2480 DUP5 DUP3 DUP6 ADD PUSH2 0x2447 JUMP JUMPDEST SWAP2 POP POP SWAP3 SWAP2 POP POP JUMP JUMPDEST PUSH1 0x0 DUP2 ISZERO ISZERO SWAP1 POP SWAP2 SWAP1 POP JUMP JUMPDEST PUSH2 0x249E DUP2 PUSH2 0x2489 JUMP JUMPDEST DUP3 MSTORE POP POP JUMP JUMPDEST PUSH1 0x0 PUSH1 0x20 DUP3 ADD SWAP1 POP PUSH2 0x24B9 PUSH1 0x0 DUP4 ADD DUP5 PUSH2 0x2495 JUMP JUMPDEST SWAP3 SWAP2 POP POP JUMP JUMPDEST PUSH1 0x0 DUP2 MLOAD SWAP1 POP SWAP2 SWAP1 POP JUMP JUMPDEST PUSH1 0x0 DUP3 DUP3 MSTORE PUSH1 0x20 DUP3 ADD SWAP1 POP SWAP3 SWAP2 POP POP JUMP JUMPDEST PUSH1 0x0 JUMPDEST DUP4 DUP2 LT ISZERO PUSH2 0x24F9 JUMPI DUP1 DUP3 ADD MLOAD DUP2 DUP5 ADD MSTORE PUSH1 0x20 DUP2 ADD SWAP1 POP PUSH2 0x24DE JUMP JUMPDEST DUP4 DUP2 GT ISZERO PUSH2 0x2508 JUMPI PUSH1 0x0 DUP5 DUP5 ADD MSTORE JUMPDEST POP POP POP POP JUMP JUMPDEST PUSH1 0x0 PUSH1 0x1F NOT PUSH1 0x1F DUP4 ADD AND SWAP1 POP SWAP2 SWAP1 POP JUMP JUMPDEST PUSH1 0x0 PUSH2 0x252A DUP3 PUSH2 0x24BF JUMP JUMPDEST PUSH2 0x2534 DUP2 DUP6 PUSH2 0x24CA JUMP JUMPDEST SWAP4 POP PUSH2 0x2544 DUP2 DUP6 PUSH1 0x20 DUP7 ADD PUSH2 0x24DB JUMP JUMPDEST PUSH2 0x254D DUP2 PUSH2 0x250E JUMP JUMPDEST DUP5 ADD SWAP2 POP POP SWAP3 SWAP2 POP POP JUMP JUMPDEST PUSH1 0x0 PUSH1 0x20 DUP3 ADD SWAP1 POP DUP2 DUP2 SUB PUSH1 0x0 DUP4 ADD MSTORE PUSH2 0x2572 DUP2 DUP5 PUSH2 0x251F JUMP JUMPDEST SWAP1 POP SWAP3 SWAP2 POP POP JUMP JUMPDEST PUSH1 0x0 DUP2 SWAP1 POP SWAP2 SWAP1 POP JUMP JUMPDEST PUSH2 0x258D DUP2 PUSH2 0x257A JUMP JUMPDEST DUP2 EQ PUSH2 0x2598 JUMPI PUSH1 0x0 DUP1 REVERT JUMPDEST POP JUMP JUMPDEST PUSH1 0x0 DUP2 CALLDATALOAD SWAP1 POP PUSH2 0x25AA DUP2 PUSH2 0x2584 JUMP JUMPDEST SWAP3 SWAP2 POP POP JUMP JUMPDEST PUSH1 0x0 PUSH1 0x20 DUP3 DUP5 SUB SLT ISZERO PUSH2 0x25C6 JUMPI PUSH2 0x25C5 PUSH2 0x23FA JUMP JUMPDEST JUMPDEST PUSH1 0x0 PUSH2 0x25D4 DUP5 DUP3 DUP6 ADD PUSH2 0x259B JUMP JUMPDEST SWAP2 POP POP SWAP3 SWAP2 POP POP JUMP JUMPDEST PUSH1 0x0 PUSH20 0xFFFFFFFFFFFFFFFFFFFFFFFFFFFFFFFFFFFFFFFF DUP3 AND SWAP1 POP SWAP2 SWAP1 POP JUMP JUMPDEST PUSH1 0x0 PUSH2 0x2608 DUP3 PUSH2 0x25DD JUMP JUMPDEST SWAP1 POP SWAP2 SWAP1 POP JUMP JUMPDEST PUSH2 0x2618 DUP2 PUSH2 0x25FD JUMP JUMPDEST DUP3 MSTORE POP POP JUMP JUMPDEST PUSH1 0x0 PUSH1 0x20 DUP3 ADD SWAP1 POP PUSH2 0x2633 PUSH1 0x0 DUP4 ADD DUP5 PUSH2 0x260F JUMP JUMPDEST SWAP3 SWAP2 POP POP JUMP JUMPDEST PUSH2 0x2642 DUP2 PUSH2 0x25FD JUMP JUMPDEST DUP2 EQ PUSH2 0x264D JUMPI PUSH1 0x0 DUP1 REVERT JUMPDEST POP JUMP JUMPDEST PUSH1 0x0 DUP2 CALLDATALOAD SWAP1 POP PUSH2 0x265F DUP2 PUSH2 0x2639 JUMP JUMPDEST SWAP3 SWAP2 POP POP JUMP JUMPDEST PUSH1 0x0 DUP1 PUSH1 0x40 DUP4 DUP6 SUB SLT ISZERO PUSH2 0x267C JUMPI PUSH2 0x267B PUSH2 0x23FA JUMP JUMPDEST JUMPDEST PUSH1 0x0 PUSH2 0x268A DUP6 DUP3 DUP7 ADD PUSH2 0x2650 JUMP JUMPDEST SWAP3 POP POP PUSH1 0x20 PUSH2 0x269B DUP6 DUP3 DUP7 ADD PUSH2 0x259B JUMP JUMPDEST SWAP2 POP POP SWAP3 POP SWAP3 SWAP1 POP JUMP JUMPDEST PUSH1 0x0 DUP1 PUSH1 0x0 PUSH1 0x60 DUP5 DUP7 SUB SLT ISZERO PUSH2 0x26BE JUMPI PUSH2 0x26BD PUSH2 0x23FA JUMP JUMPDEST JUMPDEST PUSH1 0x0 PUSH2 0x26CC DUP7 DUP3 DUP8 ADD PUSH2 0x2650 JUMP JUMPDEST SWAP4 POP POP PUSH1 0x20 PUSH2 0x26DD DUP7 DUP3 DUP8 ADD PUSH2 0x2650 JUMP JUMPDEST SWAP3 POP POP PUSH1 0x40 PUSH2 0x26EE DUP7 DUP3 DUP8 ADD PUSH2 0x259B JUMP JUMPDEST SWAP2 POP POP SWAP3 POP SWAP3 POP SWAP3 JUMP JUMPDEST PUSH1 0x0 DUP2 SWAP1 POP SWAP2 SWAP1 POP JUMP JUMPDEST PUSH2 0x270B DUP2 PUSH2 0x26F8 JUMP JUMPDEST DUP2 EQ PUSH2 0x2716 JUMPI PUSH1 0x0 DUP1 REVERT JUMPDEST POP JUMP JUMPDEST PUSH1 0x0 DUP2 CALLDATALOAD SWAP1 POP PUSH2 0x2728 DUP2 PUSH2 0x2702 JUMP JUMPDEST SWAP3 SWAP2 POP POP JUMP JUMPDEST PUSH1 0x0 PUSH1 0x20 DUP3 DUP5 SUB SLT ISZERO PUSH2 0x2744 JUMPI PUSH2 0x2743 PUSH2 0x23FA JUMP JUMPDEST JUMPDEST PUSH1 0x0 PUSH2 0x2752 DUP5 DUP3 DUP6 ADD PUSH2 0x2719 JUMP JUMPDEST SWAP2 POP POP SWAP3 SWAP2 POP POP JUMP JUMPDEST PUSH2 0x2764 DUP2 PUSH2 0x26F8 JUMP JUMPDEST DUP3 MSTORE POP POP JUMP JUMPDEST PUSH1 0x0 PUSH1 0x20 DUP3 ADD SWAP1 POP PUSH2 0x277F PUSH1 0x0 DUP4 ADD DUP5 PUSH2 0x275B JUMP JUMPDEST SWAP3 SWAP2 POP POP JUMP JUMPDEST PUSH1 0x0 DUP1 PUSH1 0x40 DUP4 DUP6 SUB SLT ISZERO PUSH2 0x279C JUMPI PUSH2 0x279B PUSH2 0x23FA JUMP JUMPDEST JUMPDEST PUSH1 0x0 PUSH2 0x27AA DUP6 DUP3 DUP7 ADD PUSH2 0x2719 JUMP JUMPDEST SWAP3 POP POP PUSH1 0x20 PUSH2 0x27BB DUP6 DUP3 DUP7 ADD PUSH2 0x2650 JUMP JUMPDEST SWAP2 POP POP SWAP3 POP SWAP3 SWAP1 POP JUMP JUMPDEST PUSH1 0x0 DUP1 REVERT JUMPDEST PUSH1 0x0 DUP1 REVERT JUMPDEST PUSH32 0x4E487B7100000000000000000000000000000000000000000000000000000000 PUSH1 0x0 MSTORE PUSH1 0x41 PUSH1 0x4 MSTORE PUSH1 0x24 PUSH1 0x0 REVERT JUMPDEST PUSH2 0x2807 DUP3 PUSH2 0x250E JUMP JUMPDEST DUP2 ADD DUP2 DUP2 LT PUSH8 0xFFFFFFFFFFFFFFFF DUP3 GT OR ISZERO PUSH2 0x2826 JUMPI PUSH2 0x2825 PUSH2 0x27CF JUMP JUMPDEST JUMPDEST DUP1 PUSH1 0x40 MSTORE POP POP POP JUMP JUMPDEST PUSH1 0x0 PUSH2 0x2839 PUSH2 0x23F0 JUMP JUMPDEST SWAP1 POP PUSH2 0x2845 DUP3 DUP3 PUSH2 0x27FE JUMP JUMPDEST SWAP2 SWAP1 POP JUMP JUMPDEST PUSH1 0x0 PUSH8 0xFFFFFFFFFFFFFFFF DUP3 GT ISZERO PUSH2 0x2865 JUMPI PUSH2 0x2864 PUSH2 0x27CF JUMP JUMPDEST JUMPDEST PUSH2 0x286E DUP3 PUSH2 0x250E JUMP JUMPDEST SWAP1 POP PUSH1 0x20 DUP2 ADD SWAP1 POP SWAP2 SWAP1 POP JUMP JUMPDEST DUP3 DUP2 DUP4 CALLDATACOPY PUSH1 0x0 DUP4 DUP4 ADD MSTORE POP POP POP JUMP JUMPDEST PUSH1 0x0 PUSH2 0x289D PUSH2 0x2898 DUP5 PUSH2 0x284A JUMP JUMPDEST PUSH2 0x282F JUMP JUMPDEST SWAP1 POP DUP3 DUP2 MSTORE PUSH1 0x20 DUP2 ADD DUP5 DUP5 DUP5 ADD GT ISZERO PUSH2 0x28B9 JUMPI PUSH2 0x28B8 PUSH2 0x27CA JUMP JUMPDEST JUMPDEST PUSH2 0x28C4 DUP5 DUP3 DUP6 PUSH2 0x287B JUMP JUMPDEST POP SWAP4 SWAP3 POP POP POP JUMP JUMPDEST PUSH1 0x0 DUP3 PUSH1 0x1F DUP4 ADD SLT PUSH2 0x28E1 JUMPI PUSH2 0x28E0 PUSH2 0x27C5 JUMP JUMPDEST JUMPDEST DUP2 CALLDATALOAD PUSH2 0x28F1 DUP5 DUP3 PUSH1 0x20 DUP7 ADD PUSH2 0x288A JUMP JUMPDEST SWAP2 POP POP SWAP3 SWAP2 POP POP JUMP JUMPDEST PUSH1 0x0 PUSH1 0x20 DUP3 DUP5 SUB SLT ISZERO PUSH2 0x2910 JUMPI PUSH2 0x290F PUSH2 0x23FA JUMP JUMPDEST JUMPDEST PUSH1 0x0 DUP3 ADD CALLDATALOAD PUSH8 0xFFFFFFFFFFFFFFFF DUP2 GT ISZERO PUSH2 0x292E JUMPI PUSH2 0x292D PUSH2 0x23FF JUMP JUMPDEST JUMPDEST PUSH2 0x293A DUP5 DUP3 DUP6 ADD PUSH2 0x28CC JUMP JUMPDEST SWAP2 POP POP SWAP3 SWAP2 POP POP JUMP JUMPDEST PUSH1 0x0 PUSH1 0x20 DUP3 DUP5 SUB SLT ISZERO PUSH2 0x2959 JUMPI PUSH2 0x2958 PUSH2 0x23FA JUMP JUMPDEST JUMPDEST PUSH1 0x0 PUSH2 0x2967 DUP5 DUP3 DUP6 ADD PUSH2 0x2650 JUMP JUMPDEST SWAP2 POP POP SWAP3 SWAP2 POP POP JUMP JUMPDEST PUSH2 0x2979 DUP2 PUSH2 0x257A JUMP JUMPDEST DUP3 MSTORE POP POP JUMP JUMPDEST PUSH1 0x0 PUSH1 0x20 DUP3 ADD SWAP1 POP PUSH2 0x2994 PUSH1 0x0 DUP4 ADD DUP5 PUSH2 0x2970 JUMP JUMPDEST SWAP3 SWAP2 POP POP JUMP JUMPDEST PUSH2 0x29A3 DUP2 PUSH2 0x2489 JUMP JUMPDEST DUP2 EQ PUSH2 0x29AE JUMPI PUSH1 0x0 DUP1 REVERT JUMPDEST POP JUMP JUMPDEST PUSH1 0x0 DUP2 CALLDATALOAD SWAP1 POP PUSH2 0x29C0 DUP2 PUSH2 0x299A JUMP JUMPDEST SWAP3 SWAP2 POP POP JUMP JUMPDEST PUSH1 0x0 DUP1 PUSH1 0x40 DUP4 DUP6 SUB SLT ISZERO PUSH2 0x29DD JUMPI PUSH2 0x29DC PUSH2 0x23FA JUMP JUMPDEST JUMPDEST PUSH1 0x0 PUSH2 0x29EB DUP6 DUP3 DUP7 ADD PUSH2 0x2650 JUMP JUMPDEST SWAP3 POP POP PUSH1 0x20 PUSH2 0x29FC DUP6 DUP3 DUP7 ADD PUSH2 0x29B1 JUMP JUMPDEST SWAP2 POP POP SWAP3 POP SWAP3 SWAP1 POP JUMP JUMPDEST PUSH1 0x0 PUSH8 0xFFFFFFFFFFFFFFFF DUP3 GT ISZERO PUSH2 0x2A21 JUMPI PUSH2 0x2A20 PUSH2 0x27CF JUMP JUMPDEST JUMPDEST PUSH2 0x2A2A DUP3 PUSH2 0x250E JUMP JUMPDEST SWAP1 POP PUSH1 0x20 DUP2 ADD SWAP1 POP SWAP2 SWAP1 POP JUMP JUMPDEST PUSH1 0x0 PUSH2 0x2A4A PUSH2 0x2A45 DUP5 PUSH2 0x2A06 JUMP JUMPDEST PUSH2 0x282F JUMP JUMPDEST SWAP1 POP DUP3 DUP2 MSTORE PUSH1 0x20 DUP2 ADD DUP5 DUP5 DUP5 ADD GT ISZERO PUSH2 0x2A66 JUMPI PUSH2 0x2A65 PUSH2 0x27CA JUMP JUMPDEST JUMPDEST PUSH2 0x2A71 DUP5 DUP3 DUP6 PUSH2 0x287B JUMP JUMPDEST POP SWAP4 SWAP3 POP POP POP JUMP JUMPDEST PUSH1 0x0 DUP3 PUSH1 0x1F DUP4 ADD SLT PUSH2 0x2A8E JUMPI PUSH2 0x2A8D PUSH2 0x27C5 JUMP JUMPDEST JUMPDEST DUP2 CALLDATALOAD PUSH2 0x2A9E DUP5 DUP3 PUSH1 0x20 DUP7 ADD PUSH2 0x2A37 JUMP JUMPDEST SWAP2 POP POP SWAP3 SWAP2 POP POP JUMP JUMPDEST PUSH1 0x0 DUP1 PUSH1 0x0 DUP1 PUSH1 0x80 DUP6 DUP8 SUB SLT ISZERO PUSH2 0x2AC1 JUMPI PUSH2 0x2AC0 PUSH2 0x23FA JUMP JUMPDEST JUMPDEST PUSH1 0x0 PUSH2 0x2ACF DUP8 DUP3 DUP9 ADD PUSH2 0x2650 JUMP JUMPDEST SWAP5 POP POP PUSH1 0x20 PUSH2 0x2AE0 DUP8 DUP3 DUP9 ADD PUSH2 0x2650 JUMP JUMPDEST SWAP4 POP POP PUSH1 0x40 PUSH2 0x2AF1 DUP8 DUP3 DUP9 ADD PUSH2 0x259B JUMP JUMPDEST SWAP3 POP POP PUSH1 0x60 DUP6 ADD CALLDATALOAD PUSH8 0xFFFFFFFFFFFFFFFF DUP2 GT ISZERO PUSH2 0x2B12 JUMPI PUSH2 0x2B11 PUSH2 0x23FF JUMP JUMPDEST JUMPDEST PUSH2 0x2B1E DUP8 DUP3 DUP9 ADD PUSH2 0x2A79 JUMP JUMPDEST SWAP2 POP POP SWAP3 SWAP6 SWAP2 SWAP5 POP SWAP3 POP JUMP JUMPDEST PUSH1 0x0 DUP1 PUSH1 0x0 DUP1 PUSH1 0x0 DUP1 PUSH1 0x0 DUP1 PUSH1 0x0 PUSH2 0x120 DUP11 DUP13 SUB SLT ISZERO PUSH2 0x2B4D JUMPI PUSH2 0x2B4C PUSH2 0x23FA JUMP JUMPDEST JUMPDEST PUSH1 0x0 PUSH2 0x2B5B DUP13 DUP3 DUP14 ADD PUSH2 0x2650 JUMP JUMPDEST SWAP10 POP POP PUSH1 0x20 DUP11 ADD CALLDATALOAD PUSH8 0xFFFFFFFFFFFFFFFF DUP2 GT ISZERO PUSH2 0x2B7C JUMPI PUSH2 0x2B7B PUSH2 0x23FF JUMP JUMPDEST JUMPDEST PUSH2 0x2B88 DUP13 DUP3 DUP14 ADD PUSH2 0x28CC JUMP JUMPDEST SWAP9 POP POP PUSH1 0x40 DUP11 ADD CALLDATALOAD PUSH8 0xFFFFFFFFFFFFFFFF DUP2 GT ISZERO PUSH2 0x2BA9 JUMPI PUSH2 0x2BA8 PUSH2 0x23FF JUMP JUMPDEST JUMPDEST PUSH2 0x2BB5 DUP13 DUP3 DUP14 ADD PUSH2 0x28CC JUMP JUMPDEST SWAP8 POP POP PUSH1 0x60 DUP11 ADD CALLDATALOAD PUSH8 0xFFFFFFFFFFFFFFFF DUP2 GT ISZERO PUSH2 0x2BD6 JUMPI PUSH2 0x2BD5 PUSH2 0x23FF JUMP JUMPDEST JUMPDEST PUSH2 0x2BE2 DUP13 DUP3 DUP14 ADD PUSH2 0x28CC JUMP JUMPDEST SWAP7 POP POP PUSH1 0x80 DUP11 ADD CALLDATALOAD PUSH8 0xFFFFFFFFFFFFFFFF DUP2 GT ISZERO PUSH2 0x2C03 JUMPI PUSH2 0x2C02 PUSH2 0x23FF JUMP JUMPDEST JUMPDEST PUSH2 0x2C0F DUP13 DUP3 DUP14 ADD PUSH2 0x28CC JUMP JUMPDEST SWAP6 POP POP PUSH1 0xA0 DUP11 ADD CALLDATALOAD PUSH8 0xFFFFFFFFFFFFFFFF DUP2 GT ISZERO PUSH2 0x2C30 JUMPI PUSH2 0x2C2F PUSH2 0x23FF JUMP JUMPDEST JUMPDEST PUSH2 0x2C3C DUP13 DUP3 DUP14 ADD PUSH2 0x28CC JUMP JUMPDEST SWAP5 POP POP PUSH1 0xC0 DUP11 ADD CALLDATALOAD PUSH8 0xFFFFFFFFFFFFFFFF DUP2 GT ISZERO PUSH2 0x2C5D JUMPI PUSH2 0x2C5C PUSH2 0x23FF JUMP JUMPDEST JUMPDEST PUSH2 0x2C69 DUP13 DUP3 DUP14 ADD PUSH2 0x28CC JUMP JUMPDEST SWAP4 POP POP PUSH1 0xE0 DUP11 ADD CALLDATALOAD PUSH8 0xFFFFFFFFFFFFFFFF DUP2 GT ISZERO PUSH2 0x2C8A JUMPI PUSH2 0x2C89 PUSH2 0x23FF JUMP JUMPDEST JUMPDEST PUSH2 0x2C96 DUP13 DUP3 DUP14 ADD PUSH2 0x28CC JUMP JUMPDEST SWAP3 POP POP PUSH2 0x100 PUSH2 0x2CA8 DUP13 DUP3 DUP14 ADD PUSH2 0x259B JUMP JUMPDEST SWAP2 POP POP SWAP3 SWAP6 SWAP9 POP SWAP3 SWAP6 SWAP9 POP SWAP3 SWAP6 SWAP9 JUMP JUMPDEST PUSH1 0x0 DUP1 PUSH1 0x40 DUP4 DUP6 SUB SLT ISZERO PUSH2 0x2CCF JUMPI PUSH2 0x2CCE PUSH2 0x23FA JUMP JUMPDEST JUMPDEST PUSH1 0x0 PUSH2 0x2CDD DUP6 DUP3 DUP7 ADD PUSH2 0x2650 JUMP JUMPDEST SWAP3 POP POP PUSH1 0x20 PUSH2 0x2CEE DUP6 DUP3 DUP7 ADD PUSH2 0x2650 JUMP JUMPDEST SWAP2 POP POP SWAP3 POP SWAP3 SWAP1 POP JUMP JUMPDEST PUSH32 0x4E487B7100000000000000000000000000000000000000000000000000000000 PUSH1 0x0 MSTORE PUSH1 0x22 PUSH1 0x4 MSTORE PUSH1 0x24 PUSH1 0x0 REVERT JUMPDEST PUSH1 0x0 PUSH1 0x2 DUP3 DIV SWAP1 POP PUSH1 0x1 DUP3 AND DUP1 PUSH2 0x2D3F JUMPI PUSH1 0x7F DUP3 AND SWAP2 POP JUMPDEST PUSH1 0x20 DUP3 LT DUP2 EQ ISZERO PUSH2 0x2D53 JUMPI PUSH2 0x2D52 PUSH2 0x2CF8 JUMP JUMPDEST JUMPDEST POP SWAP2 SWAP1 POP JUMP JUMPDEST PUSH1 0x0 DUP2 SWAP1 POP SWAP3 SWAP2 POP POP JUMP JUMPDEST PUSH1 0x0 PUSH2 0x2D6F DUP3 PUSH2 0x24BF JUMP JUMPDEST PUSH2 0x2D79 DUP2 DUP6 PUSH2 0x2D59 JUMP JUMPDEST SWAP4 POP PUSH2 0x2D89 DUP2 DUP6 PUSH1 0x20 DUP7 ADD PUSH2 0x24DB JUMP JUMPDEST DUP1 DUP5 ADD SWAP2 POP POP SWAP3 SWAP2 POP POP JUMP JUMPDEST PUSH32 0x53454C4543542532302A25323046524F4D253230000000000000000000000000 DUP2 MSTORE POP JUMP JUMPDEST PUSH1 0x0 DUP2 SWAP1 POP DUP2 PUSH1 0x0 MSTORE PUSH1 0x20 PUSH1 0x0 KECCAK256 SWAP1 POP SWAP2 SWAP1 POP JUMP JUMPDEST PUSH1 0x0 DUP2 SLOAD PUSH2 0x2DDD DUP2 PUSH2 0x2D27 JUMP JUMPDEST PUSH2 0x2DE7 DUP2 DUP7 PUSH2 0x2D59 JUMP JUMPDEST SWAP5 POP PUSH1 0x1 DUP3 AND PUSH1 0x0 DUP2 EQ PUSH2 0x2E02 JUMPI PUSH1 0x1 DUP2 EQ PUSH2 0x2E13 JUMPI PUSH2 0x2E46 JUMP JUMPDEST PUSH1 0xFF NOT DUP4 AND DUP7 MSTORE DUP2 DUP7 ADD SWAP4 POP PUSH2 0x2E46 JUMP JUMPDEST PUSH2 0x2E1C DUP6 PUSH2 0x2DBB JUMP JUMPDEST PUSH1 0x0 JUMPDEST DUP4 DUP2 LT ISZERO PUSH2 0x2E3E JUMPI DUP2 SLOAD DUP2 DUP10 ADD MSTORE PUSH1 0x1 DUP3 ADD SWAP2 POP PUSH1 0x20 DUP2 ADD SWAP1 POP PUSH2 0x2E1F JUMP JUMPDEST DUP4 DUP9 ADD SWAP6 POP POP POP JUMPDEST POP POP POP SWAP3 SWAP2 POP POP JUMP JUMPDEST PUSH1 0x0 PUSH2 0x2E5B DUP3 DUP6 PUSH2 0x2D64 JUMP JUMPDEST SWAP2 POP PUSH2 0x2E66 DUP3 PUSH2 0x2D95 JUMP JUMPDEST PUSH1 0x14 DUP3 ADD SWAP2 POP PUSH2 0x2E76 DUP3 DUP5 PUSH2 0x2DD0 JUMP JUMPDEST SWAP2 POP DUP2 SWAP1 POP SWAP4 SWAP3 POP POP POP JUMP JUMPDEST PUSH32 0x4552433732313A20617070726F76616C20746F2063757272656E74206F776E65 PUSH1 0x0 DUP3 ADD MSTORE PUSH32 0x7200000000000000000000000000000000000000000000000000000000000000 PUSH1 0x20 DUP3 ADD MSTORE POP JUMP JUMPDEST PUSH1 0x0 PUSH2 0x2EDE PUSH1 0x21 DUP4 PUSH2 0x24CA JUMP JUMPDEST SWAP2 POP PUSH2 0x2EE9 DUP3 PUSH2 0x2E82 JUMP JUMPDEST PUSH1 0x40 DUP3 ADD SWAP1 POP SWAP2 SWAP1 POP JUMP JUMPDEST PUSH1 0x0 PUSH1 0x20 DUP3 ADD SWAP1 POP DUP2 DUP2 SUB PUSH1 0x0 DUP4 ADD MSTORE PUSH2 0x2F0D DUP2 PUSH2 0x2ED1 JUMP JUMPDEST SWAP1 POP SWAP2 SWAP1 POP JUMP JUMPDEST PUSH32 0x4552433732313A20617070726F76652063616C6C6572206973206E6F7420746F PUSH1 0x0 DUP3 ADD MSTORE PUSH32 0x6B656E206F776E6572206E6F7220617070726F76656420666F7220616C6C0000 PUSH1 0x20 DUP3 ADD MSTORE POP JUMP JUMPDEST PUSH1 0x0 PUSH2 0x2F70 PUSH1 0x3E DUP4 PUSH2 0x24CA JUMP JUMPDEST SWAP2 POP PUSH2 0x2F7B DUP3 PUSH2 0x2F14 JUMP JUMPDEST PUSH1 0x40 DUP3 ADD SWAP1 POP SWAP2 SWAP1 POP JUMP JUMPDEST PUSH1 0x0 PUSH1 0x20 DUP3 ADD SWAP1 POP DUP2 DUP2 SUB PUSH1 0x0 DUP4 ADD MSTORE PUSH2 0x2F9F DUP2 PUSH2 0x2F63 JUMP JUMPDEST SWAP1 POP SWAP2 SWAP1 POP JUMP JUMPDEST PUSH32 0x4552433732313A2063616C6C6572206973206E6F7420746F6B656E206F776E65 PUSH1 0x0 DUP3 ADD MSTORE PUSH32 0x72206E6F7220617070726F766564000000000000000000000000000000000000 PUSH1 0x20 DUP3 ADD MSTORE POP JUMP JUMPDEST PUSH1 0x0 PUSH2 0x3002 PUSH1 0x2E DUP4 PUSH2 0x24CA JUMP JUMPDEST SWAP2 POP PUSH2 0x300D DUP3 PUSH2 0x2FA6 JUMP JUMPDEST PUSH1 0x40 DUP3 ADD SWAP1 POP SWAP2 SWAP1 POP JUMP JUMPDEST PUSH1 0x0 PUSH1 0x20 DUP3 ADD SWAP1 POP DUP2 DUP2 SUB PUSH1 0x0 DUP4 ADD MSTORE PUSH2 0x3031 DUP2 PUSH2 0x2FF5 JUMP JUMPDEST SWAP1 POP SWAP2 SWAP1 POP JUMP JUMPDEST PUSH32 0x416363657373436F6E74726F6C3A2063616E206F6E6C792072656E6F756E6365 PUSH1 0x0 DUP3 ADD MSTORE PUSH32 0x20726F6C657320666F722073656C660000000000000000000000000000000000 PUSH1 0x20 DUP3 ADD MSTORE POP JUMP JUMPDEST PUSH1 0x0 PUSH2 0x3094 PUSH1 0x2F DUP4 PUSH2 0x24CA JUMP JUMPDEST SWAP2 POP PUSH2 0x309F DUP3 PUSH2 0x3038 JUMP JUMPDEST PUSH1 0x40 DUP3 ADD SWAP1 POP SWAP2 SWAP1 POP JUMP JUMPDEST PUSH1 0x0 PUSH1 0x20 DUP3 ADD SWAP1 POP DUP2 DUP2 SUB PUSH1 0x0 DUP4 ADD MSTORE PUSH2 0x30C3 DUP2 PUSH2 0x3087 JUMP JUMPDEST SWAP1 POP SWAP2 SWAP1 POP JUMP JUMPDEST PUSH32 0x4552433732313A20696E76616C696420746F6B656E2049440000000000000000 PUSH1 0x0 DUP3 ADD MSTORE POP JUMP JUMPDEST PUSH1 0x0 PUSH2 0x3100 PUSH1 0x18 DUP4 PUSH2 0x24CA JUMP JUMPDEST SWAP2 POP PUSH2 0x310B DUP3 PUSH2 0x30CA JUMP JUMPDEST PUSH1 0x20 DUP3 ADD SWAP1 POP SWAP2 SWAP1 POP JUMP JUMPDEST PUSH1 0x0 PUSH1 0x20 DUP3 ADD SWAP1 POP DUP2 DUP2 SUB PUSH1 0x0 DUP4 ADD MSTORE PUSH2 0x312F DUP2 PUSH2 0x30F3 JUMP JUMPDEST SWAP1 POP SWAP2 SWAP1 POP JUMP JUMPDEST PUSH32 0x4552433732313A2061646472657373207A65726F206973206E6F742061207661 PUSH1 0x0 DUP3 ADD MSTORE PUSH32 0x6C6964206F776E65720000000000000000000000000000000000000000000000 PUSH1 0x20 DUP3 ADD MSTORE POP JUMP JUMPDEST PUSH1 0x0 PUSH2 0x3192 PUSH1 0x29 DUP4 PUSH2 0x24CA JUMP JUMPDEST SWAP2 POP PUSH2 0x319D DUP3 PUSH2 0x3136 JUMP JUMPDEST PUSH1 0x40 DUP3 ADD SWAP1 POP SWAP2 SWAP1 POP JUMP JUMPDEST PUSH1 0x0 PUSH1 0x20 DUP3 ADD SWAP1 POP DUP2 DUP2 SUB PUSH1 0x0 DUP4 ADD MSTORE PUSH2 0x31C1 DUP2 PUSH2 0x3185 JUMP JUMPDEST SWAP1 POP SWAP2 SWAP1 POP JUMP JUMPDEST PUSH32 0x4552433732314D657461646174613A2055524920717565727920666F72206E6F PUSH1 0x0 DUP3 ADD MSTORE PUSH32 0x6E6578697374656E7420746F6B656E0000000000000000000000000000000000 PUSH1 0x20 DUP3 ADD MSTORE POP JUMP JUMPDEST PUSH1 0x0 PUSH2 0x3224 PUSH1 0x2F DUP4 PUSH2 0x24CA JUMP JUMPDEST SWAP2 POP PUSH2 0x322F DUP3 PUSH2 0x31C8 JUMP JUMPDEST PUSH1 0x40 DUP3 ADD SWAP1 POP SWAP2 SWAP1 POP JUMP JUMPDEST PUSH1 0x0 PUSH1 0x20 DUP3 ADD SWAP1 POP DUP2 DUP2 SUB PUSH1 0x0 DUP4 ADD MSTORE PUSH2 0x3253 DUP2 PUSH2 0x3217 JUMP JUMPDEST SWAP1 POP SWAP2 SWAP1 POP JUMP JUMPDEST PUSH32 0x53454C4543542532306A736F6E5F6F626A656374253238253237696425323725 PUSH1 0x0 DUP3 ADD MSTORE PUSH32 0x3243746F6B656E69642532432532376E616D652532372532436E616D65253243 PUSH1 0x20 DUP3 ADD MSTORE PUSH32 0x2532376465736372697074696F6E2532372532436465736372697074696F6E25 PUSH1 0x40 DUP3 ADD MSTORE PUSH32 0x3243253237696D616765253237253243696D6167652532432532376578746572 PUSH1 0x60 DUP3 ADD MSTORE PUSH32 0x6E616C5F75726C25323725324365787465726E616C5F75726C25324325323761 PUSH1 0x80 DUP3 ADD MSTORE PUSH32 0x7474726962757465732532372532436A736F6E5F67726F75705F617272617925 PUSH1 0xA0 DUP3 ADD MSTORE PUSH32 0x32386A736F6E5F6F626A65637425323825323769636F6E25323725324369636F PUSH1 0xC0 DUP3 ADD MSTORE PUSH32 0x6E253243253237646973706C61795F74797065253237253243646973706C6179 PUSH1 0xE0 DUP3 ADD MSTORE PUSH32 0x5F7479706525324325323774726169745F747970652532372532437472616974 PUSH2 0x100 DUP3 ADD MSTORE PUSH32 0x5F7479706525324325323776616C756525323725324376616C75652532392532 PUSH2 0x120 DUP3 ADD MSTORE PUSH32 0x3925323925323046524F4D253230000000000000000000000000000000000000 PUSH2 0x140 DUP3 ADD MSTORE POP JUMP JUMPDEST PUSH1 0x0 PUSH2 0x3410 PUSH2 0x14E DUP4 PUSH2 0x2D59 JUMP JUMPDEST SWAP2 POP PUSH2 0x341B DUP3 PUSH2 0x325A JUMP JUMPDEST PUSH2 0x14E DUP3 ADD SWAP1 POP SWAP2 SWAP1 POP JUMP JUMPDEST PUSH32 0x2532304A4F494E25323000000000000000000000000000000000000000000000 PUSH1 0x0 DUP3 ADD MSTORE POP JUMP JUMPDEST PUSH1 0x0 PUSH2 0x345D PUSH1 0xA DUP4 PUSH2 0x2D59 JUMP JUMPDEST SWAP2 POP PUSH2 0x3468 DUP3 PUSH2 0x3427 JUMP JUMPDEST PUSH1 0xA DUP3 ADD SWAP1 POP SWAP2 SWAP1 POP JUMP JUMPDEST PUSH32 0x2532304F4E253230000000000000000000000000000000000000000000000000 PUSH1 0x0 DUP3 ADD MSTORE POP JUMP JUMPDEST PUSH1 0x0 PUSH2 0x34A9 PUSH1 0x8 DUP4 PUSH2 0x2D59 JUMP JUMPDEST SWAP2 POP PUSH2 0x34B4 DUP3 PUSH2 0x3473 JUMP JUMPDEST PUSH1 0x8 DUP3 ADD SWAP1 POP SWAP2 SWAP1 POP JUMP JUMPDEST PUSH32 0x253245746F6B656E696425323025334425323000000000000000000000000000 PUSH1 0x0 DUP3 ADD MSTORE POP JUMP JUMPDEST PUSH1 0x0 PUSH2 0x34F5 PUSH1 0x13 DUP4 PUSH2 0x2D59 JUMP JUMPDEST SWAP2 POP PUSH2 0x3500 DUP3 PUSH2 0x34BF JUMP JUMPDEST PUSH1 0x13 DUP3 ADD SWAP1 POP SWAP2 SWAP1 POP JUMP JUMPDEST PUSH32 0x2532456D61696E7461626C655F746F6B656E6964253230574845524525323074 PUSH1 0x0 DUP3 ADD MSTORE PUSH32 0x6F6B656E69642533440000000000000000000000000000000000000000000000 PUSH1 0x20 DUP3 ADD MSTORE POP JUMP JUMPDEST PUSH1 0x0 PUSH2 0x3567 PUSH1 0x29 DUP4 PUSH2 0x2D59 JUMP JUMPDEST SWAP2 POP PUSH2 0x3572 DUP3 PUSH2 0x350B JUMP JUMPDEST PUSH1 0x29 DUP3 ADD SWAP1 POP SWAP2 SWAP1 POP JUMP JUMPDEST PUSH1 0x0 PUSH2 0x3588 DUP3 PUSH2 0x3402 JUMP JUMPDEST SWAP2 POP PUSH2 0x3594 DUP3 DUP8 PUSH2 0x2DD0 JUMP JUMPDEST SWAP2 POP PUSH2 0x359F DUP3 PUSH2 0x3450 JUMP JUMPDEST SWAP2 POP PUSH2 0x35AB DUP3 DUP7 PUSH2 0x2DD0 JUMP JUMPDEST SWAP2 POP PUSH2 0x35B6 DUP3 PUSH2 0x349C JUMP JUMPDEST SWAP2 POP PUSH2 0x35C2 DUP3 DUP6 PUSH2 0x2DD0 JUMP JUMPDEST SWAP2 POP PUSH2 0x35CD DUP3 PUSH2 0x34E8 JUMP JUMPDEST SWAP2 POP PUSH2 0x35D9 DUP3 DUP5 PUSH2 0x2DD0 JUMP JUMPDEST SWAP2 POP PUSH2 0x35E4 DUP3 PUSH2 0x355A JUMP JUMPDEST SWAP2 POP DUP2 SWAP1 POP SWAP6 SWAP5 POP POP POP POP POP JUMP JUMPDEST PUSH32 0x6D6F64653D6C69737426733D0000000000000000000000000000000000000000 PUSH1 0x0 DUP3 ADD MSTORE POP JUMP JUMPDEST PUSH1 0x0 PUSH2 0x3628 PUSH1 0xC DUP4 PUSH2 0x2D59 JUMP JUMPDEST SWAP2 POP PUSH2 0x3633 DUP3 PUSH2 0x35F2 JUMP JUMPDEST PUSH1 0xC DUP3 ADD SWAP1 POP SWAP2 SWAP1 POP JUMP JUMPDEST PUSH32 0x25323067726F75702532306279253230746F6B656E6964000000000000000000 PUSH1 0x0 DUP3 ADD MSTORE POP JUMP JUMPDEST PUSH1 0x0 PUSH2 0x3674 PUSH1 0x17 DUP4 PUSH2 0x2D59 JUMP JUMPDEST SWAP2 POP PUSH2 0x367F DUP3 PUSH2 0x363E JUMP JUMPDEST PUSH1 0x17 DUP3 ADD SWAP1 POP SWAP2 SWAP1 POP JUMP JUMPDEST PUSH1 0x0 PUSH2 0x3696 DUP3 DUP7 PUSH2 0x2D64 JUMP JUMPDEST SWAP2 POP PUSH2 0x36A1 DUP3 PUSH2 0x361B JUMP JUMPDEST SWAP2 POP PUSH2 0x36AD DUP3 DUP6 PUSH2 0x2D64 JUMP JUMPDEST SWAP2 POP PUSH2 0x36B9 DUP3 DUP5 PUSH2 0x2D64 JUMP JUMPDEST SWAP2 POP PUSH2 0x36C4 DUP3 PUSH2 0x3667 JUMP JUMPDEST SWAP2 POP DUP2 SWAP1 POP SWAP5 SWAP4 POP POP POP POP JUMP JUMPDEST PUSH32 0x494E5345525420494E544F200000000000000000000000000000000000000000 DUP2 MSTORE POP JUMP JUMPDEST PUSH32 0x2028746F6B656E69642C206E616D652C206465736372697074696F6E2C20696D PUSH1 0x0 DUP3 ADD MSTORE PUSH32 0x6167652C2065787465726E616C5F75726C292056414C55455320282700000000 PUSH1 0x20 DUP3 ADD MSTORE POP JUMP JUMPDEST PUSH1 0x0 PUSH2 0x3753 PUSH1 0x3C DUP4 PUSH2 0x2D59 JUMP JUMPDEST SWAP2 POP PUSH2 0x375E DUP3 PUSH2 0x36F7 JUMP JUMPDEST PUSH1 0x3C DUP3 ADD SWAP1 POP SWAP2 SWAP1 POP JUMP JUMPDEST PUSH32 0x272C202700000000000000000000000000000000000000000000000000000000 DUP2 MSTORE POP JUMP JUMPDEST PUSH32 0x2729000000000000000000000000000000000000000000000000000000000000 DUP2 MSTORE POP JUMP JUMPDEST PUSH1 0x0 PUSH2 0x37C0 DUP3 PUSH2 0x36D1 JUMP JUMPDEST PUSH1 0xC DUP3 ADD SWAP2 POP PUSH2 0x37D0 DUP3 DUP10 PUSH2 0x2DD0 JUMP JUMPDEST SWAP2 POP PUSH2 0x37DB DUP3 PUSH2 0x3746 JUMP JUMPDEST SWAP2 POP PUSH2 0x37E7 DUP3 DUP9 PUSH2 0x2D64 JUMP JUMPDEST SWAP2 POP PUSH2 0x37F2 DUP3 PUSH2 0x3769 JUMP JUMPDEST PUSH1 0x4 DUP3 ADD SWAP2 POP PUSH2 0x3802 DUP3 DUP8 PUSH2 0x2D64 JUMP JUMPDEST SWAP2 POP PUSH2 0x380D DUP3 PUSH2 0x3769 JUMP JUMPDEST PUSH1 0x4 DUP3 ADD SWAP2 POP PUSH2 0x381D DUP3 DUP7 PUSH2 0x2D64 JUMP JUMPDEST SWAP2 POP PUSH2 0x3828 DUP3 PUSH2 0x3769 JUMP JUMPDEST PUSH1 0x4 DUP3 ADD SWAP2 POP PUSH2 0x3838 DUP3 DUP6 PUSH2 0x2D64 JUMP JUMPDEST SWAP2 POP PUSH2 0x3843 DUP3 PUSH2 0x3769 JUMP JUMPDEST PUSH1 0x4 DUP3 ADD SWAP2 POP PUSH2 0x3853 DUP3 DUP5 PUSH2 0x2D64 JUMP JUMPDEST SWAP2 POP PUSH2 0x385E DUP3 PUSH2 0x378F JUMP JUMPDEST PUSH1 0x2 DUP3 ADD SWAP2 POP DUP2 SWAP1 POP SWAP8 SWAP7 POP POP POP POP POP POP POP JUMP JUMPDEST PUSH1 0x0 PUSH1 0x60 DUP3 ADD SWAP1 POP PUSH2 0x3887 PUSH1 0x0 DUP4 ADD DUP7 PUSH2 0x260F JUMP JUMPDEST PUSH2 0x3894 PUSH1 0x20 DUP4 ADD DUP6 PUSH2 0x2970 JUMP JUMPDEST DUP2 DUP2 SUB PUSH1 0x40 DUP4 ADD MSTORE PUSH2 0x38A6 DUP2 DUP5 PUSH2 0x251F JUMP JUMPDEST SWAP1 POP SWAP5 SWAP4 POP POP POP POP JUMP JUMPDEST PUSH32 0x20286D61696E7461626C655F746F6B656E69642C2069636F6E2C20646973706C PUSH1 0x0 DUP3 ADD MSTORE PUSH32 0x61795F747970652C2074726169745F747970652C2076616C7565292056414C55 PUSH1 0x20 DUP3 ADD MSTORE PUSH32 0x4553202827000000000000000000000000000000000000000000000000000000 PUSH1 0x40 DUP3 ADD MSTORE POP JUMP JUMPDEST PUSH1 0x0 PUSH2 0x3932 PUSH1 0x45 DUP4 PUSH2 0x2D59 JUMP JUMPDEST SWAP2 POP PUSH2 0x393D DUP3 PUSH2 0x38B0 JUMP JUMPDEST PUSH1 0x45 DUP3 ADD SWAP1 POP SWAP2 SWAP1 POP JUMP JUMPDEST PUSH1 0x0 PUSH2 0x3953 DUP3 PUSH2 0x36D1 JUMP JUMPDEST PUSH1 0xC DUP3 ADD SWAP2 POP PUSH2 0x3963 DUP3 DUP10 PUSH2 0x2DD0 JUMP JUMPDEST SWAP2 POP PUSH2 0x396E DUP3 PUSH2 0x3925 JUMP JUMPDEST SWAP2 POP PUSH2 0x397A DUP3 DUP9 PUSH2 0x2D64 JUMP JUMPDEST SWAP2 POP PUSH2 0x3985 DUP3 PUSH2 0x3769 JUMP JUMPDEST PUSH1 0x4 DUP3 ADD SWAP2 POP PUSH2 0x3995 DUP3 DUP8 PUSH2 0x2D64 JUMP JUMPDEST SWAP2 POP PUSH2 0x39A0 DUP3 PUSH2 0x3769 JUMP JUMPDEST PUSH1 0x4 DUP3 ADD SWAP2 POP PUSH2 0x39B0 DUP3 DUP7 PUSH2 0x2D64 JUMP JUMPDEST SWAP2 POP PUSH2 0x39BB DUP3 PUSH2 0x3769 JUMP JUMPDEST PUSH1 0x4 DUP3 ADD SWAP2 POP PUSH2 0x39CB DUP3 DUP6 PUSH2 0x2D64 JUMP JUMPDEST SWAP2 POP PUSH2 0x39D6 DUP3 PUSH2 0x3769 JUMP JUMPDEST PUSH1 0x4 DUP3 ADD SWAP2 POP PUSH2 0x39E6 DUP3 DUP5 PUSH2 0x2D64 JUMP JUMPDEST SWAP2 POP PUSH2 0x39F1 DUP3 PUSH2 0x378F JUMP JUMPDEST PUSH1 0x2 DUP3 ADD SWAP2 POP DUP2 SWAP1 POP SWAP8 SWAP7 POP POP POP POP POP POP POP JUMP JUMPDEST PUSH1 0x0 PUSH1 0x40 DUP3 ADD SWAP1 POP PUSH2 0x3A1A PUSH1 0x0 DUP4 ADD DUP6 PUSH2 0x2970 JUMP JUMPDEST PUSH2 0x3A27 PUSH1 0x20 DUP4 ADD DUP5 PUSH2 0x2970 JUMP JUMPDEST SWAP4 SWAP3 POP POP POP JUMP JUMPDEST PUSH32 0x4E487B7100000000000000000000000000000000000000000000000000000000 PUSH1 0x0 MSTORE PUSH1 0x11 PUSH1 0x4 MSTORE PUSH1 0x24 PUSH1 0x0 REVERT JUMPDEST PUSH1 0x0 PUSH2 0x3A68 DUP3 PUSH2 0x257A JUMP JUMPDEST SWAP2 POP PUSH32 0xFFFFFFFFFFFFFFFFFFFFFFFFFFFFFFFFFFFFFFFFFFFFFFFFFFFFFFFFFFFFFFFF DUP3 EQ ISZERO PUSH2 0x3A9B JUMPI PUSH2 0x3A9A PUSH2 0x3A2E JUMP JUMPDEST JUMPDEST PUSH1 0x1 DUP3 ADD SWAP1 POP SWAP2 SWAP1 POP JUMP JUMPDEST PUSH32 0x4E487B7100000000000000000000000000000000000000000000000000000000 PUSH1 0x0 MSTORE PUSH1 0x12 PUSH1 0x4 MSTORE PUSH1 0x24 PUSH1 0x0 REVERT JUMPDEST PUSH1 0x0 PUSH2 0x3AE0 DUP3 PUSH2 0x257A JUMP JUMPDEST SWAP2 POP PUSH2 0x3AEB DUP4 PUSH2 0x257A JUMP JUMPDEST SWAP3 POP DUP3 PUSH2 0x3AFB JUMPI PUSH2 0x3AFA PUSH2 0x3AA6 JUMP JUMPDEST JUMPDEST DUP3 DUP3 DIV SWAP1 POP SWAP3 SWAP2 POP POP JUMP JUMPDEST PUSH1 0x0 PUSH2 0x3B11 DUP3 PUSH2 0x257A JUMP JUMPDEST SWAP2 POP PUSH2 0x3B1C DUP4 PUSH2 0x257A JUMP JUMPDEST SWAP3 POP DUP3 DUP3 LT ISZERO PUSH2 0x3B2F JUMPI PUSH2 0x3B2E PUSH2 0x3A2E JUMP JUMPDEST JUMPDEST DUP3 DUP3 SUB SWAP1 POP SWAP3 SWAP2 POP POP JUMP JUMPDEST PUSH1 0x0 PUSH2 0x3B45 DUP3 PUSH2 0x257A JUMP JUMPDEST SWAP2 POP PUSH2 0x3B50 DUP4 PUSH2 0x257A JUMP JUMPDEST SWAP3 POP DUP3 PUSH2 0x3B60 JUMPI PUSH2 0x3B5F PUSH2 0x3AA6 JUMP JUMPDEST JUMPDEST DUP3 DUP3 MOD SWAP1 POP SWAP3 SWAP2 POP POP JUMP JUMPDEST PUSH1 0x0 PUSH2 0x3B76 DUP3 PUSH2 0x257A JUMP JUMPDEST SWAP2 POP PUSH2 0x3B81 DUP4 PUSH2 0x257A JUMP JUMPDEST SWAP3 POP DUP3 PUSH32 0xFFFFFFFFFFFFFFFFFFFFFFFFFFFFFFFFFFFFFFFFFFFFFFFFFFFFFFFFFFFFFFFF SUB DUP3 GT ISZERO PUSH2 0x3BB6 JUMPI PUSH2 0x3BB5 PUSH2 0x3A2E JUMP JUMPDEST JUMPDEST DUP3 DUP3 ADD SWAP1 POP SWAP3 SWAP2 POP POP JUMP JUMPDEST PUSH32 0x4E487B7100000000000000000000000000000000000000000000000000000000 PUSH1 0x0 MSTORE PUSH1 0x32 PUSH1 0x4 MSTORE PUSH1 0x24 PUSH1 0x0 REVERT JUMPDEST PUSH32 0x4552433732313A207472616E736665722066726F6D20696E636F727265637420 PUSH1 0x0 DUP3 ADD MSTORE PUSH32 0x6F776E6572000000000000000000000000000000000000000000000000000000 PUSH1 0x20 DUP3 ADD MSTORE POP JUMP JUMPDEST PUSH1 0x0 PUSH2 0x3C4C PUSH1 0x25 DUP4 PUSH2 0x24CA JUMP JUMPDEST SWAP2 POP PUSH2 0x3C57 DUP3 PUSH2 0x3BF0 JUMP JUMPDEST PUSH1 0x40 DUP3 ADD SWAP1 POP SWAP2 SWAP1 POP JUMP JUMPDEST PUSH1 0x0 PUSH1 0x20 DUP3 ADD SWAP1 POP DUP2 DUP2 SUB PUSH1 0x0 DUP4 ADD MSTORE PUSH2 0x3C7B DUP2 PUSH2 0x3C3F JUMP JUMPDEST SWAP1 POP SWAP2 SWAP1 POP JUMP JUMPDEST PUSH32 0x4552433732313A207472616E7366657220746F20746865207A65726F20616464 PUSH1 0x0 DUP3 ADD MSTORE PUSH32 0x7265737300000000000000000000000000000000000000000000000000000000 PUSH1 0x20 DUP3 ADD MSTORE POP JUMP JUMPDEST PUSH1 0x0 PUSH2 0x3CDE PUSH1 0x24 DUP4 PUSH2 0x24CA JUMP JUMPDEST SWAP2 POP PUSH2 0x3CE9 DUP3 PUSH2 0x3C82 JUMP JUMPDEST PUSH1 0x40 DUP3 ADD SWAP1 POP SWAP2 SWAP1 POP JUMP JUMPDEST PUSH1 0x0 PUSH1 0x20 DUP3 ADD SWAP1 POP DUP2 DUP2 SUB PUSH1 0x0 DUP4 ADD MSTORE PUSH2 0x3D0D DUP2 PUSH2 0x3CD1 JUMP JUMPDEST SWAP1 POP SWAP2 SWAP1 POP JUMP JUMPDEST PUSH32 0x4552433732313A20617070726F766520746F2063616C6C657200000000000000 PUSH1 0x0 DUP3 ADD MSTORE POP JUMP JUMPDEST PUSH1 0x0 PUSH2 0x3D4A PUSH1 0x19 DUP4 PUSH2 0x24CA JUMP JUMPDEST SWAP2 POP PUSH2 0x3D55 DUP3 PUSH2 0x3D14 JUMP JUMPDEST PUSH1 0x20 DUP3 ADD SWAP1 POP SWAP2 SWAP1 POP JUMP JUMPDEST PUSH1 0x0 PUSH1 0x20 DUP3 ADD SWAP1 POP DUP2 DUP2 SUB PUSH1 0x0 DUP4 ADD MSTORE PUSH2 0x3D79 DUP2 PUSH2 0x3D3D JUMP JUMPDEST SWAP1 POP SWAP2 SWAP1 POP JUMP JUMPDEST PUSH32 0x4552433732313A207472616E7366657220746F206E6F6E204552433732315265 PUSH1 0x0 DUP3 ADD MSTORE PUSH32 0x63656976657220696D706C656D656E7465720000000000000000000000000000 PUSH1 0x20 DUP3 ADD MSTORE POP JUMP JUMPDEST PUSH1 0x0 PUSH2 0x3DDC PUSH1 0x32 DUP4 PUSH2 0x24CA JUMP JUMPDEST SWAP2 POP PUSH2 0x3DE7 DUP3 PUSH2 0x3D80 JUMP JUMPDEST PUSH1 0x40 DUP3 ADD SWAP1 POP SWAP2 SWAP1 POP JUMP JUMPDEST PUSH1 0x0 PUSH1 0x20 DUP3 ADD SWAP1 POP DUP2 DUP2 SUB PUSH1 0x0 DUP4 ADD MSTORE PUSH2 0x3E0B DUP2 PUSH2 0x3DCF JUMP JUMPDEST SWAP1 POP SWAP2 SWAP1 POP JUMP JUMPDEST PUSH32 0x416363657373436F6E74726F6C3A206163636F756E7420000000000000000000 PUSH1 0x0 DUP3 ADD MSTORE POP JUMP JUMPDEST PUSH1 0x0 PUSH2 0x3E48 PUSH1 0x17 DUP4 PUSH2 0x2D59 JUMP JUMPDEST SWAP2 POP PUSH2 0x3E53 DUP3 PUSH2 0x3E12 JUMP JUMPDEST PUSH1 0x17 DUP3 ADD SWAP1 POP SWAP2 SWAP1 POP JUMP JUMPDEST PUSH32 0x206973206D697373696E6720726F6C6520000000000000000000000000000000 PUSH1 0x0 DUP3 ADD MSTORE POP JUMP JUMPDEST PUSH1 0x0 PUSH2 0x3E94 PUSH1 0x11 DUP4 PUSH2 0x2D59 JUMP JUMPDEST SWAP2 POP PUSH2 0x3E9F DUP3 PUSH2 0x3E5E JUMP JUMPDEST PUSH1 0x11 DUP3 ADD SWAP1 POP SWAP2 SWAP1 POP JUMP JUMPDEST PUSH1 0x0 PUSH2 0x3EB5 DUP3 PUSH2 0x3E3B JUMP JUMPDEST SWAP2 POP PUSH2 0x3EC1 DUP3 DUP6 PUSH2 0x2D64 JUMP JUMPDEST SWAP2 POP PUSH2 0x3ECC DUP3 PUSH2 0x3E87 JUMP JUMPDEST SWAP2 POP PUSH2 0x3ED8 DUP3 DUP5 PUSH2 0x2D64 JUMP JUMPDEST SWAP2 POP DUP2 SWAP1 POP SWAP4 SWAP3 POP POP POP JUMP JUMPDEST PUSH1 0x0 DUP2 MLOAD SWAP1 POP SWAP2 SWAP1 POP JUMP JUMPDEST PUSH1 0x0 DUP3 DUP3 MSTORE PUSH1 0x20 DUP3 ADD SWAP1 POP SWAP3 SWAP2 POP POP JUMP JUMPDEST PUSH1 0x0 PUSH2 0x3F0B DUP3 PUSH2 0x3EE4 JUMP JUMPDEST PUSH2 0x3F15 DUP2 DUP6 PUSH2 0x3EEF JUMP JUMPDEST SWAP4 POP PUSH2 0x3F25 DUP2 DUP6 PUSH1 0x20 DUP7 ADD PUSH2 0x24DB JUMP JUMPDEST PUSH2 0x3F2E DUP2 PUSH2 0x250E JUMP JUMPDEST DUP5 ADD SWAP2 POP POP SWAP3 SWAP2 POP POP JUMP JUMPDEST PUSH1 0x0 PUSH1 0x80 DUP3 ADD SWAP1 POP PUSH2 0x3F4E PUSH1 0x0 DUP4 ADD DUP8 PUSH2 0x260F JUMP JUMPDEST PUSH2 0x3F5B PUSH1 0x20 DUP4 ADD DUP7 PUSH2 0x260F JUMP JUMPDEST PUSH2 0x3F68 PUSH1 0x40 DUP4 ADD DUP6 PUSH2 0x2970 JUMP JUMPDEST DUP2 DUP2 SUB PUSH1 0x60 DUP4 ADD MSTORE PUSH2 0x3F7A DUP2 DUP5 PUSH2 0x3F00 JUMP JUMPDEST SWAP1 POP SWAP6 SWAP5 POP POP POP POP POP JUMP JUMPDEST PUSH1 0x0 DUP2 MLOAD SWAP1 POP PUSH2 0x3F94 DUP2 PUSH2 0x2430 JUMP JUMPDEST SWAP3 SWAP2 POP POP JUMP JUMPDEST PUSH1 0x0 PUSH1 0x20 DUP3 DUP5 SUB SLT ISZERO PUSH2 0x3FB0 JUMPI PUSH2 0x3FAF PUSH2 0x23FA JUMP JUMPDEST JUMPDEST PUSH1 0x0 PUSH2 0x3FBE DUP5 DUP3 DUP6 ADD PUSH2 0x3F85 JUMP JUMPDEST SWAP2 POP POP SWAP3 SWAP2 POP POP JUMP JUMPDEST PUSH1 0x0 PUSH2 0x3FD2 DUP3 PUSH2 0x257A JUMP JUMPDEST SWAP2 POP PUSH2 0x3FDD DUP4 PUSH2 0x257A JUMP JUMPDEST SWAP3 POP DUP2 PUSH32 0xFFFFFFFFFFFFFFFFFFFFFFFFFFFFFFFFFFFFFFFFFFFFFFFFFFFFFFFFFFFFFFFF DIV DUP4 GT DUP3 ISZERO ISZERO AND ISZERO PUSH2 0x4016 JUMPI PUSH2 0x4015 PUSH2 0x3A2E JUMP JUMPDEST JUMPDEST DUP3 DUP3 MUL SWAP1 POP SWAP3 SWAP2 POP POP JUMP JUMPDEST PUSH1 0x0 PUSH2 0x402C DUP3 PUSH2 0x257A JUMP JUMPDEST SWAP2 POP PUSH1 0x0 DUP3 EQ ISZERO PUSH2 0x4040 JUMPI PUSH2 0x403F PUSH2 0x3A2E JUMP JUMPDEST JUMPDEST PUSH1 0x1 DUP3 SUB SWAP1 POP SWAP2 SWAP1 POP JUMP JUMPDEST PUSH32 0x537472696E67733A20686578206C656E67746820696E73756666696369656E74 PUSH1 0x0 DUP3 ADD MSTORE POP JUMP JUMPDEST PUSH1 0x0 PUSH2 0x4081 PUSH1 0x20 DUP4 PUSH2 0x24CA JUMP JUMPDEST SWAP2 POP PUSH2 0x408C DUP3 PUSH2 0x404B JUMP JUMPDEST PUSH1 0x20 DUP3 ADD SWAP1 POP SWAP2 SWAP1 POP JUMP JUMPDEST PUSH1 0x0 PUSH1 0x20 DUP3 ADD SWAP1 POP DUP2 DUP2 SUB PUSH1 0x0 DUP4 ADD MSTORE PUSH2 0x40B0 DUP2 PUSH2 0x4074 JUMP JUMPDEST SWAP1 POP SWAP2 SWAP1 POP JUMP JUMPDEST PUSH32 0x4552433732313A206D696E7420746F20746865207A65726F2061646472657373 PUSH1 0x0 DUP3 ADD MSTORE POP JUMP JUMPDEST PUSH1 0x0 PUSH2 0x40ED PUSH1 0x20 DUP4 PUSH2 0x24CA JUMP JUMPDEST SWAP2 POP PUSH2 0x40F8 DUP3 PUSH2 0x40B7 JUMP JUMPDEST PUSH1 0x20 DUP3 ADD SWAP1 POP SWAP2 SWAP1 POP JUMP JUMPDEST PUSH1 0x0 PUSH1 0x20 DUP3 ADD SWAP1 POP DUP2 DUP2 SUB PUSH1 0x0 DUP4 ADD MSTORE PUSH2 0x411C DUP2 PUSH2 0x40E0 JUMP JUMPDEST SWAP1 POP SWAP2 SWAP1 POP JUMP JUMPDEST PUSH32 0x4552433732313A20746F6B656E20616C7265616479206D696E74656400000000 PUSH1 0x0 DUP3 ADD MSTORE POP JUMP JUMPDEST PUSH1 0x0 PUSH2 0x4159 PUSH1 0x1C DUP4 PUSH2 0x24CA JUMP JUMPDEST SWAP2 POP PUSH2 0x4164 DUP3 PUSH2 0x4123 JUMP JUMPDEST PUSH1 0x20 DUP3 ADD SWAP1 POP SWAP2 SWAP1 POP JUMP JUMPDEST PUSH1 0x0 PUSH1 0x20 DUP3 ADD SWAP1 POP DUP2 DUP2 SUB PUSH1 0x0 DUP4 ADD MSTORE PUSH2 0x4188 DUP2 PUSH2 0x414C JUMP JUMPDEST SWAP1 POP SWAP2 SWAP1 POP JUMP INVALID LOG2 PUSH5 0x6970667358 0x22 SLT KECCAK256 0xC4 GAS SWAP5 0x29 PUSH23 0x28C81DB94FB30B6C86401DC65938704433318022E7B1F6 0xE2 0xDC 0xFB LOG0 PUSH5 0x736F6C6343 STOP ADDMOD 0xC STOP CALLER PUSH9 0x747470733A2F2F7465 PUSH20 0x746E65742E7461626C656C616E642E6E6574776F PUSH19 0x6B2F71756572793F0000000000000000000000 "},"methodIdentifiers":{"DEFAULT_ADMIN_ROLE()":"a217fddf","approve(address,uint256)":"095ea7b3","attributesTable()":"7bc53be9","attributes_metadataURI()":"091a77e7","balanceOf(address)":"70a08231","getApproved(uint256)":"081812fc","getRoleAdmin(bytes32)":"248a9ca3","grantRole(bytes32,address)":"2f2ff15d","hasRole(bytes32,address)":"91d14854","isApprovedForAll(address,address)":"e985e9c5","mainTable()":"5d21260a","main_metadataURI()":"a8e62f09","name()":"06fdde03","ownerOf(uint256)":"6352211e","renounceRole(bytes32,address)":"36568abe","revokeRole(bytes32,address)":"d547741f","safeMint(address,string,string,string,string,string,string,string,uint256)":"e65dcf53","safeTransferFrom(address,address,uint256)":"42842e0e","safeTransferFrom(address,address,uint256,bytes)":"b88d4fde","setApprovalForAll(address,bool)":"a22cb465","setBaseURI(string)":"55f804b3","supportsInterface(bytes4)":"01ffc9a7","symbol()":"95d89b41","tokenURI(uint256)":"c87b56dd","transferFrom(address,address,uint256)":"23b872dd"}},"storageLayout":{"storage":[{"astId":418,"contract":"contracts/mint_tea_ERC721.sol:MTEA","label":"_name","offset":0,"slot":"0","type":"t_string_storage"},{"astId":420,"contract":"contracts/mint_tea_ERC721.sol:MTEA","label":"_symbol","offset":0,"slot":"1","type":"t_string_storage"},{"astId":424,"contract":"contracts/mint_tea_ERC721.sol:MTEA","label":"_owners","offset":0,"slot":"2","type":"t_mapping(t_uint256,t_address)"},{"astId":428,"contract":"contracts/mint_tea_ERC721.sol:MTEA","label":"_balances","offset":0,"slot":"3","type":"t_mapping(t_address,t_uint256)"},{"astId":432,"contract":"contracts/mint_tea_ERC721.sol:MTEA","label":"_tokenApprovals","offset":0,"slot":"4","type":"t_mapping(t_uint256,t_address)"},{"astId":438,"contract":"contracts/mint_tea_ERC721.sol:MTEA","label":"_operatorApprovals","offset":0,"slot":"5","type":"t_mapping(t_address,t_mapping(t_address,t_bool))"},{"astId":24,"contract":"contracts/mint_tea_ERC721.sol:MTEA","label":"_roles","offset":0,"slot":"6","type":"t_mapping(t_bytes32,t_struct(RoleData)19_storage)"},{"astId":2232,"contract":"contracts/mint_tea_ERC721.sol:MTEA","label":"_baseURIString","offset":0,"slot":"7","type":"t_string_storage"},{"astId":2235,"contract":"contracts/mint_tea_ERC721.sol:MTEA","label":"_tokenIdCounter","offset":0,"slot":"8","type":"t_struct(Counter)1743_storage"},{"astId":2238,"contract":"contracts/mint_tea_ERC721.sol:MTEA","label":"_tableland","offset":0,"slot":"9","type":"t_contract(ITablelandTables)2214"},{"astId":2240,"contract":"contracts/mint_tea_ERC721.sol:MTEA","label":"_metadataTableId","offset":0,"slot":"10","type":"t_uint256"},{"astId":2242,"contract":"contracts/mint_tea_ERC721.sol:MTEA","label":"_attributesTableId","offset":0,"slot":"11","type":"t_uint256"},{"astId":2245,"contract":"contracts/mint_tea_ERC721.sol:MTEA","label":"_tablePrefix","offset":0,"slot":"12","type":"t_string_storage"},{"astId":2248,"contract":"contracts/mint_tea_ERC721.sol:MTEA","label":"mainTable","offset":0,"slot":"13","type":"t_string_storage"},{"astId":2251,"contract":"contracts/mint_tea_ERC721.sol:MTEA","label":"attributesTable","offset":0,"slot":"14","type":"t_string_storage"}],"types":{"t_address":{"encoding":"inplace","label":"address","numberOfBytes":"20"},"t_bool":{"encoding":"inplace","label":"bool","numberOfBytes":"1"},"t_bytes32":{"encoding":"inplace","label":"bytes32","numberOfBytes":"32"},"t_contract(ITablelandTables)2214":{"encoding":"inplace","label":"contract ITablelandTables","numberOfBytes":"20"},"t_mapping(t_address,t_bool)":{"encoding":"mapping","key":"t_address","label":"mapping(address => bool)","numberOfBytes":"32","value":"t_bool"},"t_mapping(t_address,t_mapping(t_address,t_bool))":{"encoding":"mapping","key":"t_address","label":"mapping(address => mapping(address => bool))","numberOfBytes":"32","value":"t_mapping(t_address,t_bool)"},"t_mapping(t_address,t_uint256)":{"encoding":"mapping","key":"t_address","label":"mapping(address => uint256)","numberOfBytes":"32","value":"t_uint256"},"t_mapping(t_bytes32,t_struct(RoleData)19_storage)":{"encoding":"mapping","key":"t_bytes32","label":"mapping(bytes32 => struct AccessControl.RoleData)","numberOfBytes":"32","value":"t_struct(RoleData)19_storage"},"t_mapping(t_uint256,t_address)":{"encoding":"mapping","key":"t_uint256","label":"mapping(uint256 => address)","numberOfBytes":"32","value":"t_address"},"t_string_storage":{"encoding":"bytes","label":"string","numberOfBytes":"32"},"t_struct(Counter)1743_storage":{"encoding":"inplace","label":"struct Counters.Counter","members":[{"astId":1742,"contract":"contracts/mint_tea_ERC721.sol:MTEA","label":"_value","offset":0,"slot":"0","type":"t_uint256"}],"numberOfBytes":"32"},"t_struct(RoleData)19_storage":{"encoding":"inplace","label":"struct AccessControl.RoleData","members":[{"astId":16,"contract":"contracts/mint_tea_ERC721.sol:MTEA","label":"members","offset":0,"slot":"0","type":"t_mapping(t_address,t_bool)"},{"astId":18,"contract":"contracts/mint_tea_ERC721.sol:MTEA","label":"adminRole","offset":0,"slot":"1","type":"t_bytes32"}],"numberOfBytes":"64"},"t_uint256":{"encoding":"inplace","label":"uint256","numberOfBytes":"32"}}}}}}