{
  "_format": "hh-sol-artifact-1",
  "contractName": "MTEA",
  "sourceName": "contracts/mint_tea_ERC721.sol",
  "abi": [
    {
      "inputs": [
        {
          "internalType": "address",
          "name": "registry",
          "type": "address"
        }
      ],
      "stateMutability": "nonpayable",
      "type": "constructor"
    },
    {
      "anonymous": false,
      "inputs": [
        {
          "indexed": true,
          "internalType": "address",
          "name": "owner",
          "type": "address"
        },
        {
          "indexed": true,
          "internalType": "address",
          "name": "approved",
          "type": "address"
        },
        {
          "indexed": true,
          "internalType": "uint256",
          "name": "tokenId",
          "type": "uint256"
        }
      ],
      "name": "Approval",
      "type": "event"
    },
    {
      "anonymous": false,
      "inputs": [
        {
          "indexed": true,
          "internalType": "address",
          "name": "owner",
          "type": "address"
        },
        {
          "indexed": true,
          "internalType": "address",
          "name": "operator",
          "type": "address"
        },
        {
          "indexed": false,
          "internalType": "bool",
          "name": "approved",
          "type": "bool"
        }
      ],
      "name": "ApprovalForAll",
      "type": "event"
    },
    {
      "anonymous": false,
      "inputs": [
        {
          "indexed": true,
          "internalType": "address",
          "name": "from",
          "type": "address"
        },
        {
          "indexed": false,
          "internalType": "uint256",
          "name": "timestamp",
          "type": "uint256"
        },
        {
          "indexed": false,
          "internalType": "uint256",
          "name": "tokenId",
          "type": "uint256"
        }
      ],
      "name": "NewNftMinted",
      "type": "event"
    },
    {
      "anonymous": false,
      "inputs": [
        {
          "indexed": true,
          "internalType": "bytes32",
          "name": "role",
          "type": "bytes32"
        },
        {
          "indexed": true,
          "internalType": "bytes32",
          "name": "previousAdminRole",
          "type": "bytes32"
        },
        {
          "indexed": true,
          "internalType": "bytes32",
          "name": "newAdminRole",
          "type": "bytes32"
        }
      ],
      "name": "RoleAdminChanged",
      "type": "event"
    },
    {
      "anonymous": false,
      "inputs": [
        {
          "indexed": true,
          "internalType": "bytes32",
          "name": "role",
          "type": "bytes32"
        },
        {
          "indexed": true,
          "internalType": "address",
          "name": "account",
          "type": "address"
        },
        {
          "indexed": true,
          "internalType": "address",
          "name": "sender",
          "type": "address"
        }
      ],
      "name": "RoleGranted",
      "type": "event"
    },
    {
      "anonymous": false,
      "inputs": [
        {
          "indexed": true,
          "internalType": "bytes32",
          "name": "role",
          "type": "bytes32"
        },
        {
          "indexed": true,
          "internalType": "address",
          "name": "account",
          "type": "address"
        },
        {
          "indexed": true,
          "internalType": "address",
          "name": "sender",
          "type": "address"
        }
      ],
      "name": "RoleRevoked",
      "type": "event"
    },
    {
      "anonymous": false,
      "inputs": [
        {
          "indexed": true,
          "internalType": "address",
          "name": "from",
          "type": "address"
        },
        {
          "indexed": true,
          "internalType": "address",
          "name": "to",
          "type": "address"
        },
        {
          "indexed": true,
          "internalType": "uint256",
          "name": "tokenId",
          "type": "uint256"
        }
      ],
      "name": "Transfer",
      "type": "event"
    },
    {
      "inputs": [],
      "name": "DEFAULT_ADMIN_ROLE",
      "outputs": [
        {
          "internalType": "bytes32",
          "name": "",
          "type": "bytes32"
        }
      ],
      "stateMutability": "view",
      "type": "function"
    },
    {
      "inputs": [
        {
          "internalType": "address",
          "name": "to",
          "type": "address"
        },
        {
          "internalType": "uint256",
          "name": "tokenId",
          "type": "uint256"
        }
      ],
      "name": "approve",
      "outputs": [],
      "stateMutability": "nonpayable",
      "type": "function"
    },
    {
      "inputs": [],
      "name": "attributesTable",
      "outputs": [
        {
          "internalType": "string",
          "name": "",
          "type": "string"
        }
      ],
      "stateMutability": "view",
      "type": "function"
    },
    {
      "inputs": [],
      "name": "attributes_metadataURI",
      "outputs": [
        {
          "internalType": "string",
          "name": "",
          "type": "string"
        }
      ],
      "stateMutability": "view",
      "type": "function"
    },
    {
      "inputs": [
        {
          "internalType": "address",
          "name": "owner",
          "type": "address"
        }
      ],
      "name": "balanceOf",
      "outputs": [
        {
          "internalType": "uint256",
          "name": "",
          "type": "uint256"
        }
      ],
      "stateMutability": "view",
      "type": "function"
    },
    {
      "inputs": [
        {
          "internalType": "uint256",
          "name": "tokenId",
          "type": "uint256"
        }
      ],
      "name": "getApproved",
      "outputs": [
        {
          "internalType": "address",
          "name": "",
          "type": "address"
        }
      ],
      "stateMutability": "view",
      "type": "function"
    },
    {
      "inputs": [
        {
          "internalType": "bytes32",
          "name": "role",
          "type": "bytes32"
        }
      ],
      "name": "getRoleAdmin",
      "outputs": [
        {
          "internalType": "bytes32",
          "name": "",
          "type": "bytes32"
        }
      ],
      "stateMutability": "view",
      "type": "function"
    },
    {
      "inputs": [
        {
          "internalType": "bytes32",
          "name": "role",
          "type": "bytes32"
        },
        {
          "internalType": "address",
          "name": "account",
          "type": "address"
        }
      ],
      "name": "grantRole",
      "outputs": [],
      "stateMutability": "nonpayable",
      "type": "function"
    },
    {
      "inputs": [
        {
          "internalType": "bytes32",
          "name": "role",
          "type": "bytes32"
        },
        {
          "internalType": "address",
          "name": "account",
          "type": "address"
        }
      ],
      "name": "hasRole",
      "outputs": [
        {
          "internalType": "bool",
          "name": "",
          "type": "bool"
        }
      ],
      "stateMutability": "view",
      "type": "function"
    },
    {
      "inputs": [
        {
          "internalType": "address",
          "name": "owner",
          "type": "address"
        },
        {
          "internalType": "address",
          "name": "operator",
          "type": "address"
        }
      ],
      "name": "isApprovedForAll",
      "outputs": [
        {
          "internalType": "bool",
          "name": "",
          "type": "bool"
        }
      ],
      "stateMutability": "view",
      "type": "function"
    },
    {
      "inputs": [],
      "name": "mainTable",
      "outputs": [
        {
          "internalType": "string",
          "name": "",
          "type": "string"
        }
      ],
      "stateMutability": "view",
      "type": "function"
    },
    {
      "inputs": [],
      "name": "main_metadataURI",
      "outputs": [
        {
          "internalType": "string",
          "name": "",
          "type": "string"
        }
      ],
      "stateMutability": "view",
      "type": "function"
    },
    {
      "inputs": [],
      "name": "name",
      "outputs": [
        {
          "internalType": "string",
          "name": "",
          "type": "string"
        }
      ],
      "stateMutability": "view",
      "type": "function"
    },
    {
      "inputs": [
        {
          "internalType": "uint256",
          "name": "tokenId",
          "type": "uint256"
        }
      ],
      "name": "ownerOf",
      "outputs": [
        {
          "internalType": "address",
          "name": "",
          "type": "address"
        }
      ],
      "stateMutability": "view",
      "type": "function"
    },
    {
      "inputs": [
        {
          "internalType": "bytes32",
          "name": "role",
          "type": "bytes32"
        },
        {
          "internalType": "address",
          "name": "account",
          "type": "address"
        }
      ],
      "name": "renounceRole",
      "outputs": [],
      "stateMutability": "nonpayable",
      "type": "function"
    },
    {
      "inputs": [
        {
          "internalType": "bytes32",
          "name": "role",
          "type": "bytes32"
        },
        {
          "internalType": "address",
          "name": "account",
          "type": "address"
        }
      ],
      "name": "revokeRole",
      "outputs": [],
      "stateMutability": "nonpayable",
      "type": "function"
    },
    {
      "inputs": [
        {
          "internalType": "address",
          "name": "to",
          "type": "address"
        },
        {
          "internalType": "string",
          "name": "_name",
          "type": "string"
        },
        {
          "internalType": "string",
          "name": "_description",
          "type": "string"
        },
        {
          "internalType": "string",
          "name": "_image_url",
          "type": "string"
        },
        {
          "internalType": "string",
          "name": "_external_url",
          "type": "string"
        },
        {
          "internalType": "string",
          "name": "_icon",
          "type": "string"
        },
        {
          "internalType": "string",
          "name": "_display_type",
          "type": "string"
        },
        {
          "internalType": "string",
          "name": "_trait_type",
          "type": "string"
        },
        {
          "internalType": "uint256",
          "name": "_value",
          "type": "uint256"
        }
      ],
      "name": "safeMint",
      "outputs": [
        {
          "internalType": "uint256",
          "name": "",
          "type": "uint256"
        }
      ],
      "stateMutability": "nonpayable",
      "type": "function"
    },
    {
      "inputs": [
        {
          "internalType": "address",
          "name": "from",
          "type": "address"
        },
        {
          "internalType": "address",
          "name": "to",
          "type": "address"
        },
        {
          "internalType": "uint256",
          "name": "tokenId",
          "type": "uint256"
        }
      ],
      "name": "safeTransferFrom",
      "outputs": [],
      "stateMutability": "nonpayable",
      "type": "function"
    },
    {
      "inputs": [
        {
          "internalType": "address",
          "name": "from",
          "type": "address"
        },
        {
          "internalType": "address",
          "name": "to",
          "type": "address"
        },
        {
          "internalType": "uint256",
          "name": "tokenId",
          "type": "uint256"
        },
        {
          "internalType": "bytes",
          "name": "data",
          "type": "bytes"
        }
      ],
      "name": "safeTransferFrom",
      "outputs": [],
      "stateMutability": "nonpayable",
      "type": "function"
    },
    {
      "inputs": [
        {
          "internalType": "address",
          "name": "operator",
          "type": "address"
        },
        {
          "internalType": "bool",
          "name": "approved",
          "type": "bool"
        }
      ],
      "name": "setApprovalForAll",
      "outputs": [],
      "stateMutability": "nonpayable",
      "type": "function"
    },
    {
      "inputs": [
        {
          "internalType": "string",
          "name": "baseURI",
          "type": "string"
        }
      ],
      "name": "setBaseURI",
      "outputs": [],
      "stateMutability": "nonpayable",
      "type": "function"
    },
    {
      "inputs": [
        {
          "internalType": "bytes4",
          "name": "interfaceId",
          "type": "bytes4"
        }
      ],
      "name": "supportsInterface",
      "outputs": [
        {
          "internalType": "bool",
          "name": "",
          "type": "bool"
        }
      ],
      "stateMutability": "view",
      "type": "function"
    },
    {
      "inputs": [],
      "name": "symbol",
      "outputs": [
        {
          "internalType": "string",
          "name": "",
          "type": "string"
        }
      ],
      "stateMutability": "view",
      "type": "function"
    },
    {
      "inputs": [
        {
          "internalType": "uint256",
          "name": "_tokenId",
          "type": "uint256"
        }
      ],
      "name": "tokenURI",
      "outputs": [
        {
          "internalType": "string",
          "name": "",
          "type": "string"
        }
      ],
      "stateMutability": "view",
      "type": "function"
    },
    {
      "inputs": [
        {
          "internalType": "address",
          "name": "from",
          "type": "address"
        },
        {
          "internalType": "address",
          "name": "to",
          "type": "address"
        },
        {
          "internalType": "uint256",
          "name": "tokenId",
          "type": "uint256"
        }
      ],
      "name": "transferFrom",
      "outputs": [],
      "stateMutability": "nonpayable",
      "type": "function"
    }
  ],
  "bytecode": "0x60806040526040518060600160405280602881526020016200518c60289139600790805190602001906200003592919062000731565b506040518060400160405280600881526020017f4d696e745f544541000000000000000000000000000000000000000000000000815250600c90805190602001906200008392919062000731565b503480156200009157600080fd5b50604051620051b4380380620051b48339818101604052810190620000b791906200084b565b6040518060400160405280600481526020017f4d544541000000000000000000000000000000000000000000000000000000008152506040518060400160405280600281526020017f4d5400000000000000000000000000000000000000000000000000000000000081525081600090805190602001906200013b92919062000731565b5080600190805190602001906200015492919062000731565b5050506200016c6000801b336200045260201b60201c565b80600960006101000a81548173ffffffffffffffffffffffffffffffffffffffff021916908373ffffffffffffffffffffffffffffffffffffffff160217905550600960009054906101000a900473ffffffffffffffffffffffffffffffffffffffff1673ffffffffffffffffffffffffffffffffffffffff16633a9151b030600c62000204466200054460201b6200107b1760201c565b6040516020016200021792919062000aed565b6040516020818303038152906040526040518363ffffffff1660e01b81526004016200024592919062000bb8565b6020604051808303816000875af115801562000265573d6000803e3d6000fd5b505050506040513d601f19601f820116820180604052508101906200028b919062000c27565b600a81905550600c620002a9466200054460201b6200107b1760201c565b620002c1600a546200054460201b6200107b1760201c565b604051602001620002d59392919062000c59565b604051602081830303815290604052600d9080519060200190620002fb92919062000731565b50600960009054906101000a900473ffffffffffffffffffffffffffffffffffffffff1673ffffffffffffffffffffffffffffffffffffffff16633a9151b030600c62000353466200054460201b6200107b1760201c565b6040516020016200036692919062000d4e565b6040516020818303038152906040526040518363ffffffff1660e01b81526004016200039492919062000bb8565b6020604051808303816000875af1158015620003b4573d6000803e3d6000fd5b505050506040513d601f19601f82011682018060405250810190620003da919062000c27565b600b81905550600c620003f8466200054460201b6200107b1760201c565b62000410600b546200054460201b6200107b1760201c565b604051602001620004249392919062000c59565b604051602081830303815290604052600e90805190602001906200044a92919062000731565b505062000fb7565b620004648282620006be60201b60201c565b620005405760016006600084815260200190815260200160002060000160008373ffffffffffffffffffffffffffffffffffffffff1673ffffffffffffffffffffffffffffffffffffffff16815260200190815260200160002060006101000a81548160ff021916908315150217905550620004e56200072960201b60201c565b73ffffffffffffffffffffffffffffffffffffffff168173ffffffffffffffffffffffffffffffffffffffff16837f2f8788117e7eff1d82e926ec794901d17c78024a50270940304540a733656f0d60405160405180910390a45b5050565b606060008214156200058e576040518060400160405280600181526020017f30000000000000000000000000000000000000000000000000000000000000008152509050620006b9565b600082905060005b60008214620005c6578080620005ac9062000dd4565b915050600a82620005be919062000e51565b915062000596565b60008167ffffffffffffffff811115620005e557620005e462000e89565b5b6040519080825280601f01601f191660200182016040528015620006185781602001600182028036833780820191505090505b5090505b60008514620006b25760018262000634919062000eb8565b9150600a8562000645919062000ef3565b603062000653919062000f2b565b60f81b8183815181106200066c576200066b62000f88565b5b60200101907effffffffffffffffffffffffffffffffffffffffffffffffffffffffffffff1916908160001a905350600a85620006aa919062000e51565b94506200061c565b8093505050505b919050565b60006006600084815260200190815260200160002060000160008373ffffffffffffffffffffffffffffffffffffffff1673ffffffffffffffffffffffffffffffffffffffff16815260200190815260200160002060009054906101000a900460ff16905092915050565b600033905090565b8280546200073f90620008d2565b90600052602060002090601f016020900481019282620007635760008555620007af565b82601f106200077e57805160ff1916838001178555620007af565b82800160010185558215620007af579182015b82811115620007ae57825182559160200191906001019062000791565b5b509050620007be9190620007c2565b5090565b5b80821115620007dd576000816000905550600101620007c3565b5090565b600080fd5b600073ffffffffffffffffffffffffffffffffffffffff82169050919050565b60006200081382620007e6565b9050919050565b620008258162000806565b81146200083157600080fd5b50565b60008151905062000845816200081a565b92915050565b600060208284031215620008645762000863620007e1565b5b6000620008748482850162000834565b91505092915050565b7f435245415445205441424c452000000000000000000000000000000000000000815250565b7f4e487b7100000000000000000000000000000000000000000000000000000000600052602260045260246000fd5b60006002820490506001821680620008eb57607f821691505b60208210811415620009025762000901620008a3565b5b50919050565b600081905092915050565b60008190508160005260206000209050919050565b600081546200093781620008d2565b62000943818662000908565b945060018216600081146200096157600181146200097357620009aa565b60ff19831686528186019350620009aa565b6200097e8562000913565b60005b83811015620009a25781548189015260018201915060208101905062000981565b838801955050505b50505092915050565b7f5f00000000000000000000000000000000000000000000000000000000000000815250565b600081519050919050565b60005b8381101562000a04578082015181840152602081019050620009e7565b8381111562000a14576000848401525b50505050565b600062000a2782620009d9565b62000a33818562000908565b935062000a45818560208601620009e4565b80840191505092915050565b7f2028746f6b656e696420696e742c206e616d6520746578742c2064657363726960008201527f7074696f6e20746578742c20696d61676520746578742c2065787465726e616c60208201527f5f75726c2074657874293b000000000000000000000000000000000000000000604082015250565b600062000ad5604b8362000908565b915062000ae28262000a51565b604b82019050919050565b600062000afa826200087d565b600d8201915062000b0c828562000928565b915062000b1982620009b3565b60018201915062000b2b828462000a1a565b915062000b388262000ac6565b91508190509392505050565b62000b4f8162000806565b82525050565b600082825260208201905092915050565b6000601f19601f8301169050919050565b600062000b8482620009d9565b62000b90818562000b55565b935062000ba2818560208601620009e4565b62000bad8162000b66565b840191505092915050565b600060408201905062000bcf600083018562000b44565b818103602083015262000be3818462000b77565b90509392505050565b6000819050919050565b62000c018162000bec565b811462000c0d57600080fd5b50565b60008151905062000c218162000bf6565b92915050565b60006020828403121562000c405762000c3f620007e1565b5b600062000c508482850162000c10565b91505092915050565b600062000c67828662000928565b915062000c7482620009b3565b60018201915062000c86828562000a1a565b915062000c9382620009b3565b60018201915062000ca5828462000a1a565b9150819050949350505050565b7f20286d61696e7461626c655f746f6b656e696420696e742c2069636f6e20746560008201527f78742c20646973706c61795f7479706520746578742c2074726169745f74797060208201527f6520746578742c2076616c756520696e74293b00000000000000000000000000604082015250565b600062000d3660538362000908565b915062000d438262000cb2565b605382019050919050565b600062000d5b826200087d565b600d8201915062000d6d828562000928565b915062000d7a82620009b3565b60018201915062000d8c828462000a1a565b915062000d998262000d27565b91508190509392505050565b7f4e487b7100000000000000000000000000000000000000000000000000000000600052601160045260246000fd5b600062000de18262000bec565b91507fffffffffffffffffffffffffffffffffffffffffffffffffffffffffffffffff82141562000e175762000e1662000da5565b5b600182019050919050565b7f4e487b7100000000000000000000000000000000000000000000000000000000600052601260045260246000fd5b600062000e5e8262000bec565b915062000e6b8362000bec565b92508262000e7e5762000e7d62000e22565b5b828204905092915050565b7f4e487b7100000000000000000000000000000000000000000000000000000000600052604160045260246000fd5b600062000ec58262000bec565b915062000ed28362000bec565b92508282101562000ee85762000ee762000da5565b5b828203905092915050565b600062000f008262000bec565b915062000f0d8362000bec565b92508262000f205762000f1f62000e22565b5b828206905092915050565b600062000f388262000bec565b915062000f458362000bec565b9250827fffffffffffffffffffffffffffffffffffffffffffffffffffffffffffffffff0382111562000f7d5762000f7c62000da5565b5b828201905092915050565b7f4e487b7100000000000000000000000000000000000000000000000000000000600052603260045260246000fd5b6141c58062000fc76000396000f3fe608060405234801561001057600080fd5b50600436106101735760003560e01c80636352211e116100de578063a22cb46511610097578063c87b56dd11610071578063c87b56dd1461044a578063d547741f1461047a578063e65dcf5314610496578063e985e9c5146104c657610173565b8063a22cb465146103f4578063a8e62f0914610410578063b88d4fde1461042e57610173565b80636352211e1461030a57806370a082311461033a5780637bc53be91461036a57806391d148541461038857806395d89b41146103b8578063a217fddf146103d657610173565b8063248a9ca311610130578063248a9ca31461024c5780632f2ff15d1461027c57806336568abe1461029857806342842e0e146102b457806355f804b3146102d05780635d21260a146102ec57610173565b806301ffc9a71461017857806306fdde03146101a8578063081812fc146101c6578063091a77e7146101f6578063095ea7b31461021457806323b872dd14610230575b600080fd5b610192600480360381019061018d919061245c565b6104f6565b60405161019f91906124a4565b60405180910390f35b6101b0610508565b6040516101bd9190612558565b60405180910390f35b6101e060048036038101906101db91906125b0565b61059a565b6040516101ed919061261e565b60405180910390f35b6101fe6105e0565b60405161020b9190612558565b60405180910390f35b61022e60048036038101906102299190612665565b610617565b005b61024a600480360381019061024591906126a5565b61072f565b005b6102666004803603810190610261919061272e565b61078f565b604051610273919061276a565b60405180910390f35b61029660048036038101906102919190612785565b6107af565b005b6102b260048036038101906102ad9190612785565b6107d0565b005b6102ce60048036038101906102c991906126a5565b610853565b005b6102ea60048036038101906102e591906128fa565b610873565b005b6102f461089b565b6040516103019190612558565b60405180910390f35b610324600480360381019061031f91906125b0565b610929565b604051610331919061261e565b60405180910390f35b610354600480360381019061034f9190612943565b6109db565b604051610361919061297f565b60405180910390f35b610372610a93565b60405161037f9190612558565b60405180910390f35b6103a2600480360381019061039d9190612785565b610b21565b6040516103af91906124a4565b60405180910390f35b6103c0610b8c565b6040516103cd9190612558565b60405180910390f35b6103de610c1e565b6040516103eb919061276a565b60405180910390f35b61040e600480360381019061040991906129c6565b610c25565b005b610418610c3b565b6040516104259190612558565b60405180910390f35b61044860048036038101906104439190612aa7565b610c72565b005b610464600480360381019061045f91906125b0565b610cd4565b6040516104719190612558565b60405180910390f35b610494600480360381019061048f9190612785565b610db0565b005b6104b060048036038101906104ab9190612b2a565b610dd1565b6040516104bd919061297f565b60405180910390f35b6104e060048036038101906104db9190612cb8565b610fe7565b6040516104ed91906124a4565b60405180910390f35b6000610501826111dc565b9050919050565b60606000805461051790612d27565b80601f016020809104026020016040519081016040528092919081815260200182805461054390612d27565b80156105905780601f1061056557610100808354040283529160200191610590565b820191906000526020600020905b81548152906001019060200180831161057357829003601f168201915b5050505050905090565b60006105a582611256565b6004600083815260200190815260200160002060009054906101000a900473ffffffffffffffffffffffffffffffffffffffff169050919050565b606060006105ec6112a1565b905080600e604051602001610602929190612e4f565b60405160208183030381529060405291505090565b600061062282610929565b90508073ffffffffffffffffffffffffffffffffffffffff168373ffffffffffffffffffffffffffffffffffffffff161415610693576040517f08c379a000000000000000000000000000000000000000000000000000000000815260040161068a90612ef4565b60405180910390fd5b8073ffffffffffffffffffffffffffffffffffffffff166106b2611333565b73ffffffffffffffffffffffffffffffffffffffff1614806106e157506106e0816106db611333565b610fe7565b5b610720576040517f08c379a000000000000000000000000000000000000000000000000000000000815260040161071790612f86565b60405180910390fd5b61072a838361133b565b505050565b61074061073a611333565b826113f4565b61077f576040517f08c379a000000000000000000000000000000000000000000000000000000000815260040161077690613018565b60405180910390fd5b61078a838383611489565b505050565b600060066000838152602001908152602001600020600101549050919050565b6107b88261078f565b6107c1816116f0565b6107cb8383611704565b505050565b6107d8611333565b73ffffffffffffffffffffffffffffffffffffffff168173ffffffffffffffffffffffffffffffffffffffff1614610845576040517f08c379a000000000000000000000000000000000000000000000000000000000815260040161083c906130aa565b60405180910390fd5b61084f82826117e5565b5050565b61086e83838360405180602001604052806000815250610c72565b505050565b6000801b610880816116f0565b816007908051906020019061089692919061234d565b505050565b600d80546108a890612d27565b80601f01602080910402602001604051908101604052809291908181526020018280546108d490612d27565b80156109215780601f106108f657610100808354040283529160200191610921565b820191906000526020600020905b81548152906001019060200180831161090457829003601f168201915b505050505081565b6000806002600084815260200190815260200160002060009054906101000a900473ffffffffffffffffffffffffffffffffffffffff169050600073ffffffffffffffffffffffffffffffffffffffff168173ffffffffffffffffffffffffffffffffffffffff1614156109d2576040517f08c379a00000000000000000000000000000000000000000000000000000000081526004016109c990613116565b60405180910390fd5b80915050919050565b60008073ffffffffffffffffffffffffffffffffffffffff168273ffffffffffffffffffffffffffffffffffffffff161415610a4c576040517f08c379a0000000000000000000000000000000000000000000000000000000008152600401610a43906131a8565b60405180910390fd5b600360008373ffffffffffffffffffffffffffffffffffffffff1673ffffffffffffffffffffffffffffffffffffffff168152602001908152602001600020549050919050565b600e8054610aa090612d27565b80601f0160208091040260200160405190810160405280929190818152602001828054610acc90612d27565b8015610b195780601f10610aee57610100808354040283529160200191610b19565b820191906000526020600020905b815481529060010190602001808311610afc57829003601f168201915b505050505081565b60006006600084815260200190815260200160002060000160008373ffffffffffffffffffffffffffffffffffffffff1673ffffffffffffffffffffffffffffffffffffffff16815260200190815260200160002060009054906101000a900460ff16905092915050565b606060018054610b9b90612d27565b80601f0160208091040260200160405190810160405280929190818152602001828054610bc790612d27565b8015610c145780601f10610be957610100808354040283529160200191610c14565b820191906000526020600020905b815481529060010190602001808311610bf757829003601f168201915b5050505050905090565b6000801b81565b610c37610c30611333565b83836118c7565b5050565b60606000610c476112a1565b905080600d604051602001610c5d929190612e4f565b60405160208183030381529060405291505090565b610c83610c7d611333565b836113f4565b610cc2576040517f08c379a0000000000000000000000000000000000000000000000000000000008152600401610cb990613018565b60405180910390fd5b610cce84848484611a34565b50505050565b6060610cdf82611a90565b610d1e576040517f08c379a0000000000000000000000000000000000000000000000000000000008152600401610d159061323a565b60405180910390fd5b6000610d286112a1565b9050600081511415610d4c5760405180602001604052806000815250915050610dab565b6000600d600e600d600e604051602001610d69949392919061357d565b60405160208183030381529060405290508181610d858661107b565b604051602001610d979392919061368a565b604051602081830303815290604052925050505b919050565b610db98261078f565b610dc2816116f0565b610dcc83836117e5565b505050565b600080610dde6008611afc565b9050600960009054906101000a900473ffffffffffffffffffffffffffffffffffffffff1673ffffffffffffffffffffffffffffffffffffffff1663eaf5d04e30600a54600d610e2d8661107b565b8f8f8f8f604051602001610e46969594939291906137b5565b6040516020818303038152906040526040518463ffffffff1660e01b8152600401610e7393929190613872565b600060405180830381600087803b158015610e8d57600080fd5b505af1158015610ea1573d6000803e3d6000fd5b50505050600960009054906101000a900473ffffffffffffffffffffffffffffffffffffffff1673ffffffffffffffffffffffffffffffffffffffff1663eaf5d04e30600b54600e610ef28661107b565b8b8b8b610efe8c61107b565b604051602001610f1396959493929190613948565b6040516020818303038152906040526040518463ffffffff1660e01b8152600401610f4093929190613872565b600060405180830381600087803b158015610f5a57600080fd5b505af1158015610f6e573d6000803e3d6000fd5b50505050610f7c8b82611b0a565b610f866008611b28565b3373ffffffffffffffffffffffffffffffffffffffff167f061b141191d79859f7cc6256c1b9e5f380052197831efe9135841c0ff4de7e634283604051610fce929190613a05565b60405180910390a2809150509998505050505050505050565b6000600560008473ffffffffffffffffffffffffffffffffffffffff1673ffffffffffffffffffffffffffffffffffffffff16815260200190815260200160002060008373ffffffffffffffffffffffffffffffffffffffff1673ffffffffffffffffffffffffffffffffffffffff16815260200190815260200160002060009054906101000a900460ff16905092915050565b606060008214156110c3576040518060400160405280600181526020017f300000000000000000000000000000000000000000000000000000000000000081525090506111d7565b600082905060005b600082146110f55780806110de90613a5d565b915050600a826110ee9190613ad5565b91506110cb565b60008167ffffffffffffffff811115611111576111106127cf565b5b6040519080825280601f01601f1916602001820160405280156111435781602001600182028036833780820191505090505b5090505b600085146111d05760018261115c9190613b06565b9150600a8561116b9190613b3a565b60306111779190613b6b565b60f81b81838151811061118d5761118c613bc1565b5b60200101907effffffffffffffffffffffffffffffffffffffffffffffffffffffffffffff1916908160001a905350600a856111c99190613ad5565b9450611147565b8093505050505b919050565b60007f7965db0b000000000000000000000000000000000000000000000000000000007bffffffffffffffffffffffffffffffffffffffffffffffffffffffff1916827bffffffffffffffffffffffffffffffffffffffffffffffffffffffff1916148061124f575061124e82611b3e565b5b9050919050565b61125f81611a90565b61129e576040517f08c379a000000000000000000000000000000000000000000000000000000000815260040161129590613116565b60405180910390fd5b50565b6060600780546112b090612d27565b80601f01602080910402602001604051908101604052809291908181526020018280546112dc90612d27565b80156113295780601f106112fe57610100808354040283529160200191611329565b820191906000526020600020905b81548152906001019060200180831161130c57829003601f168201915b5050505050905090565b600033905090565b816004600083815260200190815260200160002060006101000a81548173ffffffffffffffffffffffffffffffffffffffff021916908373ffffffffffffffffffffffffffffffffffffffff160217905550808273ffffffffffffffffffffffffffffffffffffffff166113ae83610929565b73ffffffffffffffffffffffffffffffffffffffff167f8c5be1e5ebec7d5bd14f71427d1e84f3dd0314c0f7b2291e5b200ac8c7c3b92560405160405180910390a45050565b60008061140083610929565b90508073ffffffffffffffffffffffffffffffffffffffff168473ffffffffffffffffffffffffffffffffffffffff16148061144257506114418185610fe7565b5b8061148057508373ffffffffffffffffffffffffffffffffffffffff166114688461059a565b73ffffffffffffffffffffffffffffffffffffffff16145b91505092915050565b8273ffffffffffffffffffffffffffffffffffffffff166114a982610929565b73ffffffffffffffffffffffffffffffffffffffff16146114ff576040517f08c379a00000000000000000000000000000000000000000000000000000000081526004016114f690613c62565b60405180910390fd5b600073ffffffffffffffffffffffffffffffffffffffff168273ffffffffffffffffffffffffffffffffffffffff16141561156f576040517f08c379a000000000000000000000000000000000000000000000000000000000815260040161156690613cf4565b60405180910390fd5b61157a838383611c20565b61158560008261133b565b6001600360008573ffffffffffffffffffffffffffffffffffffffff1673ffffffffffffffffffffffffffffffffffffffff16815260200190815260200160002060008282546115d59190613b06565b925050819055506001600360008473ffffffffffffffffffffffffffffffffffffffff1673ffffffffffffffffffffffffffffffffffffffff168152602001908152602001600020600082825461162c9190613b6b565b92505081905550816002600083815260200190815260200160002060006101000a81548173ffffffffffffffffffffffffffffffffffffffff021916908373ffffffffffffffffffffffffffffffffffffffff160217905550808273ffffffffffffffffffffffffffffffffffffffff168473ffffffffffffffffffffffffffffffffffffffff167fddf252ad1be2c89b69c2b068fc378daa952ba7f163c4a11628f55a4df523b3ef60405160405180910390a46116eb838383611c25565b505050565b611701816116fc611333565b611c2a565b50565b61170e8282610b21565b6117e15760016006600084815260200190815260200160002060000160008373ffffffffffffffffffffffffffffffffffffffff1673ffffffffffffffffffffffffffffffffffffffff16815260200190815260200160002060006101000a81548160ff021916908315150217905550611786611333565b73ffffffffffffffffffffffffffffffffffffffff168173ffffffffffffffffffffffffffffffffffffffff16837f2f8788117e7eff1d82e926ec794901d17c78024a50270940304540a733656f0d60405160405180910390a45b5050565b6117ef8282610b21565b156118c35760006006600084815260200190815260200160002060000160008373ffffffffffffffffffffffffffffffffffffffff1673ffffffffffffffffffffffffffffffffffffffff16815260200190815260200160002060006101000a81548160ff021916908315150217905550611868611333565b73ffffffffffffffffffffffffffffffffffffffff168173ffffffffffffffffffffffffffffffffffffffff16837ff6391f5c32d9c69d2a47ea670b442974b53935d1edc7fd64eb21e047a839171b60405160405180910390a45b5050565b8173ffffffffffffffffffffffffffffffffffffffff168373ffffffffffffffffffffffffffffffffffffffff161415611936576040517f08c379a000000000000000000000000000000000000000000000000000000000815260040161192d90613d60565b60405180910390fd5b80600560008573ffffffffffffffffffffffffffffffffffffffff1673ffffffffffffffffffffffffffffffffffffffff16815260200190815260200160002060008473ffffffffffffffffffffffffffffffffffffffff1673ffffffffffffffffffffffffffffffffffffffff16815260200190815260200160002060006101000a81548160ff0219169083151502179055508173ffffffffffffffffffffffffffffffffffffffff168373ffffffffffffffffffffffffffffffffffffffff167f17307eab39ab6107e8899845ad3d59bd9653f200f220920489ca2b5937696c3183604051611a2791906124a4565b60405180910390a3505050565b611a3f848484611489565b611a4b84848484611cc7565b611a8a576040517f08c379a0000000000000000000000000000000000000000000000000000000008152600401611a8190613df2565b60405180910390fd5b50505050565b60008073ffffffffffffffffffffffffffffffffffffffff166002600084815260200190815260200160002060009054906101000a900473ffffffffffffffffffffffffffffffffffffffff1673ffffffffffffffffffffffffffffffffffffffff1614159050919050565b600081600001549050919050565b611b24828260405180602001604052806000815250611e4f565b5050565b6001816000016000828254019250508190555050565b60007f80ac58cd000000000000000000000000000000000000000000000000000000007bffffffffffffffffffffffffffffffffffffffffffffffffffffffff1916827bffffffffffffffffffffffffffffffffffffffffffffffffffffffff19161480611c0957507f5b5e139f000000000000000000000000000000000000000000000000000000007bffffffffffffffffffffffffffffffffffffffffffffffffffffffff1916827bffffffffffffffffffffffffffffffffffffffffffffffffffffffff1916145b80611c195750611c1882611eaa565b5b9050919050565b505050565b505050565b611c348282610b21565b611cc357611c598173ffffffffffffffffffffffffffffffffffffffff166014611f14565b611c678360001c6020611f14565b604051602001611c78929190613eaa565b6040516020818303038152906040526040517f08c379a0000000000000000000000000000000000000000000000000000000008152600401611cba9190612558565b60405180910390fd5b5050565b6000611ce88473ffffffffffffffffffffffffffffffffffffffff16612150565b15611e42578373ffffffffffffffffffffffffffffffffffffffff1663150b7a02611d11611333565b8786866040518563ffffffff1660e01b8152600401611d339493929190613f39565b6020604051808303816000875af1925050508015611d6f57506040513d601f19601f82011682018060405250810190611d6c9190613f9a565b60015b611df2573d8060008114611d9f576040519150601f19603f3d011682016040523d82523d6000602084013e611da4565b606091505b50600081511415611dea576040517f08c379a0000000000000000000000000000000000000000000000000000000008152600401611de190613df2565b60405180910390fd5b805181602001fd5b63150b7a0260e01b7bffffffffffffffffffffffffffffffffffffffffffffffffffffffff1916817bffffffffffffffffffffffffffffffffffffffffffffffffffffffff191614915050611e47565b600190505b949350505050565b611e598383612173565b611e666000848484611cc7565b611ea5576040517f08c379a0000000000000000000000000000000000000000000000000000000008152600401611e9c90613df2565b60405180910390fd5b505050565b60007f01ffc9a7000000000000000000000000000000000000000000000000000000007bffffffffffffffffffffffffffffffffffffffffffffffffffffffff1916827bffffffffffffffffffffffffffffffffffffffffffffffffffffffff1916149050919050565b606060006002836002611f279190613fc7565b611f319190613b6b565b67ffffffffffffffff811115611f4a57611f496127cf565b5b6040519080825280601f01601f191660200182016040528015611f7c5781602001600182028036833780820191505090505b5090507f300000000000000000000000000000000000000000000000000000000000000081600081518110611fb457611fb3613bc1565b5b60200101907effffffffffffffffffffffffffffffffffffffffffffffffffffffffffffff1916908160001a9053507f78000000000000000000000000000000000000000000000000000000000000008160018151811061201857612017613bc1565b5b60200101907effffffffffffffffffffffffffffffffffffffffffffffffffffffffffffff1916908160001a905350600060018460026120589190613fc7565b6120629190613b6b565b90505b6001811115612102577f3031323334353637383961626364656600000000000000000000000000000000600f8616601081106120a4576120a3613bc1565b5b1a60f81b8282815181106120bb576120ba613bc1565b5b60200101907effffffffffffffffffffffffffffffffffffffffffffffffffffffffffffff1916908160001a905350600485901c9450806120fb90614021565b9050612065565b5060008414612146576040517f08c379a000000000000000000000000000000000000000000000000000000000815260040161213d90614097565b60405180910390fd5b8091505092915050565b6000808273ffffffffffffffffffffffffffffffffffffffff163b119050919050565b600073ffffffffffffffffffffffffffffffffffffffff168273ffffffffffffffffffffffffffffffffffffffff1614156121e3576040517f08c379a00000000000000000000000000000000000000000000000000000000081526004016121da90614103565b60405180910390fd5b6121ec81611a90565b1561222c576040517f08c379a00000000000000000000000000000000000000000000000000000000081526004016122239061416f565b60405180910390fd5b61223860008383611c20565b6001600360008473ffffffffffffffffffffffffffffffffffffffff1673ffffffffffffffffffffffffffffffffffffffff16815260200190815260200160002060008282546122889190613b6b565b92505081905550816002600083815260200190815260200160002060006101000a81548173ffffffffffffffffffffffffffffffffffffffff021916908373ffffffffffffffffffffffffffffffffffffffff160217905550808273ffffffffffffffffffffffffffffffffffffffff16600073ffffffffffffffffffffffffffffffffffffffff167fddf252ad1be2c89b69c2b068fc378daa952ba7f163c4a11628f55a4df523b3ef60405160405180910390a461234960008383611c25565b5050565b82805461235990612d27565b90600052602060002090601f01602090048101928261237b57600085556123c2565b82601f1061239457805160ff19168380011785556123c2565b828001600101855582156123c2579182015b828111156123c15782518255916020019190600101906123a6565b5b5090506123cf91906123d3565b5090565b5b808211156123ec5760008160009055506001016123d4565b5090565b6000604051905090565b600080fd5b600080fd5b60007fffffffff0000000000000000000000000000000000000000000000000000000082169050919050565b61243981612404565b811461244457600080fd5b50565b60008135905061245681612430565b92915050565b600060208284031215612472576124716123fa565b5b600061248084828501612447565b91505092915050565b60008115159050919050565b61249e81612489565b82525050565b60006020820190506124b96000830184612495565b92915050565b600081519050919050565b600082825260208201905092915050565b60005b838110156124f95780820151818401526020810190506124de565b83811115612508576000848401525b50505050565b6000601f19601f8301169050919050565b600061252a826124bf565b61253481856124ca565b93506125448185602086016124db565b61254d8161250e565b840191505092915050565b60006020820190508181036000830152612572818461251f565b905092915050565b6000819050919050565b61258d8161257a565b811461259857600080fd5b50565b6000813590506125aa81612584565b92915050565b6000602082840312156125c6576125c56123fa565b5b60006125d48482850161259b565b91505092915050565b600073ffffffffffffffffffffffffffffffffffffffff82169050919050565b6000612608826125dd565b9050919050565b612618816125fd565b82525050565b6000602082019050612633600083018461260f565b92915050565b612642816125fd565b811461264d57600080fd5b50565b60008135905061265f81612639565b92915050565b6000806040838503121561267c5761267b6123fa565b5b600061268a85828601612650565b925050602061269b8582860161259b565b9150509250929050565b6000806000606084860312156126be576126bd6123fa565b5b60006126cc86828701612650565b93505060206126dd86828701612650565b92505060406126ee8682870161259b565b9150509250925092565b6000819050919050565b61270b816126f8565b811461271657600080fd5b50565b60008135905061272881612702565b92915050565b600060208284031215612744576127436123fa565b5b600061275284828501612719565b91505092915050565b612764816126f8565b82525050565b600060208201905061277f600083018461275b565b92915050565b6000806040838503121561279c5761279b6123fa565b5b60006127aa85828601612719565b92505060206127bb85828601612650565b9150509250929050565b600080fd5b600080fd5b7f4e487b7100000000000000000000000000000000000000000000000000000000600052604160045260246000fd5b6128078261250e565b810181811067ffffffffffffffff82111715612826576128256127cf565b5b80604052505050565b60006128396123f0565b905061284582826127fe565b919050565b600067ffffffffffffffff821115612865576128646127cf565b5b61286e8261250e565b9050602081019050919050565b82818337600083830152505050565b600061289d6128988461284a565b61282f565b9050828152602081018484840111156128b9576128b86127ca565b5b6128c484828561287b565b509392505050565b600082601f8301126128e1576128e06127c5565b5b81356128f184826020860161288a565b91505092915050565b6000602082840312156129105761290f6123fa565b5b600082013567ffffffffffffffff81111561292e5761292d6123ff565b5b61293a848285016128cc565b91505092915050565b600060208284031215612959576129586123fa565b5b600061296784828501612650565b91505092915050565b6129798161257a565b82525050565b60006020820190506129946000830184612970565b92915050565b6129a381612489565b81146129ae57600080fd5b50565b6000813590506129c08161299a565b92915050565b600080604083850312156129dd576129dc6123fa565b5b60006129eb85828601612650565b92505060206129fc858286016129b1565b9150509250929050565b600067ffffffffffffffff821115612a2157612a206127cf565b5b612a2a8261250e565b9050602081019050919050565b6000612a4a612a4584612a06565b61282f565b905082815260208101848484011115612a6657612a656127ca565b5b612a7184828561287b565b509392505050565b600082601f830112612a8e57612a8d6127c5565b5b8135612a9e848260208601612a37565b91505092915050565b60008060008060808587031215612ac157612ac06123fa565b5b6000612acf87828801612650565b9450506020612ae087828801612650565b9350506040612af18782880161259b565b925050606085013567ffffffffffffffff811115612b1257612b116123ff565b5b612b1e87828801612a79565b91505092959194509250565b60008060008060008060008060006101208a8c031215612b4d57612b4c6123fa565b5b6000612b5b8c828d01612650565b99505060208a013567ffffffffffffffff811115612b7c57612b7b6123ff565b5b612b888c828d016128cc565b98505060408a013567ffffffffffffffff811115612ba957612ba86123ff565b5b612bb58c828d016128cc565b97505060608a013567ffffffffffffffff811115612bd657612bd56123ff565b5b612be28c828d016128cc565b96505060808a013567ffffffffffffffff811115612c0357612c026123ff565b5b612c0f8c828d016128cc565b95505060a08a013567ffffffffffffffff811115612c3057612c2f6123ff565b5b612c3c8c828d016128cc565b94505060c08a013567ffffffffffffffff811115612c5d57612c5c6123ff565b5b612c698c828d016128cc565b93505060e08a013567ffffffffffffffff811115612c8a57612c896123ff565b5b612c968c828d016128cc565b925050610100612ca88c828d0161259b565b9150509295985092959850929598565b60008060408385031215612ccf57612cce6123fa565b5b6000612cdd85828601612650565b9250506020612cee85828601612650565b9150509250929050565b7f4e487b7100000000000000000000000000000000000000000000000000000000600052602260045260246000fd5b60006002820490506001821680612d3f57607f821691505b60208210811415612d5357612d52612cf8565b5b50919050565b600081905092915050565b6000612d6f826124bf565b612d798185612d59565b9350612d898185602086016124db565b80840191505092915050565b7f53454c4543542532302a25323046524f4d253230000000000000000000000000815250565b60008190508160005260206000209050919050565b60008154612ddd81612d27565b612de78186612d59565b94506001821660008114612e025760018114612e1357612e46565b60ff19831686528186019350612e46565b612e1c85612dbb565b60005b83811015612e3e57815481890152600182019150602081019050612e1f565b838801955050505b50505092915050565b6000612e5b8285612d64565b9150612e6682612d95565b601482019150612e768284612dd0565b91508190509392505050565b7f4552433732313a20617070726f76616c20746f2063757272656e74206f776e6560008201527f7200000000000000000000000000000000000000000000000000000000000000602082015250565b6000612ede6021836124ca565b9150612ee982612e82565b604082019050919050565b60006020820190508181036000830152612f0d81612ed1565b9050919050565b7f4552433732313a20617070726f76652063616c6c6572206973206e6f7420746f60008201527f6b656e206f776e6572206e6f7220617070726f76656420666f7220616c6c0000602082015250565b6000612f70603e836124ca565b9150612f7b82612f14565b604082019050919050565b60006020820190508181036000830152612f9f81612f63565b9050919050565b7f4552433732313a2063616c6c6572206973206e6f7420746f6b656e206f776e6560008201527f72206e6f7220617070726f766564000000000000000000000000000000000000602082015250565b6000613002602e836124ca565b915061300d82612fa6565b604082019050919050565b6000602082019050818103600083015261303181612ff5565b9050919050565b7f416363657373436f6e74726f6c3a2063616e206f6e6c792072656e6f756e636560008201527f20726f6c657320666f722073656c660000000000000000000000000000000000602082015250565b6000613094602f836124ca565b915061309f82613038565b604082019050919050565b600060208201905081810360008301526130c381613087565b9050919050565b7f4552433732313a20696e76616c696420746f6b656e2049440000000000000000600082015250565b60006131006018836124ca565b915061310b826130ca565b602082019050919050565b6000602082019050818103600083015261312f816130f3565b9050919050565b7f4552433732313a2061646472657373207a65726f206973206e6f74206120766160008201527f6c6964206f776e65720000000000000000000000000000000000000000000000602082015250565b60006131926029836124ca565b915061319d82613136565b604082019050919050565b600060208201905081810360008301526131c181613185565b9050919050565b7f4552433732314d657461646174613a2055524920717565727920666f72206e6f60008201527f6e6578697374656e7420746f6b656e0000000000000000000000000000000000602082015250565b6000613224602f836124ca565b915061322f826131c8565b604082019050919050565b6000602082019050818103600083015261325381613217565b9050919050565b7f53454c4543542532306a736f6e5f6f626a65637425323825323769642532372560008201527f3243746f6b656e69642532432532376e616d652532372532436e616d6525324360208201527f2532376465736372697074696f6e2532372532436465736372697074696f6e2560408201527f3243253237696d616765253237253243696d616765253243253237657874657260608201527f6e616c5f75726c25323725324365787465726e616c5f75726c2532432532376160808201527f7474726962757465732532372532436a736f6e5f67726f75705f61727261792560a08201527f32386a736f6e5f6f626a65637425323825323769636f6e25323725324369636f60c08201527f6e253243253237646973706c61795f74797065253237253243646973706c617960e08201527f5f7479706525324325323774726169745f7479706525323725324374726169746101008201527f5f7479706525324325323776616c756525323725324376616c756525323925326101208201527f3925323925323046524f4d25323000000000000000000000000000000000000061014082015250565b600061341061014e83612d59565b915061341b8261325a565b61014e82019050919050565b7f2532304a4f494e25323000000000000000000000000000000000000000000000600082015250565b600061345d600a83612d59565b915061346882613427565b600a82019050919050565b7f2532304f4e253230000000000000000000000000000000000000000000000000600082015250565b60006134a9600883612d59565b91506134b482613473565b600882019050919050565b7f253245746f6b656e696425323025334425323000000000000000000000000000600082015250565b60006134f5601383612d59565b9150613500826134bf565b601382019050919050565b7f2532456d61696e7461626c655f746f6b656e696425323057484552452532307460008201527f6f6b656e69642533440000000000000000000000000000000000000000000000602082015250565b6000613567602983612d59565b91506135728261350b565b602982019050919050565b600061358882613402565b91506135948287612dd0565b915061359f82613450565b91506135ab8286612dd0565b91506135b68261349c565b91506135c28285612dd0565b91506135cd826134e8565b91506135d98284612dd0565b91506135e48261355a565b915081905095945050505050565b7f6d6f64653d6c69737426733d0000000000000000000000000000000000000000600082015250565b6000613628600c83612d59565b9150613633826135f2565b600c82019050919050565b7f25323067726f75702532306279253230746f6b656e6964000000000000000000600082015250565b6000613674601783612d59565b915061367f8261363e565b601782019050919050565b60006136968286612d64565b91506136a18261361b565b91506136ad8285612d64565b91506136b98284612d64565b91506136c482613667565b9150819050949350505050565b7f494e5345525420494e544f200000000000000000000000000000000000000000815250565b7f2028746f6b656e69642c206e616d652c206465736372697074696f6e2c20696d60008201527f6167652c2065787465726e616c5f75726c292056414c55455320282700000000602082015250565b6000613753603c83612d59565b915061375e826136f7565b603c82019050919050565b7f272c202700000000000000000000000000000000000000000000000000000000815250565b7f2729000000000000000000000000000000000000000000000000000000000000815250565b60006137c0826136d1565b600c820191506137d08289612dd0565b91506137db82613746565b91506137e78288612d64565b91506137f282613769565b6004820191506138028287612d64565b915061380d82613769565b60048201915061381d8286612d64565b915061382882613769565b6004820191506138388285612d64565b915061384382613769565b6004820191506138538284612d64565b915061385e8261378f565b600282019150819050979650505050505050565b6000606082019050613887600083018661260f565b6138946020830185612970565b81810360408301526138a6818461251f565b9050949350505050565b7f20286d61696e7461626c655f746f6b656e69642c2069636f6e2c20646973706c60008201527f61795f747970652c2074726169745f747970652c2076616c7565292056414c5560208201527f4553202827000000000000000000000000000000000000000000000000000000604082015250565b6000613932604583612d59565b915061393d826138b0565b604582019050919050565b6000613953826136d1565b600c820191506139638289612dd0565b915061396e82613925565b915061397a8288612d64565b915061398582613769565b6004820191506139958287612d64565b91506139a082613769565b6004820191506139b08286612d64565b91506139bb82613769565b6004820191506139cb8285612d64565b91506139d682613769565b6004820191506139e68284612d64565b91506139f18261378f565b600282019150819050979650505050505050565b6000604082019050613a1a6000830185612970565b613a276020830184612970565b9392505050565b7f4e487b7100000000000000000000000000000000000000000000000000000000600052601160045260246000fd5b6000613a688261257a565b91507fffffffffffffffffffffffffffffffffffffffffffffffffffffffffffffffff821415613a9b57613a9a613a2e565b5b600182019050919050565b7f4e487b7100000000000000000000000000000000000000000000000000000000600052601260045260246000fd5b6000613ae08261257a565b9150613aeb8361257a565b925082613afb57613afa613aa6565b5b828204905092915050565b6000613b118261257a565b9150613b1c8361257a565b925082821015613b2f57613b2e613a2e565b5b828203905092915050565b6000613b458261257a565b9150613b508361257a565b925082613b6057613b5f613aa6565b5b828206905092915050565b6000613b768261257a565b9150613b818361257a565b9250827fffffffffffffffffffffffffffffffffffffffffffffffffffffffffffffffff03821115613bb657613bb5613a2e565b5b828201905092915050565b7f4e487b7100000000000000000000000000000000000000000000000000000000600052603260045260246000fd5b7f4552433732313a207472616e736665722066726f6d20696e636f72726563742060008201527f6f776e6572000000000000000000000000000000000000000000000000000000602082015250565b6000613c4c6025836124ca565b9150613c5782613bf0565b604082019050919050565b60006020820190508181036000830152613c7b81613c3f565b9050919050565b7f4552433732313a207472616e7366657220746f20746865207a65726f2061646460008201527f7265737300000000000000000000000000000000000000000000000000000000602082015250565b6000613cde6024836124ca565b9150613ce982613c82565b604082019050919050565b60006020820190508181036000830152613d0d81613cd1565b9050919050565b7f4552433732313a20617070726f766520746f2063616c6c657200000000000000600082015250565b6000613d4a6019836124ca565b9150613d5582613d14565b602082019050919050565b60006020820190508181036000830152613d7981613d3d565b9050919050565b7f4552433732313a207472616e7366657220746f206e6f6e20455243373231526560008201527f63656976657220696d706c656d656e7465720000000000000000000000000000602082015250565b6000613ddc6032836124ca565b9150613de782613d80565b604082019050919050565b60006020820190508181036000830152613e0b81613dcf565b9050919050565b7f416363657373436f6e74726f6c3a206163636f756e7420000000000000000000600082015250565b6000613e48601783612d59565b9150613e5382613e12565b601782019050919050565b7f206973206d697373696e6720726f6c6520000000000000000000000000000000600082015250565b6000613e94601183612d59565b9150613e9f82613e5e565b601182019050919050565b6000613eb582613e3b565b9150613ec18285612d64565b9150613ecc82613e87565b9150613ed88284612d64565b91508190509392505050565b600081519050919050565b600082825260208201905092915050565b6000613f0b82613ee4565b613f158185613eef565b9350613f258185602086016124db565b613f2e8161250e565b840191505092915050565b6000608082019050613f4e600083018761260f565b613f5b602083018661260f565b613f686040830185612970565b8181036060830152613f7a8184613f00565b905095945050505050565b600081519050613f9481612430565b92915050565b600060208284031215613fb057613faf6123fa565b5b6000613fbe84828501613f85565b91505092915050565b6000613fd28261257a565b9150613fdd8361257a565b9250817fffffffffffffffffffffffffffffffffffffffffffffffffffffffffffffffff048311821515161561401657614015613a2e565b5b828202905092915050565b600061402c8261257a565b915060008214156140405761403f613a2e565b5b600182039050919050565b7f537472696e67733a20686578206c656e67746820696e73756666696369656e74600082015250565b60006140816020836124ca565b915061408c8261404b565b602082019050919050565b600060208201905081810360008301526140b081614074565b9050919050565b7f4552433732313a206d696e7420746f20746865207a65726f2061646472657373600082015250565b60006140ed6020836124ca565b91506140f8826140b7565b602082019050919050565b6000602082019050818103600083015261411c816140e0565b9050919050565b7f4552433732313a20746f6b656e20616c7265616479206d696e74656400000000600082015250565b6000614159601c836124ca565b915061416482614123565b602082019050919050565b600060208201905081810360008301526141888161414c565b905091905056fea2646970667358221220c45a94297628c81db94fb30b6c86401dc65938704433318022e7b1f6e2dcfba064736f6c634300080c003368747470733a2f2f746573746e65742e7461626c656c616e642e6e6574776f726b2f71756572793f",
  "linkReferences": {},
  "deployedLinkReferences": {}
}