{
  "_format": "hh-sol-artifact-1",
  "contractName": "MTEA",
  "sourceName": "contracts/mint_tea_ERC721.sol",
  "abi": [
    {
      "inputs": [
        {
          "internalType": "address",
          "name": "registry",
          "type": "address"
        }
      ],
      "stateMutability": "nonpayable",
      "type": "constructor"
    },
    {
      "anonymous": false,
      "inputs": [
        {
          "indexed": true,
          "internalType": "address",
          "name": "owner",
          "type": "address"
        },
        {
          "indexed": true,
          "internalType": "address",
          "name": "approved",
          "type": "address"
        },
        {
          "indexed": true,
          "internalType": "uint256",
          "name": "tokenId",
          "type": "uint256"
        }
      ],
      "name": "Approval",
      "type": "event"
    },
    {
      "anonymous": false,
      "inputs": [
        {
          "indexed": true,
          "internalType": "address",
          "name": "owner",
          "type": "address"
        },
        {
          "indexed": true,
          "internalType": "address",
          "name": "operator",
          "type": "address"
        },
        {
          "indexed": false,
          "internalType": "bool",
          "name": "approved",
          "type": "bool"
        }
      ],
      "name": "ApprovalForAll",
      "type": "event"
    },
    {
      "anonymous": false,
      "inputs": [
        {
          "indexed": true,
          "internalType": "address",
          "name": "from",
          "type": "address"
        },
        {
          "indexed": false,
          "internalType": "uint256",
          "name": "timestamp",
          "type": "uint256"
        },
        {
          "indexed": false,
          "internalType": "uint256",
          "name": "tokenId",
          "type": "uint256"
        }
      ],
      "name": "NewNftMinted",
      "type": "event"
    },
    {
      "anonymous": false,
      "inputs": [
        {
          "indexed": true,
          "internalType": "bytes32",
          "name": "role",
          "type": "bytes32"
        },
        {
          "indexed": true,
          "internalType": "bytes32",
          "name": "previousAdminRole",
          "type": "bytes32"
        },
        {
          "indexed": true,
          "internalType": "bytes32",
          "name": "newAdminRole",
          "type": "bytes32"
        }
      ],
      "name": "RoleAdminChanged",
      "type": "event"
    },
    {
      "anonymous": false,
      "inputs": [
        {
          "indexed": true,
          "internalType": "bytes32",
          "name": "role",
          "type": "bytes32"
        },
        {
          "indexed": true,
          "internalType": "address",
          "name": "account",
          "type": "address"
        },
        {
          "indexed": true,
          "internalType": "address",
          "name": "sender",
          "type": "address"
        }
      ],
      "name": "RoleGranted",
      "type": "event"
    },
    {
      "anonymous": false,
      "inputs": [
        {
          "indexed": true,
          "internalType": "bytes32",
          "name": "role",
          "type": "bytes32"
        },
        {
          "indexed": true,
          "internalType": "address",
          "name": "account",
          "type": "address"
        },
        {
          "indexed": true,
          "internalType": "address",
          "name": "sender",
          "type": "address"
        }
      ],
      "name": "RoleRevoked",
      "type": "event"
    },
    {
      "anonymous": false,
      "inputs": [
        {
          "indexed": true,
          "internalType": "address",
          "name": "from",
          "type": "address"
        },
        {
          "indexed": true,
          "internalType": "address",
          "name": "to",
          "type": "address"
        },
        {
          "indexed": true,
          "internalType": "uint256",
          "name": "tokenId",
          "type": "uint256"
        }
      ],
      "name": "Transfer",
      "type": "event"
    },
    {
      "anonymous": false,
      "inputs": [
        {
          "indexed": true,
          "internalType": "address",
          "name": "from",
          "type": "address"
        },
        {
          "indexed": false,
          "internalType": "uint256",
          "name": "timestamp",
          "type": "uint256"
        },
        {
          "indexed": false,
          "internalType": "uint256",
          "name": "tokenId",
          "type": "uint256"
        },
        {
          "indexed": false,
          "internalType": "uint256",
          "name": "_trait_id",
          "type": "uint256"
        }
      ],
      "name": "newAttributeAdded",
      "type": "event"
    },
    {
      "anonymous": false,
      "inputs": [
        {
          "indexed": true,
          "internalType": "address",
          "name": "from",
          "type": "address"
        },
        {
          "indexed": false,
          "internalType": "uint256",
          "name": "timestamp",
          "type": "uint256"
        },
        {
          "indexed": false,
          "internalType": "uint256",
          "name": "_attributesTableId",
          "type": "uint256"
        },
        {
          "indexed": false,
          "internalType": "string",
          "name": "_display_type",
          "type": "string"
        },
        {
          "indexed": false,
          "internalType": "uint256",
          "name": "tokenId",
          "type": "uint256"
        },
        {
          "indexed": false,
          "internalType": "uint256",
          "name": "_trait_id",
          "type": "uint256"
        }
      ],
      "name": "traitDisplayTypeUpdated",
      "type": "event"
    },
    {
      "anonymous": false,
      "inputs": [
        {
          "indexed": true,
          "internalType": "address",
          "name": "from",
          "type": "address"
        },
        {
          "indexed": false,
          "internalType": "uint256",
          "name": "timestamp",
          "type": "uint256"
        },
        {
          "indexed": false,
          "internalType": "uint256",
          "name": "_attributesTableId",
          "type": "uint256"
        },
        {
          "indexed": false,
          "internalType": "string",
          "name": "_icon",
          "type": "string"
        },
        {
          "indexed": false,
          "internalType": "uint256",
          "name": "tokenId",
          "type": "uint256"
        },
        {
          "indexed": false,
          "internalType": "uint256",
          "name": "_trait_id",
          "type": "uint256"
        }
      ],
      "name": "traitIconUpdated",
      "type": "event"
    },
    {
      "anonymous": false,
      "inputs": [
        {
          "indexed": true,
          "internalType": "address",
          "name": "from",
          "type": "address"
        },
        {
          "indexed": false,
          "internalType": "uint256",
          "name": "timestamp",
          "type": "uint256"
        },
        {
          "indexed": false,
          "internalType": "uint256",
          "name": "_attributesTableId",
          "type": "uint256"
        },
        {
          "indexed": false,
          "internalType": "string",
          "name": "_trait_type",
          "type": "string"
        },
        {
          "indexed": false,
          "internalType": "uint256",
          "name": "tokenId",
          "type": "uint256"
        },
        {
          "indexed": false,
          "internalType": "uint256",
          "name": "_trait_id",
          "type": "uint256"
        }
      ],
      "name": "traitTypeUpdated",
      "type": "event"
    },
    {
      "anonymous": false,
      "inputs": [
        {
          "indexed": true,
          "internalType": "address",
          "name": "from",
          "type": "address"
        },
        {
          "indexed": false,
          "internalType": "uint256",
          "name": "timestamp",
          "type": "uint256"
        },
        {
          "indexed": false,
          "internalType": "uint256",
          "name": "_attributesTableId",
          "type": "uint256"
        },
        {
          "indexed": false,
          "internalType": "string",
          "name": "_value",
          "type": "string"
        },
        {
          "indexed": false,
          "internalType": "uint256",
          "name": "tokenId",
          "type": "uint256"
        },
        {
          "indexed": false,
          "internalType": "uint256",
          "name": "_trait_id",
          "type": "uint256"
        }
      ],
      "name": "valueUpdated",
      "type": "event"
    },
    {
      "inputs": [],
      "name": "DEFAULT_ADMIN_ROLE",
      "outputs": [
        {
          "internalType": "bytes32",
          "name": "",
          "type": "bytes32"
        }
      ],
      "stateMutability": "view",
      "type": "function"
    },
    {
      "inputs": [
        {
          "internalType": "uint256",
          "name": "_tokenId",
          "type": "uint256"
        },
        {
          "internalType": "string",
          "name": "_icon",
          "type": "string"
        },
        {
          "internalType": "string",
          "name": "_display_type",
          "type": "string"
        },
        {
          "internalType": "string",
          "name": "_trait_type",
          "type": "string"
        },
        {
          "internalType": "string",
          "name": "_value",
          "type": "string"
        }
      ],
      "name": "add_new_attribute",
      "outputs": [
        {
          "internalType": "uint256",
          "name": "",
          "type": "uint256"
        }
      ],
      "stateMutability": "nonpayable",
      "type": "function"
    },
    {
      "inputs": [
        {
          "internalType": "address",
          "name": "to",
          "type": "address"
        },
        {
          "internalType": "uint256",
          "name": "tokenId",
          "type": "uint256"
        }
      ],
      "name": "approve",
      "outputs": [],
      "stateMutability": "nonpayable",
      "type": "function"
    },
    {
      "inputs": [],
      "name": "attributesTable",
      "outputs": [
        {
          "internalType": "string",
          "name": "",
          "type": "string"
        }
      ],
      "stateMutability": "view",
      "type": "function"
    },
    {
      "inputs": [],
      "name": "attributes_metadataURI",
      "outputs": [
        {
          "internalType": "string",
          "name": "",
          "type": "string"
        }
      ],
      "stateMutability": "view",
      "type": "function"
    },
    {
      "inputs": [
        {
          "internalType": "address",
          "name": "owner",
          "type": "address"
        }
      ],
      "name": "balanceOf",
      "outputs": [
        {
          "internalType": "uint256",
          "name": "",
          "type": "uint256"
        }
      ],
      "stateMutability": "view",
      "type": "function"
    },
    {
      "inputs": [
        {
          "internalType": "uint256",
          "name": "tokenId",
          "type": "uint256"
        }
      ],
      "name": "getApproved",
      "outputs": [
        {
          "internalType": "address",
          "name": "",
          "type": "address"
        }
      ],
      "stateMutability": "view",
      "type": "function"
    },
    {
      "inputs": [
        {
          "internalType": "bytes32",
          "name": "role",
          "type": "bytes32"
        }
      ],
      "name": "getRoleAdmin",
      "outputs": [
        {
          "internalType": "bytes32",
          "name": "",
          "type": "bytes32"
        }
      ],
      "stateMutability": "view",
      "type": "function"
    },
    {
      "inputs": [
        {
          "internalType": "bytes32",
          "name": "role",
          "type": "bytes32"
        },
        {
          "internalType": "address",
          "name": "account",
          "type": "address"
        }
      ],
      "name": "grantRole",
      "outputs": [],
      "stateMutability": "nonpayable",
      "type": "function"
    },
    {
      "inputs": [
        {
          "internalType": "bytes32",
          "name": "role",
          "type": "bytes32"
        },
        {
          "internalType": "address",
          "name": "account",
          "type": "address"
        }
      ],
      "name": "hasRole",
      "outputs": [
        {
          "internalType": "bool",
          "name": "",
          "type": "bool"
        }
      ],
      "stateMutability": "view",
      "type": "function"
    },
    {
      "inputs": [
        {
          "internalType": "address",
          "name": "owner",
          "type": "address"
        },
        {
          "internalType": "address",
          "name": "operator",
          "type": "address"
        }
      ],
      "name": "isApprovedForAll",
      "outputs": [
        {
          "internalType": "bool",
          "name": "",
          "type": "bool"
        }
      ],
      "stateMutability": "view",
      "type": "function"
    },
    {
      "inputs": [],
      "name": "mainTable",
      "outputs": [
        {
          "internalType": "string",
          "name": "",
          "type": "string"
        }
      ],
      "stateMutability": "view",
      "type": "function"
    },
    {
      "inputs": [],
      "name": "main_metadataURI",
      "outputs": [
        {
          "internalType": "string",
          "name": "",
          "type": "string"
        }
      ],
      "stateMutability": "view",
      "type": "function"
    },
    {
      "inputs": [],
      "name": "name",
      "outputs": [
        {
          "internalType": "string",
          "name": "",
          "type": "string"
        }
      ],
      "stateMutability": "view",
      "type": "function"
    },
    {
      "inputs": [
        {
          "internalType": "uint256",
          "name": "tokenId",
          "type": "uint256"
        }
      ],
      "name": "ownerOf",
      "outputs": [
        {
          "internalType": "address",
          "name": "",
          "type": "address"
        }
      ],
      "stateMutability": "view",
      "type": "function"
    },
    {
      "inputs": [
        {
          "internalType": "bytes32",
          "name": "role",
          "type": "bytes32"
        },
        {
          "internalType": "address",
          "name": "account",
          "type": "address"
        }
      ],
      "name": "renounceRole",
      "outputs": [],
      "stateMutability": "nonpayable",
      "type": "function"
    },
    {
      "inputs": [
        {
          "internalType": "bytes32",
          "name": "role",
          "type": "bytes32"
        },
        {
          "internalType": "address",
          "name": "account",
          "type": "address"
        }
      ],
      "name": "revokeRole",
      "outputs": [],
      "stateMutability": "nonpayable",
      "type": "function"
    },
    {
      "inputs": [
        {
          "internalType": "address",
          "name": "to",
          "type": "address"
        },
        {
          "internalType": "string",
          "name": "_name",
          "type": "string"
        },
        {
          "internalType": "string",
          "name": "_description",
          "type": "string"
        },
        {
          "internalType": "string",
          "name": "_image_url",
          "type": "string"
        },
        {
          "internalType": "string",
          "name": "_external_url",
          "type": "string"
        },
        {
          "internalType": "string",
          "name": "_icon",
          "type": "string"
        },
        {
          "internalType": "string",
          "name": "_display_type",
          "type": "string"
        },
        {
          "internalType": "string",
          "name": "_trait_type",
          "type": "string"
        },
        {
          "internalType": "string",
          "name": "_value",
          "type": "string"
        }
      ],
      "name": "safeMint",
      "outputs": [
        {
          "internalType": "uint256",
          "name": "",
          "type": "uint256"
        }
      ],
      "stateMutability": "nonpayable",
      "type": "function"
    },
    {
      "inputs": [
        {
          "internalType": "address",
          "name": "from",
          "type": "address"
        },
        {
          "internalType": "address",
          "name": "to",
          "type": "address"
        },
        {
          "internalType": "uint256",
          "name": "tokenId",
          "type": "uint256"
        }
      ],
      "name": "safeTransferFrom",
      "outputs": [],
      "stateMutability": "nonpayable",
      "type": "function"
    },
    {
      "inputs": [
        {
          "internalType": "address",
          "name": "from",
          "type": "address"
        },
        {
          "internalType": "address",
          "name": "to",
          "type": "address"
        },
        {
          "internalType": "uint256",
          "name": "tokenId",
          "type": "uint256"
        },
        {
          "internalType": "bytes",
          "name": "data",
          "type": "bytes"
        }
      ],
      "name": "safeTransferFrom",
      "outputs": [],
      "stateMutability": "nonpayable",
      "type": "function"
    },
    {
      "inputs": [
        {
          "internalType": "address",
          "name": "operator",
          "type": "address"
        },
        {
          "internalType": "bool",
          "name": "approved",
          "type": "bool"
        }
      ],
      "name": "setApprovalForAll",
      "outputs": [],
      "stateMutability": "nonpayable",
      "type": "function"
    },
    {
      "inputs": [
        {
          "internalType": "string",
          "name": "baseURI",
          "type": "string"
        }
      ],
      "name": "setBaseURI",
      "outputs": [],
      "stateMutability": "nonpayable",
      "type": "function"
    },
    {
      "inputs": [
        {
          "internalType": "bytes4",
          "name": "interfaceId",
          "type": "bytes4"
        }
      ],
      "name": "supportsInterface",
      "outputs": [
        {
          "internalType": "bool",
          "name": "",
          "type": "bool"
        }
      ],
      "stateMutability": "view",
      "type": "function"
    },
    {
      "inputs": [],
      "name": "symbol",
      "outputs": [
        {
          "internalType": "string",
          "name": "",
          "type": "string"
        }
      ],
      "stateMutability": "view",
      "type": "function"
    },
    {
      "inputs": [
        {
          "internalType": "uint256",
          "name": "_tokenId",
          "type": "uint256"
        }
      ],
      "name": "tokenURI",
      "outputs": [
        {
          "internalType": "string",
          "name": "",
          "type": "string"
        }
      ],
      "stateMutability": "view",
      "type": "function"
    },
    {
      "inputs": [
        {
          "internalType": "address",
          "name": "from",
          "type": "address"
        },
        {
          "internalType": "address",
          "name": "to",
          "type": "address"
        },
        {
          "internalType": "uint256",
          "name": "tokenId",
          "type": "uint256"
        }
      ],
      "name": "transferFrom",
      "outputs": [],
      "stateMutability": "nonpayable",
      "type": "function"
    },
    {
      "inputs": [
        {
          "internalType": "uint256",
          "name": "tokenId",
          "type": "uint256"
        },
        {
          "internalType": "uint256",
          "name": "_trait_id",
          "type": "uint256"
        },
        {
          "internalType": "string",
          "name": "_display_type",
          "type": "string"
        }
      ],
      "name": "update_display_type",
      "outputs": [],
      "stateMutability": "nonpayable",
      "type": "function"
    },
    {
      "inputs": [
        {
          "internalType": "uint256",
          "name": "tokenId",
          "type": "uint256"
        },
        {
          "internalType": "uint256",
          "name": "_trait_id",
          "type": "uint256"
        },
        {
          "internalType": "string",
          "name": "_icon",
          "type": "string"
        }
      ],
      "name": "update_icon",
      "outputs": [],
      "stateMutability": "nonpayable",
      "type": "function"
    },
    {
      "inputs": [
        {
          "internalType": "uint256",
          "name": "tokenId",
          "type": "uint256"
        },
        {
          "internalType": "uint256",
          "name": "_trait_id",
          "type": "uint256"
        },
        {
          "internalType": "string",
          "name": "_trait_type",
          "type": "string"
        }
      ],
      "name": "update_trait_type",
      "outputs": [],
      "stateMutability": "nonpayable",
      "type": "function"
    },
    {
      "inputs": [
        {
          "internalType": "uint256",
          "name": "tokenId",
          "type": "uint256"
        },
        {
          "internalType": "uint256",
          "name": "_trait_id",
          "type": "uint256"
        },
        {
          "internalType": "string",
          "name": "_value",
          "type": "string"
        }
      ],
      "name": "update_value",
      "outputs": [],
      "stateMutability": "nonpayable",
      "type": "function"
    }
  ],
  "bytecode": "0x6080604052604051806060016040528060288152602001620066c460289139600790805190602001906200003592919062000731565b506040518060400160405280600881526020017f4d696e745f544541000000000000000000000000000000000000000000000000815250600c90805190602001906200008392919062000731565b503480156200009157600080fd5b50604051620066ec380380620066ec8339818101604052810190620000b791906200084b565b6040518060400160405280600881526020017f4d696e74205465610000000000000000000000000000000000000000000000008152506040518060400160405280600481526020017f6d4e46540000000000000000000000000000000000000000000000000000000081525081600090805190602001906200013b92919062000731565b5080600190805190602001906200015492919062000731565b5050506200016c6000801b336200045260201b60201c565b80600960006101000a81548173ffffffffffffffffffffffffffffffffffffffff021916908373ffffffffffffffffffffffffffffffffffffffff160217905550600960009054906101000a900473ffffffffffffffffffffffffffffffffffffffff1673ffffffffffffffffffffffffffffffffffffffff16633a9151b030600c62000204466200054460201b62001dc61760201c565b6040516020016200021792919062000aed565b6040516020818303038152906040526040518363ffffffff1660e01b81526004016200024592919062000bb8565b6020604051808303816000875af115801562000265573d6000803e3d6000fd5b505050506040513d601f19601f820116820180604052508101906200028b919062000c27565b600a81905550600c620002a9466200054460201b62001dc61760201c565b620002c1600a546200054460201b62001dc61760201c565b604051602001620002d59392919062000c59565b604051602081830303815290604052600d9080519060200190620002fb92919062000731565b50600960009054906101000a900473ffffffffffffffffffffffffffffffffffffffff1673ffffffffffffffffffffffffffffffffffffffff16633a9151b030600c62000353466200054460201b62001dc61760201c565b6040516020016200036692919062000d74565b6040516020818303038152906040526040518363ffffffff1660e01b81526004016200039492919062000bb8565b6020604051808303816000875af1158015620003b4573d6000803e3d6000fd5b505050506040513d601f19601f82011682018060405250810190620003da919062000c27565b600b81905550600c620003f8466200054460201b62001dc61760201c565b62000410600b546200054460201b62001dc61760201c565b604051602001620004249392919062000c59565b604051602081830303815290604052600e90805190602001906200044a92919062000731565b505062000fdd565b620004648282620006be60201b60201c565b620005405760016006600084815260200190815260200160002060000160008373ffffffffffffffffffffffffffffffffffffffff1673ffffffffffffffffffffffffffffffffffffffff16815260200190815260200160002060006101000a81548160ff021916908315150217905550620004e56200072960201b60201c565b73ffffffffffffffffffffffffffffffffffffffff168173ffffffffffffffffffffffffffffffffffffffff16837f2f8788117e7eff1d82e926ec794901d17c78024a50270940304540a733656f0d60405160405180910390a45b5050565b606060008214156200058e576040518060400160405280600181526020017f30000000000000000000000000000000000000000000000000000000000000008152509050620006b9565b600082905060005b60008214620005c6578080620005ac9062000dfa565b915050600a82620005be919062000e77565b915062000596565b60008167ffffffffffffffff811115620005e557620005e462000eaf565b5b6040519080825280601f01601f191660200182016040528015620006185781602001600182028036833780820191505090505b5090505b60008514620006b25760018262000634919062000ede565b9150600a8562000645919062000f19565b603062000653919062000f51565b60f81b8183815181106200066c576200066b62000fae565b5b60200101907effffffffffffffffffffffffffffffffffffffffffffffffffffffffffffff1916908160001a905350600a85620006aa919062000e77565b94506200061c565b8093505050505b919050565b60006006600084815260200190815260200160002060000160008373ffffffffffffffffffffffffffffffffffffffff1673ffffffffffffffffffffffffffffffffffffffff16815260200190815260200160002060009054906101000a900460ff16905092915050565b600033905090565b8280546200073f90620008d2565b90600052602060002090601f016020900481019282620007635760008555620007af565b82601f106200077e57805160ff1916838001178555620007af565b82800160010185558215620007af579182015b82811115620007ae57825182559160200191906001019062000791565b5b509050620007be9190620007c2565b5090565b5b80821115620007dd576000816000905550600101620007c3565b5090565b600080fd5b600073ffffffffffffffffffffffffffffffffffffffff82169050919050565b60006200081382620007e6565b9050919050565b620008258162000806565b81146200083157600080fd5b50565b60008151905062000845816200081a565b92915050565b600060208284031215620008645762000863620007e1565b5b6000620008748482850162000834565b91505092915050565b7f435245415445205441424c452000000000000000000000000000000000000000815250565b7f4e487b7100000000000000000000000000000000000000000000000000000000600052602260045260246000fd5b60006002820490506001821680620008eb57607f821691505b60208210811415620009025762000901620008a3565b5b50919050565b600081905092915050565b60008190508160005260206000209050919050565b600081546200093781620008d2565b62000943818662000908565b945060018216600081146200096157600181146200097357620009aa565b60ff19831686528186019350620009aa565b6200097e8562000913565b60005b83811015620009a25781548189015260018201915060208101905062000981565b838801955050505b50505092915050565b7f5f00000000000000000000000000000000000000000000000000000000000000815250565b600081519050919050565b60005b8381101562000a04578082015181840152602081019050620009e7565b8381111562000a14576000848401525b50505050565b600062000a2782620009d9565b62000a33818562000908565b935062000a45818560208601620009e4565b80840191505092915050565b7f2028746f6b656e696420696e742c206e616d6520746578742c2064657363726960008201527f7074696f6e20746578742c20696d61676520746578742c2065787465726e616c60208201527f5f75726c2074657874293b000000000000000000000000000000000000000000604082015250565b600062000ad5604b8362000908565b915062000ae28262000a51565b604b82019050919050565b600062000afa826200087d565b600d8201915062000b0c828562000928565b915062000b1982620009b3565b60018201915062000b2b828462000a1a565b915062000b388262000ac6565b91508190509392505050565b62000b4f8162000806565b82525050565b600082825260208201905092915050565b6000601f19601f8301169050919050565b600062000b8482620009d9565b62000b90818562000b55565b935062000ba2818560208601620009e4565b62000bad8162000b66565b840191505092915050565b600060408201905062000bcf600083018562000b44565b818103602083015262000be3818462000b77565b90509392505050565b6000819050919050565b62000c018162000bec565b811462000c0d57600080fd5b50565b60008151905062000c218162000bf6565b92915050565b60006020828403121562000c405762000c3f620007e1565b5b600062000c508482850162000c10565b91505092915050565b600062000c67828662000928565b915062000c7482620009b3565b60018201915062000c86828562000a1a565b915062000c9382620009b3565b60018201915062000ca5828462000a1a565b9150819050949350505050565b7f20286d61696e7461626c655f746f6b656e696420696e742c2069636f6e20746560008201527f78742c20646973706c61795f7479706520746578742c2074726169745f74797060208201527f6520746578742c2076616c756520746578742c2074726169745f696420696e7460408201527f293b000000000000000000000000000000000000000000000000000000000000606082015250565b600062000d5c60628362000908565b915062000d698262000cb2565b606282019050919050565b600062000d81826200087d565b600d8201915062000d93828562000928565b915062000da082620009b3565b60018201915062000db2828462000a1a565b915062000dbf8262000d4d565b91508190509392505050565b7f4e487b7100000000000000000000000000000000000000000000000000000000600052601160045260246000fd5b600062000e078262000bec565b91507fffffffffffffffffffffffffffffffffffffffffffffffffffffffffffffffff82141562000e3d5762000e3c62000dcb565b5b600182019050919050565b7f4e487b7100000000000000000000000000000000000000000000000000000000600052601260045260246000fd5b600062000e848262000bec565b915062000e918362000bec565b92508262000ea45762000ea362000e48565b5b828204905092915050565b7f4e487b7100000000000000000000000000000000000000000000000000000000600052604160045260246000fd5b600062000eeb8262000bec565b915062000ef88362000bec565b92508282101562000f0e5762000f0d62000dcb565b5b828203905092915050565b600062000f268262000bec565b915062000f338362000bec565b92508262000f465762000f4562000e48565b5b828206905092915050565b600062000f5e8262000bec565b915062000f6b8362000bec565b9250827fffffffffffffffffffffffffffffffffffffffffffffffffffffffffffffffff0382111562000fa35762000fa262000dcb565b5b828201905092915050565b7f4e487b7100000000000000000000000000000000000000000000000000000000600052603260045260246000fd5b6156d78062000fed6000396000f3fe608060405234801561001057600080fd5b50600436106101da5760003560e01c80636352211e11610104578063a217fddf116100a2578063c87b56dd11610071578063c87b56dd14610565578063d547741f14610595578063e985e9c5146105b1578063f15daa02146105e1576101da565b8063a217fddf146104f1578063a22cb4651461050f578063a8e62f091461052b578063b88d4fde14610549576101da565b80638586b42f116100de5780638586b42f1461044357806391d148541461047357806395d89b41146104a3578063a1ced596146104c1576101da565b80636352211e146103c557806370a08231146103f55780637bc53be914610425576101da565b8063248a9ca31161017c57806342842e0e1161014b57806342842e0e1461035357806355f804b31461036f5780635d21260a1461038b57806360af4275146103a9576101da565b8063248a9ca3146102cf5780632f2ff15d146102ff578063313e91cb1461031b57806336568abe14610337576101da565b8063081812fc116101b8578063081812fc14610249578063091a77e714610279578063095ea7b31461029757806323b872dd146102b3576101da565b806301637608146101df57806301ffc9a7146101fb57806306fdde031461022b575b600080fd5b6101f960048036038101906101f491906132cb565b6105fd565b005b61021560048036038101906102109190613392565b61086c565b60405161022291906133da565b60405180910390f35b61023361087e565b604051610240919061347d565b60405180910390f35b610263600480360381019061025e919061349f565b610910565b604051610270919061350d565b60405180910390f35b610281610956565b60405161028e919061347d565b60405180910390f35b6102b160048036038101906102ac9190613554565b61098d565b005b6102cd60048036038101906102c89190613594565b610aa5565b005b6102e960048036038101906102e4919061361d565b610b05565b6040516102f69190613659565b60405180910390f35b61031960048036038101906103149190613674565b610b25565b005b610335600480360381019061033091906132cb565b610b46565b005b610351600480360381019061034c9190613674565b610db5565b005b61036d60048036038101906103689190613594565b610e38565b005b610389600480360381019061038491906136b4565b610e58565b005b610393610e80565b6040516103a0919061347d565b60405180910390f35b6103c360048036038101906103be91906132cb565b610f0e565b005b6103df60048036038101906103da919061349f565b61117d565b6040516103ec919061350d565b60405180910390f35b61040f600480360381019061040a91906136fd565b61122f565b60405161041c9190613739565b60405180910390f35b61042d6112e7565b60405161043a919061347d565b60405180910390f35b61045d60048036038101906104589190613754565b611375565b60405161046a9190613739565b60405180910390f35b61048d60048036038101906104889190613674565b61159c565b60405161049a91906133da565b60405180910390f35b6104ab611607565b6040516104b8919061347d565b60405180910390f35b6104db60048036038101906104d691906138fe565b611699565b6040516104e89190613739565b60405180910390f35b6104f9611910565b6040516105069190613659565b60405180910390f35b61052960048036038101906105249190613a15565b611917565b005b61053361192d565b604051610540919061347d565b60405180910390f35b610563600480360381019061055e9190613af6565b611964565b005b61057f600480360381019061057a919061349f565b6119c6565b60405161058c919061347d565b60405180910390f35b6105af60048036038101906105aa9190613674565b611aa2565b005b6105cb60048036038101906105c69190613b79565b611ac3565b6040516105d891906133da565b60405180910390f35b6105fb60048036038101906105f691906132cb565b611b57565b005b3373ffffffffffffffffffffffffffffffffffffffff163073ffffffffffffffffffffffffffffffffffffffff16636352211e856040518263ffffffff1660e01b815260040161064d9190613739565b602060405180830381865afa15801561066a573d6000803e3d6000fd5b505050506040513d601f19601f8201168201806040525081019061068e9190613bce565b73ffffffffffffffffffffffffffffffffffffffff16146106e4576040517f08c379a00000000000000000000000000000000000000000000000000000000081526004016106db90613c47565b60405180910390fd5b81600f600085815260200190815260200160002054101580156107075750600082115b610746576040517f08c379a000000000000000000000000000000000000000000000000000000000815260040161073d90613cb3565b60405180910390fd5b600960009054906101000a900473ffffffffffffffffffffffffffffffffffffffff1673ffffffffffffffffffffffffffffffffffffffff1663eaf5d04e30600b54600e8561079489611dc6565b61079d89611dc6565b6040516020016107b09493929190613ec2565b6040516020818303038152906040526040518463ffffffff1660e01b81526004016107dd93929190613f4b565b600060405180830381600087803b1580156107f757600080fd5b505af115801561080b573d6000803e3d6000fd5b505050503373ffffffffffffffffffffffffffffffffffffffff167fbc3fdc5c3d813c4a99d9005e48663baa4f6a682afd7bb19427443c53942909c542600b5484878760405161085f959493929190613f89565b60405180910390a2505050565b600061087782611f27565b9050919050565b60606000805461088d90613d28565b80601f01602080910402602001604051908101604052809291908181526020018280546108b990613d28565b80156109065780601f106108db57610100808354040283529160200191610906565b820191906000526020600020905b8154815290600101906020018083116108e957829003601f168201915b5050505050905090565b600061091b82611fa1565b6004600083815260200190815260200160002060009054906101000a900473ffffffffffffffffffffffffffffffffffffffff169050919050565b60606000610962611fec565b905080600e60405160200161097892919061402f565b60405160208183030381529060405291505090565b60006109988261117d565b90508073ffffffffffffffffffffffffffffffffffffffff168373ffffffffffffffffffffffffffffffffffffffff161415610a09576040517f08c379a0000000000000000000000000000000000000000000000000000000008152600401610a00906140e3565b60405180910390fd5b8073ffffffffffffffffffffffffffffffffffffffff16610a2861207e565b73ffffffffffffffffffffffffffffffffffffffff161480610a575750610a5681610a5161207e565b611ac3565b5b610a96576040517f08c379a0000000000000000000000000000000000000000000000000000000008152600401610a8d90614175565b60405180910390fd5b610aa08383612086565b505050565b610ab6610ab061207e565b8261213f565b610af5576040517f08c379a0000000000000000000000000000000000000000000000000000000008152600401610aec90614207565b60405180910390fd5b610b008383836121d4565b505050565b600060066000838152602001908152602001600020600101549050919050565b610b2e82610b05565b610b378161243b565b610b41838361244f565b505050565b3373ffffffffffffffffffffffffffffffffffffffff163073ffffffffffffffffffffffffffffffffffffffff16636352211e856040518263ffffffff1660e01b8152600401610b969190613739565b602060405180830381865afa158015610bb3573d6000803e3d6000fd5b505050506040513d601f19601f82011682018060405250810190610bd79190613bce565b73ffffffffffffffffffffffffffffffffffffffff1614610c2d576040517f08c379a0000000000000000000000000000000000000000000000000000000008152600401610c2490613c47565b60405180910390fd5b81600f60008581526020019081526020016000205410158015610c505750600082115b610c8f576040517f08c379a0000000000000000000000000000000000000000000000000000000008152600401610c8690613cb3565b60405180910390fd5b600960009054906101000a900473ffffffffffffffffffffffffffffffffffffffff1673ffffffffffffffffffffffffffffffffffffffff1663eaf5d04e30600b54600e85610cdd89611dc6565b610ce689611dc6565b604051602001610cf9949392919061424d565b6040516020818303038152906040526040518463ffffffff1660e01b8152600401610d2693929190613f4b565b600060405180830381600087803b158015610d4057600080fd5b505af1158015610d54573d6000803e3d6000fd5b505050503373ffffffffffffffffffffffffffffffffffffffff167fec0f0d67678a9d5a686ab06fa92fadb72e148b9ebdead00eb6601b6a1fd07c8f42600b54848787604051610da8959493929190613f89565b60405180910390a2505050565b610dbd61207e565b73ffffffffffffffffffffffffffffffffffffffff168173ffffffffffffffffffffffffffffffffffffffff1614610e2a576040517f08c379a0000000000000000000000000000000000000000000000000000000008152600401610e2190614348565b60405180910390fd5b610e348282612530565b5050565b610e5383838360405180602001604052806000815250611964565b505050565b6000801b610e658161243b565b8160079080519060200190610e7b929190613098565b505050565b600d8054610e8d90613d28565b80601f0160208091040260200160405190810160405280929190818152602001828054610eb990613d28565b8015610f065780601f10610edb57610100808354040283529160200191610f06565b820191906000526020600020905b815481529060010190602001808311610ee957829003601f168201915b505050505081565b3373ffffffffffffffffffffffffffffffffffffffff163073ffffffffffffffffffffffffffffffffffffffff16636352211e856040518263ffffffff1660e01b8152600401610f5e9190613739565b602060405180830381865afa158015610f7b573d6000803e3d6000fd5b505050506040513d601f19601f82011682018060405250810190610f9f9190613bce565b73ffffffffffffffffffffffffffffffffffffffff1614610ff5576040517f08c379a0000000000000000000000000000000000000000000000000000000008152600401610fec90613c47565b60405180910390fd5b81600f600085815260200190815260200160002054101580156110185750600082115b611057576040517f08c379a000000000000000000000000000000000000000000000000000000000815260040161104e90613cb3565b60405180910390fd5b600960009054906101000a900473ffffffffffffffffffffffffffffffffffffffff1673ffffffffffffffffffffffffffffffffffffffff1663eaf5d04e30600b54600e856110a589611dc6565b6110ae89611dc6565b6040516020016110c1949392919061438e565b6040516020818303038152906040526040518463ffffffff1660e01b81526004016110ee93929190613f4b565b600060405180830381600087803b15801561110857600080fd5b505af115801561111c573d6000803e3d6000fd5b505050503373ffffffffffffffffffffffffffffffffffffffff167f280bb8c24c5b69393733b8cf1779ec264023540e75149b5024de5ea55a41736e42600b54848787604051611170959493929190613f89565b60405180910390a2505050565b6000806002600084815260200190815260200160002060009054906101000a900473ffffffffffffffffffffffffffffffffffffffff169050600073ffffffffffffffffffffffffffffffffffffffff168173ffffffffffffffffffffffffffffffffffffffff161415611226576040517f08c379a000000000000000000000000000000000000000000000000000000000815260040161121d90614463565b60405180910390fd5b80915050919050565b60008073ffffffffffffffffffffffffffffffffffffffff168273ffffffffffffffffffffffffffffffffffffffff1614156112a0576040517f08c379a0000000000000000000000000000000000000000000000000000000008152600401611297906144f5565b60405180910390fd5b600360008373ffffffffffffffffffffffffffffffffffffffff1673ffffffffffffffffffffffffffffffffffffffff168152602001908152602001600020549050919050565b600e80546112f490613d28565b80601f016020809104026020016040519081016040528092919081815260200182805461132090613d28565b801561136d5780601f106113425761010080835404028352916020019161136d565b820191906000526020600020905b81548152906001019060200180831161135057829003601f168201915b505050505081565b6000806113826008612612565b9050600960009054906101000a900473ffffffffffffffffffffffffffffffffffffffff1673ffffffffffffffffffffffffffffffffffffffff1663eaf5d04e30600a54600d6113d186611dc6565b8f8f8f8f6040516020016113ea969594939291906145f9565b6040516020818303038152906040526040518463ffffffff1660e01b815260040161141793929190613f4b565b600060405180830381600087803b15801561143157600080fd5b505af1158015611445573d6000803e3d6000fd5b50505050600960009054906101000a900473ffffffffffffffffffffffffffffffffffffffff1673ffffffffffffffffffffffffffffffffffffffff1663eaf5d04e30600b54600e61149686611dc6565b8b8b8b8b6040516020016114af96959493929190614774565b6040516020818303038152906040526040518463ffffffff1660e01b81526004016114dc93929190613f4b565b600060405180830381600087803b1580156114f657600080fd5b505af115801561150a573d6000803e3d6000fd5b505050506115188b82612620565b6001600f60008381526020019081526020016000208190555061153b600861263e565b3373ffffffffffffffffffffffffffffffffffffffff167f061b141191d79859f7cc6256c1b9e5f380052197831efe9135841c0ff4de7e63428360405161158392919061484f565b60405180910390a2809150509998505050505050505050565b60006006600084815260200190815260200160002060000160008373ffffffffffffffffffffffffffffffffffffffff1673ffffffffffffffffffffffffffffffffffffffff16815260200190815260200160002060009054906101000a900460ff16905092915050565b60606001805461161690613d28565b80601f016020809104026020016040519081016040528092919081815260200182805461164290613d28565b801561168f5780601f106116645761010080835404028352916020019161168f565b820191906000526020600020905b81548152906001019060200180831161167257829003601f168201915b5050505050905090565b60003373ffffffffffffffffffffffffffffffffffffffff163073ffffffffffffffffffffffffffffffffffffffff16636352211e886040518263ffffffff1660e01b81526004016116eb9190613739565b602060405180830381865afa158015611708573d6000803e3d6000fd5b505050506040513d601f19601f8201168201806040525081019061172c9190613bce565b73ffffffffffffffffffffffffffffffffffffffff1614611782576040517f08c379a000000000000000000000000000000000000000000000000000000000815260040161177990613c47565b60405180910390fd5b6000600f6000888152602001908152602001600020549050600960009054906101000a900473ffffffffffffffffffffffffffffffffffffffff1673ffffffffffffffffffffffffffffffffffffffff1663eaf5d04e30600b54600e6117e78c611dc6565b8b8b8b8b61180060018c6117fb91906148a7565b611dc6565b60405160200161181697969594939291906148fd565b6040516020818303038152906040526040518463ffffffff1660e01b815260040161184393929190613f4b565b600060405180830381600087803b15801561185d57600080fd5b505af1158015611871573d6000803e3d6000fd5b5050505060018161188291906148a7565b600f6000898152602001908152602001600020819055503373ffffffffffffffffffffffffffffffffffffffff167f49f81050f063e5873e3da74c80d522b979ef15124ea45757ce3e838d7e2d703e42896001856118e091906148a7565b6040516118ef939291906149d6565b60405180910390a260018161190491906148a7565b91505095945050505050565b6000801b81565b61192961192261207e565b8383612654565b5050565b60606000611939611fec565b905080600d60405160200161194f92919061402f565b60405160208183030381529060405291505090565b61197561196f61207e565b8361213f565b6119b4576040517f08c379a00000000000000000000000000000000000000000000000000000000081526004016119ab90614207565b60405180910390fd5b6119c0848484846127c1565b50505050565b60606119d18261281d565b611a10576040517f08c379a0000000000000000000000000000000000000000000000000000000008152600401611a0790614a7f565b60405180910390fd5b6000611a1a611fec565b9050600081511415611a3e5760405180602001604052806000815250915050611a9d565b6000600d600e600d600e604051602001611a5b9493929190614dc2565b60405160208183030381529060405290508181611a7786611dc6565b604051602001611a8993929190614ecf565b604051602081830303815290604052925050505b919050565b611aab82610b05565b611ab48161243b565b611abe8383612530565b505050565b6000600560008473ffffffffffffffffffffffffffffffffffffffff1673ffffffffffffffffffffffffffffffffffffffff16815260200190815260200160002060008373ffffffffffffffffffffffffffffffffffffffff1673ffffffffffffffffffffffffffffffffffffffff16815260200190815260200160002060009054906101000a900460ff16905092915050565b3373ffffffffffffffffffffffffffffffffffffffff163073ffffffffffffffffffffffffffffffffffffffff16636352211e856040518263ffffffff1660e01b8152600401611ba79190613739565b602060405180830381865afa158015611bc4573d6000803e3d6000fd5b505050506040513d601f19601f82011682018060405250810190611be89190613bce565b73ffffffffffffffffffffffffffffffffffffffff1614611c3e576040517f08c379a0000000000000000000000000000000000000000000000000000000008152600401611c3590613c47565b60405180910390fd5b81600f60008581526020019081526020016000205410158015611c615750600082115b611ca0576040517f08c379a0000000000000000000000000000000000000000000000000000000008152600401611c9790613cb3565b60405180910390fd5b600960009054906101000a900473ffffffffffffffffffffffffffffffffffffffff1673ffffffffffffffffffffffffffffffffffffffff1663eaf5d04e30600b54600e85611cee89611dc6565b611cf789611dc6565b604051602001611d0a9493929190614f3c565b6040516020818303038152906040526040518463ffffffff1660e01b8152600401611d3793929190613f4b565b600060405180830381600087803b158015611d5157600080fd5b505af1158015611d65573d6000803e3d6000fd5b505050503373ffffffffffffffffffffffffffffffffffffffff167f11bfb7cd1318679cbb7491b824432aaf8d65800ec0a83281dad118a0373a4a2342600b54848787604051611db9959493929190613f89565b60405180910390a2505050565b60606000821415611e0e576040518060400160405280600181526020017f30000000000000000000000000000000000000000000000000000000000000008152509050611f22565b600082905060005b60008214611e40578080611e2990614fc5565b915050600a82611e39919061503d565b9150611e16565b60008167ffffffffffffffff811115611e5c57611e5b6131a0565b5b6040519080825280601f01601f191660200182016040528015611e8e5781602001600182028036833780820191505090505b5090505b60008514611f1b57600182611ea7919061506e565b9150600a85611eb691906150a2565b6030611ec291906148a7565b60f81b818381518110611ed857611ed76150d3565b5b60200101907effffffffffffffffffffffffffffffffffffffffffffffffffffffffffffff1916908160001a905350600a85611f14919061503d565b9450611e92565b8093505050505b919050565b60007f7965db0b000000000000000000000000000000000000000000000000000000007bffffffffffffffffffffffffffffffffffffffffffffffffffffffff1916827bffffffffffffffffffffffffffffffffffffffffffffffffffffffff19161480611f9a5750611f9982612889565b5b9050919050565b611faa8161281d565b611fe9576040517f08c379a0000000000000000000000000000000000000000000000000000000008152600401611fe090614463565b60405180910390fd5b50565b606060078054611ffb90613d28565b80601f016020809104026020016040519081016040528092919081815260200182805461202790613d28565b80156120745780601f1061204957610100808354040283529160200191612074565b820191906000526020600020905b81548152906001019060200180831161205757829003601f168201915b5050505050905090565b600033905090565b816004600083815260200190815260200160002060006101000a81548173ffffffffffffffffffffffffffffffffffffffff021916908373ffffffffffffffffffffffffffffffffffffffff160217905550808273ffffffffffffffffffffffffffffffffffffffff166120f98361117d565b73ffffffffffffffffffffffffffffffffffffffff167f8c5be1e5ebec7d5bd14f71427d1e84f3dd0314c0f7b2291e5b200ac8c7c3b92560405160405180910390a45050565b60008061214b8361117d565b90508073ffffffffffffffffffffffffffffffffffffffff168473ffffffffffffffffffffffffffffffffffffffff16148061218d575061218c8185611ac3565b5b806121cb57508373ffffffffffffffffffffffffffffffffffffffff166121b384610910565b73ffffffffffffffffffffffffffffffffffffffff16145b91505092915050565b8273ffffffffffffffffffffffffffffffffffffffff166121f48261117d565b73ffffffffffffffffffffffffffffffffffffffff161461224a576040517f08c379a000000000000000000000000000000000000000000000000000000000815260040161224190615174565b60405180910390fd5b600073ffffffffffffffffffffffffffffffffffffffff168273ffffffffffffffffffffffffffffffffffffffff1614156122ba576040517f08c379a00000000000000000000000000000000000000000000000000000000081526004016122b190615206565b60405180910390fd5b6122c583838361296b565b6122d0600082612086565b6001600360008573ffffffffffffffffffffffffffffffffffffffff1673ffffffffffffffffffffffffffffffffffffffff1681526020019081526020016000206000828254612320919061506e565b925050819055506001600360008473ffffffffffffffffffffffffffffffffffffffff1673ffffffffffffffffffffffffffffffffffffffff168152602001908152602001600020600082825461237791906148a7565b92505081905550816002600083815260200190815260200160002060006101000a81548173ffffffffffffffffffffffffffffffffffffffff021916908373ffffffffffffffffffffffffffffffffffffffff160217905550808273ffffffffffffffffffffffffffffffffffffffff168473ffffffffffffffffffffffffffffffffffffffff167fddf252ad1be2c89b69c2b068fc378daa952ba7f163c4a11628f55a4df523b3ef60405160405180910390a4612436838383612970565b505050565b61244c8161244761207e565b612975565b50565b612459828261159c565b61252c5760016006600084815260200190815260200160002060000160008373ffffffffffffffffffffffffffffffffffffffff1673ffffffffffffffffffffffffffffffffffffffff16815260200190815260200160002060006101000a81548160ff0219169083151502179055506124d161207e565b73ffffffffffffffffffffffffffffffffffffffff168173ffffffffffffffffffffffffffffffffffffffff16837f2f8788117e7eff1d82e926ec794901d17c78024a50270940304540a733656f0d60405160405180910390a45b5050565b61253a828261159c565b1561260e5760006006600084815260200190815260200160002060000160008373ffffffffffffffffffffffffffffffffffffffff1673ffffffffffffffffffffffffffffffffffffffff16815260200190815260200160002060006101000a81548160ff0219169083151502179055506125b361207e565b73ffffffffffffffffffffffffffffffffffffffff168173ffffffffffffffffffffffffffffffffffffffff16837ff6391f5c32d9c69d2a47ea670b442974b53935d1edc7fd64eb21e047a839171b60405160405180910390a45b5050565b600081600001549050919050565b61263a828260405180602001604052806000815250612a12565b5050565b6001816000016000828254019250508190555050565b8173ffffffffffffffffffffffffffffffffffffffff168373ffffffffffffffffffffffffffffffffffffffff1614156126c3576040517f08c379a00000000000000000000000000000000000000000000000000000000081526004016126ba90615272565b60405180910390fd5b80600560008573ffffffffffffffffffffffffffffffffffffffff1673ffffffffffffffffffffffffffffffffffffffff16815260200190815260200160002060008473ffffffffffffffffffffffffffffffffffffffff1673ffffffffffffffffffffffffffffffffffffffff16815260200190815260200160002060006101000a81548160ff0219169083151502179055508173ffffffffffffffffffffffffffffffffffffffff168373ffffffffffffffffffffffffffffffffffffffff167f17307eab39ab6107e8899845ad3d59bd9653f200f220920489ca2b5937696c31836040516127b491906133da565b60405180910390a3505050565b6127cc8484846121d4565b6127d884848484612a6d565b612817576040517f08c379a000000000000000000000000000000000000000000000000000000000815260040161280e90615304565b60405180910390fd5b50505050565b60008073ffffffffffffffffffffffffffffffffffffffff166002600084815260200190815260200160002060009054906101000a900473ffffffffffffffffffffffffffffffffffffffff1673ffffffffffffffffffffffffffffffffffffffff1614159050919050565b60007f80ac58cd000000000000000000000000000000000000000000000000000000007bffffffffffffffffffffffffffffffffffffffffffffffffffffffff1916827bffffffffffffffffffffffffffffffffffffffffffffffffffffffff1916148061295457507f5b5e139f000000000000000000000000000000000000000000000000000000007bffffffffffffffffffffffffffffffffffffffffffffffffffffffff1916827bffffffffffffffffffffffffffffffffffffffffffffffffffffffff1916145b80612964575061296382612bf5565b5b9050919050565b505050565b505050565b61297f828261159c565b612a0e576129a48173ffffffffffffffffffffffffffffffffffffffff166014612c5f565b6129b28360001c6020612c5f565b6040516020016129c39291906153bc565b6040516020818303038152906040526040517f08c379a0000000000000000000000000000000000000000000000000000000008152600401612a05919061347d565b60405180910390fd5b5050565b612a1c8383612e9b565b612a296000848484612a6d565b612a68576040517f08c379a0000000000000000000000000000000000000000000000000000000008152600401612a5f90615304565b60405180910390fd5b505050565b6000612a8e8473ffffffffffffffffffffffffffffffffffffffff16613075565b15612be8578373ffffffffffffffffffffffffffffffffffffffff1663150b7a02612ab761207e565b8786866040518563ffffffff1660e01b8152600401612ad9949392919061544b565b6020604051808303816000875af1925050508015612b1557506040513d601f19601f82011682018060405250810190612b1291906154ac565b60015b612b98573d8060008114612b45576040519150601f19603f3d011682016040523d82523d6000602084013e612b4a565b606091505b50600081511415612b90576040517f08c379a0000000000000000000000000000000000000000000000000000000008152600401612b8790615304565b60405180910390fd5b805181602001fd5b63150b7a0260e01b7bffffffffffffffffffffffffffffffffffffffffffffffffffffffff1916817bffffffffffffffffffffffffffffffffffffffffffffffffffffffff191614915050612bed565b600190505b949350505050565b60007f01ffc9a7000000000000000000000000000000000000000000000000000000007bffffffffffffffffffffffffffffffffffffffffffffffffffffffff1916827bffffffffffffffffffffffffffffffffffffffffffffffffffffffff1916149050919050565b606060006002836002612c7291906154d9565b612c7c91906148a7565b67ffffffffffffffff811115612c9557612c946131a0565b5b6040519080825280601f01601f191660200182016040528015612cc75781602001600182028036833780820191505090505b5090507f300000000000000000000000000000000000000000000000000000000000000081600081518110612cff57612cfe6150d3565b5b60200101907effffffffffffffffffffffffffffffffffffffffffffffffffffffffffffff1916908160001a9053507f780000000000000000000000000000000000000000000000000000000000000081600181518110612d6357612d626150d3565b5b60200101907effffffffffffffffffffffffffffffffffffffffffffffffffffffffffffff1916908160001a90535060006001846002612da391906154d9565b612dad91906148a7565b90505b6001811115612e4d577f3031323334353637383961626364656600000000000000000000000000000000600f861660108110612def57612dee6150d3565b5b1a60f81b828281518110612e0657612e056150d3565b5b60200101907effffffffffffffffffffffffffffffffffffffffffffffffffffffffffffff1916908160001a905350600485901c945080612e4690615533565b9050612db0565b5060008414612e91576040517f08c379a0000000000000000000000000000000000000000000000000000000008152600401612e88906155a9565b60405180910390fd5b8091505092915050565b600073ffffffffffffffffffffffffffffffffffffffff168273ffffffffffffffffffffffffffffffffffffffff161415612f0b576040517f08c379a0000000000000000000000000000000000000000000000000000000008152600401612f0290615615565b60405180910390fd5b612f148161281d565b15612f54576040517f08c379a0000000000000000000000000000000000000000000000000000000008152600401612f4b90615681565b60405180910390fd5b612f606000838361296b565b6001600360008473ffffffffffffffffffffffffffffffffffffffff1673ffffffffffffffffffffffffffffffffffffffff1681526020019081526020016000206000828254612fb091906148a7565b92505081905550816002600083815260200190815260200160002060006101000a81548173ffffffffffffffffffffffffffffffffffffffff021916908373ffffffffffffffffffffffffffffffffffffffff160217905550808273ffffffffffffffffffffffffffffffffffffffff16600073ffffffffffffffffffffffffffffffffffffffff167fddf252ad1be2c89b69c2b068fc378daa952ba7f163c4a11628f55a4df523b3ef60405160405180910390a461307160008383612970565b5050565b6000808273ffffffffffffffffffffffffffffffffffffffff163b119050919050565b8280546130a490613d28565b90600052602060002090601f0160209004810192826130c6576000855561310d565b82601f106130df57805160ff191683800117855561310d565b8280016001018555821561310d579182015b8281111561310c5782518255916020019190600101906130f1565b5b50905061311a919061311e565b5090565b5b8082111561313757600081600090555060010161311f565b5090565b6000604051905090565b600080fd5b600080fd5b6000819050919050565b6131628161314f565b811461316d57600080fd5b50565b60008135905061317f81613159565b92915050565b600080fd5b600080fd5b6000601f19601f8301169050919050565b7f4e487b7100000000000000000000000000000000000000000000000000000000600052604160045260246000fd5b6131d88261318f565b810181811067ffffffffffffffff821117156131f7576131f66131a0565b5b80604052505050565b600061320a61313b565b905061321682826131cf565b919050565b600067ffffffffffffffff821115613236576132356131a0565b5b61323f8261318f565b9050602081019050919050565b82818337600083830152505050565b600061326e6132698461321b565b613200565b90508281526020810184848401111561328a5761328961318a565b5b61329584828561324c565b509392505050565b600082601f8301126132b2576132b1613185565b5b81356132c284826020860161325b565b91505092915050565b6000806000606084860312156132e4576132e3613145565b5b60006132f286828701613170565b935050602061330386828701613170565b925050604084013567ffffffffffffffff8111156133245761332361314a565b5b6133308682870161329d565b9150509250925092565b60007fffffffff0000000000000000000000000000000000000000000000000000000082169050919050565b61336f8161333a565b811461337a57600080fd5b50565b60008135905061338c81613366565b92915050565b6000602082840312156133a8576133a7613145565b5b60006133b68482850161337d565b91505092915050565b60008115159050919050565b6133d4816133bf565b82525050565b60006020820190506133ef60008301846133cb565b92915050565b600081519050919050565b600082825260208201905092915050565b60005b8381101561342f578082015181840152602081019050613414565b8381111561343e576000848401525b50505050565b600061344f826133f5565b6134598185613400565b9350613469818560208601613411565b6134728161318f565b840191505092915050565b600060208201905081810360008301526134978184613444565b905092915050565b6000602082840312156134b5576134b4613145565b5b60006134c384828501613170565b91505092915050565b600073ffffffffffffffffffffffffffffffffffffffff82169050919050565b60006134f7826134cc565b9050919050565b613507816134ec565b82525050565b600060208201905061352260008301846134fe565b92915050565b613531816134ec565b811461353c57600080fd5b50565b60008135905061354e81613528565b92915050565b6000806040838503121561356b5761356a613145565b5b60006135798582860161353f565b925050602061358a85828601613170565b9150509250929050565b6000806000606084860312156135ad576135ac613145565b5b60006135bb8682870161353f565b93505060206135cc8682870161353f565b92505060406135dd86828701613170565b9150509250925092565b6000819050919050565b6135fa816135e7565b811461360557600080fd5b50565b600081359050613617816135f1565b92915050565b60006020828403121561363357613632613145565b5b600061364184828501613608565b91505092915050565b613653816135e7565b82525050565b600060208201905061366e600083018461364a565b92915050565b6000806040838503121561368b5761368a613145565b5b600061369985828601613608565b92505060206136aa8582860161353f565b9150509250929050565b6000602082840312156136ca576136c9613145565b5b600082013567ffffffffffffffff8111156136e8576136e761314a565b5b6136f48482850161329d565b91505092915050565b60006020828403121561371357613712613145565b5b60006137218482850161353f565b91505092915050565b6137338161314f565b82525050565b600060208201905061374e600083018461372a565b92915050565b60008060008060008060008060006101208a8c03121561377757613776613145565b5b60006137858c828d0161353f565b99505060208a013567ffffffffffffffff8111156137a6576137a561314a565b5b6137b28c828d0161329d565b98505060408a013567ffffffffffffffff8111156137d3576137d261314a565b5b6137df8c828d0161329d565b97505060608a013567ffffffffffffffff811115613800576137ff61314a565b5b61380c8c828d0161329d565b96505060808a013567ffffffffffffffff81111561382d5761382c61314a565b5b6138398c828d0161329d565b95505060a08a013567ffffffffffffffff81111561385a5761385961314a565b5b6138668c828d0161329d565b94505060c08a013567ffffffffffffffff8111156138875761388661314a565b5b6138938c828d0161329d565b93505060e08a013567ffffffffffffffff8111156138b4576138b361314a565b5b6138c08c828d0161329d565b9250506101008a013567ffffffffffffffff8111156138e2576138e161314a565b5b6138ee8c828d0161329d565b9150509295985092959850929598565b600080600080600060a0868803121561391a57613919613145565b5b600061392888828901613170565b955050602086013567ffffffffffffffff8111156139495761394861314a565b5b6139558882890161329d565b945050604086013567ffffffffffffffff8111156139765761397561314a565b5b6139828882890161329d565b935050606086013567ffffffffffffffff8111156139a3576139a261314a565b5b6139af8882890161329d565b925050608086013567ffffffffffffffff8111156139d0576139cf61314a565b5b6139dc8882890161329d565b9150509295509295909350565b6139f2816133bf565b81146139fd57600080fd5b50565b600081359050613a0f816139e9565b92915050565b60008060408385031215613a2c57613a2b613145565b5b6000613a3a8582860161353f565b9250506020613a4b85828601613a00565b9150509250929050565b600067ffffffffffffffff821115613a7057613a6f6131a0565b5b613a798261318f565b9050602081019050919050565b6000613a99613a9484613a55565b613200565b905082815260208101848484011115613ab557613ab461318a565b5b613ac084828561324c565b509392505050565b600082601f830112613add57613adc613185565b5b8135613aed848260208601613a86565b91505092915050565b60008060008060808587031215613b1057613b0f613145565b5b6000613b1e8782880161353f565b9450506020613b2f8782880161353f565b9350506040613b4087828801613170565b925050606085013567ffffffffffffffff811115613b6157613b6061314a565b5b613b6d87828801613ac8565b91505092959194509250565b60008060408385031215613b9057613b8f613145565b5b6000613b9e8582860161353f565b9250506020613baf8582860161353f565b9150509250929050565b600081519050613bc881613528565b92915050565b600060208284031215613be457613be3613145565b5b6000613bf284828501613bb9565b91505092915050565b7f496e76616c6964206f776e657200000000000000000000000000000000000000600082015250565b6000613c31600d83613400565b9150613c3c82613bfb565b602082019050919050565b60006020820190508181036000830152613c6081613c24565b9050919050565b7f74726169745f6964206e6f7420666f756e642000000000000000000000000000600082015250565b6000613c9d601383613400565b9150613ca882613c67565b602082019050919050565b60006020820190508181036000830152613ccc81613c90565b9050919050565b7f5550444154452000000000000000000000000000000000000000000000000000815250565b7f4e487b7100000000000000000000000000000000000000000000000000000000600052602260045260246000fd5b60006002820490506001821680613d4057607f821691505b60208210811415613d5457613d53613cf9565b5b50919050565b600081905092915050565b60008190508160005260206000209050919050565b60008154613d8781613d28565b613d918186613d5a565b94506001821660008114613dac5760018114613dbd57613df0565b60ff19831686528186019350613df0565b613dc685613d65565b60005b83811015613de857815481890152600182019150602081019050613dc9565b838801955050505b50505092915050565b7f205345542076616c7565203d2027000000000000000000000000000000000000815250565b6000613e2a826133f5565b613e348185613d5a565b9350613e44818560208601613411565b80840191505092915050565b7f27205748455245206d61696e7461626c655f746f6b656e6964203d2000000000815250565b7f20414e442074726169745f6964203d2000000000000000000000000000000000815250565b7f3b00000000000000000000000000000000000000000000000000000000000000815250565b6000613ecd82613cd3565b600782019150613edd8287613d7a565b9150613ee882613df9565b600e82019150613ef88286613e1f565b9150613f0382613e50565b601c82019150613f138285613e1f565b9150613f1e82613e76565b601082019150613f2e8284613e1f565b9150613f3982613e9c565b60018201915081905095945050505050565b6000606082019050613f6060008301866134fe565b613f6d602083018561372a565b8181036040830152613f7f8184613444565b9050949350505050565b600060a082019050613f9e600083018861372a565b613fab602083018761372a565b8181036040830152613fbd8186613444565b9050613fcc606083018561372a565b613fd9608083018461372a565b9695505050505050565b7f756e777261703d7472756526657874726163743d66616c736526733d00000000815250565b7f53454c4543542532302a25323046524f4d253230000000000000000000000000815250565b600061403b8285613e1f565b915061404682613fe3565b601c8201915061405582614009565b6014820191506140658284613d7a565b91508190509392505050565b7f4552433732313a20617070726f76616c20746f2063757272656e74206f776e6560008201527f7200000000000000000000000000000000000000000000000000000000000000602082015250565b60006140cd602183613400565b91506140d882614071565b604082019050919050565b600060208201905081810360008301526140fc816140c0565b9050919050565b7f4552433732313a20617070726f76652063616c6c6572206973206e6f7420746f60008201527f6b656e206f776e6572206e6f7220617070726f76656420666f7220616c6c0000602082015250565b600061415f603e83613400565b915061416a82614103565b604082019050919050565b6000602082019050818103600083015261418e81614152565b9050919050565b7f4552433732313a2063616c6c6572206973206e6f7420746f6b656e206f776e6560008201527f72206e6f7220617070726f766564000000000000000000000000000000000000602082015250565b60006141f1602e83613400565b91506141fc82614195565b604082019050919050565b60006020820190508181036000830152614220816141e4565b9050919050565b7f205345542074726169745f74797065203d202700000000000000000000000000815250565b600061425882613cd3565b6007820191506142688287613d7a565b915061427382614227565b6013820191506142838286613e1f565b915061428e82613e50565b601c8201915061429e8285613e1f565b91506142a982613e76565b6010820191506142b98284613e1f565b91506142c482613e9c565b60018201915081905095945050505050565b7f416363657373436f6e74726f6c3a2063616e206f6e6c792072656e6f756e636560008201527f20726f6c657320666f722073656c660000000000000000000000000000000000602082015250565b6000614332602f83613400565b915061433d826142d6565b604082019050919050565b6000602082019050818103600083015261436181614325565b9050919050565b7f205345542069636f6e203d202700000000000000000000000000000000000000815250565b600061439982613cd3565b6007820191506143a98287613d7a565b91506143b482614368565b600d820191506143c48286613e1f565b91506143cf82613e50565b601c820191506143df8285613e1f565b91506143ea82613e76565b6010820191506143fa8284613e1f565b915061440582613e9c565b60018201915081905095945050505050565b7f4552433732313a20696e76616c696420746f6b656e2049440000000000000000600082015250565b600061444d601883613400565b915061445882614417565b602082019050919050565b6000602082019050818103600083015261447c81614440565b9050919050565b7f4552433732313a2061646472657373207a65726f206973206e6f74206120766160008201527f6c6964206f776e65720000000000000000000000000000000000000000000000602082015250565b60006144df602983613400565b91506144ea82614483565b604082019050919050565b6000602082019050818103600083015261450e816144d2565b9050919050565b7f494e5345525420494e544f200000000000000000000000000000000000000000815250565b7f2028746f6b656e69642c206e616d652c206465736372697074696f6e2c20696d60008201527f6167652c2065787465726e616c5f75726c292056414c55455320282700000000602082015250565b6000614597603c83613d5a565b91506145a28261453b565b603c82019050919050565b7f272c202700000000000000000000000000000000000000000000000000000000815250565b7f2729000000000000000000000000000000000000000000000000000000000000815250565b600061460482614515565b600c820191506146148289613d7a565b915061461f8261458a565b915061462b8288613e1f565b9150614636826145ad565b6004820191506146468287613e1f565b9150614651826145ad565b6004820191506146618286613e1f565b915061466c826145ad565b60048201915061467c8285613e1f565b9150614687826145ad565b6004820191506146978284613e1f565b91506146a2826145d3565b600282019150819050979650505050505050565b7f20286d61696e7461626c655f746f6b656e69642c2069636f6e2c20646973706c60008201527f61795f747970652c2074726169745f747970652c2076616c75652c207472616960208201527f745f6964292056414c5545532028270000000000000000000000000000000000604082015250565b6000614738604f83613d5a565b9150614743826146b6565b604f82019050919050565b7f3100000000000000000000000000000000000000000000000000000000000000815250565b600061477f82614515565b600c8201915061478f8289613d7a565b915061479a8261472b565b91506147a68288613e1f565b91506147b1826145ad565b6004820191506147c18287613e1f565b91506147cc826145ad565b6004820191506147dc8286613e1f565b91506147e7826145ad565b6004820191506147f78285613e1f565b9150614802826145ad565b6004820191506148128284613e1f565b915061481d826145ad565b60048201915061482c8261474e565b60018201915061483b826145d3565b600282019150819050979650505050505050565b6000604082019050614864600083018561372a565b614871602083018461372a565b9392505050565b7f4e487b7100000000000000000000000000000000000000000000000000000000600052601160045260246000fd5b60006148b28261314f565b91506148bd8361314f565b9250827fffffffffffffffffffffffffffffffffffffffffffffffffffffffffffffffff038211156148f2576148f1614878565b5b828201905092915050565b600061490882614515565b600c82019150614918828a613d7a565b91506149238261472b565b915061492f8289613e1f565b915061493a826145ad565b60048201915061494a8288613e1f565b9150614955826145ad565b6004820191506149658287613e1f565b9150614970826145ad565b6004820191506149808286613e1f565b915061498b826145ad565b60048201915061499b8285613e1f565b91506149a6826145ad565b6004820191506149b68284613e1f565b91506149c1826145d3565b60028201915081905098975050505050505050565b60006060820190506149eb600083018661372a565b6149f8602083018561372a565b614a05604083018461372a565b949350505050565b7f4552433732314d657461646174613a2055524920717565727920666f72206e6f60008201527f6e6578697374656e7420746f6b656e0000000000000000000000000000000000602082015250565b6000614a69602f83613400565b9150614a7482614a0d565b604082019050919050565b60006020820190508181036000830152614a9881614a5c565b9050919050565b7f53454c4543542532306a736f6e5f6f626a65637425323825323769642532372560008201527f3243746f6b656e69642532432532376e616d652532372532436e616d6525324360208201527f2532376465736372697074696f6e2532372532436465736372697074696f6e2560408201527f3243253237696d616765253237253243696d616765253243253237657874657260608201527f6e616c5f75726c25323725324365787465726e616c5f75726c2532432532376160808201527f7474726962757465732532372532436a736f6e5f67726f75705f61727261792560a08201527f32386a736f6e5f6f626a65637425323825323769636f6e25323725324369636f60c08201527f6e253243253237646973706c61795f74797065253237253243646973706c617960e08201527f5f7479706525324325323774726169745f7479706525323725324374726169746101008201527f5f7479706525324325323776616c756525323725324376616c756525323925326101208201527f3925323925323046524f4d25323000000000000000000000000000000000000061014082015250565b6000614c5561014e83613d5a565b9150614c6082614a9f565b61014e82019050919050565b7f2532304a4f494e25323000000000000000000000000000000000000000000000600082015250565b6000614ca2600a83613d5a565b9150614cad82614c6c565b600a82019050919050565b7f2532304f4e253230000000000000000000000000000000000000000000000000600082015250565b6000614cee600883613d5a565b9150614cf982614cb8565b600882019050919050565b7f253245746f6b656e696425323025334425323000000000000000000000000000600082015250565b6000614d3a601383613d5a565b9150614d4582614d04565b601382019050919050565b7f2532456d61696e7461626c655f746f6b656e696425323057484552452532307460008201527f6f6b656e69642533440000000000000000000000000000000000000000000000602082015250565b6000614dac602983613d5a565b9150614db782614d50565b602982019050919050565b6000614dcd82614c47565b9150614dd98287613d7a565b9150614de482614c95565b9150614df08286613d7a565b9150614dfb82614ce1565b9150614e078285613d7a565b9150614e1282614d2d565b9150614e1e8284613d7a565b9150614e2982614d9f565b915081905095945050505050565b7f756e777261703d7472756526657874726163743d7472756526733d0000000000600082015250565b6000614e6d601b83613d5a565b9150614e7882614e37565b601b82019050919050565b7f25323067726f75702532306279253230746f6b656e6964000000000000000000600082015250565b6000614eb9601783613d5a565b9150614ec482614e83565b601782019050919050565b6000614edb8286613e1f565b9150614ee682614e60565b9150614ef28285613e1f565b9150614efe8284613e1f565b9150614f0982614eac565b9150819050949350505050565b7f2053455420646973706c61795f74797065203d20270000000000000000000000815250565b6000614f4782613cd3565b600782019150614f578287613d7a565b9150614f6282614f16565b601582019150614f728286613e1f565b9150614f7d82613e50565b601c82019150614f8d8285613e1f565b9150614f9882613e76565b601082019150614fa88284613e1f565b9150614fb382613e9c565b60018201915081905095945050505050565b6000614fd08261314f565b91507fffffffffffffffffffffffffffffffffffffffffffffffffffffffffffffffff82141561500357615002614878565b5b600182019050919050565b7f4e487b7100000000000000000000000000000000000000000000000000000000600052601260045260246000fd5b60006150488261314f565b91506150538361314f565b9250826150635761506261500e565b5b828204905092915050565b60006150798261314f565b91506150848361314f565b92508282101561509757615096614878565b5b828203905092915050565b60006150ad8261314f565b91506150b88361314f565b9250826150c8576150c761500e565b5b828206905092915050565b7f4e487b7100000000000000000000000000000000000000000000000000000000600052603260045260246000fd5b7f4552433732313a207472616e736665722066726f6d20696e636f72726563742060008201527f6f776e6572000000000000000000000000000000000000000000000000000000602082015250565b600061515e602583613400565b915061516982615102565b604082019050919050565b6000602082019050818103600083015261518d81615151565b9050919050565b7f4552433732313a207472616e7366657220746f20746865207a65726f2061646460008201527f7265737300000000000000000000000000000000000000000000000000000000602082015250565b60006151f0602483613400565b91506151fb82615194565b604082019050919050565b6000602082019050818103600083015261521f816151e3565b9050919050565b7f4552433732313a20617070726f766520746f2063616c6c657200000000000000600082015250565b600061525c601983613400565b915061526782615226565b602082019050919050565b6000602082019050818103600083015261528b8161524f565b9050919050565b7f4552433732313a207472616e7366657220746f206e6f6e20455243373231526560008201527f63656976657220696d706c656d656e7465720000000000000000000000000000602082015250565b60006152ee603283613400565b91506152f982615292565b604082019050919050565b6000602082019050818103600083015261531d816152e1565b9050919050565b7f416363657373436f6e74726f6c3a206163636f756e7420000000000000000000600082015250565b600061535a601783613d5a565b915061536582615324565b601782019050919050565b7f206973206d697373696e6720726f6c6520000000000000000000000000000000600082015250565b60006153a6601183613d5a565b91506153b182615370565b601182019050919050565b60006153c78261534d565b91506153d38285613e1f565b91506153de82615399565b91506153ea8284613e1f565b91508190509392505050565b600081519050919050565b600082825260208201905092915050565b600061541d826153f6565b6154278185615401565b9350615437818560208601613411565b6154408161318f565b840191505092915050565b600060808201905061546060008301876134fe565b61546d60208301866134fe565b61547a604083018561372a565b818103606083015261548c8184615412565b905095945050505050565b6000815190506154a681613366565b92915050565b6000602082840312156154c2576154c1613145565b5b60006154d084828501615497565b91505092915050565b60006154e48261314f565b91506154ef8361314f565b9250817fffffffffffffffffffffffffffffffffffffffffffffffffffffffffffffffff048311821515161561552857615527614878565b5b828202905092915050565b600061553e8261314f565b9150600082141561555257615551614878565b5b600182039050919050565b7f537472696e67733a20686578206c656e67746820696e73756666696369656e74600082015250565b6000615593602083613400565b915061559e8261555d565b602082019050919050565b600060208201905081810360008301526155c281615586565b9050919050565b7f4552433732313a206d696e7420746f20746865207a65726f2061646472657373600082015250565b60006155ff602083613400565b915061560a826155c9565b602082019050919050565b6000602082019050818103600083015261562e816155f2565b9050919050565b7f4552433732313a20746f6b656e20616c7265616479206d696e74656400000000600082015250565b600061566b601c83613400565b915061567682615635565b602082019050919050565b6000602082019050818103600083015261569a8161565e565b905091905056fea264697066735822122088ebebbe6fecc838b04458fbef2b4a5ac3fbd48f4870e1ea5d8f51f417dd4c0064736f6c634300080c003368747470733a2f2f746573746e65742e7461626c656c616e642e6e6574776f726b2f71756572793f",
  "linkReferences": {},
  "deployedLinkReferences": {}
}