{
  "_format": "hh-sol-artifact-1",
  "contractName": "MTEA",
  "sourceName": "contracts/mint_tea_ERC721.sol",
  "abi": [
    {
      "inputs": [
        {
          "internalType": "address",
          "name": "registry",
          "type": "address"
        }
      ],
      "stateMutability": "nonpayable",
      "type": "constructor"
    },
    {
      "anonymous": false,
      "inputs": [
        {
          "indexed": true,
          "internalType": "address",
          "name": "owner",
          "type": "address"
        },
        {
          "indexed": true,
          "internalType": "address",
          "name": "approved",
          "type": "address"
        },
        {
          "indexed": true,
          "internalType": "uint256",
          "name": "tokenId",
          "type": "uint256"
        }
      ],
      "name": "Approval",
      "type": "event"
    },
    {
      "anonymous": false,
      "inputs": [
        {
          "indexed": true,
          "internalType": "address",
          "name": "owner",
          "type": "address"
        },
        {
          "indexed": true,
          "internalType": "address",
          "name": "operator",
          "type": "address"
        },
        {
          "indexed": false,
          "internalType": "bool",
          "name": "approved",
          "type": "bool"
        }
      ],
      "name": "ApprovalForAll",
      "type": "event"
    },
    {
      "anonymous": false,
      "inputs": [
        {
          "indexed": true,
          "internalType": "address",
          "name": "from",
          "type": "address"
        },
        {
          "indexed": false,
          "internalType": "uint256",
          "name": "timestamp",
          "type": "uint256"
        },
        {
          "indexed": false,
          "internalType": "uint256",
          "name": "tokenId",
          "type": "uint256"
        }
      ],
      "name": "NewNftMinted",
      "type": "event"
    },
    {
      "anonymous": false,
      "inputs": [
        {
          "indexed": true,
          "internalType": "bytes32",
          "name": "role",
          "type": "bytes32"
        },
        {
          "indexed": true,
          "internalType": "bytes32",
          "name": "previousAdminRole",
          "type": "bytes32"
        },
        {
          "indexed": true,
          "internalType": "bytes32",
          "name": "newAdminRole",
          "type": "bytes32"
        }
      ],
      "name": "RoleAdminChanged",
      "type": "event"
    },
    {
      "anonymous": false,
      "inputs": [
        {
          "indexed": true,
          "internalType": "bytes32",
          "name": "role",
          "type": "bytes32"
        },
        {
          "indexed": true,
          "internalType": "address",
          "name": "account",
          "type": "address"
        },
        {
          "indexed": true,
          "internalType": "address",
          "name": "sender",
          "type": "address"
        }
      ],
      "name": "RoleGranted",
      "type": "event"
    },
    {
      "anonymous": false,
      "inputs": [
        {
          "indexed": true,
          "internalType": "bytes32",
          "name": "role",
          "type": "bytes32"
        },
        {
          "indexed": true,
          "internalType": "address",
          "name": "account",
          "type": "address"
        },
        {
          "indexed": true,
          "internalType": "address",
          "name": "sender",
          "type": "address"
        }
      ],
      "name": "RoleRevoked",
      "type": "event"
    },
    {
      "anonymous": false,
      "inputs": [
        {
          "indexed": true,
          "internalType": "address",
          "name": "from",
          "type": "address"
        },
        {
          "indexed": true,
          "internalType": "address",
          "name": "to",
          "type": "address"
        },
        {
          "indexed": true,
          "internalType": "uint256",
          "name": "tokenId",
          "type": "uint256"
        }
      ],
      "name": "Transfer",
      "type": "event"
    },
    {
      "anonymous": false,
      "inputs": [
        {
          "indexed": true,
          "internalType": "address",
          "name": "from",
          "type": "address"
        },
        {
          "indexed": false,
          "internalType": "uint256",
          "name": "timestamp",
          "type": "uint256"
        },
        {
          "indexed": false,
          "internalType": "uint256",
          "name": "tokenId",
          "type": "uint256"
        },
        {
          "indexed": false,
          "internalType": "uint256",
          "name": "_trait_id",
          "type": "uint256"
        }
      ],
      "name": "new_attribute_added",
      "type": "event"
    },
    {
      "anonymous": false,
      "inputs": [
        {
          "indexed": true,
          "internalType": "address",
          "name": "from",
          "type": "address"
        },
        {
          "indexed": false,
          "internalType": "uint256",
          "name": "timestamp",
          "type": "uint256"
        },
        {
          "indexed": false,
          "internalType": "uint256",
          "name": "_attributesTableId",
          "type": "uint256"
        },
        {
          "indexed": false,
          "internalType": "string",
          "name": "_trait_type",
          "type": "string"
        },
        {
          "indexed": false,
          "internalType": "uint256",
          "name": "tokenId",
          "type": "uint256"
        },
        {
          "indexed": false,
          "internalType": "uint256",
          "name": "_trait_id",
          "type": "uint256"
        }
      ],
      "name": "trait_type_updated",
      "type": "event"
    },
    {
      "inputs": [],
      "name": "DEFAULT_ADMIN_ROLE",
      "outputs": [
        {
          "internalType": "bytes32",
          "name": "",
          "type": "bytes32"
        }
      ],
      "stateMutability": "view",
      "type": "function"
    },
    {
      "inputs": [
        {
          "internalType": "uint256",
          "name": "_tokenId",
          "type": "uint256"
        },
        {
          "internalType": "string",
          "name": "_trait_type",
          "type": "string"
        },
        {
          "internalType": "string",
          "name": "_value",
          "type": "string"
        }
      ],
      "name": "add_new_attribute",
      "outputs": [
        {
          "internalType": "uint256",
          "name": "",
          "type": "uint256"
        }
      ],
      "stateMutability": "nonpayable",
      "type": "function"
    },
    {
      "inputs": [
        {
          "internalType": "address",
          "name": "to",
          "type": "address"
        },
        {
          "internalType": "uint256",
          "name": "tokenId",
          "type": "uint256"
        }
      ],
      "name": "approve",
      "outputs": [],
      "stateMutability": "nonpayable",
      "type": "function"
    },
    {
      "inputs": [],
      "name": "attributesTable",
      "outputs": [
        {
          "internalType": "string",
          "name": "",
          "type": "string"
        }
      ],
      "stateMutability": "view",
      "type": "function"
    },
    {
      "inputs": [],
      "name": "attributes_metadataURI",
      "outputs": [
        {
          "internalType": "string",
          "name": "",
          "type": "string"
        }
      ],
      "stateMutability": "view",
      "type": "function"
    },
    {
      "inputs": [
        {
          "internalType": "address",
          "name": "owner",
          "type": "address"
        }
      ],
      "name": "balanceOf",
      "outputs": [
        {
          "internalType": "uint256",
          "name": "",
          "type": "uint256"
        }
      ],
      "stateMutability": "view",
      "type": "function"
    },
    {
      "inputs": [
        {
          "internalType": "uint256",
          "name": "tokenId",
          "type": "uint256"
        }
      ],
      "name": "getApproved",
      "outputs": [
        {
          "internalType": "address",
          "name": "",
          "type": "address"
        }
      ],
      "stateMutability": "view",
      "type": "function"
    },
    {
      "inputs": [
        {
          "internalType": "bytes32",
          "name": "role",
          "type": "bytes32"
        }
      ],
      "name": "getRoleAdmin",
      "outputs": [
        {
          "internalType": "bytes32",
          "name": "",
          "type": "bytes32"
        }
      ],
      "stateMutability": "view",
      "type": "function"
    },
    {
      "inputs": [
        {
          "internalType": "bytes32",
          "name": "role",
          "type": "bytes32"
        },
        {
          "internalType": "address",
          "name": "account",
          "type": "address"
        }
      ],
      "name": "grantRole",
      "outputs": [],
      "stateMutability": "nonpayable",
      "type": "function"
    },
    {
      "inputs": [
        {
          "internalType": "bytes32",
          "name": "role",
          "type": "bytes32"
        },
        {
          "internalType": "address",
          "name": "account",
          "type": "address"
        }
      ],
      "name": "hasRole",
      "outputs": [
        {
          "internalType": "bool",
          "name": "",
          "type": "bool"
        }
      ],
      "stateMutability": "view",
      "type": "function"
    },
    {
      "inputs": [
        {
          "internalType": "address",
          "name": "owner",
          "type": "address"
        },
        {
          "internalType": "address",
          "name": "operator",
          "type": "address"
        }
      ],
      "name": "isApprovedForAll",
      "outputs": [
        {
          "internalType": "bool",
          "name": "",
          "type": "bool"
        }
      ],
      "stateMutability": "view",
      "type": "function"
    },
    {
      "inputs": [],
      "name": "mainTable",
      "outputs": [
        {
          "internalType": "string",
          "name": "",
          "type": "string"
        }
      ],
      "stateMutability": "view",
      "type": "function"
    },
    {
      "inputs": [],
      "name": "main_metadataURI",
      "outputs": [
        {
          "internalType": "string",
          "name": "",
          "type": "string"
        }
      ],
      "stateMutability": "view",
      "type": "function"
    },
    {
      "inputs": [],
      "name": "name",
      "outputs": [
        {
          "internalType": "string",
          "name": "",
          "type": "string"
        }
      ],
      "stateMutability": "view",
      "type": "function"
    },
    {
      "inputs": [
        {
          "internalType": "uint256",
          "name": "tokenId",
          "type": "uint256"
        }
      ],
      "name": "ownerOf",
      "outputs": [
        {
          "internalType": "address",
          "name": "",
          "type": "address"
        }
      ],
      "stateMutability": "view",
      "type": "function"
    },
    {
      "inputs": [
        {
          "internalType": "bytes32",
          "name": "role",
          "type": "bytes32"
        },
        {
          "internalType": "address",
          "name": "account",
          "type": "address"
        }
      ],
      "name": "renounceRole",
      "outputs": [],
      "stateMutability": "nonpayable",
      "type": "function"
    },
    {
      "inputs": [
        {
          "internalType": "bytes32",
          "name": "role",
          "type": "bytes32"
        },
        {
          "internalType": "address",
          "name": "account",
          "type": "address"
        }
      ],
      "name": "revokeRole",
      "outputs": [],
      "stateMutability": "nonpayable",
      "type": "function"
    },
    {
      "inputs": [
        {
          "internalType": "address",
          "name": "to",
          "type": "address"
        },
        {
          "internalType": "string",
          "name": "_name",
          "type": "string"
        },
        {
          "internalType": "string",
          "name": "_description",
          "type": "string"
        },
        {
          "internalType": "string",
          "name": "_image_url",
          "type": "string"
        },
        {
          "internalType": "string",
          "name": "_external_url",
          "type": "string"
        },
        {
          "internalType": "string",
          "name": "_icon",
          "type": "string"
        },
        {
          "internalType": "string",
          "name": "_display_type",
          "type": "string"
        },
        {
          "internalType": "string",
          "name": "_trait_type",
          "type": "string"
        },
        {
          "internalType": "string",
          "name": "_value",
          "type": "string"
        }
      ],
      "name": "safeMint",
      "outputs": [
        {
          "internalType": "uint256",
          "name": "",
          "type": "uint256"
        }
      ],
      "stateMutability": "nonpayable",
      "type": "function"
    },
    {
      "inputs": [
        {
          "internalType": "address",
          "name": "from",
          "type": "address"
        },
        {
          "internalType": "address",
          "name": "to",
          "type": "address"
        },
        {
          "internalType": "uint256",
          "name": "tokenId",
          "type": "uint256"
        }
      ],
      "name": "safeTransferFrom",
      "outputs": [],
      "stateMutability": "nonpayable",
      "type": "function"
    },
    {
      "inputs": [
        {
          "internalType": "address",
          "name": "from",
          "type": "address"
        },
        {
          "internalType": "address",
          "name": "to",
          "type": "address"
        },
        {
          "internalType": "uint256",
          "name": "tokenId",
          "type": "uint256"
        },
        {
          "internalType": "bytes",
          "name": "data",
          "type": "bytes"
        }
      ],
      "name": "safeTransferFrom",
      "outputs": [],
      "stateMutability": "nonpayable",
      "type": "function"
    },
    {
      "inputs": [
        {
          "internalType": "address",
          "name": "operator",
          "type": "address"
        },
        {
          "internalType": "bool",
          "name": "approved",
          "type": "bool"
        }
      ],
      "name": "setApprovalForAll",
      "outputs": [],
      "stateMutability": "nonpayable",
      "type": "function"
    },
    {
      "inputs": [
        {
          "internalType": "string",
          "name": "baseURI",
          "type": "string"
        }
      ],
      "name": "setBaseURI",
      "outputs": [],
      "stateMutability": "nonpayable",
      "type": "function"
    },
    {
      "inputs": [
        {
          "internalType": "bytes4",
          "name": "interfaceId",
          "type": "bytes4"
        }
      ],
      "name": "supportsInterface",
      "outputs": [
        {
          "internalType": "bool",
          "name": "",
          "type": "bool"
        }
      ],
      "stateMutability": "view",
      "type": "function"
    },
    {
      "inputs": [],
      "name": "symbol",
      "outputs": [
        {
          "internalType": "string",
          "name": "",
          "type": "string"
        }
      ],
      "stateMutability": "view",
      "type": "function"
    },
    {
      "inputs": [
        {
          "internalType": "uint256",
          "name": "_tokenId",
          "type": "uint256"
        }
      ],
      "name": "tokenURI",
      "outputs": [
        {
          "internalType": "string",
          "name": "",
          "type": "string"
        }
      ],
      "stateMutability": "view",
      "type": "function"
    },
    {
      "inputs": [
        {
          "internalType": "address",
          "name": "from",
          "type": "address"
        },
        {
          "internalType": "address",
          "name": "to",
          "type": "address"
        },
        {
          "internalType": "uint256",
          "name": "tokenId",
          "type": "uint256"
        }
      ],
      "name": "transferFrom",
      "outputs": [],
      "stateMutability": "nonpayable",
      "type": "function"
    },
    {
      "inputs": [
        {
          "internalType": "uint256",
          "name": "tokenId",
          "type": "uint256"
        },
        {
          "internalType": "uint256",
          "name": "_trait_id",
          "type": "uint256"
        },
        {
          "internalType": "string",
          "name": "_trait_type",
          "type": "string"
        }
      ],
      "name": "update_trait_type",
      "outputs": [],
      "stateMutability": "nonpayable",
      "type": "function"
    }
  ],
  "bytecode": "0x608060405260405180606001604052806028815260200162005c8460289139600790805190602001906200003592919062000731565b506040518060400160405280600881526020017f4d696e745f544541000000000000000000000000000000000000000000000000815250600c90805190602001906200008392919062000731565b503480156200009157600080fd5b5060405162005cac38038062005cac8339818101604052810190620000b791906200084b565b6040518060400160405280600881526020017f4d696e74205465610000000000000000000000000000000000000000000000008152506040518060400160405280600481526020017f6d4e46540000000000000000000000000000000000000000000000000000000081525081600090805190602001906200013b92919062000731565b5080600190805190602001906200015492919062000731565b5050506200016c6000801b336200045260201b60201c565b80600960006101000a81548173ffffffffffffffffffffffffffffffffffffffff021916908373ffffffffffffffffffffffffffffffffffffffff160217905550600960009054906101000a900473ffffffffffffffffffffffffffffffffffffffff1673ffffffffffffffffffffffffffffffffffffffff16633a9151b030600c62000204466200054460201b620015ee1760201c565b6040516020016200021792919062000aed565b6040516020818303038152906040526040518363ffffffff1660e01b81526004016200024592919062000bb8565b6020604051808303816000875af115801562000265573d6000803e3d6000fd5b505050506040513d601f19601f820116820180604052508101906200028b919062000c27565b600a81905550600c620002a9466200054460201b620015ee1760201c565b620002c1600a546200054460201b620015ee1760201c565b604051602001620002d59392919062000c59565b604051602081830303815290604052600d9080519060200190620002fb92919062000731565b50600960009054906101000a900473ffffffffffffffffffffffffffffffffffffffff1673ffffffffffffffffffffffffffffffffffffffff16633a9151b030600c62000353466200054460201b620015ee1760201c565b6040516020016200036692919062000d74565b6040516020818303038152906040526040518363ffffffff1660e01b81526004016200039492919062000bb8565b6020604051808303816000875af1158015620003b4573d6000803e3d6000fd5b505050506040513d601f19601f82011682018060405250810190620003da919062000c27565b600b81905550600c620003f8466200054460201b620015ee1760201c565b62000410600b546200054460201b620015ee1760201c565b604051602001620004249392919062000c59565b604051602081830303815290604052600e90805190602001906200044a92919062000731565b505062000fdd565b620004648282620006be60201b60201c565b620005405760016006600084815260200190815260200160002060000160008373ffffffffffffffffffffffffffffffffffffffff1673ffffffffffffffffffffffffffffffffffffffff16815260200190815260200160002060006101000a81548160ff021916908315150217905550620004e56200072960201b60201c565b73ffffffffffffffffffffffffffffffffffffffff168173ffffffffffffffffffffffffffffffffffffffff16837f2f8788117e7eff1d82e926ec794901d17c78024a50270940304540a733656f0d60405160405180910390a45b5050565b606060008214156200058e576040518060400160405280600181526020017f30000000000000000000000000000000000000000000000000000000000000008152509050620006b9565b600082905060005b60008214620005c6578080620005ac9062000dfa565b915050600a82620005be919062000e77565b915062000596565b60008167ffffffffffffffff811115620005e557620005e462000eaf565b5b6040519080825280601f01601f191660200182016040528015620006185781602001600182028036833780820191505090505b5090505b60008514620006b25760018262000634919062000ede565b9150600a8562000645919062000f19565b603062000653919062000f51565b60f81b8183815181106200066c576200066b62000fae565b5b60200101907effffffffffffffffffffffffffffffffffffffffffffffffffffffffffffff1916908160001a905350600a85620006aa919062000e77565b94506200061c565b8093505050505b919050565b60006006600084815260200190815260200160002060000160008373ffffffffffffffffffffffffffffffffffffffff1673ffffffffffffffffffffffffffffffffffffffff16815260200190815260200160002060009054906101000a900460ff16905092915050565b600033905090565b8280546200073f90620008d2565b90600052602060002090601f016020900481019282620007635760008555620007af565b82601f106200077e57805160ff1916838001178555620007af565b82800160010185558215620007af579182015b82811115620007ae57825182559160200191906001019062000791565b5b509050620007be9190620007c2565b5090565b5b80821115620007dd576000816000905550600101620007c3565b5090565b600080fd5b600073ffffffffffffffffffffffffffffffffffffffff82169050919050565b60006200081382620007e6565b9050919050565b620008258162000806565b81146200083157600080fd5b50565b60008151905062000845816200081a565b92915050565b600060208284031215620008645762000863620007e1565b5b6000620008748482850162000834565b91505092915050565b7f435245415445205441424c452000000000000000000000000000000000000000815250565b7f4e487b7100000000000000000000000000000000000000000000000000000000600052602260045260246000fd5b60006002820490506001821680620008eb57607f821691505b60208210811415620009025762000901620008a3565b5b50919050565b600081905092915050565b60008190508160005260206000209050919050565b600081546200093781620008d2565b62000943818662000908565b945060018216600081146200096157600181146200097357620009aa565b60ff19831686528186019350620009aa565b6200097e8562000913565b60005b83811015620009a25781548189015260018201915060208101905062000981565b838801955050505b50505092915050565b7f5f00000000000000000000000000000000000000000000000000000000000000815250565b600081519050919050565b60005b8381101562000a04578082015181840152602081019050620009e7565b8381111562000a14576000848401525b50505050565b600062000a2782620009d9565b62000a33818562000908565b935062000a45818560208601620009e4565b80840191505092915050565b7f2028746f6b656e696420696e742c206e616d6520746578742c2064657363726960008201527f7074696f6e20746578742c20696d61676520746578742c2065787465726e616c60208201527f5f75726c2074657874293b000000000000000000000000000000000000000000604082015250565b600062000ad5604b8362000908565b915062000ae28262000a51565b604b82019050919050565b600062000afa826200087d565b600d8201915062000b0c828562000928565b915062000b1982620009b3565b60018201915062000b2b828462000a1a565b915062000b388262000ac6565b91508190509392505050565b62000b4f8162000806565b82525050565b600082825260208201905092915050565b6000601f19601f8301169050919050565b600062000b8482620009d9565b62000b90818562000b55565b935062000ba2818560208601620009e4565b62000bad8162000b66565b840191505092915050565b600060408201905062000bcf600083018562000b44565b818103602083015262000be3818462000b77565b90509392505050565b6000819050919050565b62000c018162000bec565b811462000c0d57600080fd5b50565b60008151905062000c218162000bf6565b92915050565b60006020828403121562000c405762000c3f620007e1565b5b600062000c508482850162000c10565b91505092915050565b600062000c67828662000928565b915062000c7482620009b3565b60018201915062000c86828562000a1a565b915062000c9382620009b3565b60018201915062000ca5828462000a1a565b9150819050949350505050565b7f20286d61696e7461626c655f746f6b656e696420696e742c2069636f6e20746560008201527f78742c20646973706c61795f7479706520746578742c2074726169745f74797060208201527f6520746578742c2076616c756520746578742c2074726169745f696420696e7460408201527f293b000000000000000000000000000000000000000000000000000000000000606082015250565b600062000d5c60628362000908565b915062000d698262000cb2565b606282019050919050565b600062000d81826200087d565b600d8201915062000d93828562000928565b915062000da082620009b3565b60018201915062000db2828462000a1a565b915062000dbf8262000d4d565b91508190509392505050565b7f4e487b7100000000000000000000000000000000000000000000000000000000600052601160045260246000fd5b600062000e078262000bec565b91507fffffffffffffffffffffffffffffffffffffffffffffffffffffffffffffffff82141562000e3d5762000e3c62000dcb565b5b600182019050919050565b7f4e487b7100000000000000000000000000000000000000000000000000000000600052601260045260246000fd5b600062000e848262000bec565b915062000e918362000bec565b92508262000ea45762000ea362000e48565b5b828204905092915050565b7f4e487b7100000000000000000000000000000000000000000000000000000000600052604160045260246000fd5b600062000eeb8262000bec565b915062000ef88362000bec565b92508282101562000f0e5762000f0d62000dcb565b5b828203905092915050565b600062000f268262000bec565b915062000f338362000bec565b92508262000f465762000f4562000e48565b5b828206905092915050565b600062000f5e8262000bec565b915062000f6b8362000bec565b9250827fffffffffffffffffffffffffffffffffffffffffffffffffffffffffffffffff0382111562000fa35762000fa262000dcb565b5b828201905092915050565b7f4e487b7100000000000000000000000000000000000000000000000000000000600052603260045260246000fd5b614c978062000fed6000396000f3fe608060405234801561001057600080fd5b50600436106101a95760003560e01c80635d21260a116100f9578063a217fddf11610097578063b88d4fde11610071578063b88d4fde146104e0578063c87b56dd146104fc578063d547741f1461052c578063e985e9c514610548576101a9565b8063a217fddf14610488578063a22cb465146104a6578063a8e62f09146104c2576101a9565b80637bc53be9116100d35780637bc53be9146103ec5780638586b42f1461040a57806391d148541461043a57806395d89b411461046a576101a9565b80635d21260a1461036e5780636352211e1461038c57806370a08231146103bc576101a9565b8063248a9ca311610166578063313e91cb11610140578063313e91cb146102fe57806336568abe1461031a57806342842e0e1461033657806355f804b314610352576101a9565b8063248a9ca31461028257806326e77383146102b25780632f2ff15d146102e2576101a9565b806301ffc9a7146101ae57806306fdde03146101de578063081812fc146101fc578063091a77e71461022c578063095ea7b31461024a57806323b872dd14610266575b600080fd5b6101c860048036038101906101c391906129cf565b610578565b6040516101d59190612a17565b60405180910390f35b6101e661058a565b6040516101f39190612acb565b60405180910390f35b61021660048036038101906102119190612b23565b61061c565b6040516102239190612b91565b60405180910390f35b610234610662565b6040516102419190612acb565b60405180910390f35b610264600480360381019061025f9190612bd8565b610699565b005b610280600480360381019061027b9190612c18565b6107b1565b005b61029c60048036038101906102979190612ca1565b610811565b6040516102a99190612cdd565b60405180910390f35b6102cc60048036038101906102c79190612e2d565b610831565b6040516102d99190612ec7565b60405180910390f35b6102fc60048036038101906102f79190612ee2565b610aa2565b005b61031860048036038101906103139190612f22565b610ac3565b005b610334600480360381019061032f9190612ee2565b610d32565b005b610350600480360381019061034b9190612c18565b610db5565b005b61036c60048036038101906103679190612f91565b610dd5565b005b610376610dfd565b6040516103839190612acb565b60405180910390f35b6103a660048036038101906103a19190612b23565b610e8b565b6040516103b39190612b91565b60405180910390f35b6103d660048036038101906103d19190612fda565b610f3d565b6040516103e39190612ec7565b60405180910390f35b6103f4610ff5565b6040516104019190612acb565b60405180910390f35b610424600480360381019061041f9190613007565b611083565b6040516104319190612ec7565b60405180910390f35b610454600480360381019061044f9190612ee2565b6112aa565b6040516104619190612a17565b60405180910390f35b610472611315565b60405161047f9190612acb565b60405180910390f35b6104906113a7565b60405161049d9190612cdd565b60405180910390f35b6104c060048036038101906104bb91906131dd565b6113ae565b005b6104ca6113c4565b6040516104d79190612acb565b60405180910390f35b6104fa60048036038101906104f591906132be565b6113fb565b005b61051660048036038101906105119190612b23565b61145d565b6040516105239190612acb565b60405180910390f35b61054660048036038101906105419190612ee2565b611539565b005b610562600480360381019061055d9190613341565b61155a565b60405161056f9190612a17565b60405180910390f35b60006105838261174f565b9050919050565b606060008054610599906133b0565b80601f01602080910402602001604051908101604052809291908181526020018280546105c5906133b0565b80156106125780601f106105e757610100808354040283529160200191610612565b820191906000526020600020905b8154815290600101906020018083116105f557829003601f168201915b5050505050905090565b6000610627826117c9565b6004600083815260200190815260200160002060009054906101000a900473ffffffffffffffffffffffffffffffffffffffff169050919050565b6060600061066e611814565b905080600e6040516020016106849291906134d8565b60405160208183030381529060405291505090565b60006106a482610e8b565b90508073ffffffffffffffffffffffffffffffffffffffff168373ffffffffffffffffffffffffffffffffffffffff161415610715576040517f08c379a000000000000000000000000000000000000000000000000000000000815260040161070c9061357d565b60405180910390fd5b8073ffffffffffffffffffffffffffffffffffffffff166107346118a6565b73ffffffffffffffffffffffffffffffffffffffff16148061076357506107628161075d6118a6565b61155a565b5b6107a2576040517f08c379a00000000000000000000000000000000000000000000000000000000081526004016107999061360f565b60405180910390fd5b6107ac83836118ae565b505050565b6107c26107bc6118a6565b82611967565b610801576040517f08c379a00000000000000000000000000000000000000000000000000000000081526004016107f8906136a1565b60405180910390fd5b61080c8383836119fc565b505050565b600060066000838152602001908152602001600020600101549050919050565b60003373ffffffffffffffffffffffffffffffffffffffff163073ffffffffffffffffffffffffffffffffffffffff16636352211e866040518263ffffffff1660e01b81526004016108839190612ec7565b602060405180830381865afa1580156108a0573d6000803e3d6000fd5b505050506040513d601f19601f820116820180604052508101906108c491906136d6565b73ffffffffffffffffffffffffffffffffffffffff161461091a576040517f08c379a00000000000000000000000000000000000000000000000000000000081526004016109119061374f565b60405180910390fd5b6000600f6000868152602001908152602001600020549050600960009054906101000a900473ffffffffffffffffffffffffffffffffffffffff1673ffffffffffffffffffffffffffffffffffffffff1663eaf5d04e30600b54600e61097f8a6115ee565b898961099660018a610991919061379e565b6115ee565b6040516020016109aa9594939291906138d8565b6040516020818303038152906040526040518463ffffffff1660e01b81526004016109d793929190613979565b600060405180830381600087803b1580156109f157600080fd5b505af1158015610a05573d6000803e3d6000fd5b50505050600181610a16919061379e565b600f6000878152602001908152602001600020819055503373ffffffffffffffffffffffffffffffffffffffff167f456a1a41f394f2cf838e46d9f7ababdefe85acbdab3e2ec55fcf1abaccd0c2d54287600185610a74919061379e565b604051610a83939291906139b7565b60405180910390a2600181610a98919061379e565b9150509392505050565b610aab82610811565b610ab481611c63565b610abe8383611c77565b505050565b3373ffffffffffffffffffffffffffffffffffffffff163073ffffffffffffffffffffffffffffffffffffffff16636352211e856040518263ffffffff1660e01b8152600401610b139190612ec7565b602060405180830381865afa158015610b30573d6000803e3d6000fd5b505050506040513d601f19601f82011682018060405250810190610b5491906136d6565b73ffffffffffffffffffffffffffffffffffffffff1614610baa576040517f08c379a0000000000000000000000000000000000000000000000000000000008152600401610ba19061374f565b60405180910390fd5b81600f60008581526020019081526020016000205410158015610bcd5750600082115b610c0c576040517f08c379a0000000000000000000000000000000000000000000000000000000008152600401610c0390613a3a565b60405180910390fd5b600960009054906101000a900473ffffffffffffffffffffffffffffffffffffffff1673ffffffffffffffffffffffffffffffffffffffff1663eaf5d04e30600b54600e85610c5a896115ee565b610c63896115ee565b604051602001610c769493929190613b18565b6040516020818303038152906040526040518463ffffffff1660e01b8152600401610ca393929190613979565b600060405180830381600087803b158015610cbd57600080fd5b505af1158015610cd1573d6000803e3d6000fd5b505050503373ffffffffffffffffffffffffffffffffffffffff167ffb6ca261832eebf6eacc5e4a0f3d612d96c2da669a75ab863ca6ed8876a1a17842600b54848787604051610d25959493929190613ba1565b60405180910390a2505050565b610d3a6118a6565b73ffffffffffffffffffffffffffffffffffffffff168173ffffffffffffffffffffffffffffffffffffffff1614610da7576040517f08c379a0000000000000000000000000000000000000000000000000000000008152600401610d9e90613c6d565b60405180910390fd5b610db18282611d58565b5050565b610dd0838383604051806020016040528060008152506113fb565b505050565b6000801b610de281611c63565b8160079080519060200190610df89291906128c0565b505050565b600d8054610e0a906133b0565b80601f0160208091040260200160405190810160405280929190818152602001828054610e36906133b0565b8015610e835780601f10610e5857610100808354040283529160200191610e83565b820191906000526020600020905b815481529060010190602001808311610e6657829003601f168201915b505050505081565b6000806002600084815260200190815260200160002060009054906101000a900473ffffffffffffffffffffffffffffffffffffffff169050600073ffffffffffffffffffffffffffffffffffffffff168173ffffffffffffffffffffffffffffffffffffffff161415610f34576040517f08c379a0000000000000000000000000000000000000000000000000000000008152600401610f2b90613cd9565b60405180910390fd5b80915050919050565b60008073ffffffffffffffffffffffffffffffffffffffff168273ffffffffffffffffffffffffffffffffffffffff161415610fae576040517f08c379a0000000000000000000000000000000000000000000000000000000008152600401610fa590613d6b565b60405180910390fd5b600360008373ffffffffffffffffffffffffffffffffffffffff1673ffffffffffffffffffffffffffffffffffffffff168152602001908152602001600020549050919050565b600e8054611002906133b0565b80601f016020809104026020016040519081016040528092919081815260200182805461102e906133b0565b801561107b5780601f106110505761010080835404028352916020019161107b565b820191906000526020600020905b81548152906001019060200180831161105e57829003601f168201915b505050505081565b6000806110906008611e3a565b9050600960009054906101000a900473ffffffffffffffffffffffffffffffffffffffff1673ffffffffffffffffffffffffffffffffffffffff1663eaf5d04e30600a54600d6110df866115ee565b8f8f8f8f6040516020016110f896959493929190613dfd565b6040516020818303038152906040526040518463ffffffff1660e01b815260040161112593929190613979565b600060405180830381600087803b15801561113f57600080fd5b505af1158015611153573d6000803e3d6000fd5b50505050600960009054906101000a900473ffffffffffffffffffffffffffffffffffffffff1673ffffffffffffffffffffffffffffffffffffffff1663eaf5d04e30600b54600e6111a4866115ee565b8b8b8b8b6040516020016111bd96959493929190613f78565b6040516020818303038152906040526040518463ffffffff1660e01b81526004016111ea93929190613979565b600060405180830381600087803b15801561120457600080fd5b505af1158015611218573d6000803e3d6000fd5b505050506112268b82611e48565b6001600f6000838152602001908152602001600020819055506112496008611e66565b3373ffffffffffffffffffffffffffffffffffffffff167f061b141191d79859f7cc6256c1b9e5f380052197831efe9135841c0ff4de7e634283604051611291929190614053565b60405180910390a2809150509998505050505050505050565b60006006600084815260200190815260200160002060000160008373ffffffffffffffffffffffffffffffffffffffff1673ffffffffffffffffffffffffffffffffffffffff16815260200190815260200160002060009054906101000a900460ff16905092915050565b606060018054611324906133b0565b80601f0160208091040260200160405190810160405280929190818152602001828054611350906133b0565b801561139d5780601f106113725761010080835404028352916020019161139d565b820191906000526020600020905b81548152906001019060200180831161138057829003601f168201915b5050505050905090565b6000801b81565b6113c06113b96118a6565b8383611e7c565b5050565b606060006113d0611814565b905080600d6040516020016113e69291906134d8565b60405160208183030381529060405291505090565b61140c6114066118a6565b83611967565b61144b576040517f08c379a0000000000000000000000000000000000000000000000000000000008152600401611442906136a1565b60405180910390fd5b61145784848484611fe9565b50505050565b606061146882612045565b6114a7576040517f08c379a000000000000000000000000000000000000000000000000000000000815260040161149e906140ee565b60405180910390fd5b60006114b1611814565b90506000815114156114d55760405180602001604052806000815250915050611534565b6000600d600e600d600e6040516020016114f29493929190614431565b6040516020818303038152906040529050818161150e866115ee565b6040516020016115209392919061453e565b604051602081830303815290604052925050505b919050565b61154282610811565b61154b81611c63565b6115558383611d58565b505050565b6000600560008473ffffffffffffffffffffffffffffffffffffffff1673ffffffffffffffffffffffffffffffffffffffff16815260200190815260200160002060008373ffffffffffffffffffffffffffffffffffffffff1673ffffffffffffffffffffffffffffffffffffffff16815260200190815260200160002060009054906101000a900460ff16905092915050565b60606000821415611636576040518060400160405280600181526020017f3000000000000000000000000000000000000000000000000000000000000000815250905061174a565b600082905060005b6000821461166857808061165190614585565b915050600a8261166191906145fd565b915061163e565b60008167ffffffffffffffff81111561168457611683612d02565b5b6040519080825280601f01601f1916602001820160405280156116b65781602001600182028036833780820191505090505b5090505b60008514611743576001826116cf919061462e565b9150600a856116de9190614662565b60306116ea919061379e565b60f81b818381518110611700576116ff614693565b5b60200101907effffffffffffffffffffffffffffffffffffffffffffffffffffffffffffff1916908160001a905350600a8561173c91906145fd565b94506116ba565b8093505050505b919050565b60007f7965db0b000000000000000000000000000000000000000000000000000000007bffffffffffffffffffffffffffffffffffffffffffffffffffffffff1916827bffffffffffffffffffffffffffffffffffffffffffffffffffffffff191614806117c257506117c1826120b1565b5b9050919050565b6117d281612045565b611811576040517f08c379a000000000000000000000000000000000000000000000000000000000815260040161180890613cd9565b60405180910390fd5b50565b606060078054611823906133b0565b80601f016020809104026020016040519081016040528092919081815260200182805461184f906133b0565b801561189c5780601f106118715761010080835404028352916020019161189c565b820191906000526020600020905b81548152906001019060200180831161187f57829003601f168201915b5050505050905090565b600033905090565b816004600083815260200190815260200160002060006101000a81548173ffffffffffffffffffffffffffffffffffffffff021916908373ffffffffffffffffffffffffffffffffffffffff160217905550808273ffffffffffffffffffffffffffffffffffffffff1661192183610e8b565b73ffffffffffffffffffffffffffffffffffffffff167f8c5be1e5ebec7d5bd14f71427d1e84f3dd0314c0f7b2291e5b200ac8c7c3b92560405160405180910390a45050565b60008061197383610e8b565b90508073ffffffffffffffffffffffffffffffffffffffff168473ffffffffffffffffffffffffffffffffffffffff1614806119b557506119b4818561155a565b5b806119f357508373ffffffffffffffffffffffffffffffffffffffff166119db8461061c565b73ffffffffffffffffffffffffffffffffffffffff16145b91505092915050565b8273ffffffffffffffffffffffffffffffffffffffff16611a1c82610e8b565b73ffffffffffffffffffffffffffffffffffffffff1614611a72576040517f08c379a0000000000000000000000000000000000000000000000000000000008152600401611a6990614734565b60405180910390fd5b600073ffffffffffffffffffffffffffffffffffffffff168273ffffffffffffffffffffffffffffffffffffffff161415611ae2576040517f08c379a0000000000000000000000000000000000000000000000000000000008152600401611ad9906147c6565b60405180910390fd5b611aed838383612193565b611af86000826118ae565b6001600360008573ffffffffffffffffffffffffffffffffffffffff1673ffffffffffffffffffffffffffffffffffffffff1681526020019081526020016000206000828254611b48919061462e565b925050819055506001600360008473ffffffffffffffffffffffffffffffffffffffff1673ffffffffffffffffffffffffffffffffffffffff1681526020019081526020016000206000828254611b9f919061379e565b92505081905550816002600083815260200190815260200160002060006101000a81548173ffffffffffffffffffffffffffffffffffffffff021916908373ffffffffffffffffffffffffffffffffffffffff160217905550808273ffffffffffffffffffffffffffffffffffffffff168473ffffffffffffffffffffffffffffffffffffffff167fddf252ad1be2c89b69c2b068fc378daa952ba7f163c4a11628f55a4df523b3ef60405160405180910390a4611c5e838383612198565b505050565b611c7481611c6f6118a6565b61219d565b50565b611c8182826112aa565b611d545760016006600084815260200190815260200160002060000160008373ffffffffffffffffffffffffffffffffffffffff1673ffffffffffffffffffffffffffffffffffffffff16815260200190815260200160002060006101000a81548160ff021916908315150217905550611cf96118a6565b73ffffffffffffffffffffffffffffffffffffffff168173ffffffffffffffffffffffffffffffffffffffff16837f2f8788117e7eff1d82e926ec794901d17c78024a50270940304540a733656f0d60405160405180910390a45b5050565b611d6282826112aa565b15611e365760006006600084815260200190815260200160002060000160008373ffffffffffffffffffffffffffffffffffffffff1673ffffffffffffffffffffffffffffffffffffffff16815260200190815260200160002060006101000a81548160ff021916908315150217905550611ddb6118a6565b73ffffffffffffffffffffffffffffffffffffffff168173ffffffffffffffffffffffffffffffffffffffff16837ff6391f5c32d9c69d2a47ea670b442974b53935d1edc7fd64eb21e047a839171b60405160405180910390a45b5050565b600081600001549050919050565b611e6282826040518060200160405280600081525061223a565b5050565b6001816000016000828254019250508190555050565b8173ffffffffffffffffffffffffffffffffffffffff168373ffffffffffffffffffffffffffffffffffffffff161415611eeb576040517f08c379a0000000000000000000000000000000000000000000000000000000008152600401611ee290614832565b60405180910390fd5b80600560008573ffffffffffffffffffffffffffffffffffffffff1673ffffffffffffffffffffffffffffffffffffffff16815260200190815260200160002060008473ffffffffffffffffffffffffffffffffffffffff1673ffffffffffffffffffffffffffffffffffffffff16815260200190815260200160002060006101000a81548160ff0219169083151502179055508173ffffffffffffffffffffffffffffffffffffffff168373ffffffffffffffffffffffffffffffffffffffff167f17307eab39ab6107e8899845ad3d59bd9653f200f220920489ca2b5937696c3183604051611fdc9190612a17565b60405180910390a3505050565b611ff48484846119fc565b61200084848484612295565b61203f576040517f08c379a0000000000000000000000000000000000000000000000000000000008152600401612036906148c4565b60405180910390fd5b50505050565b60008073ffffffffffffffffffffffffffffffffffffffff166002600084815260200190815260200160002060009054906101000a900473ffffffffffffffffffffffffffffffffffffffff1673ffffffffffffffffffffffffffffffffffffffff1614159050919050565b60007f80ac58cd000000000000000000000000000000000000000000000000000000007bffffffffffffffffffffffffffffffffffffffffffffffffffffffff1916827bffffffffffffffffffffffffffffffffffffffffffffffffffffffff1916148061217c57507f5b5e139f000000000000000000000000000000000000000000000000000000007bffffffffffffffffffffffffffffffffffffffffffffffffffffffff1916827bffffffffffffffffffffffffffffffffffffffffffffffffffffffff1916145b8061218c575061218b8261241d565b5b9050919050565b505050565b505050565b6121a782826112aa565b612236576121cc8173ffffffffffffffffffffffffffffffffffffffff166014612487565b6121da8360001c6020612487565b6040516020016121eb92919061497c565b6040516020818303038152906040526040517f08c379a000000000000000000000000000000000000000000000000000000000815260040161222d9190612acb565b60405180910390fd5b5050565b61224483836126c3565b6122516000848484612295565b612290576040517f08c379a0000000000000000000000000000000000000000000000000000000008152600401612287906148c4565b60405180910390fd5b505050565b60006122b68473ffffffffffffffffffffffffffffffffffffffff1661289d565b15612410578373ffffffffffffffffffffffffffffffffffffffff1663150b7a026122df6118a6565b8786866040518563ffffffff1660e01b81526004016123019493929190614a0b565b6020604051808303816000875af192505050801561233d57506040513d601f19601f8201168201806040525081019061233a9190614a6c565b60015b6123c0573d806000811461236d576040519150601f19603f3d011682016040523d82523d6000602084013e612372565b606091505b506000815114156123b8576040517f08c379a00000000000000000000000000000000000000000000000000000000081526004016123af906148c4565b60405180910390fd5b805181602001fd5b63150b7a0260e01b7bffffffffffffffffffffffffffffffffffffffffffffffffffffffff1916817bffffffffffffffffffffffffffffffffffffffffffffffffffffffff191614915050612415565b600190505b949350505050565b60007f01ffc9a7000000000000000000000000000000000000000000000000000000007bffffffffffffffffffffffffffffffffffffffffffffffffffffffff1916827bffffffffffffffffffffffffffffffffffffffffffffffffffffffff1916149050919050565b60606000600283600261249a9190614a99565b6124a4919061379e565b67ffffffffffffffff8111156124bd576124bc612d02565b5b6040519080825280601f01601f1916602001820160405280156124ef5781602001600182028036833780820191505090505b5090507f30000000000000000000000000000000000000000000000000000000000000008160008151811061252757612526614693565b5b60200101907effffffffffffffffffffffffffffffffffffffffffffffffffffffffffffff1916908160001a9053507f78000000000000000000000000000000000000000000000000000000000000008160018151811061258b5761258a614693565b5b60200101907effffffffffffffffffffffffffffffffffffffffffffffffffffffffffffff1916908160001a905350600060018460026125cb9190614a99565b6125d5919061379e565b90505b6001811115612675577f3031323334353637383961626364656600000000000000000000000000000000600f86166010811061261757612616614693565b5b1a60f81b82828151811061262e5761262d614693565b5b60200101907effffffffffffffffffffffffffffffffffffffffffffffffffffffffffffff1916908160001a905350600485901c94508061266e90614af3565b90506125d8565b50600084146126b9576040517f08c379a00000000000000000000000000000000000000000000000000000000081526004016126b090614b69565b60405180910390fd5b8091505092915050565b600073ffffffffffffffffffffffffffffffffffffffff168273ffffffffffffffffffffffffffffffffffffffff161415612733576040517f08c379a000000000000000000000000000000000000000000000000000000000815260040161272a90614bd5565b60405180910390fd5b61273c81612045565b1561277c576040517f08c379a000000000000000000000000000000000000000000000000000000000815260040161277390614c41565b60405180910390fd5b61278860008383612193565b6001600360008473ffffffffffffffffffffffffffffffffffffffff1673ffffffffffffffffffffffffffffffffffffffff16815260200190815260200160002060008282546127d8919061379e565b92505081905550816002600083815260200190815260200160002060006101000a81548173ffffffffffffffffffffffffffffffffffffffff021916908373ffffffffffffffffffffffffffffffffffffffff160217905550808273ffffffffffffffffffffffffffffffffffffffff16600073ffffffffffffffffffffffffffffffffffffffff167fddf252ad1be2c89b69c2b068fc378daa952ba7f163c4a11628f55a4df523b3ef60405160405180910390a461289960008383612198565b5050565b6000808273ffffffffffffffffffffffffffffffffffffffff163b119050919050565b8280546128cc906133b0565b90600052602060002090601f0160209004810192826128ee5760008555612935565b82601f1061290757805160ff1916838001178555612935565b82800160010185558215612935579182015b82811115612934578251825591602001919060010190612919565b5b5090506129429190612946565b5090565b5b8082111561295f576000816000905550600101612947565b5090565b6000604051905090565b600080fd5b600080fd5b60007fffffffff0000000000000000000000000000000000000000000000000000000082169050919050565b6129ac81612977565b81146129b757600080fd5b50565b6000813590506129c9816129a3565b92915050565b6000602082840312156129e5576129e461296d565b5b60006129f3848285016129ba565b91505092915050565b60008115159050919050565b612a11816129fc565b82525050565b6000602082019050612a2c6000830184612a08565b92915050565b600081519050919050565b600082825260208201905092915050565b60005b83811015612a6c578082015181840152602081019050612a51565b83811115612a7b576000848401525b50505050565b6000601f19601f8301169050919050565b6000612a9d82612a32565b612aa78185612a3d565b9350612ab7818560208601612a4e565b612ac081612a81565b840191505092915050565b60006020820190508181036000830152612ae58184612a92565b905092915050565b6000819050919050565b612b0081612aed565b8114612b0b57600080fd5b50565b600081359050612b1d81612af7565b92915050565b600060208284031215612b3957612b3861296d565b5b6000612b4784828501612b0e565b91505092915050565b600073ffffffffffffffffffffffffffffffffffffffff82169050919050565b6000612b7b82612b50565b9050919050565b612b8b81612b70565b82525050565b6000602082019050612ba66000830184612b82565b92915050565b612bb581612b70565b8114612bc057600080fd5b50565b600081359050612bd281612bac565b92915050565b60008060408385031215612bef57612bee61296d565b5b6000612bfd85828601612bc3565b9250506020612c0e85828601612b0e565b9150509250929050565b600080600060608486031215612c3157612c3061296d565b5b6000612c3f86828701612bc3565b9350506020612c5086828701612bc3565b9250506040612c6186828701612b0e565b9150509250925092565b6000819050919050565b612c7e81612c6b565b8114612c8957600080fd5b50565b600081359050612c9b81612c75565b92915050565b600060208284031215612cb757612cb661296d565b5b6000612cc584828501612c8c565b91505092915050565b612cd781612c6b565b82525050565b6000602082019050612cf26000830184612cce565b92915050565b600080fd5b600080fd5b7f4e487b7100000000000000000000000000000000000000000000000000000000600052604160045260246000fd5b612d3a82612a81565b810181811067ffffffffffffffff82111715612d5957612d58612d02565b5b80604052505050565b6000612d6c612963565b9050612d788282612d31565b919050565b600067ffffffffffffffff821115612d9857612d97612d02565b5b612da182612a81565b9050602081019050919050565b82818337600083830152505050565b6000612dd0612dcb84612d7d565b612d62565b905082815260208101848484011115612dec57612deb612cfd565b5b612df7848285612dae565b509392505050565b600082601f830112612e1457612e13612cf8565b5b8135612e24848260208601612dbd565b91505092915050565b600080600060608486031215612e4657612e4561296d565b5b6000612e5486828701612b0e565b935050602084013567ffffffffffffffff811115612e7557612e74612972565b5b612e8186828701612dff565b925050604084013567ffffffffffffffff811115612ea257612ea1612972565b5b612eae86828701612dff565b9150509250925092565b612ec181612aed565b82525050565b6000602082019050612edc6000830184612eb8565b92915050565b60008060408385031215612ef957612ef861296d565b5b6000612f0785828601612c8c565b9250506020612f1885828601612bc3565b9150509250929050565b600080600060608486031215612f3b57612f3a61296d565b5b6000612f4986828701612b0e565b9350506020612f5a86828701612b0e565b925050604084013567ffffffffffffffff811115612f7b57612f7a612972565b5b612f8786828701612dff565b9150509250925092565b600060208284031215612fa757612fa661296d565b5b600082013567ffffffffffffffff811115612fc557612fc4612972565b5b612fd184828501612dff565b91505092915050565b600060208284031215612ff057612fef61296d565b5b6000612ffe84828501612bc3565b91505092915050565b60008060008060008060008060006101208a8c03121561302a5761302961296d565b5b60006130388c828d01612bc3565b99505060208a013567ffffffffffffffff81111561305957613058612972565b5b6130658c828d01612dff565b98505060408a013567ffffffffffffffff81111561308657613085612972565b5b6130928c828d01612dff565b97505060608a013567ffffffffffffffff8111156130b3576130b2612972565b5b6130bf8c828d01612dff565b96505060808a013567ffffffffffffffff8111156130e0576130df612972565b5b6130ec8c828d01612dff565b95505060a08a013567ffffffffffffffff81111561310d5761310c612972565b5b6131198c828d01612dff565b94505060c08a013567ffffffffffffffff81111561313a57613139612972565b5b6131468c828d01612dff565b93505060e08a013567ffffffffffffffff81111561316757613166612972565b5b6131738c828d01612dff565b9250506101008a013567ffffffffffffffff81111561319557613194612972565b5b6131a18c828d01612dff565b9150509295985092959850929598565b6131ba816129fc565b81146131c557600080fd5b50565b6000813590506131d7816131b1565b92915050565b600080604083850312156131f4576131f361296d565b5b600061320285828601612bc3565b9250506020613213858286016131c8565b9150509250929050565b600067ffffffffffffffff82111561323857613237612d02565b5b61324182612a81565b9050602081019050919050565b600061326161325c8461321d565b612d62565b90508281526020810184848401111561327d5761327c612cfd565b5b613288848285612dae565b509392505050565b600082601f8301126132a5576132a4612cf8565b5b81356132b584826020860161324e565b91505092915050565b600080600080608085870312156132d8576132d761296d565b5b60006132e687828801612bc3565b94505060206132f787828801612bc3565b935050604061330887828801612b0e565b925050606085013567ffffffffffffffff81111561332957613328612972565b5b61333587828801613290565b91505092959194509250565b600080604083850312156133585761335761296d565b5b600061336685828601612bc3565b925050602061337785828601612bc3565b9150509250929050565b7f4e487b7100000000000000000000000000000000000000000000000000000000600052602260045260246000fd5b600060028204905060018216806133c857607f821691505b602082108114156133dc576133db613381565b5b50919050565b600081905092915050565b60006133f882612a32565b61340281856133e2565b9350613412818560208601612a4e565b80840191505092915050565b7f53454c4543542532302a25323046524f4d253230000000000000000000000000815250565b60008190508160005260206000209050919050565b60008154613466816133b0565b61347081866133e2565b9450600182166000811461348b576001811461349c576134cf565b60ff198316865281860193506134cf565b6134a585613444565b60005b838110156134c7578154818901526001820191506020810190506134a8565b838801955050505b50505092915050565b60006134e482856133ed565b91506134ef8261341e565b6014820191506134ff8284613459565b91508190509392505050565b7f4552433732313a20617070726f76616c20746f2063757272656e74206f776e6560008201527f7200000000000000000000000000000000000000000000000000000000000000602082015250565b6000613567602183612a3d565b91506135728261350b565b604082019050919050565b600060208201905081810360008301526135968161355a565b9050919050565b7f4552433732313a20617070726f76652063616c6c6572206973206e6f7420746f60008201527f6b656e206f776e6572206e6f7220617070726f76656420666f7220616c6c0000602082015250565b60006135f9603e83612a3d565b91506136048261359d565b604082019050919050565b60006020820190508181036000830152613628816135ec565b9050919050565b7f4552433732313a2063616c6c6572206973206e6f7420746f6b656e206f776e6560008201527f72206e6f7220617070726f766564000000000000000000000000000000000000602082015250565b600061368b602e83612a3d565b91506136968261362f565b604082019050919050565b600060208201905081810360008301526136ba8161367e565b9050919050565b6000815190506136d081612bac565b92915050565b6000602082840312156136ec576136eb61296d565b5b60006136fa848285016136c1565b91505092915050565b7f496e76616c6964206f776e657200000000000000000000000000000000000000600082015250565b6000613739600d83612a3d565b915061374482613703565b602082019050919050565b600060208201905081810360008301526137688161372c565b9050919050565b7f4e487b7100000000000000000000000000000000000000000000000000000000600052601160045260246000fd5b60006137a982612aed565b91506137b483612aed565b9250827fffffffffffffffffffffffffffffffffffffffffffffffffffffffffffffffff038211156137e9576137e861376f565b5b828201905092915050565b7f494e5345525420494e544f200000000000000000000000000000000000000000815250565b7f20286d61696e7461626c655f746f6b656e69642c2074726169745f747970652c60008201527f2076616c75652c2074726169745f6964292056414c5545532028270000000000602082015250565b6000613876603b836133e2565b91506138818261381a565b603b82019050919050565b7f272c202700000000000000000000000000000000000000000000000000000000815250565b7f2729000000000000000000000000000000000000000000000000000000000000815250565b60006138e3826137f4565b600c820191506138f38288613459565b91506138fe82613869565b915061390a82876133ed565b91506139158261388c565b60048201915061392582866133ed565b91506139308261388c565b60048201915061394082856133ed565b915061394b8261388c565b60048201915061395b82846133ed565b9150613966826138b2565b6002820191508190509695505050505050565b600060608201905061398e6000830186612b82565b61399b6020830185612eb8565b81810360408301526139ad8184612a92565b9050949350505050565b60006060820190506139cc6000830186612eb8565b6139d96020830185612eb8565b6139e66040830184612eb8565b949350505050565b7f74726169745f6964206e6f7420666f756e642000000000000000000000000000600082015250565b6000613a24601383612a3d565b9150613a2f826139ee565b602082019050919050565b60006020820190508181036000830152613a5381613a17565b9050919050565b7f5550444154452000000000000000000000000000000000000000000000000000815250565b7f205345542074726169745f74797065203d202700000000000000000000000000815250565b7f27205748455245206d61696e7461626c655f746f6b656e6964203d2000000000815250565b7f20414e442074726169745f6964203d2000000000000000000000000000000000815250565b7f3b00000000000000000000000000000000000000000000000000000000000000815250565b6000613b2382613a5a565b600782019150613b338287613459565b9150613b3e82613a80565b601382019150613b4e82866133ed565b9150613b5982613aa6565b601c82019150613b6982856133ed565b9150613b7482613acc565b601082019150613b8482846133ed565b9150613b8f82613af2565b60018201915081905095945050505050565b600060a082019050613bb66000830188612eb8565b613bc36020830187612eb8565b8181036040830152613bd58186612a92565b9050613be46060830185612eb8565b613bf16080830184612eb8565b9695505050505050565b7f416363657373436f6e74726f6c3a2063616e206f6e6c792072656e6f756e636560008201527f20726f6c657320666f722073656c660000000000000000000000000000000000602082015250565b6000613c57602f83612a3d565b9150613c6282613bfb565b604082019050919050565b60006020820190508181036000830152613c8681613c4a565b9050919050565b7f4552433732313a20696e76616c696420746f6b656e2049440000000000000000600082015250565b6000613cc3601883612a3d565b9150613cce82613c8d565b602082019050919050565b60006020820190508181036000830152613cf281613cb6565b9050919050565b7f4552433732313a2061646472657373207a65726f206973206e6f74206120766160008201527f6c6964206f776e65720000000000000000000000000000000000000000000000602082015250565b6000613d55602983612a3d565b9150613d6082613cf9565b604082019050919050565b60006020820190508181036000830152613d8481613d48565b9050919050565b7f2028746f6b656e69642c206e616d652c206465736372697074696f6e2c20696d60008201527f6167652c2065787465726e616c5f75726c292056414c55455320282700000000602082015250565b6000613de7603c836133e2565b9150613df282613d8b565b603c82019050919050565b6000613e08826137f4565b600c82019150613e188289613459565b9150613e2382613dda565b9150613e2f82886133ed565b9150613e3a8261388c565b600482019150613e4a82876133ed565b9150613e558261388c565b600482019150613e6582866133ed565b9150613e708261388c565b600482019150613e8082856133ed565b9150613e8b8261388c565b600482019150613e9b82846133ed565b9150613ea6826138b2565b600282019150819050979650505050505050565b7f20286d61696e7461626c655f746f6b656e69642c2069636f6e2c20646973706c60008201527f61795f747970652c2074726169745f747970652c2076616c75652c207472616960208201527f745f6964292056414c5545532028270000000000000000000000000000000000604082015250565b6000613f3c604f836133e2565b9150613f4782613eba565b604f82019050919050565b7f3100000000000000000000000000000000000000000000000000000000000000815250565b6000613f83826137f4565b600c82019150613f938289613459565b9150613f9e82613f2f565b9150613faa82886133ed565b9150613fb58261388c565b600482019150613fc582876133ed565b9150613fd08261388c565b600482019150613fe082866133ed565b9150613feb8261388c565b600482019150613ffb82856133ed565b91506140068261388c565b60048201915061401682846133ed565b91506140218261388c565b60048201915061403082613f52565b60018201915061403f826138b2565b600282019150819050979650505050505050565b60006040820190506140686000830185612eb8565b6140756020830184612eb8565b9392505050565b7f4552433732314d657461646174613a2055524920717565727920666f72206e6f60008201527f6e6578697374656e7420746f6b656e0000000000000000000000000000000000602082015250565b60006140d8602f83612a3d565b91506140e38261407c565b604082019050919050565b60006020820190508181036000830152614107816140cb565b9050919050565b7f53454c4543542532306a736f6e5f6f626a65637425323825323769642532372560008201527f3243746f6b656e69642532432532376e616d652532372532436e616d6525324360208201527f2532376465736372697074696f6e2532372532436465736372697074696f6e2560408201527f3243253237696d616765253237253243696d616765253243253237657874657260608201527f6e616c5f75726c25323725324365787465726e616c5f75726c2532432532376160808201527f7474726962757465732532372532436a736f6e5f67726f75705f61727261792560a08201527f32386a736f6e5f6f626a65637425323825323769636f6e25323725324369636f60c08201527f6e253243253237646973706c61795f74797065253237253243646973706c617960e08201527f5f7479706525324325323774726169745f7479706525323725324374726169746101008201527f5f7479706525324325323776616c756525323725324376616c756525323925326101208201527f3925323925323046524f4d25323000000000000000000000000000000000000061014082015250565b60006142c461014e836133e2565b91506142cf8261410e565b61014e82019050919050565b7f2532304a4f494e25323000000000000000000000000000000000000000000000600082015250565b6000614311600a836133e2565b915061431c826142db565b600a82019050919050565b7f2532304f4e253230000000000000000000000000000000000000000000000000600082015250565b600061435d6008836133e2565b915061436882614327565b600882019050919050565b7f253245746f6b656e696425323025334425323000000000000000000000000000600082015250565b60006143a96013836133e2565b91506143b482614373565b601382019050919050565b7f2532456d61696e7461626c655f746f6b656e696425323057484552452532307460008201527f6f6b656e69642533440000000000000000000000000000000000000000000000602082015250565b600061441b6029836133e2565b9150614426826143bf565b602982019050919050565b600061443c826142b6565b91506144488287613459565b915061445382614304565b915061445f8286613459565b915061446a82614350565b91506144768285613459565b91506144818261439c565b915061448d8284613459565b91506144988261440e565b915081905095945050505050565b7f6d6f64653d6c69737426733d0000000000000000000000000000000000000000600082015250565b60006144dc600c836133e2565b91506144e7826144a6565b600c82019050919050565b7f25323067726f75702532306279253230746f6b656e6964000000000000000000600082015250565b60006145286017836133e2565b9150614533826144f2565b601782019050919050565b600061454a82866133ed565b9150614555826144cf565b915061456182856133ed565b915061456d82846133ed565b91506145788261451b565b9150819050949350505050565b600061459082612aed565b91507fffffffffffffffffffffffffffffffffffffffffffffffffffffffffffffffff8214156145c3576145c261376f565b5b600182019050919050565b7f4e487b7100000000000000000000000000000000000000000000000000000000600052601260045260246000fd5b600061460882612aed565b915061461383612aed565b925082614623576146226145ce565b5b828204905092915050565b600061463982612aed565b915061464483612aed565b9250828210156146575761465661376f565b5b828203905092915050565b600061466d82612aed565b915061467883612aed565b925082614688576146876145ce565b5b828206905092915050565b7f4e487b7100000000000000000000000000000000000000000000000000000000600052603260045260246000fd5b7f4552433732313a207472616e736665722066726f6d20696e636f72726563742060008201527f6f776e6572000000000000000000000000000000000000000000000000000000602082015250565b600061471e602583612a3d565b9150614729826146c2565b604082019050919050565b6000602082019050818103600083015261474d81614711565b9050919050565b7f4552433732313a207472616e7366657220746f20746865207a65726f2061646460008201527f7265737300000000000000000000000000000000000000000000000000000000602082015250565b60006147b0602483612a3d565b91506147bb82614754565b604082019050919050565b600060208201905081810360008301526147df816147a3565b9050919050565b7f4552433732313a20617070726f766520746f2063616c6c657200000000000000600082015250565b600061481c601983612a3d565b9150614827826147e6565b602082019050919050565b6000602082019050818103600083015261484b8161480f565b9050919050565b7f4552433732313a207472616e7366657220746f206e6f6e20455243373231526560008201527f63656976657220696d706c656d656e7465720000000000000000000000000000602082015250565b60006148ae603283612a3d565b91506148b982614852565b604082019050919050565b600060208201905081810360008301526148dd816148a1565b9050919050565b7f416363657373436f6e74726f6c3a206163636f756e7420000000000000000000600082015250565b600061491a6017836133e2565b9150614925826148e4565b601782019050919050565b7f206973206d697373696e6720726f6c6520000000000000000000000000000000600082015250565b60006149666011836133e2565b915061497182614930565b601182019050919050565b60006149878261490d565b915061499382856133ed565b915061499e82614959565b91506149aa82846133ed565b91508190509392505050565b600081519050919050565b600082825260208201905092915050565b60006149dd826149b6565b6149e781856149c1565b93506149f7818560208601612a4e565b614a0081612a81565b840191505092915050565b6000608082019050614a206000830187612b82565b614a2d6020830186612b82565b614a3a6040830185612eb8565b8181036060830152614a4c81846149d2565b905095945050505050565b600081519050614a66816129a3565b92915050565b600060208284031215614a8257614a8161296d565b5b6000614a9084828501614a57565b91505092915050565b6000614aa482612aed565b9150614aaf83612aed565b9250817fffffffffffffffffffffffffffffffffffffffffffffffffffffffffffffffff0483118215151615614ae857614ae761376f565b5b828202905092915050565b6000614afe82612aed565b91506000821415614b1257614b1161376f565b5b600182039050919050565b7f537472696e67733a20686578206c656e67746820696e73756666696369656e74600082015250565b6000614b53602083612a3d565b9150614b5e82614b1d565b602082019050919050565b60006020820190508181036000830152614b8281614b46565b9050919050565b7f4552433732313a206d696e7420746f20746865207a65726f2061646472657373600082015250565b6000614bbf602083612a3d565b9150614bca82614b89565b602082019050919050565b60006020820190508181036000830152614bee81614bb2565b9050919050565b7f4552433732313a20746f6b656e20616c7265616479206d696e74656400000000600082015250565b6000614c2b601c83612a3d565b9150614c3682614bf5565b602082019050919050565b60006020820190508181036000830152614c5a81614c1e565b905091905056fea2646970667358221220704137e34b363e542e1505f5ad4c434f2d8ea35d796fa1fbfbb6237fc69b9fcf64736f6c634300080c003368747470733a2f2f746573746e65742e7461626c656c616e642e6e6574776f726b2f71756572793f",
  "linkReferences": {},
  "deployedLinkReferences": {}
}