{
  "_format": "hh-sol-artifact-1",
  "contractName": "MTEA",
  "sourceName": "contracts/mint_tea_ERC721.sol",
  "abi": [
    {
      "inputs": [
        {
          "internalType": "address",
          "name": "registry",
          "type": "address"
        }
      ],
      "stateMutability": "nonpayable",
      "type": "constructor"
    },
    {
      "anonymous": false,
      "inputs": [
        {
          "indexed": true,
          "internalType": "address",
          "name": "owner",
          "type": "address"
        },
        {
          "indexed": true,
          "internalType": "address",
          "name": "approved",
          "type": "address"
        },
        {
          "indexed": true,
          "internalType": "uint256",
          "name": "tokenId",
          "type": "uint256"
        }
      ],
      "name": "Approval",
      "type": "event"
    },
    {
      "anonymous": false,
      "inputs": [
        {
          "indexed": true,
          "internalType": "address",
          "name": "owner",
          "type": "address"
        },
        {
          "indexed": true,
          "internalType": "address",
          "name": "operator",
          "type": "address"
        },
        {
          "indexed": false,
          "internalType": "bool",
          "name": "approved",
          "type": "bool"
        }
      ],
      "name": "ApprovalForAll",
      "type": "event"
    },
    {
      "anonymous": false,
      "inputs": [
        {
          "indexed": true,
          "internalType": "address",
          "name": "from",
          "type": "address"
        },
        {
          "indexed": false,
          "internalType": "uint256",
          "name": "timestamp",
          "type": "uint256"
        },
        {
          "indexed": false,
          "internalType": "uint256",
          "name": "tokenId",
          "type": "uint256"
        }
      ],
      "name": "NewNftMinted",
      "type": "event"
    },
    {
      "anonymous": false,
      "inputs": [
        {
          "indexed": true,
          "internalType": "bytes32",
          "name": "role",
          "type": "bytes32"
        },
        {
          "indexed": true,
          "internalType": "bytes32",
          "name": "previousAdminRole",
          "type": "bytes32"
        },
        {
          "indexed": true,
          "internalType": "bytes32",
          "name": "newAdminRole",
          "type": "bytes32"
        }
      ],
      "name": "RoleAdminChanged",
      "type": "event"
    },
    {
      "anonymous": false,
      "inputs": [
        {
          "indexed": true,
          "internalType": "bytes32",
          "name": "role",
          "type": "bytes32"
        },
        {
          "indexed": true,
          "internalType": "address",
          "name": "account",
          "type": "address"
        },
        {
          "indexed": true,
          "internalType": "address",
          "name": "sender",
          "type": "address"
        }
      ],
      "name": "RoleGranted",
      "type": "event"
    },
    {
      "anonymous": false,
      "inputs": [
        {
          "indexed": true,
          "internalType": "bytes32",
          "name": "role",
          "type": "bytes32"
        },
        {
          "indexed": true,
          "internalType": "address",
          "name": "account",
          "type": "address"
        },
        {
          "indexed": true,
          "internalType": "address",
          "name": "sender",
          "type": "address"
        }
      ],
      "name": "RoleRevoked",
      "type": "event"
    },
    {
      "anonymous": false,
      "inputs": [
        {
          "indexed": true,
          "internalType": "address",
          "name": "from",
          "type": "address"
        },
        {
          "indexed": true,
          "internalType": "address",
          "name": "to",
          "type": "address"
        },
        {
          "indexed": true,
          "internalType": "uint256",
          "name": "tokenId",
          "type": "uint256"
        }
      ],
      "name": "Transfer",
      "type": "event"
    },
    {
      "anonymous": false,
      "inputs": [
        {
          "indexed": true,
          "internalType": "address",
          "name": "from",
          "type": "address"
        },
        {
          "indexed": false,
          "internalType": "uint256",
          "name": "timestamp",
          "type": "uint256"
        },
        {
          "indexed": false,
          "internalType": "uint256",
          "name": "tokenId",
          "type": "uint256"
        },
        {
          "indexed": false,
          "internalType": "uint256",
          "name": "_trait_id",
          "type": "uint256"
        }
      ],
      "name": "new_attribute_added",
      "type": "event"
    },
    {
      "anonymous": false,
      "inputs": [
        {
          "indexed": true,
          "internalType": "address",
          "name": "from",
          "type": "address"
        },
        {
          "indexed": false,
          "internalType": "uint256",
          "name": "timestamp",
          "type": "uint256"
        },
        {
          "indexed": false,
          "internalType": "uint256",
          "name": "_attributesTableId",
          "type": "uint256"
        },
        {
          "indexed": false,
          "internalType": "string",
          "name": "_trait_type",
          "type": "string"
        },
        {
          "indexed": false,
          "internalType": "uint256",
          "name": "tokenId",
          "type": "uint256"
        },
        {
          "indexed": false,
          "internalType": "uint256",
          "name": "_trait_id",
          "type": "uint256"
        }
      ],
      "name": "trait_type_updated",
      "type": "event"
    },
    {
      "anonymous": false,
      "inputs": [
        {
          "indexed": true,
          "internalType": "address",
          "name": "from",
          "type": "address"
        },
        {
          "indexed": false,
          "internalType": "uint256",
          "name": "timestamp",
          "type": "uint256"
        },
        {
          "indexed": false,
          "internalType": "uint256",
          "name": "_attributesTableId",
          "type": "uint256"
        },
        {
          "indexed": false,
          "internalType": "string",
          "name": "_value",
          "type": "string"
        },
        {
          "indexed": false,
          "internalType": "uint256",
          "name": "tokenId",
          "type": "uint256"
        },
        {
          "indexed": false,
          "internalType": "uint256",
          "name": "_trait_id",
          "type": "uint256"
        }
      ],
      "name": "value_updated",
      "type": "event"
    },
    {
      "inputs": [],
      "name": "DEFAULT_ADMIN_ROLE",
      "outputs": [
        {
          "internalType": "bytes32",
          "name": "",
          "type": "bytes32"
        }
      ],
      "stateMutability": "view",
      "type": "function"
    },
    {
      "inputs": [
        {
          "internalType": "uint256",
          "name": "_tokenId",
          "type": "uint256"
        },
        {
          "internalType": "string",
          "name": "_trait_type",
          "type": "string"
        },
        {
          "internalType": "string",
          "name": "_value",
          "type": "string"
        }
      ],
      "name": "add_new_attribute",
      "outputs": [
        {
          "internalType": "uint256",
          "name": "",
          "type": "uint256"
        }
      ],
      "stateMutability": "nonpayable",
      "type": "function"
    },
    {
      "inputs": [
        {
          "internalType": "address",
          "name": "to",
          "type": "address"
        },
        {
          "internalType": "uint256",
          "name": "tokenId",
          "type": "uint256"
        }
      ],
      "name": "approve",
      "outputs": [],
      "stateMutability": "nonpayable",
      "type": "function"
    },
    {
      "inputs": [],
      "name": "attributesTable",
      "outputs": [
        {
          "internalType": "string",
          "name": "",
          "type": "string"
        }
      ],
      "stateMutability": "view",
      "type": "function"
    },
    {
      "inputs": [],
      "name": "attributes_metadataURI",
      "outputs": [
        {
          "internalType": "string",
          "name": "",
          "type": "string"
        }
      ],
      "stateMutability": "view",
      "type": "function"
    },
    {
      "inputs": [
        {
          "internalType": "address",
          "name": "owner",
          "type": "address"
        }
      ],
      "name": "balanceOf",
      "outputs": [
        {
          "internalType": "uint256",
          "name": "",
          "type": "uint256"
        }
      ],
      "stateMutability": "view",
      "type": "function"
    },
    {
      "inputs": [
        {
          "internalType": "uint256",
          "name": "tokenId",
          "type": "uint256"
        }
      ],
      "name": "getApproved",
      "outputs": [
        {
          "internalType": "address",
          "name": "",
          "type": "address"
        }
      ],
      "stateMutability": "view",
      "type": "function"
    },
    {
      "inputs": [
        {
          "internalType": "bytes32",
          "name": "role",
          "type": "bytes32"
        }
      ],
      "name": "getRoleAdmin",
      "outputs": [
        {
          "internalType": "bytes32",
          "name": "",
          "type": "bytes32"
        }
      ],
      "stateMutability": "view",
      "type": "function"
    },
    {
      "inputs": [
        {
          "internalType": "bytes32",
          "name": "role",
          "type": "bytes32"
        },
        {
          "internalType": "address",
          "name": "account",
          "type": "address"
        }
      ],
      "name": "grantRole",
      "outputs": [],
      "stateMutability": "nonpayable",
      "type": "function"
    },
    {
      "inputs": [
        {
          "internalType": "bytes32",
          "name": "role",
          "type": "bytes32"
        },
        {
          "internalType": "address",
          "name": "account",
          "type": "address"
        }
      ],
      "name": "hasRole",
      "outputs": [
        {
          "internalType": "bool",
          "name": "",
          "type": "bool"
        }
      ],
      "stateMutability": "view",
      "type": "function"
    },
    {
      "inputs": [
        {
          "internalType": "address",
          "name": "owner",
          "type": "address"
        },
        {
          "internalType": "address",
          "name": "operator",
          "type": "address"
        }
      ],
      "name": "isApprovedForAll",
      "outputs": [
        {
          "internalType": "bool",
          "name": "",
          "type": "bool"
        }
      ],
      "stateMutability": "view",
      "type": "function"
    },
    {
      "inputs": [],
      "name": "mainTable",
      "outputs": [
        {
          "internalType": "string",
          "name": "",
          "type": "string"
        }
      ],
      "stateMutability": "view",
      "type": "function"
    },
    {
      "inputs": [],
      "name": "main_metadataURI",
      "outputs": [
        {
          "internalType": "string",
          "name": "",
          "type": "string"
        }
      ],
      "stateMutability": "view",
      "type": "function"
    },
    {
      "inputs": [],
      "name": "name",
      "outputs": [
        {
          "internalType": "string",
          "name": "",
          "type": "string"
        }
      ],
      "stateMutability": "view",
      "type": "function"
    },
    {
      "inputs": [
        {
          "internalType": "uint256",
          "name": "tokenId",
          "type": "uint256"
        }
      ],
      "name": "ownerOf",
      "outputs": [
        {
          "internalType": "address",
          "name": "",
          "type": "address"
        }
      ],
      "stateMutability": "view",
      "type": "function"
    },
    {
      "inputs": [
        {
          "internalType": "bytes32",
          "name": "role",
          "type": "bytes32"
        },
        {
          "internalType": "address",
          "name": "account",
          "type": "address"
        }
      ],
      "name": "renounceRole",
      "outputs": [],
      "stateMutability": "nonpayable",
      "type": "function"
    },
    {
      "inputs": [
        {
          "internalType": "bytes32",
          "name": "role",
          "type": "bytes32"
        },
        {
          "internalType": "address",
          "name": "account",
          "type": "address"
        }
      ],
      "name": "revokeRole",
      "outputs": [],
      "stateMutability": "nonpayable",
      "type": "function"
    },
    {
      "inputs": [
        {
          "internalType": "address",
          "name": "to",
          "type": "address"
        },
        {
          "internalType": "string",
          "name": "_name",
          "type": "string"
        },
        {
          "internalType": "string",
          "name": "_description",
          "type": "string"
        },
        {
          "internalType": "string",
          "name": "_image_url",
          "type": "string"
        },
        {
          "internalType": "string",
          "name": "_external_url",
          "type": "string"
        },
        {
          "internalType": "string",
          "name": "_icon",
          "type": "string"
        },
        {
          "internalType": "string",
          "name": "_display_type",
          "type": "string"
        },
        {
          "internalType": "string",
          "name": "_trait_type",
          "type": "string"
        },
        {
          "internalType": "string",
          "name": "_value",
          "type": "string"
        }
      ],
      "name": "safeMint",
      "outputs": [
        {
          "internalType": "uint256",
          "name": "",
          "type": "uint256"
        }
      ],
      "stateMutability": "nonpayable",
      "type": "function"
    },
    {
      "inputs": [
        {
          "internalType": "address",
          "name": "from",
          "type": "address"
        },
        {
          "internalType": "address",
          "name": "to",
          "type": "address"
        },
        {
          "internalType": "uint256",
          "name": "tokenId",
          "type": "uint256"
        }
      ],
      "name": "safeTransferFrom",
      "outputs": [],
      "stateMutability": "nonpayable",
      "type": "function"
    },
    {
      "inputs": [
        {
          "internalType": "address",
          "name": "from",
          "type": "address"
        },
        {
          "internalType": "address",
          "name": "to",
          "type": "address"
        },
        {
          "internalType": "uint256",
          "name": "tokenId",
          "type": "uint256"
        },
        {
          "internalType": "bytes",
          "name": "data",
          "type": "bytes"
        }
      ],
      "name": "safeTransferFrom",
      "outputs": [],
      "stateMutability": "nonpayable",
      "type": "function"
    },
    {
      "inputs": [
        {
          "internalType": "address",
          "name": "operator",
          "type": "address"
        },
        {
          "internalType": "bool",
          "name": "approved",
          "type": "bool"
        }
      ],
      "name": "setApprovalForAll",
      "outputs": [],
      "stateMutability": "nonpayable",
      "type": "function"
    },
    {
      "inputs": [
        {
          "internalType": "string",
          "name": "baseURI",
          "type": "string"
        }
      ],
      "name": "setBaseURI",
      "outputs": [],
      "stateMutability": "nonpayable",
      "type": "function"
    },
    {
      "inputs": [
        {
          "internalType": "bytes4",
          "name": "interfaceId",
          "type": "bytes4"
        }
      ],
      "name": "supportsInterface",
      "outputs": [
        {
          "internalType": "bool",
          "name": "",
          "type": "bool"
        }
      ],
      "stateMutability": "view",
      "type": "function"
    },
    {
      "inputs": [],
      "name": "symbol",
      "outputs": [
        {
          "internalType": "string",
          "name": "",
          "type": "string"
        }
      ],
      "stateMutability": "view",
      "type": "function"
    },
    {
      "inputs": [
        {
          "internalType": "uint256",
          "name": "_tokenId",
          "type": "uint256"
        }
      ],
      "name": "tokenURI",
      "outputs": [
        {
          "internalType": "string",
          "name": "",
          "type": "string"
        }
      ],
      "stateMutability": "view",
      "type": "function"
    },
    {
      "inputs": [
        {
          "internalType": "address",
          "name": "from",
          "type": "address"
        },
        {
          "internalType": "address",
          "name": "to",
          "type": "address"
        },
        {
          "internalType": "uint256",
          "name": "tokenId",
          "type": "uint256"
        }
      ],
      "name": "transferFrom",
      "outputs": [],
      "stateMutability": "nonpayable",
      "type": "function"
    },
    {
      "inputs": [
        {
          "internalType": "uint256",
          "name": "tokenId",
          "type": "uint256"
        },
        {
          "internalType": "uint256",
          "name": "_trait_id",
          "type": "uint256"
        },
        {
          "internalType": "string",
          "name": "_trait_type",
          "type": "string"
        }
      ],
      "name": "update_trait_type",
      "outputs": [],
      "stateMutability": "nonpayable",
      "type": "function"
    },
    {
      "inputs": [
        {
          "internalType": "uint256",
          "name": "tokenId",
          "type": "uint256"
        },
        {
          "internalType": "uint256",
          "name": "_trait_id",
          "type": "uint256"
        },
        {
          "internalType": "string",
          "name": "_value",
          "type": "string"
        }
      ],
      "name": "update_value",
      "outputs": [],
      "stateMutability": "nonpayable",
      "type": "function"
    }
  ],
  "bytecode": "0x60806040526040518060600160405280602881526020016200600e60289139600790805190602001906200003592919062000731565b506040518060400160405280600881526020017f4d696e745f544541000000000000000000000000000000000000000000000000815250600c90805190602001906200008392919062000731565b503480156200009157600080fd5b5060405162006036380380620060368339818101604052810190620000b791906200084b565b6040518060400160405280600881526020017f4d696e74205465610000000000000000000000000000000000000000000000008152506040518060400160405280600481526020017f6d4e46540000000000000000000000000000000000000000000000000000000081525081600090805190602001906200013b92919062000731565b5080600190805190602001906200015492919062000731565b5050506200016c6000801b336200045260201b60201c565b80600960006101000a81548173ffffffffffffffffffffffffffffffffffffffff021916908373ffffffffffffffffffffffffffffffffffffffff160217905550600960009054906101000a900473ffffffffffffffffffffffffffffffffffffffff1673ffffffffffffffffffffffffffffffffffffffff16633a9151b030600c62000204466200054460201b620018941760201c565b6040516020016200021792919062000aed565b6040516020818303038152906040526040518363ffffffff1660e01b81526004016200024592919062000bb8565b6020604051808303816000875af115801562000265573d6000803e3d6000fd5b505050506040513d601f19601f820116820180604052508101906200028b919062000c27565b600a81905550600c620002a9466200054460201b620018941760201c565b620002c1600a546200054460201b620018941760201c565b604051602001620002d59392919062000c59565b604051602081830303815290604052600d9080519060200190620002fb92919062000731565b50600960009054906101000a900473ffffffffffffffffffffffffffffffffffffffff1673ffffffffffffffffffffffffffffffffffffffff16633a9151b030600c62000353466200054460201b620018941760201c565b6040516020016200036692919062000d74565b6040516020818303038152906040526040518363ffffffff1660e01b81526004016200039492919062000bb8565b6020604051808303816000875af1158015620003b4573d6000803e3d6000fd5b505050506040513d601f19601f82011682018060405250810190620003da919062000c27565b600b81905550600c620003f8466200054460201b620018941760201c565b62000410600b546200054460201b620018941760201c565b604051602001620004249392919062000c59565b604051602081830303815290604052600e90805190602001906200044a92919062000731565b505062000fdd565b620004648282620006be60201b60201c565b620005405760016006600084815260200190815260200160002060000160008373ffffffffffffffffffffffffffffffffffffffff1673ffffffffffffffffffffffffffffffffffffffff16815260200190815260200160002060006101000a81548160ff021916908315150217905550620004e56200072960201b60201c565b73ffffffffffffffffffffffffffffffffffffffff168173ffffffffffffffffffffffffffffffffffffffff16837f2f8788117e7eff1d82e926ec794901d17c78024a50270940304540a733656f0d60405160405180910390a45b5050565b606060008214156200058e576040518060400160405280600181526020017f30000000000000000000000000000000000000000000000000000000000000008152509050620006b9565b600082905060005b60008214620005c6578080620005ac9062000dfa565b915050600a82620005be919062000e77565b915062000596565b60008167ffffffffffffffff811115620005e557620005e462000eaf565b5b6040519080825280601f01601f191660200182016040528015620006185781602001600182028036833780820191505090505b5090505b60008514620006b25760018262000634919062000ede565b9150600a8562000645919062000f19565b603062000653919062000f51565b60f81b8183815181106200066c576200066b62000fae565b5b60200101907effffffffffffffffffffffffffffffffffffffffffffffffffffffffffffff1916908160001a905350600a85620006aa919062000e77565b94506200061c565b8093505050505b919050565b60006006600084815260200190815260200160002060000160008373ffffffffffffffffffffffffffffffffffffffff1673ffffffffffffffffffffffffffffffffffffffff16815260200190815260200160002060009054906101000a900460ff16905092915050565b600033905090565b8280546200073f90620008d2565b90600052602060002090601f016020900481019282620007635760008555620007af565b82601f106200077e57805160ff1916838001178555620007af565b82800160010185558215620007af579182015b82811115620007ae57825182559160200191906001019062000791565b5b509050620007be9190620007c2565b5090565b5b80821115620007dd576000816000905550600101620007c3565b5090565b600080fd5b600073ffffffffffffffffffffffffffffffffffffffff82169050919050565b60006200081382620007e6565b9050919050565b620008258162000806565b81146200083157600080fd5b50565b60008151905062000845816200081a565b92915050565b600060208284031215620008645762000863620007e1565b5b6000620008748482850162000834565b91505092915050565b7f435245415445205441424c452000000000000000000000000000000000000000815250565b7f4e487b7100000000000000000000000000000000000000000000000000000000600052602260045260246000fd5b60006002820490506001821680620008eb57607f821691505b60208210811415620009025762000901620008a3565b5b50919050565b600081905092915050565b60008190508160005260206000209050919050565b600081546200093781620008d2565b62000943818662000908565b945060018216600081146200096157600181146200097357620009aa565b60ff19831686528186019350620009aa565b6200097e8562000913565b60005b83811015620009a25781548189015260018201915060208101905062000981565b838801955050505b50505092915050565b7f5f00000000000000000000000000000000000000000000000000000000000000815250565b600081519050919050565b60005b8381101562000a04578082015181840152602081019050620009e7565b8381111562000a14576000848401525b50505050565b600062000a2782620009d9565b62000a33818562000908565b935062000a45818560208601620009e4565b80840191505092915050565b7f2028746f6b656e696420696e742c206e616d6520746578742c2064657363726960008201527f7074696f6e20746578742c20696d61676520746578742c2065787465726e616c60208201527f5f75726c2074657874293b000000000000000000000000000000000000000000604082015250565b600062000ad5604b8362000908565b915062000ae28262000a51565b604b82019050919050565b600062000afa826200087d565b600d8201915062000b0c828562000928565b915062000b1982620009b3565b60018201915062000b2b828462000a1a565b915062000b388262000ac6565b91508190509392505050565b62000b4f8162000806565b82525050565b600082825260208201905092915050565b6000601f19601f8301169050919050565b600062000b8482620009d9565b62000b90818562000b55565b935062000ba2818560208601620009e4565b62000bad8162000b66565b840191505092915050565b600060408201905062000bcf600083018562000b44565b818103602083015262000be3818462000b77565b90509392505050565b6000819050919050565b62000c018162000bec565b811462000c0d57600080fd5b50565b60008151905062000c218162000bf6565b92915050565b60006020828403121562000c405762000c3f620007e1565b5b600062000c508482850162000c10565b91505092915050565b600062000c67828662000928565b915062000c7482620009b3565b60018201915062000c86828562000a1a565b915062000c9382620009b3565b60018201915062000ca5828462000a1a565b9150819050949350505050565b7f20286d61696e7461626c655f746f6b656e696420696e742c2069636f6e20746560008201527f78742c20646973706c61795f7479706520746578742c2074726169745f74797060208201527f6520746578742c2076616c756520746578742c2074726169745f696420696e7460408201527f293b000000000000000000000000000000000000000000000000000000000000606082015250565b600062000d5c60628362000908565b915062000d698262000cb2565b606282019050919050565b600062000d81826200087d565b600d8201915062000d93828562000928565b915062000da082620009b3565b60018201915062000db2828462000a1a565b915062000dbf8262000d4d565b91508190509392505050565b7f4e487b7100000000000000000000000000000000000000000000000000000000600052601160045260246000fd5b600062000e078262000bec565b91507fffffffffffffffffffffffffffffffffffffffffffffffffffffffffffffffff82141562000e3d5762000e3c62000dcb565b5b600182019050919050565b7f4e487b7100000000000000000000000000000000000000000000000000000000600052601260045260246000fd5b600062000e848262000bec565b915062000e918362000bec565b92508262000ea45762000ea362000e48565b5b828204905092915050565b7f4e487b7100000000000000000000000000000000000000000000000000000000600052604160045260246000fd5b600062000eeb8262000bec565b915062000ef88362000bec565b92508282101562000f0e5762000f0d62000dcb565b5b828203905092915050565b600062000f268262000bec565b915062000f338362000bec565b92508262000f465762000f4562000e48565b5b828206905092915050565b600062000f5e8262000bec565b915062000f6b8362000bec565b9250827fffffffffffffffffffffffffffffffffffffffffffffffffffffffffffffffff0382111562000fa35762000fa262000dcb565b5b828201905092915050565b7f4e487b7100000000000000000000000000000000000000000000000000000000600052603260045260246000fd5b6150218062000fed6000396000f3fe608060405234801561001057600080fd5b50600436106101c45760003560e01c80635d21260a116100f9578063a217fddf11610097578063b88d4fde11610071578063b88d4fde14610517578063c87b56dd14610533578063d547741f14610563578063e985e9c51461057f576101c4565b8063a217fddf146104bf578063a22cb465146104dd578063a8e62f09146104f9576101c4565b80637bc53be9116100d35780637bc53be9146104235780638586b42f1461044157806391d148541461047157806395d89b41146104a1576101c4565b80635d21260a146103a55780636352211e146103c357806370a08231146103f3576101c4565b8063248a9ca311610166578063313e91cb11610140578063313e91cb1461033557806336568abe1461035157806342842e0e1461036d57806355f804b314610389576101c4565b8063248a9ca3146102b957806326e77383146102e95780632f2ff15d14610319576101c4565b8063081812fc116101a2578063081812fc14610233578063091a77e714610263578063095ea7b31461028157806323b872dd1461029d576101c4565b806301637608146101c957806301ffc9a7146101e557806306fdde0314610215575b600080fd5b6101e360048036038101906101de9190612d99565b6105af565b005b6101ff60048036038101906101fa9190612e60565b61081e565b60405161020c9190612ea8565b60405180910390f35b61021d610830565b60405161022a9190612f4b565b60405180910390f35b61024d60048036038101906102489190612f6d565b6108c2565b60405161025a9190612fdb565b60405180910390f35b61026b610908565b6040516102789190612f4b565b60405180910390f35b61029b60048036038101906102969190613022565b61093f565b005b6102b760048036038101906102b29190613062565b610a57565b005b6102d360048036038101906102ce91906130eb565b610ab7565b6040516102e09190613127565b60405180910390f35b61030360048036038101906102fe9190613142565b610ad7565b60405161031091906131dc565b60405180910390f35b610333600480360381019061032e91906131f7565b610d48565b005b61034f600480360381019061034a9190612d99565b610d69565b005b61036b600480360381019061036691906131f7565b610fd8565b005b61038760048036038101906103829190613062565b61105b565b005b6103a3600480360381019061039e9190613237565b61107b565b005b6103ad6110a3565b6040516103ba9190612f4b565b60405180910390f35b6103dd60048036038101906103d89190612f6d565b611131565b6040516103ea9190612fdb565b60405180910390f35b61040d60048036038101906104089190613280565b6111e3565b60405161041a91906131dc565b60405180910390f35b61042b61129b565b6040516104389190612f4b565b60405180910390f35b61045b600480360381019061045691906132ad565b611329565b60405161046891906131dc565b60405180910390f35b61048b600480360381019061048691906131f7565b611550565b6040516104989190612ea8565b60405180910390f35b6104a96115bb565b6040516104b69190612f4b565b60405180910390f35b6104c761164d565b6040516104d49190613127565b60405180910390f35b6104f760048036038101906104f29190613483565b611654565b005b61050161166a565b60405161050e9190612f4b565b60405180910390f35b610531600480360381019061052c9190613564565b6116a1565b005b61054d60048036038101906105489190612f6d565b611703565b60405161055a9190612f4b565b60405180910390f35b61057d600480360381019061057891906131f7565b6117df565b005b610599600480360381019061059491906135e7565b611800565b6040516105a69190612ea8565b60405180910390f35b3373ffffffffffffffffffffffffffffffffffffffff163073ffffffffffffffffffffffffffffffffffffffff16636352211e856040518263ffffffff1660e01b81526004016105ff91906131dc565b602060405180830381865afa15801561061c573d6000803e3d6000fd5b505050506040513d601f19601f82011682018060405250810190610640919061363c565b73ffffffffffffffffffffffffffffffffffffffff1614610696576040517f08c379a000000000000000000000000000000000000000000000000000000000815260040161068d906136b5565b60405180910390fd5b81600f600085815260200190815260200160002054101580156106b95750600082115b6106f8576040517f08c379a00000000000000000000000000000000000000000000000000000000081526004016106ef90613721565b60405180910390fd5b600960009054906101000a900473ffffffffffffffffffffffffffffffffffffffff1673ffffffffffffffffffffffffffffffffffffffff1663eaf5d04e30600b54600e8561074689611894565b61074f89611894565b6040516020016107629493929190613930565b6040516020818303038152906040526040518463ffffffff1660e01b815260040161078f939291906139b9565b600060405180830381600087803b1580156107a957600080fd5b505af11580156107bd573d6000803e3d6000fd5b505050503373ffffffffffffffffffffffffffffffffffffffff167f8122b9c0c3421e4d6b44a5d6b00c9b956b7253887f7c155dc635909408f6f35c42600b548487876040516108119594939291906139f7565b60405180910390a2505050565b6000610829826119f5565b9050919050565b60606000805461083f90613796565b80601f016020809104026020016040519081016040528092919081815260200182805461086b90613796565b80156108b85780601f1061088d576101008083540402835291602001916108b8565b820191906000526020600020905b81548152906001019060200180831161089b57829003601f168201915b5050505050905090565b60006108cd82611a6f565b6004600083815260200190815260200160002060009054906101000a900473ffffffffffffffffffffffffffffffffffffffff169050919050565b60606000610914611aba565b905080600e60405160200161092a929190613a9d565b60405160208183030381529060405291505090565b600061094a82611131565b90508073ffffffffffffffffffffffffffffffffffffffff168373ffffffffffffffffffffffffffffffffffffffff1614156109bb576040517f08c379a00000000000000000000000000000000000000000000000000000000081526004016109b290613b51565b60405180910390fd5b8073ffffffffffffffffffffffffffffffffffffffff166109da611b4c565b73ffffffffffffffffffffffffffffffffffffffff161480610a095750610a0881610a03611b4c565b611800565b5b610a48576040517f08c379a0000000000000000000000000000000000000000000000000000000008152600401610a3f90613be3565b60405180910390fd5b610a528383611b54565b505050565b610a68610a62611b4c565b82611c0d565b610aa7576040517f08c379a0000000000000000000000000000000000000000000000000000000008152600401610a9e90613c75565b60405180910390fd5b610ab2838383611ca2565b505050565b600060066000838152602001908152602001600020600101549050919050565b60003373ffffffffffffffffffffffffffffffffffffffff163073ffffffffffffffffffffffffffffffffffffffff16636352211e866040518263ffffffff1660e01b8152600401610b2991906131dc565b602060405180830381865afa158015610b46573d6000803e3d6000fd5b505050506040513d601f19601f82011682018060405250810190610b6a919061363c565b73ffffffffffffffffffffffffffffffffffffffff1614610bc0576040517f08c379a0000000000000000000000000000000000000000000000000000000008152600401610bb7906136b5565b60405180910390fd5b6000600f6000868152602001908152602001600020549050600960009054906101000a900473ffffffffffffffffffffffffffffffffffffffff1673ffffffffffffffffffffffffffffffffffffffff1663eaf5d04e30600b54600e610c258a611894565b8989610c3c60018a610c379190613cc4565b611894565b604051602001610c50959493929190613dfe565b6040516020818303038152906040526040518463ffffffff1660e01b8152600401610c7d939291906139b9565b600060405180830381600087803b158015610c9757600080fd5b505af1158015610cab573d6000803e3d6000fd5b50505050600181610cbc9190613cc4565b600f6000878152602001908152602001600020819055503373ffffffffffffffffffffffffffffffffffffffff167f456a1a41f394f2cf838e46d9f7ababdefe85acbdab3e2ec55fcf1abaccd0c2d54287600185610d1a9190613cc4565b604051610d2993929190613e9f565b60405180910390a2600181610d3e9190613cc4565b9150509392505050565b610d5182610ab7565b610d5a81611f09565b610d648383611f1d565b505050565b3373ffffffffffffffffffffffffffffffffffffffff163073ffffffffffffffffffffffffffffffffffffffff16636352211e856040518263ffffffff1660e01b8152600401610db991906131dc565b602060405180830381865afa158015610dd6573d6000803e3d6000fd5b505050506040513d601f19601f82011682018060405250810190610dfa919061363c565b73ffffffffffffffffffffffffffffffffffffffff1614610e50576040517f08c379a0000000000000000000000000000000000000000000000000000000008152600401610e47906136b5565b60405180910390fd5b81600f60008581526020019081526020016000205410158015610e735750600082115b610eb2576040517f08c379a0000000000000000000000000000000000000000000000000000000008152600401610ea990613721565b60405180910390fd5b600960009054906101000a900473ffffffffffffffffffffffffffffffffffffffff1673ffffffffffffffffffffffffffffffffffffffff1663eaf5d04e30600b54600e85610f0089611894565b610f0989611894565b604051602001610f1c9493929190613efc565b6040516020818303038152906040526040518463ffffffff1660e01b8152600401610f49939291906139b9565b600060405180830381600087803b158015610f6357600080fd5b505af1158015610f77573d6000803e3d6000fd5b505050503373ffffffffffffffffffffffffffffffffffffffff167ffb6ca261832eebf6eacc5e4a0f3d612d96c2da669a75ab863ca6ed8876a1a17842600b54848787604051610fcb9594939291906139f7565b60405180910390a2505050565b610fe0611b4c565b73ffffffffffffffffffffffffffffffffffffffff168173ffffffffffffffffffffffffffffffffffffffff161461104d576040517f08c379a000000000000000000000000000000000000000000000000000000000815260040161104490613ff7565b60405180910390fd5b6110578282611ffe565b5050565b611076838383604051806020016040528060008152506116a1565b505050565b6000801b61108881611f09565b816007908051906020019061109e929190612b66565b505050565b600d80546110b090613796565b80601f01602080910402602001604051908101604052809291908181526020018280546110dc90613796565b80156111295780601f106110fe57610100808354040283529160200191611129565b820191906000526020600020905b81548152906001019060200180831161110c57829003601f168201915b505050505081565b6000806002600084815260200190815260200160002060009054906101000a900473ffffffffffffffffffffffffffffffffffffffff169050600073ffffffffffffffffffffffffffffffffffffffff168173ffffffffffffffffffffffffffffffffffffffff1614156111da576040517f08c379a00000000000000000000000000000000000000000000000000000000081526004016111d190614063565b60405180910390fd5b80915050919050565b60008073ffffffffffffffffffffffffffffffffffffffff168273ffffffffffffffffffffffffffffffffffffffff161415611254576040517f08c379a000000000000000000000000000000000000000000000000000000000815260040161124b906140f5565b60405180910390fd5b600360008373ffffffffffffffffffffffffffffffffffffffff1673ffffffffffffffffffffffffffffffffffffffff168152602001908152602001600020549050919050565b600e80546112a890613796565b80601f01602080910402602001604051908101604052809291908181526020018280546112d490613796565b80156113215780601f106112f657610100808354040283529160200191611321565b820191906000526020600020905b81548152906001019060200180831161130457829003601f168201915b505050505081565b60008061133660086120e0565b9050600960009054906101000a900473ffffffffffffffffffffffffffffffffffffffff1673ffffffffffffffffffffffffffffffffffffffff1663eaf5d04e30600a54600d61138586611894565b8f8f8f8f60405160200161139e96959493929190614187565b6040516020818303038152906040526040518463ffffffff1660e01b81526004016113cb939291906139b9565b600060405180830381600087803b1580156113e557600080fd5b505af11580156113f9573d6000803e3d6000fd5b50505050600960009054906101000a900473ffffffffffffffffffffffffffffffffffffffff1673ffffffffffffffffffffffffffffffffffffffff1663eaf5d04e30600b54600e61144a86611894565b8b8b8b8b60405160200161146396959493929190614302565b6040516020818303038152906040526040518463ffffffff1660e01b8152600401611490939291906139b9565b600060405180830381600087803b1580156114aa57600080fd5b505af11580156114be573d6000803e3d6000fd5b505050506114cc8b826120ee565b6001600f6000838152602001908152602001600020819055506114ef600861210c565b3373ffffffffffffffffffffffffffffffffffffffff167f061b141191d79859f7cc6256c1b9e5f380052197831efe9135841c0ff4de7e6342836040516115379291906143dd565b60405180910390a2809150509998505050505050505050565b60006006600084815260200190815260200160002060000160008373ffffffffffffffffffffffffffffffffffffffff1673ffffffffffffffffffffffffffffffffffffffff16815260200190815260200160002060009054906101000a900460ff16905092915050565b6060600180546115ca90613796565b80601f01602080910402602001604051908101604052809291908181526020018280546115f690613796565b80156116435780601f1061161857610100808354040283529160200191611643565b820191906000526020600020905b81548152906001019060200180831161162657829003601f168201915b5050505050905090565b6000801b81565b61166661165f611b4c565b8383612122565b5050565b60606000611676611aba565b905080600d60405160200161168c929190613a9d565b60405160208183030381529060405291505090565b6116b26116ac611b4c565b83611c0d565b6116f1576040517f08c379a00000000000000000000000000000000000000000000000000000000081526004016116e890613c75565b60405180910390fd5b6116fd8484848461228f565b50505050565b606061170e826122eb565b61174d576040517f08c379a000000000000000000000000000000000000000000000000000000000815260040161174490614478565b60405180910390fd5b6000611757611aba565b905060008151141561177b57604051806020016040528060008152509150506117da565b6000600d600e600d600e60405160200161179894939291906147bb565b604051602081830303815290604052905081816117b486611894565b6040516020016117c6939291906148c8565b604051602081830303815290604052925050505b919050565b6117e882610ab7565b6117f181611f09565b6117fb8383611ffe565b505050565b6000600560008473ffffffffffffffffffffffffffffffffffffffff1673ffffffffffffffffffffffffffffffffffffffff16815260200190815260200160002060008373ffffffffffffffffffffffffffffffffffffffff1673ffffffffffffffffffffffffffffffffffffffff16815260200190815260200160002060009054906101000a900460ff16905092915050565b606060008214156118dc576040518060400160405280600181526020017f300000000000000000000000000000000000000000000000000000000000000081525090506119f0565b600082905060005b6000821461190e5780806118f79061490f565b915050600a826119079190614987565b91506118e4565b60008167ffffffffffffffff81111561192a57611929612c6e565b5b6040519080825280601f01601f19166020018201604052801561195c5781602001600182028036833780820191505090505b5090505b600085146119e95760018261197591906149b8565b9150600a8561198491906149ec565b60306119909190613cc4565b60f81b8183815181106119a6576119a5614a1d565b5b60200101907effffffffffffffffffffffffffffffffffffffffffffffffffffffffffffff1916908160001a905350600a856119e29190614987565b9450611960565b8093505050505b919050565b60007f7965db0b000000000000000000000000000000000000000000000000000000007bffffffffffffffffffffffffffffffffffffffffffffffffffffffff1916827bffffffffffffffffffffffffffffffffffffffffffffffffffffffff19161480611a685750611a6782612357565b5b9050919050565b611a78816122eb565b611ab7576040517f08c379a0000000000000000000000000000000000000000000000000000000008152600401611aae90614063565b60405180910390fd5b50565b606060078054611ac990613796565b80601f0160208091040260200160405190810160405280929190818152602001828054611af590613796565b8015611b425780601f10611b1757610100808354040283529160200191611b42565b820191906000526020600020905b815481529060010190602001808311611b2557829003601f168201915b5050505050905090565b600033905090565b816004600083815260200190815260200160002060006101000a81548173ffffffffffffffffffffffffffffffffffffffff021916908373ffffffffffffffffffffffffffffffffffffffff160217905550808273ffffffffffffffffffffffffffffffffffffffff16611bc783611131565b73ffffffffffffffffffffffffffffffffffffffff167f8c5be1e5ebec7d5bd14f71427d1e84f3dd0314c0f7b2291e5b200ac8c7c3b92560405160405180910390a45050565b600080611c1983611131565b90508073ffffffffffffffffffffffffffffffffffffffff168473ffffffffffffffffffffffffffffffffffffffff161480611c5b5750611c5a8185611800565b5b80611c9957508373ffffffffffffffffffffffffffffffffffffffff16611c81846108c2565b73ffffffffffffffffffffffffffffffffffffffff16145b91505092915050565b8273ffffffffffffffffffffffffffffffffffffffff16611cc282611131565b73ffffffffffffffffffffffffffffffffffffffff1614611d18576040517f08c379a0000000000000000000000000000000000000000000000000000000008152600401611d0f90614abe565b60405180910390fd5b600073ffffffffffffffffffffffffffffffffffffffff168273ffffffffffffffffffffffffffffffffffffffff161415611d88576040517f08c379a0000000000000000000000000000000000000000000000000000000008152600401611d7f90614b50565b60405180910390fd5b611d93838383612439565b611d9e600082611b54565b6001600360008573ffffffffffffffffffffffffffffffffffffffff1673ffffffffffffffffffffffffffffffffffffffff1681526020019081526020016000206000828254611dee91906149b8565b925050819055506001600360008473ffffffffffffffffffffffffffffffffffffffff1673ffffffffffffffffffffffffffffffffffffffff1681526020019081526020016000206000828254611e459190613cc4565b92505081905550816002600083815260200190815260200160002060006101000a81548173ffffffffffffffffffffffffffffffffffffffff021916908373ffffffffffffffffffffffffffffffffffffffff160217905550808273ffffffffffffffffffffffffffffffffffffffff168473ffffffffffffffffffffffffffffffffffffffff167fddf252ad1be2c89b69c2b068fc378daa952ba7f163c4a11628f55a4df523b3ef60405160405180910390a4611f0483838361243e565b505050565b611f1a81611f15611b4c565b612443565b50565b611f278282611550565b611ffa5760016006600084815260200190815260200160002060000160008373ffffffffffffffffffffffffffffffffffffffff1673ffffffffffffffffffffffffffffffffffffffff16815260200190815260200160002060006101000a81548160ff021916908315150217905550611f9f611b4c565b73ffffffffffffffffffffffffffffffffffffffff168173ffffffffffffffffffffffffffffffffffffffff16837f2f8788117e7eff1d82e926ec794901d17c78024a50270940304540a733656f0d60405160405180910390a45b5050565b6120088282611550565b156120dc5760006006600084815260200190815260200160002060000160008373ffffffffffffffffffffffffffffffffffffffff1673ffffffffffffffffffffffffffffffffffffffff16815260200190815260200160002060006101000a81548160ff021916908315150217905550612081611b4c565b73ffffffffffffffffffffffffffffffffffffffff168173ffffffffffffffffffffffffffffffffffffffff16837ff6391f5c32d9c69d2a47ea670b442974b53935d1edc7fd64eb21e047a839171b60405160405180910390a45b5050565b600081600001549050919050565b6121088282604051806020016040528060008152506124e0565b5050565b6001816000016000828254019250508190555050565b8173ffffffffffffffffffffffffffffffffffffffff168373ffffffffffffffffffffffffffffffffffffffff161415612191576040517f08c379a000000000000000000000000000000000000000000000000000000000815260040161218890614bbc565b60405180910390fd5b80600560008573ffffffffffffffffffffffffffffffffffffffff1673ffffffffffffffffffffffffffffffffffffffff16815260200190815260200160002060008473ffffffffffffffffffffffffffffffffffffffff1673ffffffffffffffffffffffffffffffffffffffff16815260200190815260200160002060006101000a81548160ff0219169083151502179055508173ffffffffffffffffffffffffffffffffffffffff168373ffffffffffffffffffffffffffffffffffffffff167f17307eab39ab6107e8899845ad3d59bd9653f200f220920489ca2b5937696c31836040516122829190612ea8565b60405180910390a3505050565b61229a848484611ca2565b6122a68484848461253b565b6122e5576040517f08c379a00000000000000000000000000000000000000000000000000000000081526004016122dc90614c4e565b60405180910390fd5b50505050565b60008073ffffffffffffffffffffffffffffffffffffffff166002600084815260200190815260200160002060009054906101000a900473ffffffffffffffffffffffffffffffffffffffff1673ffffffffffffffffffffffffffffffffffffffff1614159050919050565b60007f80ac58cd000000000000000000000000000000000000000000000000000000007bffffffffffffffffffffffffffffffffffffffffffffffffffffffff1916827bffffffffffffffffffffffffffffffffffffffffffffffffffffffff1916148061242257507f5b5e139f000000000000000000000000000000000000000000000000000000007bffffffffffffffffffffffffffffffffffffffffffffffffffffffff1916827bffffffffffffffffffffffffffffffffffffffffffffffffffffffff1916145b806124325750612431826126c3565b5b9050919050565b505050565b505050565b61244d8282611550565b6124dc576124728173ffffffffffffffffffffffffffffffffffffffff16601461272d565b6124808360001c602061272d565b604051602001612491929190614d06565b6040516020818303038152906040526040517f08c379a00000000000000000000000000000000000000000000000000000000081526004016124d39190612f4b565b60405180910390fd5b5050565b6124ea8383612969565b6124f7600084848461253b565b612536576040517f08c379a000000000000000000000000000000000000000000000000000000000815260040161252d90614c4e565b60405180910390fd5b505050565b600061255c8473ffffffffffffffffffffffffffffffffffffffff16612b43565b156126b6578373ffffffffffffffffffffffffffffffffffffffff1663150b7a02612585611b4c565b8786866040518563ffffffff1660e01b81526004016125a79493929190614d95565b6020604051808303816000875af19250505080156125e357506040513d601f19601f820116820180604052508101906125e09190614df6565b60015b612666573d8060008114612613576040519150601f19603f3d011682016040523d82523d6000602084013e612618565b606091505b5060008151141561265e576040517f08c379a000000000000000000000000000000000000000000000000000000000815260040161265590614c4e565b60405180910390fd5b805181602001fd5b63150b7a0260e01b7bffffffffffffffffffffffffffffffffffffffffffffffffffffffff1916817bffffffffffffffffffffffffffffffffffffffffffffffffffffffff1916149150506126bb565b600190505b949350505050565b60007f01ffc9a7000000000000000000000000000000000000000000000000000000007bffffffffffffffffffffffffffffffffffffffffffffffffffffffff1916827bffffffffffffffffffffffffffffffffffffffffffffffffffffffff1916149050919050565b6060600060028360026127409190614e23565b61274a9190613cc4565b67ffffffffffffffff81111561276357612762612c6e565b5b6040519080825280601f01601f1916602001820160405280156127955781602001600182028036833780820191505090505b5090507f3000000000000000000000000000000000000000000000000000000000000000816000815181106127cd576127cc614a1d565b5b60200101907effffffffffffffffffffffffffffffffffffffffffffffffffffffffffffff1916908160001a9053507f78000000000000000000000000000000000000000000000000000000000000008160018151811061283157612830614a1d565b5b60200101907effffffffffffffffffffffffffffffffffffffffffffffffffffffffffffff1916908160001a905350600060018460026128719190614e23565b61287b9190613cc4565b90505b600181111561291b577f3031323334353637383961626364656600000000000000000000000000000000600f8616601081106128bd576128bc614a1d565b5b1a60f81b8282815181106128d4576128d3614a1d565b5b60200101907effffffffffffffffffffffffffffffffffffffffffffffffffffffffffffff1916908160001a905350600485901c94508061291490614e7d565b905061287e565b506000841461295f576040517f08c379a000000000000000000000000000000000000000000000000000000000815260040161295690614ef3565b60405180910390fd5b8091505092915050565b600073ffffffffffffffffffffffffffffffffffffffff168273ffffffffffffffffffffffffffffffffffffffff1614156129d9576040517f08c379a00000000000000000000000000000000000000000000000000000000081526004016129d090614f5f565b60405180910390fd5b6129e2816122eb565b15612a22576040517f08c379a0000000000000000000000000000000000000000000000000000000008152600401612a1990614fcb565b60405180910390fd5b612a2e60008383612439565b6001600360008473ffffffffffffffffffffffffffffffffffffffff1673ffffffffffffffffffffffffffffffffffffffff1681526020019081526020016000206000828254612a7e9190613cc4565b92505081905550816002600083815260200190815260200160002060006101000a81548173ffffffffffffffffffffffffffffffffffffffff021916908373ffffffffffffffffffffffffffffffffffffffff160217905550808273ffffffffffffffffffffffffffffffffffffffff16600073ffffffffffffffffffffffffffffffffffffffff167fddf252ad1be2c89b69c2b068fc378daa952ba7f163c4a11628f55a4df523b3ef60405160405180910390a4612b3f6000838361243e565b5050565b6000808273ffffffffffffffffffffffffffffffffffffffff163b119050919050565b828054612b7290613796565b90600052602060002090601f016020900481019282612b945760008555612bdb565b82601f10612bad57805160ff1916838001178555612bdb565b82800160010185558215612bdb579182015b82811115612bda578251825591602001919060010190612bbf565b5b509050612be89190612bec565b5090565b5b80821115612c05576000816000905550600101612bed565b5090565b6000604051905090565b600080fd5b600080fd5b6000819050919050565b612c3081612c1d565b8114612c3b57600080fd5b50565b600081359050612c4d81612c27565b92915050565b600080fd5b600080fd5b6000601f19601f8301169050919050565b7f4e487b7100000000000000000000000000000000000000000000000000000000600052604160045260246000fd5b612ca682612c5d565b810181811067ffffffffffffffff82111715612cc557612cc4612c6e565b5b80604052505050565b6000612cd8612c09565b9050612ce48282612c9d565b919050565b600067ffffffffffffffff821115612d0457612d03612c6e565b5b612d0d82612c5d565b9050602081019050919050565b82818337600083830152505050565b6000612d3c612d3784612ce9565b612cce565b905082815260208101848484011115612d5857612d57612c58565b5b612d63848285612d1a565b509392505050565b600082601f830112612d8057612d7f612c53565b5b8135612d90848260208601612d29565b91505092915050565b600080600060608486031215612db257612db1612c13565b5b6000612dc086828701612c3e565b9350506020612dd186828701612c3e565b925050604084013567ffffffffffffffff811115612df257612df1612c18565b5b612dfe86828701612d6b565b9150509250925092565b60007fffffffff0000000000000000000000000000000000000000000000000000000082169050919050565b612e3d81612e08565b8114612e4857600080fd5b50565b600081359050612e5a81612e34565b92915050565b600060208284031215612e7657612e75612c13565b5b6000612e8484828501612e4b565b91505092915050565b60008115159050919050565b612ea281612e8d565b82525050565b6000602082019050612ebd6000830184612e99565b92915050565b600081519050919050565b600082825260208201905092915050565b60005b83811015612efd578082015181840152602081019050612ee2565b83811115612f0c576000848401525b50505050565b6000612f1d82612ec3565b612f278185612ece565b9350612f37818560208601612edf565b612f4081612c5d565b840191505092915050565b60006020820190508181036000830152612f658184612f12565b905092915050565b600060208284031215612f8357612f82612c13565b5b6000612f9184828501612c3e565b91505092915050565b600073ffffffffffffffffffffffffffffffffffffffff82169050919050565b6000612fc582612f9a565b9050919050565b612fd581612fba565b82525050565b6000602082019050612ff06000830184612fcc565b92915050565b612fff81612fba565b811461300a57600080fd5b50565b60008135905061301c81612ff6565b92915050565b6000806040838503121561303957613038612c13565b5b60006130478582860161300d565b925050602061305885828601612c3e565b9150509250929050565b60008060006060848603121561307b5761307a612c13565b5b60006130898682870161300d565b935050602061309a8682870161300d565b92505060406130ab86828701612c3e565b9150509250925092565b6000819050919050565b6130c8816130b5565b81146130d357600080fd5b50565b6000813590506130e5816130bf565b92915050565b60006020828403121561310157613100612c13565b5b600061310f848285016130d6565b91505092915050565b613121816130b5565b82525050565b600060208201905061313c6000830184613118565b92915050565b60008060006060848603121561315b5761315a612c13565b5b600061316986828701612c3e565b935050602084013567ffffffffffffffff81111561318a57613189612c18565b5b61319686828701612d6b565b925050604084013567ffffffffffffffff8111156131b7576131b6612c18565b5b6131c386828701612d6b565b9150509250925092565b6131d681612c1d565b82525050565b60006020820190506131f160008301846131cd565b92915050565b6000806040838503121561320e5761320d612c13565b5b600061321c858286016130d6565b925050602061322d8582860161300d565b9150509250929050565b60006020828403121561324d5761324c612c13565b5b600082013567ffffffffffffffff81111561326b5761326a612c18565b5b61327784828501612d6b565b91505092915050565b60006020828403121561329657613295612c13565b5b60006132a48482850161300d565b91505092915050565b60008060008060008060008060006101208a8c0312156132d0576132cf612c13565b5b60006132de8c828d0161300d565b99505060208a013567ffffffffffffffff8111156132ff576132fe612c18565b5b61330b8c828d01612d6b565b98505060408a013567ffffffffffffffff81111561332c5761332b612c18565b5b6133388c828d01612d6b565b97505060608a013567ffffffffffffffff81111561335957613358612c18565b5b6133658c828d01612d6b565b96505060808a013567ffffffffffffffff81111561338657613385612c18565b5b6133928c828d01612d6b565b95505060a08a013567ffffffffffffffff8111156133b3576133b2612c18565b5b6133bf8c828d01612d6b565b94505060c08a013567ffffffffffffffff8111156133e0576133df612c18565b5b6133ec8c828d01612d6b565b93505060e08a013567ffffffffffffffff81111561340d5761340c612c18565b5b6134198c828d01612d6b565b9250506101008a013567ffffffffffffffff81111561343b5761343a612c18565b5b6134478c828d01612d6b565b9150509295985092959850929598565b61346081612e8d565b811461346b57600080fd5b50565b60008135905061347d81613457565b92915050565b6000806040838503121561349a57613499612c13565b5b60006134a88582860161300d565b92505060206134b98582860161346e565b9150509250929050565b600067ffffffffffffffff8211156134de576134dd612c6e565b5b6134e782612c5d565b9050602081019050919050565b6000613507613502846134c3565b612cce565b90508281526020810184848401111561352357613522612c58565b5b61352e848285612d1a565b509392505050565b600082601f83011261354b5761354a612c53565b5b813561355b8482602086016134f4565b91505092915050565b6000806000806080858703121561357e5761357d612c13565b5b600061358c8782880161300d565b945050602061359d8782880161300d565b93505060406135ae87828801612c3e565b925050606085013567ffffffffffffffff8111156135cf576135ce612c18565b5b6135db87828801613536565b91505092959194509250565b600080604083850312156135fe576135fd612c13565b5b600061360c8582860161300d565b925050602061361d8582860161300d565b9150509250929050565b60008151905061363681612ff6565b92915050565b60006020828403121561365257613651612c13565b5b600061366084828501613627565b91505092915050565b7f496e76616c6964206f776e657200000000000000000000000000000000000000600082015250565b600061369f600d83612ece565b91506136aa82613669565b602082019050919050565b600060208201905081810360008301526136ce81613692565b9050919050565b7f74726169745f6964206e6f7420666f756e642000000000000000000000000000600082015250565b600061370b601383612ece565b9150613716826136d5565b602082019050919050565b6000602082019050818103600083015261373a816136fe565b9050919050565b7f5550444154452000000000000000000000000000000000000000000000000000815250565b7f4e487b7100000000000000000000000000000000000000000000000000000000600052602260045260246000fd5b600060028204905060018216806137ae57607f821691505b602082108114156137c2576137c1613767565b5b50919050565b600081905092915050565b60008190508160005260206000209050919050565b600081546137f581613796565b6137ff81866137c8565b9450600182166000811461381a576001811461382b5761385e565b60ff1983168652818601935061385e565b613834856137d3565b60005b8381101561385657815481890152600182019150602081019050613837565b838801955050505b50505092915050565b7f205345542076616c7565203d2027000000000000000000000000000000000000815250565b600061389882612ec3565b6138a281856137c8565b93506138b2818560208601612edf565b80840191505092915050565b7f27205748455245206d61696e7461626c655f746f6b656e6964203d2000000000815250565b7f20414e442074726169745f6964203d2000000000000000000000000000000000815250565b7f3b00000000000000000000000000000000000000000000000000000000000000815250565b600061393b82613741565b60078201915061394b82876137e8565b915061395682613867565b600e82019150613966828661388d565b9150613971826138be565b601c82019150613981828561388d565b915061398c826138e4565b60108201915061399c828461388d565b91506139a78261390a565b60018201915081905095945050505050565b60006060820190506139ce6000830186612fcc565b6139db60208301856131cd565b81810360408301526139ed8184612f12565b9050949350505050565b600060a082019050613a0c60008301886131cd565b613a1960208301876131cd565b8181036040830152613a2b8186612f12565b9050613a3a60608301856131cd565b613a4760808301846131cd565b9695505050505050565b7f6d6f64653d6c69737426733d0000000000000000000000000000000000000000815250565b7f53454c4543542532302a25323046524f4d253230000000000000000000000000815250565b6000613aa9828561388d565b9150613ab482613a51565b600c82019150613ac382613a77565b601482019150613ad382846137e8565b91508190509392505050565b7f4552433732313a20617070726f76616c20746f2063757272656e74206f776e6560008201527f7200000000000000000000000000000000000000000000000000000000000000602082015250565b6000613b3b602183612ece565b9150613b4682613adf565b604082019050919050565b60006020820190508181036000830152613b6a81613b2e565b9050919050565b7f4552433732313a20617070726f76652063616c6c6572206973206e6f7420746f60008201527f6b656e206f776e6572206e6f7220617070726f76656420666f7220616c6c0000602082015250565b6000613bcd603e83612ece565b9150613bd882613b71565b604082019050919050565b60006020820190508181036000830152613bfc81613bc0565b9050919050565b7f4552433732313a2063616c6c6572206973206e6f7420746f6b656e206f776e6560008201527f72206e6f7220617070726f766564000000000000000000000000000000000000602082015250565b6000613c5f602e83612ece565b9150613c6a82613c03565b604082019050919050565b60006020820190508181036000830152613c8e81613c52565b9050919050565b7f4e487b7100000000000000000000000000000000000000000000000000000000600052601160045260246000fd5b6000613ccf82612c1d565b9150613cda83612c1d565b9250827fffffffffffffffffffffffffffffffffffffffffffffffffffffffffffffffff03821115613d0f57613d0e613c95565b5b828201905092915050565b7f494e5345525420494e544f200000000000000000000000000000000000000000815250565b7f20286d61696e7461626c655f746f6b656e69642c2074726169745f747970652c60008201527f2076616c75652c2074726169745f6964292056414c5545532028270000000000602082015250565b6000613d9c603b836137c8565b9150613da782613d40565b603b82019050919050565b7f272c202700000000000000000000000000000000000000000000000000000000815250565b7f2729000000000000000000000000000000000000000000000000000000000000815250565b6000613e0982613d1a565b600c82019150613e1982886137e8565b9150613e2482613d8f565b9150613e30828761388d565b9150613e3b82613db2565b600482019150613e4b828661388d565b9150613e5682613db2565b600482019150613e66828561388d565b9150613e7182613db2565b600482019150613e81828461388d565b9150613e8c82613dd8565b6002820191508190509695505050505050565b6000606082019050613eb460008301866131cd565b613ec160208301856131cd565b613ece60408301846131cd565b949350505050565b7f205345542074726169745f74797065203d202700000000000000000000000000815250565b6000613f0782613741565b600782019150613f1782876137e8565b9150613f2282613ed6565b601382019150613f32828661388d565b9150613f3d826138be565b601c82019150613f4d828561388d565b9150613f58826138e4565b601082019150613f68828461388d565b9150613f738261390a565b60018201915081905095945050505050565b7f416363657373436f6e74726f6c3a2063616e206f6e6c792072656e6f756e636560008201527f20726f6c657320666f722073656c660000000000000000000000000000000000602082015250565b6000613fe1602f83612ece565b9150613fec82613f85565b604082019050919050565b6000602082019050818103600083015261401081613fd4565b9050919050565b7f4552433732313a20696e76616c696420746f6b656e2049440000000000000000600082015250565b600061404d601883612ece565b915061405882614017565b602082019050919050565b6000602082019050818103600083015261407c81614040565b9050919050565b7f4552433732313a2061646472657373207a65726f206973206e6f74206120766160008201527f6c6964206f776e65720000000000000000000000000000000000000000000000602082015250565b60006140df602983612ece565b91506140ea82614083565b604082019050919050565b6000602082019050818103600083015261410e816140d2565b9050919050565b7f2028746f6b656e69642c206e616d652c206465736372697074696f6e2c20696d60008201527f6167652c2065787465726e616c5f75726c292056414c55455320282700000000602082015250565b6000614171603c836137c8565b915061417c82614115565b603c82019050919050565b600061419282613d1a565b600c820191506141a282896137e8565b91506141ad82614164565b91506141b9828861388d565b91506141c482613db2565b6004820191506141d4828761388d565b91506141df82613db2565b6004820191506141ef828661388d565b91506141fa82613db2565b60048201915061420a828561388d565b915061421582613db2565b600482019150614225828461388d565b915061423082613dd8565b600282019150819050979650505050505050565b7f20286d61696e7461626c655f746f6b656e69642c2069636f6e2c20646973706c60008201527f61795f747970652c2074726169745f747970652c2076616c75652c207472616960208201527f745f6964292056414c5545532028270000000000000000000000000000000000604082015250565b60006142c6604f836137c8565b91506142d182614244565b604f82019050919050565b7f3100000000000000000000000000000000000000000000000000000000000000815250565b600061430d82613d1a565b600c8201915061431d82896137e8565b9150614328826142b9565b9150614334828861388d565b915061433f82613db2565b60048201915061434f828761388d565b915061435a82613db2565b60048201915061436a828661388d565b915061437582613db2565b600482019150614385828561388d565b915061439082613db2565b6004820191506143a0828461388d565b91506143ab82613db2565b6004820191506143ba826142dc565b6001820191506143c982613dd8565b600282019150819050979650505050505050565b60006040820190506143f260008301856131cd565b6143ff60208301846131cd565b9392505050565b7f4552433732314d657461646174613a2055524920717565727920666f72206e6f60008201527f6e6578697374656e7420746f6b656e0000000000000000000000000000000000602082015250565b6000614462602f83612ece565b915061446d82614406565b604082019050919050565b6000602082019050818103600083015261449181614455565b9050919050565b7f53454c4543542532306a736f6e5f6f626a65637425323825323769642532372560008201527f3243746f6b656e69642532432532376e616d652532372532436e616d6525324360208201527f2532376465736372697074696f6e2532372532436465736372697074696f6e2560408201527f3243253237696d616765253237253243696d616765253243253237657874657260608201527f6e616c5f75726c25323725324365787465726e616c5f75726c2532432532376160808201527f7474726962757465732532372532436a736f6e5f67726f75705f61727261792560a08201527f32386a736f6e5f6f626a65637425323825323769636f6e25323725324369636f60c08201527f6e253243253237646973706c61795f74797065253237253243646973706c617960e08201527f5f7479706525324325323774726169745f7479706525323725324374726169746101008201527f5f7479706525324325323776616c756525323725324376616c756525323925326101208201527f3925323925323046524f4d25323000000000000000000000000000000000000061014082015250565b600061464e61014e836137c8565b915061465982614498565b61014e82019050919050565b7f2532304a4f494e25323000000000000000000000000000000000000000000000600082015250565b600061469b600a836137c8565b91506146a682614665565b600a82019050919050565b7f2532304f4e253230000000000000000000000000000000000000000000000000600082015250565b60006146e76008836137c8565b91506146f2826146b1565b600882019050919050565b7f253245746f6b656e696425323025334425323000000000000000000000000000600082015250565b60006147336013836137c8565b915061473e826146fd565b601382019050919050565b7f2532456d61696e7461626c655f746f6b656e696425323057484552452532307460008201527f6f6b656e69642533440000000000000000000000000000000000000000000000602082015250565b60006147a56029836137c8565b91506147b082614749565b602982019050919050565b60006147c682614640565b91506147d282876137e8565b91506147dd8261468e565b91506147e982866137e8565b91506147f4826146da565b915061480082856137e8565b915061480b82614726565b915061481782846137e8565b915061482282614798565b915081905095945050505050565b7f6d6f64653d6c69737426733d0000000000000000000000000000000000000000600082015250565b6000614866600c836137c8565b915061487182614830565b600c82019050919050565b7f25323067726f75702532306279253230746f6b656e6964000000000000000000600082015250565b60006148b26017836137c8565b91506148bd8261487c565b601782019050919050565b60006148d4828661388d565b91506148df82614859565b91506148eb828561388d565b91506148f7828461388d565b9150614902826148a5565b9150819050949350505050565b600061491a82612c1d565b91507fffffffffffffffffffffffffffffffffffffffffffffffffffffffffffffffff82141561494d5761494c613c95565b5b600182019050919050565b7f4e487b7100000000000000000000000000000000000000000000000000000000600052601260045260246000fd5b600061499282612c1d565b915061499d83612c1d565b9250826149ad576149ac614958565b5b828204905092915050565b60006149c382612c1d565b91506149ce83612c1d565b9250828210156149e1576149e0613c95565b5b828203905092915050565b60006149f782612c1d565b9150614a0283612c1d565b925082614a1257614a11614958565b5b828206905092915050565b7f4e487b7100000000000000000000000000000000000000000000000000000000600052603260045260246000fd5b7f4552433732313a207472616e736665722066726f6d20696e636f72726563742060008201527f6f776e6572000000000000000000000000000000000000000000000000000000602082015250565b6000614aa8602583612ece565b9150614ab382614a4c565b604082019050919050565b60006020820190508181036000830152614ad781614a9b565b9050919050565b7f4552433732313a207472616e7366657220746f20746865207a65726f2061646460008201527f7265737300000000000000000000000000000000000000000000000000000000602082015250565b6000614b3a602483612ece565b9150614b4582614ade565b604082019050919050565b60006020820190508181036000830152614b6981614b2d565b9050919050565b7f4552433732313a20617070726f766520746f2063616c6c657200000000000000600082015250565b6000614ba6601983612ece565b9150614bb182614b70565b602082019050919050565b60006020820190508181036000830152614bd581614b99565b9050919050565b7f4552433732313a207472616e7366657220746f206e6f6e20455243373231526560008201527f63656976657220696d706c656d656e7465720000000000000000000000000000602082015250565b6000614c38603283612ece565b9150614c4382614bdc565b604082019050919050565b60006020820190508181036000830152614c6781614c2b565b9050919050565b7f416363657373436f6e74726f6c3a206163636f756e7420000000000000000000600082015250565b6000614ca46017836137c8565b9150614caf82614c6e565b601782019050919050565b7f206973206d697373696e6720726f6c6520000000000000000000000000000000600082015250565b6000614cf06011836137c8565b9150614cfb82614cba565b601182019050919050565b6000614d1182614c97565b9150614d1d828561388d565b9150614d2882614ce3565b9150614d34828461388d565b91508190509392505050565b600081519050919050565b600082825260208201905092915050565b6000614d6782614d40565b614d718185614d4b565b9350614d81818560208601612edf565b614d8a81612c5d565b840191505092915050565b6000608082019050614daa6000830187612fcc565b614db76020830186612fcc565b614dc460408301856131cd565b8181036060830152614dd68184614d5c565b905095945050505050565b600081519050614df081612e34565b92915050565b600060208284031215614e0c57614e0b612c13565b5b6000614e1a84828501614de1565b91505092915050565b6000614e2e82612c1d565b9150614e3983612c1d565b9250817fffffffffffffffffffffffffffffffffffffffffffffffffffffffffffffffff0483118215151615614e7257614e71613c95565b5b828202905092915050565b6000614e8882612c1d565b91506000821415614e9c57614e9b613c95565b5b600182039050919050565b7f537472696e67733a20686578206c656e67746820696e73756666696369656e74600082015250565b6000614edd602083612ece565b9150614ee882614ea7565b602082019050919050565b60006020820190508181036000830152614f0c81614ed0565b9050919050565b7f4552433732313a206d696e7420746f20746865207a65726f2061646472657373600082015250565b6000614f49602083612ece565b9150614f5482614f13565b602082019050919050565b60006020820190508181036000830152614f7881614f3c565b9050919050565b7f4552433732313a20746f6b656e20616c7265616479206d696e74656400000000600082015250565b6000614fb5601c83612ece565b9150614fc082614f7f565b602082019050919050565b60006020820190508181036000830152614fe481614fa8565b905091905056fea26469706673582212207a21410203416d1ba79980a99dfb0b366a89a7a06d3274af6b4792c46fc2476464736f6c634300080c003368747470733a2f2f746573746e65742e7461626c656c616e642e6e6574776f726b2f71756572793f",
  "linkReferences": {},
  "deployedLinkReferences": {}
}